:100000000C94D81F0C9409200C9409200C940920FE
:100010000C9409200C9409200C9409200C940920BC
:100020000C9409200C9409200C9409200C940920AC
:100030000C9409200C9409200C9409200C9409209C
:100040000C9409200C94EE880C9409200C9409203F
:100050000C9409200C9409200C94ECB90C94819E0A
:100060000C9409200C9492400C9488400C94092024
:100070000C9409200C9409200C9409200C9409205C
:100080000C945C380C9409200C9409200C940920E1
:100090000C9409200C9409200C9409200C9409203C
:1000A0000C9409200C9409200C942E380C940920EF
:1000B0000C9409200C9409200C9409200C9409201C
:1000C0000C9409200C9409200C9409200C9409200C
:1000D0000C9409200C9409200C9409200C940920FC
:1000E0000C940920C840DA40EC40FD4005413841FD
:1000F000094138410D4111413841154119411D4116
:100100002641384131418C886F8872888F88758884
:1001100078887B8887887E889A8881888488D0AB15
:100120003FAA78AA0CAC78AA78AA78AA78AA78AA62
:1001300078AA78AA78AA78AA78AA78AA78AA78AAAF
:1001400078AA78AA78AA78AA78AA78AA78AA78AA9F
:1001500078AA78AA78AA78AA78AA06AC78AA78AAFF
:1001600078AA78AA78AA78AA78AA78AADFAB78AA17
:1001700078AA78AA78AA78AA78AA78AA78AA78AA6F
:1001800078AA23AC75AA6B01B7012B027D01C102CD
:10019000E5013F025101B901210111013302F901C9
:1001A0007502E50189019D012D0123015F023102E4
:1001B000BF028D018F011B01E701B9021102AF02DD
:1001C000CD010F0241028F015B025701ED01084A88
:1001D000D73B3BCE016E84BCBFFDC12F3D6C74315B
:1001E0009ABD56833DDA3D00C77F11BED9E4BB4CB2
:1001F0003E916BAAAABE000000803F05A84CCDB27C
:10020000D44EB93836A9020C50B9918688083CA65C
:10021000AAAA2ABE000000803F000C94466E0C94EF
:1002200080850D94A2460C94B97F0C94E57F0C94C4
:10023000766E0C9409410D94B1480C945C850C9435
:100240000CAC0D949E460D9489480C9475880C94C2
:100250009AEC0C94706E0C9484850D94BE460C94AC
:10026000BED20C94586E0C94886E0C949B6C0C94BB
:100270008C880C94A9EC0C941E750D94C5370C94C5
:10028000526E0D9437220D94D7370D9424340C946C
:1002900070850C94F0740C94CC7F0C9460850D9454
:1002A00022220D9494460D94CD210C9431410D944D
:1002B0000C490C940D410C944F880C94FD400C9407
:1002C000176C0C94F5810C94F5F00C948D850C94BE
:1002D0005E6E0C94DF6E0D9489460D944B2C0C943D
:1002E00078AA0C94D0740C94C1740C942BEF0C94D9
:1002F0000DF50C9481880C94826E0D947F460C94BD
:10030000826C0C9425F50C947C6E0C9418F50C946E
:10031000EAD20D94B6460C9406AC0D94A7480D9401
:1003200020490C9488750C94CA6B0D941E220C9471
:10033000F9EE0C9478880C9499850D94BA460C9437
:10034000AFAD0C948F880C9422930C9484880D94F8
:1003500049280C9485AD0C94DCF90C94AB700C948A
:10036000A4EC0C9483800D9409340C946C850D944A
:100370008C460D949A460C941FEF0C949D5F0D943F
:10038000C8590C9419EF0C9468CF0C9406CC0D94BA
:10039000D3330C9487880D948F330D94DF480C94DD
:1003A000F2EF0C948FCA0C94DFAB0C94C1710C94D7
:1003B00015410C9407750C94EAF40C9493CA0C94B0
:1003C0003FAA0C9482B20C9485860D94C3460D947A
:1003D000B9480C9405410C946ECF0D9416490C94B9
:1003E00025EF0D940F280C9419410C9423AC0C9418
:1003F0008C750D94AC460C94AF780C946ACF0C9429
:10040000566C0C948A850C9413EF0D94AE590C9491
:1004100077EF0D94B9390C9474850C9426410D94A2
:10042000EE480D94CB480D94A6350C945DF20C94D7
:10043000D76C0C943D6C0C944A830C9443880C94B8
:10044000696C0C94B8850C94FF5F0D94BB370C94C9
:100450007E9E0C94AC850D947B460D949D330C943C
:1004600068850D9493480D94A8460C946F880D945C
:1004700036340D94F5590C9472880C94B56E0D9425
:1004800090460D94F8480C949FEC0C9438410C94D1
:10049000C8400C9495EC0C94C0A90C94CC6C0D94B1
:1004A000D1370C94765F0C9496EF0C94D9740C941D
:1004B000FC6B0C947C850D9402490C949A880D94E5
:1004C0008E480C949D720C94BDA90C9436EF0C943C
:1004D00075AA0C94157D0C946A6E0C941F6F0C9485
:1004E0002A6C0C94976E0C947B880D94B0460C94F7
:1004F000F4EE0C94EAEF0C94D06E0C9466CF0C944E
:1005000035750C9491CA0C9476F60C94B16B0C94DE
:1005100095CA0C94BD6C0C94D0AB0C944C6E0C949E
:1005200023F50C94B46C0D943B220C9476F50C944A
:10053000CFA90C9430F80C94B2850C94DA400D9449
:1005400077370C94646E0C949ACD0C9478850C9447
:10055000DC6C0C9427F50C946FF50C946CCF0D9417
:10056000D5480C94E0710C9464850C94725F0C94E3
:10057000BAA90D94C1480C94E36B0C941C810D94A2
:100580009D480D9485460C94735F0D94B8330C947C
:10059000EC400C94EFEE0C94A66E0C9487850C94B2
:1005A0001D410C94C16E0C9411410D94EE330C94CA
:1005B000549E0C947E880D9433224E414E494E49F0
:1005C0005459494E46CDCCCC3D0AD7233C17B7D120
:1005D0003877CC2B329595E6241FB14F0A000020C6
:1005E000410000C84200401C4620BCBE4CCA1B0E45
:1005F0005AAEC59D7400407A10F35A00A0724E188E
:10060000090010A5D4E80000E87648170000E40BC4
:1006100054020000CA9A3B000000E1F5050000808A
:10062000969800000040420F000000A086010000E4
:1006300000102700000000E8030000000064000034
:100640000000000A00000000000100000000002C73
:1006500076D888DC674F0823DFC1DFAE59E1B1B738
:1006600096E5E3E453C63AE651997696E8E6C28405
:1006700026EB898C9B62ED407C6FFCEFBC9C9F401D
:10068000F2BAA56FA5F490055A2AF75C936B6CF942
:10069000676DC11BFCE0E40D47FEF520E6B500D018
:1006A000ED902E0300943577050080841E0800002D
:1006B000204E0A000000C80C333333330F986E12FB
:1006C000831141EF8D2114893BE65516CFFEE6DB01
:1006D00018D1844B381BF77C1D901DA4BBE424204B
:1006E0003284725E228100C9F124ECA1E53D2743EA
:1006F0004F4D4D554E49434154494F4E0044525978
:1007000052554E004552524F5253004543484F00F8
:1007100047322F47332062616420706172616D65DA
:10072000746572730A00536C6565702E2E2E005A24
:100730002050726F62652050617374204265640AB4
:10074000005A2050726F62652050617374204265B8
:1007500064004D3131372050726F626520666169E7
:100760006C65642E205265776970696E672E0A4742
:1007700032380A4731322050302053313220543041
:100780000070726F62655F726577697065004732ED
:1007900039205265747279696E67004D31313720A6
:1007A000426564206C6576656C696E672066616978
:1007B0006C65642E0A4730205A31300A4D33303090
:1007C0002050323520533838300A4D3330302050E5
:1007D00035302053300A4D333030205032352053DD
:1007E0003838300A4D333030205035302053300AFD
:1007F0004D3330302050323520533838300A4D33A5
:100800003030205035302053300A473420533100E7
:1008100070726F62655F6661696C6564004D31314D
:100820003720426564206C6576656C696E6720646C
:100830006F6E652E004D65736820706F696E742051
:100840006F7574206F662072616E67650A004D30A7
:100850002053746F70004D312053746F7000436CDF
:1008600069636B20746F20526573756D652E2E2E33
:10087000004E6F204D6F76652E00456E64206669D0
:100880006C65206C6973740A00426567696E206646
:10089000696C65206C6973740A00526573756D69C3
:1008A0006E6720534400286E6F2066696C652900CE
:1008B00043757272656E742066696C653A200044F7
:1008C000656C6574696F6E206661696C65642C2067
:1008D00046696C653A200046696C652064656C6504
:1008E0007465643A005072696E742074696D653A7B
:1008F00020000A53746174733A2046696C616D6517
:100900006E7420757365643A20002C204C6F6E67FE
:10091000657374206A6F623A2000546F74616C20B2
:1009200074696D653A20002C204661696C65643AF3
:1009300020002C2046696E69736865643A20005077
:1009400072696E74733A200053746174733A2000B4
:10095000452025530044454255473A004D31313337
:1009600020530042656420436F6F6C696E672E2EC2
:100970002E004265642048656174696E672E2E2ED4
:100980000043522D3130205633204F46462E002F43
:100990002F20004D31343520533C696E6465783E1C
:1009A000206F7574206F662072616E676520283035
:1009B0002D31290A0046523A0020466C6F773A20C2
:1009C0000050726F7465637465642050696E0A002C
:1009D00020536572766F200020643A0020693A0047
:1009E00020703A006469730043290A0061626C65F3
:1009F0006420286D696E2074656D702000436F6CF3
:100A00006420657874727564657320617265200076
:100A100046696C616D656E742072756E6F757420B9
:100A200064697374616E636520286D6D293A2000D6
:100A300046696C616D656E742072756E6F75742099
:100A4000004D34323120696E636F727265637420B9
:100A5000706172616D657465722075736167650A96
:100A600000454550524F4D204F4B0A00446F6E6574
:100A7000207072696E74696E672066696C650A0021
:100A80004D3737004D3331000B07A60A0407FD062A
:100A9000EF06554E4B4E4F574E2053544154450090
:100AA00047434F44455F494E464F004C43445F50D7
:100AB000415553455F524553554D450046494C41BC
:100AC0004D454E545F52554E4F55545F434F4E5413
:100AD000494E55450046494C414D454E545F52558F
:100AE0004E4F5554004D38373620526573706F6E37
:100AF00064696E672050524F4D50545F00457272CA
:100B00006F722077726974696E6720746F20454533
:100B100050524F4D210A004E6F20436865636B733E
:100B2000756D2077697468206C696E65206E756DCF
:100B30006265722C204C617374204C696E653A209A
:100B400000636865636B73756D206D69736D6174A7
:100B500063682C204C617374204C696E653A2000E8
:100B60004C696E65204E756D626572206973206EEA
:100B70006F74204C617374204C696E65204E756DE6
:100B80006265722B312C204C617374204C696E6548
:100B90003A20004D313130005344207265616420A9
:100BA0006572726F720A002121204B494C4C206300
:100BB0006175736564206279204B494C4C206275E5
:100BC00074746F6E2F70696E0A002121204B494C9E
:100BD0004C2063617573656420627920746F6F20A7
:100BE0006D75636820696E616374697665207469E8
:100BF0006D65202D2063757272656E7420636F6D54
:100C00006D616E643A2000627573793A2070617587
:100C100073656420666F7220696E7075740A006275
:100C20007573793A2070617573656420666F722000
:100C3000757365720A00627573793A2070726F631A
:100C4000657373696E670A004D656469612052655A
:100C50006D6F766564004D6564696120496E7365EA
:100C600072746564007061757365004D36303000D4
:100C70002066696C616D656E745F72756E6F7574F8
:100C8000200066696C616D656E745F72756E6F755C
:100C90007420540046696C616D656E7452756E6F98
:100CA0007574205400363726033C3D380E2E303EF6
:100CB000131A1C180AFF430809070844000172654B
:100CC00073756D656400526573756D696E67004775
:100CD00032362048656174696E67204E6F7A7A6C8F
:100CE00065004732362048656174696E6720426549
:100CF000640057616974696E6720666F7220686569
:100D0000617475702E0A004669786564204C656EC2
:100D1000677468205072696D6500446F6E6520507D
:100D200072696D696E67004D616E75616C207072DD
:100D3000696D696E672E2E2E004732362043616E34
:100D400063656C6564004C656176696E6720473247
:100D500036003F53706563696669656420582C5995
:100D600020636F6F7264696E617465206F757420A3
:100D70006F6620626F756E64732E0A003F285229D9
:100D800065706561742076616C7565206E6F742086
:100D9000706C61757369626C653B206D757374204E
:100DA0006265206174206C6561737420312E0A00C5
:100DB0003F537065636966696564206E6F7A7A6C0B
:100DC000652074656D7065726174757265206E6FF3
:100DD0007420706C61757369626C652E0A003F53F4
:100DE00070656369666965642066696C616D656ECE
:100DF000742073697A65206E6F7420706C617573EE
:100E000069626C652E0A003F5370656369666965A7
:100E100064207072696D65206C656E677468206E01
:100E20006F7420706C61757369626C652E0A003F87
:100E3000537065636966696564206E6F7A7A6C6564
:100E40002073697A65206E6F7420706C61757369A8
:100E5000626C652E0A003F52657472616374696F3B
:100E60006E204D756C7469706C696572206D757358
:100E700074206265207370656369666965642E0A13
:100E8000003F5370656369666965642052657472DA
:100E9000616374696F6E204D756C7469706C6965FF
:100EA00072206E6F7420706C61757369626C652E50
:100EB0000A003F537065636966696564206C6179F7
:100EC000657220686569676874206E6F7420706C45
:100ED00061757369626C652E0A0043292E0A003F12
:100EE0005370656369666965642062656420746532
:100EF0006D7065726174757265206E6F7420706CB0
:100F000061757369626C65202834302D0047323674
:100F1000207374617274696E672E2E2E0A00506CF5
:100F200065617365205265736574005052494E5473
:100F300045522048414C5445440025533A202553FE
:100F400000706F7765726F6666004B494C4C454484
:100F50002E20005072696E7465722068616C746531
:100F6000642E206B696C6C28292063616C6C65644D
:100F7000210A006563686F3A004572726F723A0029
:100F800042696C696E656172204C6576656C696E4C
:100F90006720477269643A0A0053544F50504544E1
:100FA0002E20005072696E7465722073746F7070B9
:100FB00065642064756520746F206572726F72734A
:100FC0002E2046697820746865206572726F7220E1
:100FD000616E6420757365204D39393920746F2036
:100FE000726573746172742E202854656D70657219
:100FF00061747572652069732072657365742E2043
:10100000536574206974206166746572207265731B
:1010100074617274696E67290A0021212053544F4C
:10102000502063616C6C65642062656361757365F3
:10103000206F6620424C546F756368206572726F32
:1010400072202D20726573746172742077697468E0
:10105000204D3939390A005072696E74696E672003
:101060004F626A656374002553202569002F2F6144
:101070006374696F6E3A00656E640070726F6D70B4
:10108000745F0073686F770044697361626C6552C6
:10109000756E6F75740050757267654D6F7265007F
:1010A000486F74656E6420746F6F20636F6C640AA0
:1010B0000053656E64204D31303820746F207265A6
:1010C00073756D650A0052656865617420446F6EC2
:1010D0006500526568656174696E672E2E2E005238
:1010E0006568656174004865617465722054696D56
:1010F000656F75740053656E64204D31303820740F
:101100006F2068656174206E6F7A7A6C650A004E94
:101110006F7A7A6C65205061726B656400706175DE
:10112000736564004D3630303A20546F6F20436F42
:101130006C6400256979202569642025696820256B
:10114000696D202569730023646566696E652044B6
:10115000454641554C545F004B6420004B692000CC
:101160004B702000504944204175746F74756E6552
:101170002066696E697368656421205075742074F7
:101180006865206C617374204B702C204B69206162
:101190006E64204B6420636F6E7374616E74732091
:1011A00066726F6D2062656C6F7720696E746F2058
:1011B000436F6E66696775726174696F6E2E680A37
:1011C00000504944204175746F74756E65206661E6
:1011D000696C6564212074696D656F75740A000A15
:1011E00020436C617373696320504944200A0020D6
:1011F0004B643A2000204B693A2000204B703A2083
:10120000000A204E6F206F76657273686F6F740AE4
:10121000002054753A2000204B753A2000206D6163
:10122000783A2000206D696E3A200020643A200050
:1012300020626961733A2000504944204175746FFF
:1012400074756E652073746172740A00504944208D
:101250004175746F74756E65206661696C65642193
:101260002054656D706572617475726520746F6F5E
:1012700020686967680A00504944204175746F749A
:10128000756E6500504944204175746F74756E65C4
:10129000206661696C656421204261642065787410
:1012A0007275646572206E756D6265720A004572B2
:1012B000723A207574663820666F6E74206E6F7493
:1012C00020696E697469616C697A65642E00000C2E
:1012D0000F00FE07022603BC017FFE08FE08FE0584
:1012E000080806000040F0C88888987810050808AB
:1012F000060000C0F88888888888F805050506007B
:10130000012030F830200508080600002070F82081
:10131000202020E00509090600FF2070A8A8B88851
:10132000887020050606060001E08CEA8C8A0A0512
:1013300009090600FFF8A88888888888A8F8050A9F
:101340000A0600FE205050505088A8A88870030359
:101350000306000340A040FFFFFFFFFFFFFFFFFF6A
:10136000FFFFFFFFFFFFFFFFFFFFFFFFFF0000008A
:101370000605FF010707060200808080808000804C
:10138000030303060105A0A0A00506060600005001
:10139000F85050F8500509090600FF2070A8A07009
:1013A00028A87020050707060000C8C8102040982C
:1013B0009805070706000040A0A040A89068010318
:1013C000030602058080800309090601FF204040D2
:1013D0008080804040200309090601FF80404020B2
:1013E000202040408005070706000020A8702070DC
:1013F000A8200505050600012020F820200203038F
:101400000601FFC04080050101060003F802020248
:10141000060100C0C00507070600000810102040A4
:101420004080050707060000708898A8C8887003E8
:10143000070706010040C040404040E0050707069E
:101440000000708808102040F8050707060000F823
:10145000081030088870050707060000103050900B
:10146000F81010050707060000F880F008088870DB
:10147000050707060000304080F0888870050707E0
:10148000060000F8081010202020050707060000BD
:101490007088887088887005070706000070888843
:1014A00078081060020505060100C0C000C0C00237
:1014B00006060601FFC0C000C04080030505060106
:1014C000012040804020050303060002F800F803D5
:1014D0000505060101804020408005070706000041
:1014E000708810202000200507070600007088B8CB
:1014F000A8B88070050707060000708888F88888FB
:1015000088050707060000F04848704848F00507BE
:101510000706000070888080808870050707060035
:1015200000F04848484848F0050707060000F880E2
:1015300080F08080F8050707060000F88080F080C2
:1015400080800507070600007088808098887005F5
:101550000707060000888888F88888880307070638
:101560000100E04040404040E00507070600003829
:101570001010101090600507070600008890A0C0AA
:10158000A09088050707060000808080808080F892
:1015900005070706000088D8A888888888050707F7
:1015A0000600008888C8A8988888050707060000F4
:1015B00070888888888870050707060000F088888A
:1015C000F080808005070706000070888888A89052
:1015D00068050707060000F08888F0A090880507D6
:1015E00007060000708880700888700507070600ED
:1015F00000F820202020202005070706000088880A
:1016000088888888700507070600008888888850C1
:10161000502005070706000088888888A8A850057C
:1016200007070600008888502050888805070706AD
:10163000000088885020202020050707060000F8B9
:101640000810204080F80309090601FFE08080802F
:1016500080808080E0050707060000804040201061
:1016600010080309090601FFE02020202020202087
:10167000E00503030600052050880501010600FE71
:10168000F803030306010580402005050506000058
:1016900070087888780507070600008080F0888841
:1016A00088F0050505060000708080887005070732
:1016B0000600000808788888887805050506000077
:1016C0007088F08070050707060000304840E04051
:1016D00040400507070600FE708888887808700576
:1016E00007070600008080F08888888803070706BF
:1016F00001004000C0404040E00409090601FE101E
:101700000030101010109060050707060000808060
:101710008890E09088030707060100C040404040E1
:1017200040E0050505060000D0A8A8A8A805050505
:10173000060000B0C8888888050505060000708886
:101740008888700507070600FEF0888888F080808A
:101750000507070600FE78888888780808050505CB
:10176000060000B0C880808005050506000078806E
:101770007008F00507070600002020F82020201838
:101780000505050600008888889868050505060097
:101790000088888850200505050600008888A8A8CC
:1017A00050050505060000885020508805070706EB
:1017B00000FE88888850204080050505060000F856
:1017C000102040F80309090601FF204040408040F6
:1017D0004040200109090602FF80808080808080CF
:1017E00080800309090601FF8040404020404040BE
:1017F0008005030306000248A890FF452073746526
:1018000070732F6D6D005A2053746570732F6D6D5A
:1018100000592053746570732F6D6D0058205374F8
:101820006570732F6D6D00496E69740050726F6240
:1018300065204F66667365747300416363656C650C
:10184000726174696F6E0056656C6F6369747900BC
:101850005A2056616C756500496E646578205900A0
:10186000496E646578205800466164652048656962
:101870006768740045646974204D657368004C6541
:1018800076656C20426564004732380A4732390079
:1018900052756E6F75742044697374206D6D004CC1
:1018A0006F6164206D6D00556E6C6F6164206D6DAD
:1018B0000046696C2E204469612E004520696E2027
:1018C0006D6DC2B3004D333033205531204525694D
:1018D0002053256900504944204175746F74756E1A
:1018E00065202A005049442D44202A005049442DA7
:1018F00049202A005049442D50202A002008204623
:10190000616374002008204D6178002008204D6933
:101910006E004175746F74656D700052756E6F75F1
:10192000742053656E736F7200554E4C4F414420C6
:1019300046494C414D454E540046494C414D454E5B
:1019400054204348414E4745004D373032205425FE
:1019500064004D36303020423020542564004D372D
:101960003032203B2564004D37303120542564004F
:101970004D373032004D373031004D363030204257
:1019800030005075726765206D6F72650052455367
:10199000554D45204F5054494F4E533A00505249EF
:1019A0004E54205041555345440020204E6F7A7AC2
:1019B0006C653A2000256C642E25696D00457874AD
:1019C000727564656420546F74616C004C6F6E674F
:1019D000657374204A6F622054696D65003E200073
:1019E000546F74616C205072696E742054696D6517
:1019F00000436F6D706C65746564005072696E743D
:101A000020436F756E7400313230004245443A45D0
:101A100050434F53203130304B0052756E61776127
:101A2000792057617463683A204F4E004D617820E9
:101A300054656D7000323535004D696E2054656D0A
:101A4000700045313A204550434F53203130304BE0
:101A5000005053550047656E657269630050726FA0
:101A6000746F636F6C00312E300042617564003218
:101A7000353030303000437265616C6974793344BD
:101A80002052414D50530042696C696E656172206D
:101A90004C6576656C696E6700457874727564652F
:101AA00072730043522D31302056330032303230C1
:101AB0002D30382D32392031333A333100507269AC
:101AC0006E74657220537461747300546865726D2E
:101AD0006973746F727300426F61726420496E663D
:101AE0006F005072696E74657220496E666F0050A7
:101AF00061726B696E672E2E2E000000576169744B
:101B000020666F720066696C616D656E7420636833
:101B1000616E676500746F20737461727400576141
:101B2000697420666F720066696C616D656E742001
:101B3000756E6C6F616400004E6F7A7A6C65206818
:101B4000656174696E6700506C65617365207761CB
:101B500069742E2E2E0000507265737320627574A6
:101B6000746F6E00746F2068656174206E6F7A7A8E
:101B70006C650000496E736572742066696C616DF6
:101B8000656E7400616E6420707265737320627597
:101B900074746F6E00746F20636F6E74696E756518
:101BA000005761697420666F720066696C616D65CB
:101BB0006E74206C6F616400005072657373204214
:101BC0007574746F6E00746F20726573756D652027
:101BD0007072696E7400005761697420666F7220BC
:101BE0007072696E7400746F20726573756D652E06
:101BF0002E2E00005761697420666F720066696C52
:101C0000616D656E74207075726765000024F4D490
:101C10003050C38E20C2A24017828B7011127A916D
:101C20000D816CD90AA861E108C758660761514364
:101C3000061E4B5D05C145A7041A411104093D98D4
:101C400003713931034036DB0265339102D43054DD
:101C500002802E1D02632CEE01752AC501B028A05A
:101C600001102781018F2564012B244B01E02234D0
:101C700001AC211F018D200D01801FFC00841EED91
:101C800000971DDF00B81CD200E61BC600201BBC5D
:101C900000641AB200B219A8000A19A0006A1899C3
:101CA00000D117910040178B00B516840031167EC5
:101CB00000B31579003A157300C7146F0058146A01
:101CC00000EE1366008813630025135E00C7125BE5
:101CD000006C12570015125400C111510070114FC1
:101CE0000021114B00D61049008D104700461044CA
:101CF0000002104200C00F4000800F3E00420F3C27
:101D000000060F3B00CB0E3800930E37005C0E35FB
:101D100000270E3400F30D3200C10D3100900D305C
:101D200000600D2E00320D2D00050D2C00D90C2B5E
:101D300000AE0C2900850C29005C0C2700350C270F
:101D4000000E0C2600E80B2400C40B2400A00B237B
:101D5000007D0B23005A0B2100390B2100180B20AA
:101D600000F80A1F00D90A1E00BB0A1E009D0A1DAA
:101D700000800A1D00630A1C00470A1B002C0A1B76
:101D800000110A1A00F7091A00DD091900C409191F
:101D900000AB091900920917007B091800630917A5
:101DA000004C09160036091600200916000A09150C
:101DB00000F5081500E0081400CC081400B8081459
:101DC00000A4081400900813007D0812006B08138B
:101DD00000580812004608120034081100230811A8
:101DE000001208110001081100F0071000E00710B0
:101DF00000D0071000C0071000B0070F00A10710A7
:101E00000091070E0083070F0074070F0065070E8F
:101E10000057070E0049070E003B070D002E070E66
:101E20000020070D0013070D0006070D00F9060C32
:101E300000ED060D00E0060C00D4060C00C8060CF0
:101E400000BC060C00B0060C00A4060B0099060CA2
:101E5000008D060B0082060B0077060B006C060B4C
:101E60000061060A0057060B004C060A0042060AEB
:101E70000038060A002E060A0024060A001A060A7E
:101E8000001006090007060A00FD050900F405090F
:101E900000EB050900E2050900D9050900D0050994
:101EA00000C7050900BE050900B5050800AD050815
:101EB00000A50509009C050800940508008C05088C
:101EC00000840508007C050800740508006C0507FF
:101ED00000650508005D050700560508004E05076A
:101EE00000470507004005080038050700310507D1
:101EF000002A050700230507001C05060016050734
:101F0000000F0507000805060002050700FB040690
:101F100000F5040700EE040600E8040600E20407EA
:101F200000DB040600D5040600CF040600C9040641
:101F300000C3040600BD040600B7040600B1040592
:101F400000AC040600A6040600A00405009B0406DD
:101F50000095040500900406008A04050085040528
:101F600000800406007A040500750405007004056D
:101F7000006B04050066040500610405005C0405AF
:101F80000057040500520405004D040500480405EF
:101F900000430405003E0404003A0405003504052E
:101FA00000300404002C0405002704040023040569
:101FB000001E0404001A04040016040500110404A1
:101FC000000D0404000904050004040400000404D6
:101FD00000FC030400F8030400F4030400F003040D
:101FE00000EC030400E8030400E4030400E003043D
:101FF00000DC030400D8030400D4030400D003046D
:1020000000CC030400C8030300C503030024F40448
:10201000D9201BC40C5C0E9804C4095F02650771CB
:1020200001F405F900FB04B30048048700C103690B
:10203000005803550003034500BE023A00840231F4
:102040000053022A002902250004022000E4011C9A
:1020500000C8011900AF0117009801140084011392
:1020600000710110006101100051010E0043010DCB
:102070000036010B002B010B0020010B001501099C
:10208000000C01090003010800FB000800F3000830
:1020900000EB000700E4000600DE000600D80006A2
:1020A00000D2000600CC000500C7000500C20005F4
:1020B00000BD000400B9000400B5000400B1000434
:1020C00000AD000400A9000400A5000300A2000365
:1020D000009F0004009B000300980003009500028D
:1020E0000093000300900003008D0002008B0003AA
:1020F00000880002008600020084000300810002C4
:10210000007F0002007D0002007B000200790002D7
:1021100000770001007600020074000200720001E6
:1021200000710002006F0002006D0001006C0002EF
:10213000006A0001006900020067000100660001FA
:1021400000650001006400020062000100610001FE
:1021500000600001005F0002005D0001005C000102
:10216000005B0001005A0001005900010058000105
:102170000057000100560001005500010054000105
:102180000053000000530001005200010051000103
:1021900000500001004F0001004E0000004E000101
:1021A000004D0001004C0001004B0000004B0001FD
:1021B000004A0001004900010048000000480001F9
:1021C00000470001004600000046000100450000F5
:1021D00000450001004400010043000000430001ED
:1021E00000420000004200010041000000410001E7
:1021F00000400001003F0000003F0001003E0000E1
:10220000003E0001003D0000003D0001003C0000D8
:10221000003C0000003C0001003B0000003B0001CE
:10222000003A0000003A00010039000000390001C6
:1022300000380000003800000038000100370000BE
:1022400000370001003600000036000000360001B3
:1022500000350000003500000035000100340000AA
:10226000003400000034000100330000003300009F
:102270000033000100320000003200000032000193
:10228000003100000031000000310001003000008A
:102290000030000000300001002F0000002F00007F
:1022A000002F0000002F0001002E0000002E000073
:1022B000002E0001002D0000002D0000002D000068
:1022C000002D0001002C0000002C0000002C00005C
:1022D000002C0001002B0000002B0000002B000050
:1022E000002B0001002A0000002A0000002A000044
:1022F000002A000100290000002900000029000038
:10230000002900000029000100280000002800002A
:10231000002800000028000000280001002700001D
:102320000027000000270000002700000027000110
:102330000026000000260000002600000026000005
:1023400000260001002500000025000000250000F7
:1023500000250000002500000025000100240000E9
:1023600000240000002400000024000000240001DC
:1023700000230000002300000023000000230000D1
:1023800000230000002300000023000100220000C1
:1023900000220000002200000022000000220000B5
:1023A00000220001002100000021000000210000A7
:1023B0000021000000210000002100000021000198
:1023C000002000000020000000200000002000008D
:1023D000002000000020000000200000002000017C
:1023E000001F0000001F0000001F0000001F000071
:1023F000001F0000001F0000001F0001001E000061
:10240000001E0000001E0000001E00000039300009
:10241000003325000087190000B00F0000DB080022
:1024200000BD040000740200003F010000486F6D11
:10243000696E67204661696C6564006F70656E0047
:102440005452494747455245440066696C616D6581
:102450006E74007A5F6D696E00795F6D696E0078E9
:102460005F6D696E005265706F7274696E6720658A
:102470006E6473746F70207374617475730A0048AE
:102480006F6D6520257325732573204669727374FB
:10249000005761726E696E673A20486F6D696E67AA
:1024A0002042756D702044697669736F72203C20FC
:1024B000310A0000004842000048420000C04002CB
:1024C00002040000A0400000A04000000040FFFF08
:1024D000FF0000000100000001000080005555557C
:1024E000000000400033333300AAAA2A0049922496
:1024F0000000002000C7711C0099991900D14517F0
:1025000000555515003BB11300244912001111115B
:1025100000000010000F0F0F00E3380E0043790D8C
:1025200000CCCC0C00C3300C00E8A20B0064210BE3
:1025300000AAAA0A00703D0A009DD80900427B0942
:102540000092240900DCD3080088880800104208A3
:102550000000000800F0C1070087870700755007DA
:1025600000711C07003EEB0600A1BC060069900646
:102570000066660600703E06006118060017F40546
:102580000074D105005BB00500B2900500627205D1
:10259000005555050078390500B81E0500050505EC
:1025A000004EEC040087D40400A1BD040090A704F1
:1025B0000049920400C17D0400EE690400C756047E
:1025C00000444404005C320400082104004110046B
:1025D00000000004003FF00300F8E0030026D203EF
:1025E00000C3C30300CCB503003AA803000A9B0351
:1025F00000388E0300C08103009F750300D069037B
:1026000000505E03001D53030034480300913D0356
:10261000003333030016290300381F030097150306
:1026200000300C0300030303000BFA020049F1021F
:1026300000BAE802005CE002002DD802002DD002B2
:102640000059C80200B0C0020031B90200DAB1027C
:1026500000AAAA0200A0A30200BC9C0200FA9502F4
:10266000005C8F0200DF88020082820200457C024B
:10267000002776020027700200436A02007C640291
:1026800000D05E02003F590200C853020000000063
:1026900000000000600000000000FC00000FF000DF
:1026A00000000007E00000000001861FC018700055
:1026B00000000000603C0C000001830C6010300042
:1026C00000000000603C0C000001830C3030300042
:1026D0000000000060000C000000030C1830000037
:1026E0000000000060003F0F3C00030C0C6001DFA5
:1026F0000FE0FE00601C1C061800060C0C6000F3C6
:1027000018318300600C0C0318001E0C0C6000E0F4
:1027100030398300600C0C033000030C0C6000C0E7
:1027200030380F00600C0C033000018C0C6000C0CE
:102730003FF8FB00600C0C033000018C0C6030C0D3
:1027400030018300600C0C01F001818C0C6030C002
:1027500030018300600C0C00E001818C183030C027
:1027600018318300600C0C40E001838C301860C08D
:102770000C6187C0E01C0CC06000C30C600FC3F08C
:1027800007C0FFC7FC7F0781C0007E1FC00000009C
:102790000000000000000007000000000000000032
:1027A000000000000000000700000000001FFFFF05
:1027B000FFFFFFFF600000000001FF40000000007D
:1027C00000FF8000000000007F83CF00000C303F3E
:1027D00087FF80000C301F867980000C000F8C3042
:1027E000C7838C30E78C30CFC7CC31F38C30DCEC36
:1027F000EC33B98C30D86C6C33198C30D06C0C3312
:10280000198C30D86C0C33198C30DC6C0E3B198C65
:1028100030CF7C079F198C30C77C038F1940000094
:1028200000000002600000000000061FFFFFFFFF25
:10283000FFF870012C0190012701B0012201C001B5
:102840001D01F00118011002130130020E01600297
:10285000090190020401C002FF000003FA004003D6
:10286000F5008003F000D003EB002004E6007004C4
:10287000E100E004DC004005D700C005D2004006BE
:10288000CD00D006C8008007C3003008BE00F008A5
:10289000B900C009B400B00AAF00B00BAA00D00C58
:1028A000A500000EA000500F9B00C0109600501213
:1028B000910000148C00C0158700B0178200B01979
:1028C0007D00D01B7800001E730040206E00902217
:1028D0006900F024640040275F0090295A00E02B33
:1028E0005500102E500020304B0010324600E033CF
:1028F000410090353C001037370070383200A03965
:102900002D00B03A2800A03B2300603C1E00103D83
:102910001900903D1400103E0F00703E0A00C03EAA
:102920000500003F0000403FFBFF803FF6FFC03F37
:10293000F1FF68747470733A2F2F6D61726C696E59
:1029400066772E6F726700322E302E362E312D466E
:10295000695A69002020506C616E6E65724275661E
:1029600066657242797465733A2000204672656527
:10297000204D656D6F72793A2000436F6D70696C00
:1029800065643A2041756720323920323032300A8E
:1029900000204C61737420557064617465643A2042
:1029A000323032302D30382D32392031333A333114
:1029B000207C20417574686F723A2046695A692CF0
:1029C00020435231302D56332C20626173656420D0
:1029D0006F6E206672616E367020435231302D5614
:1029E000320A00322E302E362E312D46695A690AAF
:1029F000004D61726C696E0020536F66747761726E
:102A0000652052657365740A0020576174636864B9
:102A10006F672052657365740A002042726F776E8B
:102A2000206F75742052657365740A0020457874B0
:102A300065726E616C2052657365740A00506F7721
:102A4000657255700A006175746F25632E670047C3
:102A500032385859004D31303031006572726F7222
:102A60002077726974696E6720746F2066696C657F
:102A70000A00446F6E6520736176696E672066692F
:102A80006C652E0A004D3239002553202563202520
:102A90006320256320256300656E6473746F707313
:102AA000206869743A200000009B4300009B4300AB
:102AB00000C843FFFDFCFAF8F6F4F2F0EEECEAE9A8
:102AC000E7E5E3E1E0DEDCDAD9D7D5D4D2D0CFCD6B
:102AD000CBCAC8C7C5C3C2C0BFBDBCBAB9B7B6B4FC
:102AE000B3B2B0AFADACAAA9A8A6A5A4A2A1A09E5E
:102AF0009D9C9A99989795949392908F8E8D8B8A9E
:102B00008988878684838281807F7E7D7B7A7978BD
:102B100077767574737271706F6E6D6C6B6A6968BD
:102B200067666564636261605F5E5D5C5B5A5958AD
:102B3000585756555453525150504F4E4D4C4B4A86
:102B40004A4948474646454443424241403F3E3E4B
:102B50003D3C3B3B3A393838373635353433323201
:102B60003130302F2E2E2D2C2B2B2A2929282727A8
:102B700026252524232322212120201F1E1E1D1C43
:102B80001C1B1B1A191918181716161515141313D0
:102B900012121111100F0F0E0E0D0D0C0C0B0A0A54
:102BA00009090808070706060505040403030202CD
:102BB00001000000000000000000000000000053C1
:102BC000657474696E67732053746F726564005323
:102BD000657474696E67732053746F72656420281E
:102BE00000456E636C6F737572650000FE0003FF35
:102BF0008007C7C00701E00000E00000F00000709F
:102C00000400700E00701F00703F80F00E00E00F97
:102C100001E007C7C003FF8000FE0000FE0003FFC5
:102C20008007C7C00F01E00E00E03F80F01F00707A
:102C30000E00700400700000700000F00000E0075B
:102C400001E007C7C003FF8000FE000E000E000E6B
:102C5000000E000E000E000E000E007FC03F801F11
:102C6000000E00040004000E001F003F807FC00E15
:102C7000000E000E000E000E000E000E000E00FFF3
:102C8000FFFF7F80FFC0FFC0FFC07F807F80FFC04D
:102C9000FFC0FFC03F001E000C00496E76616C69EA
:102CA000642065787472756465720A0048656174A1
:102CB000696E67204661696C656400486561746986
:102CC0006E67206661696C6564004D313132205356
:102CD000687574646F776E00202D20496E76616C84
:102CE0006964206578747275646572206E756D62B2
:102CF000657220210A00544845524D414C205255DE
:102D00004E4157415900546865726D616C2052758F
:102D10006E61776179004572723A204D4158544591
:102D20004D50004D415854454D50207472696767AD
:102D300065726564004572723A204D494E54454DA6
:102D400050004D494E54454D502074726967676577
:102D500072656400202F002042403A0020403A0073
:102D600020573A007C3C3E5E2B3D3F2F5B5D3B2C69
:102D70002A225C005654726176204D696E00566DB1
:102D8000696E00566D6178204500566D6178205A55
:102D900000566D6178205900566D617820580041C9
:102DA0006D6178204500416D6178205A00416D6168
:102DB00078205900416D6178205800412D5472618E
:102DC00076656C00412D52657472616374004163D5
:102DD00063656C0056652D4A65726B00565A2D4A24
:102DE00065726B0056592D4A65726B0056582D4A14
:102DF00065726B0050726F62652059204F66667372
:102E000065740050726F62652058204F6666736566
:102E100074002053697A653A200043616E6E6F74C6
:102E2000206F70656E207375626469722000534470
:102E300020496E6974204661696C005344206361C7
:102E40007264206F6B0A006F70656E526F6F742032
:102E50006661696C65640A00766F6C756D652E69D4
:102E60006E6974206661696C65640A004E6F205358
:102E70004420636172640A004D323320257300469A
:102E8000696C652073656C65637465640A004669E6
:102E90006C65206F70656E65643A2000454E442075
:102EA000535542524F5554494E450A002220706FE7
:102EB00073002220706172656E743A22005355428D
:102EC000524F5554494E452043414C4C2074617239
:102ED0006765743A220053756263616C6C204F76AB
:102EE0006572666C6F77004578636565646564201C
:102EF0006D617820535542524F5554494E452064D8
:102F0000657074683A310A0057726974696E672097
:102F1000746F2066696C653A2000534420707269B2
:102F20006E74696E67206279746520004E6F74203C
:102F30005344207072696E74696E670A0066726528
:102F4000736800646F696E67004E6F77200050727F
:102F5000696E74205061757365640020746F6F2012
:102F60006C6F6E6720657874727573696F6E207010
:102F7000726576656E7465640A0020636F6C642008
:102F8000657874727573696F6E2070726576656EA0
:102F90007465640A00626567696E00627574746FB7
:102FA0006E00436F6E74696E7565004C6F616420CE
:102FB00046696C616D656E74205400496E7365726C
:102FC000742066696C616D656E7420616E64207337
:102FD000656E64204D3130380A00220A00556E6B50
:102FE0006E6F776E20636F6D6D616E643A202200A4
:102FF00043522D31302056332052656164792E00C2
:103000005072696E74696E672E2E2E00205A3A0037
:1030100020593A00436F6E66696775726174696F13
:103020006E0043616E63656C204F626A6563740075
:1030300043616E63656C004F6666004F6E004D6FB6
:1030400074696F6E004368616E6765204D656469E1
:1030500061004D32310041626F7574205072696EAB
:1030600074657200526573756D65205072696E7477
:10307000004E6F204D656469610054756E650053A4
:10308000746F70205072696E7400506175736520A2
:103090005072696E7400496E666F20536372656585
:1030A0006E005374617274205072696E74004361D3
:1030B0006E6E6F7420656E746572207375626469DC
:1030C000723A2000022E2E00536F667420456E6403
:1030D00073746F7073004D3834004175746F2048FD
:1030E0006F6D650054656D70657261747572650011
:1030F00050726F6265205A204F6666736574004D8A
:1031000061696E0044697361626C65205374657017
:1031100070657273004D34382050726F62652054B0
:1031200065737400473238204F0A4D3438205031CF
:103130003000486F6D65205A004732385A00486F9A
:103140006D652059004732385900486F6D65205829
:103150000047323858004732380050726568656160
:1031600074202420456E6400507265686561742087
:10317000242042656400436F6F6C646F776E004675
:10318000616E205370656564207E00466C6F770029
:103190002062797465733B2063726320004E6F2058
:1031A000454550524F4D2E0A002052004545505281
:1031B0004F4D206461746173697A65206572726F26
:1031C000722E0A002073746F7265642073657474C4
:1031D000696E67732072657472696576656420280C
:1031E00000202863616C63756C6174656429210A31
:1031F0000020213D2000454550524F4D2043524371
:10320000206D69736D61746368202D202873746F5D
:10321000726564292000496E6465783A2000204D6B
:1032200061726C696E3D563831290A00454550522D
:103230004F4D2076657273696F6E206D69736D6195
:103240007463682028454550524F4D3D00486172D7
:1032500064636F6465642044656661756C742053B3
:10326000657474696E6773204C6F616465640A00ED
:103270003B200020204D363033200020204D3431BB
:103280003220530046696C616D656E742072756EF4
:103290006F75742073656E736F723A002055004627
:1032A000696C616D656E74206C6F61642F756E6CF6
:1032B0006F6164206C656E677468733A0020204DFE
:1032C0003835312058005A2D50726F6265204F6694
:1032D000667365740020204D333034205000202068
:1032E0004D33303120500050494420736574746967
:1032F0006E67733A0020460020480020204D31348C
:10330000352053004D6174657269616C2068656198
:1033100074757020706172616D65746572733A00C6
:10332000204A002020473239205720490020204DD4
:103330003432302053004175746F20426564204C54
:103340006576656C696E673A0020204D3230352015
:103350004200416476616E6365643A20423C6D6967
:103360006E5F7365676D656E745F74696D655F75BB
:10337000733E20533C6D696E5F666565647261746F
:10338000653E20543C6D696E5F74726176656C5F5A
:1033900066656564726174653E20583C6D61785F56
:1033A000785F6A65726B3E20593C6D61785F795F2A
:1033B0006A65726B3E205A3C6D61785F7A5F6A6520
:1033C000726B3E20453C6D61785F655F6A65726B2C
:1033D0003E0020204D323034205000416363656C44
:1033E00065726174696F6E2028756E6974732F73CE
:1033F00032293A20503C7072696E745F6163636574
:103400006C3E20523C726574726163745F616363E9
:10341000656C3E20543C74726176656C5F616363D9
:10342000656C3E0020204D3230312058004D6178CF
:10343000696D756D20416363656C65726174696F58
:103440006E2028756E6974732F7332293A0020201C
:103450004D3230332058004D6178696D756D2066AE
:1034600065656472617465732028756E6974732F65
:1034700073293A0053746570732070657220756EFD
:1034800069743A0020440020204D3230302053002F
:103490002044697361626C65640A0046696C616D01
:1034A000656E742073657474696E67733A002020CA
:1034B0004D3134392043203B20556E6974732069A7
:1034C0006E2043656C736975730A0020286D6D2941
:1034D000002020473231202020203B20556E697487
:1034E0007320696E206D6D0000803B4400803B447A
:1034F00000007041000096420000A0420000A0427F
:103500000000C8430080CF43D0070000D007000070
:103510006400000088130000446966663A20202099
:103520000046726F6D5374703A0053746570706525
:10353000723A00556E4C6576656C3A004C6576655E
:103540006C65643A005261773A20202020000A4CD2
:103550006F676963616C3A00436F756E7420453A1A
:10356000004361703A004348414D4245525F544523
:103570004D504552415455524500424142595354D1
:10358000455050494E470041524353004D4F544916
:103590004F4E5F4D4F44455300544845524D414CAA
:1035A0005F50524F54454354494F4E004C4F4E4785
:1035B0005F46494C454E414D45004155544F52459B
:1035C000504F52545F53445F53544154555300532A
:1035D00044434152440050524F4D50545F53555054
:1035E000504F525400454D455247454E43595F5048
:1035F000415253455200434153455F4C494748545B
:103600005F4252494748544E45535300544F474731
:103610004C455F4C494748545300534F465457411B
:1036200052455F504F574552004255494C445F50F8
:10363000455243454E54004C4556454C494E475F14
:1036400044415441005A5F50524F42450041555445
:103650004F4C4556454C005052494E545F4A4F42DC
:103660000050524F4752455353004155544F524515
:10367000504F52545F54454D5000564F4C554D4598
:10368000545249430042494E4152595F46494C45C4
:103690005F5452414E534645520053455249414CA6
:1036A0005F584F4E5F584F4646004649524D57416E
:1036B00052455F4E414D453A4D61726C696E203204
:1036C0002E302E362E312D46695A692028417567D5
:1036D00020323920323032302031333A33363A32E8
:1036E000382920534F555243455F434F44455F555A
:1036F000524C3A68747470733A2F2F676974687506
:10370000622E636F6D2F4D61726C696E4669726DCA
:10371000776172652F4D61726C696E2050524F5403
:103720004F434F4C5F56455253494F4E3A312E301E
:10373000204D414348494E455F545950453A435204
:103740002D31302056332045585452554445525F50
:10375000434F554E543A3120555549443A636564B8
:1037600065326132662D343161322D343734382D73
:10377000396231322D63353563363266333637661A
:10378000660A0050726F6265204F6666736574202A
:103790005A003F5A206F7574206F662072616E6701
:1037A000652028003F59206F7574206F6620726174
:1037B0006E676520282D0020746F20003F58206F11
:1037C0007574206F662072616E676520282D005029
:1037D000726F6265204F6666736574205800656E6F
:1037E0007175657565696E672022006F6B005265A3
:1037F00073656E643A200050726F62696E67205084
:103800006F696E740025532025692F256900507259
:103810006F62696E67206D65736820706F696E7482
:103820002000202844525952554E29004732392051
:103830004175746F20426564204C6576656C696ED5
:1038400067003F20284C2C522C462C4229206F75B3
:1038500074206F6620626F756E64732E0A003F28B5
:1038600056296572626F7365206C6576656C206998
:103870006D706C61757369626C652028302D342918
:103880002E0A00426164205A2076616C75650A0038
:103890004E6F2062696C696E65617220677269643F
:1038A0000A00446576696174696F6E0025533A2099
:1038B00025730046696E6973686564210A003A20C1
:1038C0007A3A2000206F662000476F696E67207487
:1038D0006F3A20580043570A00206469723A00206A
:1038E000616E676C653A0053746172742072616432
:1038F0006975733A004D343820506F696E74002535
:10390000533A2025642F256400506F736974696FE2
:103910006E696E67207468652070726F62652E2E06
:103920002E0A003F4C656773206F66206D6F7665C9
:103930006D656E7420696D706C61757369626C651C
:103940002028302D3135292E0A003F2028582C59A7
:1039500029206F7574206F6620626F756E64732EF8
:103960000A0050726F6265206F7574206F66206266
:103970006F756E6473003F53616D706C6520736981
:103980007A65206E6F7420706C61757369626C6506
:103990002028342D3530292E0A004D3438205A2D58
:1039A00050726F6265205265706561746162696C06
:1039B00069747920546573740A005374616E64618C
:1039C000726420446576696174696F6E3A200020E4
:1039D00052616E67653A2000205369676D613A2035
:1039E000004D65616E3A2000416363656C657261EC
:1039F00074696F6E3A2050005741524E494E47212C
:103A0000204C6F77205A204A65726B206D617920B7
:103A10006C65616420746F20756E77616E74656487
:103A2000207061757365732E0A00204D393220585D
:103A30000020204D61783A200020204D696E3A2008
:103A400000536F667420656E6473746F70733A20F0
:103A500000496E76616C69642050696E204D6F6418
:103A6000650A0020496E76616C696420657874721D
:103A70007564657220003F00496E697469616C6904
:103A80007A6520454550524F4D006E6F74696669E6
:103A9000636174696F6E200063616E63656C0050D2
:103AA00072696E742041626F727465640044697358
:103AB0006D6973730055492041626F7274656400CB
:103AC0004D323520500A4D323400526573756D65A4
:103AD0000055492050617573650050617573696EBA
:103AE000672E2E2E00726573756D65004545505228
:103AF0004F4D2056657273696F6E204572726F72FA
:103B000000454550524F4D20496E646578204572FE
:103B1000726F7200454550524F4D2043524320452D
:103B200072726F720049676E6F7265001FE020103D
:103B300020102010102010202010201030300840BD
:103B4000048003001FE03FF03FF03FF01FE01FE064
:103B50003FF03FF03FF00FC0078003003FFFF03819
:103B6000007030FC3020FC102078102030102C0029
:103B7000D02E31D02F7BD02F7BD02E31D02C00D027
:103B800020301020781020FC1030FC303800703FBE
:103B9000FFF03FFFF0380070318630238710278711
:103BA000902F87D02F03D02030102078102078104D
:103BB0002030102F03D02F87D027879023871031F4
:103BC00086303800703FFFF01FFFF81FFFF8041029
:103BD0004002082002082004104008208010410004
:103BE0001041000820800410400000001FFFF81F53
:103BF000FFF8000000001E0000000021000000008F
:103C0000271DC08C00272121920041212092008E87
:103C100021CE920090212092011021209201201D9E
:103C200021CC022000000004100113000810011430
:103C3000801008011080200400A30047F200A0803B
:103C400043E2004480200400430018D8000000191B
:103C50008400000021FC0000003F002568753A2523
:103C6000303268750025303268753A253032687513
:103C70000020202020202020004C6F61642053650C
:103C80007474696E67730053746F72652053657442
:103C900074696E677300416476616E636564205376
:103CA000657474696E6773004E4F00594553004345
:103CB000616E63656C204F626A656374203D0053DA
:103CC000746F77004465706C6F790053572D4D6F9A
:103CD00064650053656C662D546573740046616EAF
:103CE00020537065656400526573746F726520447B
:103CF000656661756C7473005072656865617420E7
:103D00002420436F6E6600424C546F756368006FE9
:103D100070656E206661696C65642C2046696C650F
:103D20003A20005072696E742066726F6D204D6586
:103D30006469610050726F62696E67204661696CE8
:103D4000656400205A3A200020593A2000426564F8
:103D500020583A20005045544700504C41004D6FC8
:103D600076652025736D6D004D6F766520302E31A0
:103D70006D6D004D6F766520316D6D004D6F766510
:103D80002031306D6D004D6F76652041786973008C
:103D9000486F74656E6420746F6F20636F6C64008D
:103DA0004578747275646572004D6F7665205A00AF
:103DB0004D6F76652059004D6F7665205800436839
:103DC000616E67652046696C616D656E7400556E45
:103DD0006C6F61642046696C616D656E74004C6F38
:103DE00061642046696C616D656E7400507265682F
:103DF00065617420437573746F6D005072656865FA
:103E000061742024004261636B00000021002400E3
:103E100027002A002D0030003300010100000401BA
:103E200007010A0100002200250028002B002E00B7
:103E30003100340002010000050108010B010000FF
:103E400020002300260029002C002F003200000152
:103E5000000003010601090105050505070508081D
:103E60000808020202020A0A080804040404010104
:103E70000101010101010303030303030303040719
:103E800007070C0C0C0C0C0C0C0C020202020606B0
:103E90000606060606060B0B0B0B0B0B0B0B0102A3
:103EA000102020080810204010204080020102014C
:103EB0000804020101020408102040808040201004
:103EC000080402018004020180402010080402015D
:103ED00008040201010204081020408001020408C5
:103EE0001020408000000A0B02090C0D0E08070389
:103EF00004010000000000000000000000000000BD
:103F000000000000000000000000000000000000B1
:103F1000121110000000000000000000000000006E
:103F2000000000000000000000005A3D553D4F46D3
:103F3000460A004661646520486569676874200028
:103F4000426564204C6576656C696E672000466149
:103F5000696C656420746F20656E61626C652042D7
:103F60006564204C6576656C696E670A00496E76FB
:103F7000616C6964206D6573682E0A0020436F755B
:103F80006E7420583A00453100626564002C20733D
:103F9000797374656D2073746F7070656421204847
:103FA00065617465725F49443A2000003902050278
:103FB00011241FBECFEFD1E2DEBFCDBF00E00CBFAA
:103FC00013E0A0E0B2E0E4EBF8ED02E00BBF02C0CA
:103FD00007900D92A232B107D9F727E1A2E2B3E030
:103FE00001C01D92A830B207E1F71FE1C7EDDFE184
:103FF00000E006C021970109802FFE010F94AB68F5
:10400000C63DD10780E00807A9F70F9475520D94BB
:10401000486C0C9400002F923F924F925F926F92E7
:104020007F928F929F92AF92BF92CF92DF92EF9248
:10403000FF920F931F93CF93DF93CDB7DEB7E69731
:104040000FB6F894DEBF0FBECDBF8DAB20910B082D
:104050002CAB11E010930B088091720F8D3409F492
:104060004CC3843511F40C94CB30873411F00C948C
:10407000DD308091700F9091710F8B31910509F4B3
:104080001BC1B4F48430910534F482309105E4F519
:1040900097FF2EC02EC38531910511F40C94DF30AB
:1040A0008A31910509F404C1049709F022C3C1C003
:1040B0008A32910509F43DC24CF48D319105B1F07D
:1040C0000CF415C14E9709F45EC113C38B359105ED
:1040D00009F4D8C18C35910509F4D9C18A35910507
:1040E00009F007C3109231030C94DF3014E02DC1A6
:1040F00080919A06813011F00C94DF300F941E1AD3
:104100000E94CF970C94DF3020919A06213011F055
:104110000C94DF3011E0029709F010E00F941E1AA2
:1041200019821A821B821C821D821E821F8218869F
:1041300082E50E949245882309F44BC00E941245F3
:104140006B017C0120E030E0A9010F94B06188236D
:1041500009F455C080915F0890916008A0916108B2
:10416000B091620888A799A7AAA7BBA78091630806
:1041700090916408A0916508B091660888AB99ABEE
:10418000AAABBBAB80909E1690909F16A090A016F5
:10419000B090A1164090A2165090A3166090A4165D
:1041A0007090A516A501940168A579A58AA59BA57F
:1041B0000F94B06181110C94E830A301920168A9B9
:1041C00079A98AA99BA90F94B0618823C1F00C94A6
:1041D000E83089E40E949245882331F00E9412451C
:1041E00069837A838B839C838AE40E949245882327
:1041F00031F00E9412456D837E838F83988720E083
:1042000030E0A90169817A818B819C810F94B06132
:1042100081110C949C3120E030E0A9016D817E81F8
:104220008F8198850F94B06181110C949C310C940E
:10423000C43180E50E949245882329F00F94201113
:104240006B017C0103C0C12CD12C760183E50E9457
:104250009245882361F00E94124520E030E04AE751
:1042600054E40F9416620F94276A6B017C010E943C
:1042700081A780910410811105C060E086E297E07B
:104280000F94CB270F946349C60ED71EE81EF91E64
:104290000F946349DC01CB018C199D09AE09BF095C
:1042A000B7FD02C00C94DF3080E00E94B639F0CF39
:1042B0000E94C3450C94DF3087E00E94D89681119C
:1042C0000C94DF308CE0EBE8F2E0DE011196019017
:1042D0000D928A95E1F760E070E080E50F940A1F87
:1042E000BE016F5F7F4F0F9487260C94DF30809163
:1042F000B0048770873011F00C94CB3160E08FE40C
:104300000E94AE4581110C94DF300C94CB3180912A
:10431000500F81112AC00F944515882361F1115067
:1043200011F40C94A63320E030E04DEA5AE36EE835
:1043300077E085E00E94445A61E081E897E00E94BE
:10434000F15982E597E00F9413100F94634960933D
:10435000120770931307809314079093150787E053
:104360000E94D896882399F206C060E08FE40E94EC
:10437000AE45882381F20E94155A8DE198E00F9492
:1043800013100C94DF302091B0163091B11640918B
:10439000B2165091B31660915F08709160088091D9
:1043A0006108909162080F94B468AB01BC0188E584
:1043B0000E94156469837A838B839C832091B41651
:1043C0003091B5164091B6165091B71660916308BA
:1043D0007091640880916508909166080F94B468A4
:1043E000AB01BC0189E50E9415646D837E838F83D8
:1043F0009887BE016B5F7F4FCE0101960F94C74B2C
:10440000882311F40C94DF3080E00E9497550E94BD
:10441000A59A61E085E40E94AE45182F21E0482F5F
:10442000BE016B5F7F4FCE0101960F94D9406B01A7
:104430007C019B01AC010F94A66B811119C04981CD
:104440005A816B817C818DE49DE30E942C5B4D81C0
:104450005E816F81788588E49DE30E942C5BB701C3
:10446000A60183E49DE30E942C5B8AE00E948A38C7
:104470000E948C9A113011F40F942B150E94F59C18
:104480000C94DF308FE0809331030C94DF30B2ED79
:10449000CB2EB2E0DB2E1FE5E12E18E0F12E00E07E
:1044A000312C10E0D6018D916D010E949245882338
:1044B00059F10E9412454B015C01F70120813181C5
:1044C000428153810F94B3682B013C012DEB37E3FC
:1044D00046E855EB0F94146B87FD0AC02DEB37E3CC
:1044E00046E855E3C301B2010F94B061181664F4B5
:1044F000133011F401E002C033243394D7018D92BC
:104500009D92AD92BC9213971F5FB4E0EB0EF11C2D
:10451000143041F6332019F00E94F39C06C00023AA
:1045200021F08BE698E00E9492A70E94F59C0C94E3
:10453000DF3080919A06813011F00C94DF3089E4ED
:104540000E949245E82E882321F00E940E45082FF4
:1045500001C000E08AE40E949245F82E882321F0F1
:104560000E940E45182F01C010E0EE2011F005301A
:1045700020F4FF2041F0153030F085E398E00E94F0
:10458000E2590C94DF3080E1EFE5F8E0AEE9B6E106
:1045900001900D928A95E1F7EE2019F1602F000F3E
:1045A000770B880B990B0F94B7612091CC0E30914B
:1045B000CD0E4091CE0E5091CF0E0F9416622091E9
:1045C000BE0E3091BF0E4091C00E5091C10E0F949F
:1045D000B46860939E1670939F168093A016909374
:1045E000A116FF2019F1612F110F770B880B990B82
:1045F0000F94B7612091D00E3091D10E4091D20E20
:104600005091D30E0F9416622091C20E3091C30EBA
:104610004091C40E5091C50E0F94B4686093A216D9
:104620007093A3168093A4169093A51660E080E57E
:104630000E94AE458823C1F1EE20D1F02091B01642
:104640003091B1164091B2165091B31660919E16FA
:1046500070919F168091A0169091A1160F94B36847
:1046600060939E1670939F168093A0169093A11648
:10467000FF20D1F02091B4163091B5164091B616B6
:104680005091B7166091A2167091A3168091A4164E
:104690009091A5160F94B3686093A2167093A31619
:1046A0008093A4169093A51640E050E0BA0186E4EA
:1046B0000E9415646B017C0120E030E0A9010F9499
:1046C000146B18164CF420E030E040E752E4C701C8
:1046D000B6010F94AE6903C060E070E0CB0169835E
:1046E0007A838B839C83CE0101960E94C69B0C9497
:1046F000DF300E94BDEA0C94DF308091700F909102
:10470000710F8737910509F4A7C70CF01FC18C34CE
:10471000910509F44BC40CF09CC08A31910509F451
:1047200008C3BCF58431910509F48CC27CF4813155
:10473000910509F473C22CF4029708F425C20C9475
:10474000C830429709F47EC60C94C8308731910571
:1047500009F49DC294F48531910509F494C24697F9
:1047600011F00C94C8300E9411D780913D15877FBD
:10477000806280933D150C94DF308831910509F4F7
:104780009DC2499711F00C94C8300F94451E0C94AB
:10479000DF308032910509F4ABC3ECF58D31910522
:1047A00009F43CC384F48B31910509F4D0C24C97D1
:1047B00011F00C94C83080913F04909140040E9405
:1047C0004FDA0C94DF308E31910509F42EC34F97E8
:1047D00011F00C94C8300E94F09D6C8F7D8F8E8FED
:1047E0009F8FBE016F5F7F4FCE014C960E949869EC
:1047F00060E0CE0101960F9482280E942D5CBE01DC
:104800006F5F7F4F85EE98E00E944A5B8AE00E94CE
:104810008A380C94DF308033910509F4B0C364F416
:104820008132910509F499C38A9711F00C94C8302C
:104830000F941D1F0C94DF308934910509F4A3C334
:104840008B34910511F00C94C8300E9465360C949D
:10485000DF308A36910509F4A8C4ACF5833591059B
:1048600009F4E9C5BCF48E34910509F4A7C30CF42E
:10487000A1C38135910509F4C8C58235910511F0B0
:104880000C94C830809131038F7D80618093310317
:104890000C94DF308C35910509F4FAC554F4843555
:1048A000910509F4CFC58535910509F4CEC50C9461
:1048B000C8308836910509F413C48936910509F486
:1048C00060C40C94C8308037910511F40C94DF302B
:1048D000D4F48D36910509F42AC45CF48B36910525
:1048E00009F4A6C48C36910511F40C94DF300C94B5
:1048F000C8308E36910509F4A8C48F36910509F4A5
:10490000B5C40C94C8308337910509F45FC66CF4C4
:104910008137910509F4EFC48237910511F00C94A9
:10492000C8300F94A20E0C94DF308537910509F43E
:1049300050C68637910511F00C94C83000913F04A1
:104940001091400494E0F12C40E06AC68033E1E02D
:104950009E0711F40C943C2E0CF079C08C3C910510
:1049600009F48CC774F58139910509F487C684F47C
:104970008937910509F47BC60CF471C68D37910512
:1049800009F440C58C38910509F4D7C40C94C8309B
:10499000883C910509F4E6C654F48B39910509F475
:1049A0000BC58E3B910509F4E7C40C94C830893CD3
:1049B000910509F41EC78B3C910509F440C70C947E
:1049C000C830883121E0920711F40C940D2DE4F4E5
:1049D0008C3D910509F458C76CF48D3C910509F4A0
:1049E00050C7833D910511F00C94C8300F947F1F80
:1049F0000C94DF308D3D910509F46DC7823E910521
:104A000009F4BFC70C94C8308D32A1E09A0711F4A5
:104A10000C94BC2D6CF48232E1E09E0711F40C94EE
:104A2000A42D8C32914011F40C94A72D0C94C83015
:104A30008E3221E0920711F40C94AF2E8F32914008
:104A400011F00C94C8300E942C640C94DF30873F26
:104A5000A1E09A0711F40C94FC2F0CF04BC0843A9F
:104A6000E1E09E0711F40C94122F0CF5823921E03D
:104A7000920711F40C94002F6CF48039A1E09A078E
:104A800011F40C94F32E8139914011F40C94F62E0C
:104A90000C94C8308A39E1E09E0711F40C94DF30A1
:104AA0008C39914011F40C94072F0C94C830843F3A
:104AB00021E0920711F40C94F62F6CF4853AA1E0F2
:104AC0009A0711F40C94152F863E914011F40C9422
:104AD0008A2F0C94C830853FE1E09E0711F40C94B6
:104AE000F92F863F914011F00C94C8300E9484FB4E
:104AF0000C94DF308E3B22E0920711F40C94973037
:104B00001CF58835A2E09A0711F40C941D306CF462
:104B1000883FE1E09E0711F40C9404308C30924001
:104B200011F40C9415300C94C8308B3522E09207A8
:104B300011F40C9420308D3B924011F00C94C8304D
:104B40000F94001C0C94DF30803AA3E09A0709F41C
:104B500008C26CF48335E3E09E0711F40C949A309C
:104B60008C36934011F40C94DF300C94C830873E9F
:104B700023E0920711F40C949D30893E934011F488
:104B80000C94AB300C94C83080E50E949245882389
:104B900029F00F9420116B017C0103C0C12CD12C92
:104BA000760183E50E949245882361F00E941245B8
:104BB00020E030E04AE754E40F9416620F94276A2D
:104BC0006B017C010E9481A780913F049091400479
:104BD000009721F061E00F94822805C060E08EE527
:104BE00098E00F94CB278091700F9091710F892BD3
:104BF00019F066E578E002C06EE478E020E030E08D
:104C000042EA5FE282E00E94445A40E0C701B601F6
:104C10000E944A400E949AEA0C94DF308091730F00
:104C200084FF02C00C94BC338091750F87FF02C0D3
:104C30000C94BC338091760F837011F00C94BC33CC
:104C40000C94D83389E898E00E94E25983E393E119
:104C50000E9478C48BE1E3E3F3E1DE011196019059
:104C60000D928A95E1F760E070E0CE0101960E9416
:104C7000F2D8CE0101960E94DAC58AE798E00E9438
:104C8000E2590C94DF300E94D0D70C94DF30E091D1
:104C90003F04F09140048081882329F0803209F498
:104CA00010823196F8CF60E080913F0490914004EB
:104CB0000E949FDA109273100C94DF30809172077B
:104CC0008823F9F080E090E0A0EAB1E488A399A3FA
:104CD000AAA3BBA31C8E1D8E1E8E1F8E19821A8244
:104CE0001B821C8200E010E020E0AE01405E5F4FBE
:104CF000BE01645E7F4FCE0101960E9440510C942C
:104D0000DF300E944136882321F00E9422D70E9482
:104D1000653661E085EE9AE30E94F1594DEA5AE367
:104D20006AE978E085E00E94C1EB0E949AEA0C945F
:104D3000DF3080913D1583FD02C00C94DF3083E5A8
:104D40000E94924581110C94E6330C94DF3083E489
:104D50000E9449458823C1F180EB98E00E94E25906
:104D60008091DD12882339F1BE016F5F7F4F8AED9C
:104D700092E10E94E0C58E010F5F1F4FD8018D9117
:104D80008D01882319F00E948A38F8CFCE01019650
:104D90000E9421DA80911C08882389F080E20E9419
:104DA0008A380CE118E0F80181918F01882339F0ED
:104DB0000E948A38F8CF86EA98E00E94E2598AE099
:104DC0000E948A380C94DF3083E50E949245882344
:104DD00009F10E94EA44182F90E0CD970CF01CE3F3
:104DE000109326030F9463496B017C01212F30E05F
:104DF000A8EEB3E00F945A68C60ED71EE81EF91E3F
:104E0000C0922203D0922303E0922403F092250360
:104E10000C94DF300E94EAD60C94DF3080913D156F
:104E20008E7F80933D150C94DF3080913D1583FD7E
:104E300002C00C94DF300F94CF4280913D1583FD6A
:104E400002C00C94DF3040913F0450914004BE01F9
:104E5000645E7F4F80E00F94F53E8C01009711F463
:104E60000C94DF306C8D7D8D19821C8222E0AC01A8
:104E7000CE0101960E949EC9811102C0F12C14C07E
:104E8000CE0101960F94633E8823C1F361E0CE0109
:104E900001960E9482C5009789F325EEDC012C93D0
:104EA0001C820E9431C1F82ECE0101960E94DAC503
:104EB000B801FF2099F087ED98E00E944A5B8AE0F4
:104EC0000E948A381092391510923A1510923B15AB
:104ED00010923C150E949DD50C94DF308FEB98E02A
:104EE0000E944A5B87E999E30E94E2590C94DF3003
:104EF00080913D1582FD0E9481A780913D1583FD23
:104F000002C00C94DF3060E080E50E94AE45182FAF
:104F1000682F80913F04909140040E949FDA83E5BE
:104F20000E949245882381F00E94DA44AB01BC01C3
:104F30004093391550933A1560933B1570933C1587
:104F40008AED92E10E94E1C30E9422D711110C94D4
:104F5000DF300E9465360C94DF300E94776A0C9433
:104F6000DF3020913F043091400490913D159260D4
:104F700090933D15C9010E944FDA0C94DF300F94D5
:104F80003F110C94DF3080E50E944945882311F4DD
:104F90000C94DF300E94EA4490E08536910510F0D1
:104FA00084E690E0809373100C94DF300E943F9E63
:104FB0000C94DF300E94A4A40C94DF3060E070E019
:104FC00083E50E949F458E34910531F40E9415A51A
:104FD0000E949AEA0C94DF3088E499E00E94E2593A
:104FE0006091C0047091C1048FE399E00E941F5B3F
:104FF0006091C2047091C30482E399E00E941F5B38
:105000006091C0047091C1048091C2049091C30466
:10501000681B790B80915E08815021E030E082307E
:1050200010F020E030E0621B730B87E299E00E94F1
:105030001F5B8AE00E948A3888E499E00E94E25966
:105040008091C4049091C504A091C604B091C70496
:105050008C8F9D8FAE8FBF8FBE016F5F7F4FCE0154
:105060004C960E949869BE016F5F7F4F8AE199E07C
:105070000E944A5B8091C8049091C904A091CA041F
:10508000B091CB048C8F9D8FAE8FBF8FBE016F5FB1
:105090007F4FCE014C960E949869BE016F5F7F4F93
:1050A0008AE099E00E944A5B20E030E04AE754E45D
:1050B0006091CC047091CD048091CE049091CF0486
:1050C0000F94AE69AB01BC0182EF98E00E942C5BAB
:1050D0008DE60E948A388AE00E948A380C94DF307C
:1050E00080916D0E83FF02C00C94DF300F94F41A90
:1050F00087FF02C00C94DF3089E40E949245882328
:1051000011F40C94F7330E94EA4490E01816190643
:1051100014F481E090E026E0289FF001299FF00D33
:105120001124E452F14F808191810C9401348091DB
:105130006D0E83FF02C00C94DF300F94F41AF82E2A
:1051400087FF02C00C94DF3089E40E949245082F4B
:10515000882311F40C940A340E94EA4490E0181653
:10516000190614F481E090E026E0289FF001299FC1
:10517000F00D1124E452F14F8081918110E00C94E4
:105180001A340F94F41A182F87FD0AC08BEE97E398
:105190000E94E259812F0E94C9B48AE00E948A3895
:1051A000BCA9B0930B080C940F3560E080E50F9418
:1051B000764DF82EE1E0E81710F40C94DF3081E42E
:1051C0000E944945882329F060919708062F10E036
:1051D00002C00FEF10E089E40E949245882399F005
:1051E0000E94EA4490E01816190614F481E090E059
:1051F00026E0289FF001299FF00D1124E452F14F81
:105200000481158108C083E50E949245882319F026
:105210000E94DA448B01EF2DF0E0E956F74FB80118
:105220000F3F110519F010F06FEF70E06083C7C7F2
:1052300060E080E50F94764D823008F0C0C7E82F1B
:10524000F0E0E956F74F1082BAC78EE40E9492450B
:10525000882309F4B4C70E94DA4460933B04709336
:105260003C0480933D0490933E04A9C783E50E94CB
:105270004945882331F060E083E50F94764D8093B3
:105280006D0E0E942D5C85E599E00E94E2598091A7
:105290006D0E882369F1A8E8EA2EAAE0FA2E00E054
:1052A00010E020E080916D0E90E0A0E0B0E0002ED4
:1052B00004C0B695A795979587950A94D2F780FF75
:1052C0000EC0DD24D394D20E222319F08CE20E946A
:1052D0008A38F701859194910E94E2592D2D0F5F34
:1052E0001F4FF2E0EF0EF11C05301105D9F667CD26
:1052F00086E49FE062CD83E50E949245882371F0A9
:105300000E94EA44282F30E02D3331051CF48093AD
:10531000000255C78CE38093000251C70E942D5CA8
:105320004091000250E060E070E08CE599E00E945E
:105330000E5B8AE00E948A3842C780916D0E83FD21
:105340003EC789E40E949245882311F40C9464348A
:105350000E94EA4490E01816190614F481E090E0E7
:1053600026E0289FF001299FF00D1124E452F14F0F
:10537000828193810C946F3480916D0E83FD1FC7E1
:1053800089E40E949245882311F40C9476340E949B
:10539000EA4490E01816190614F481E090E026E043
:1053A000289FF001299FF00D1124E452F14F8281D2
:1053B000938110E00C94873483E50E949245882302
:1053C00009F4FDC60E94EA44182F90E0CD970CF036
:1053D0001CE310932B030F9463496B017C01212F75
:1053E00030E0A8EEB3E00F945A68C60ED71EE81E50
:1053F000F91EC0922703D0922803E0922903F0926D
:105400002A03DDC60F94451EDAC60E9424BA0E9404
:10541000A4A40E94F1A80E94783668EE73E080E0B0
:1054200090E00E9422590E947D3660E081E899E078
:105430000F94CB27C4C6809131038F7E8062809306
:105440003103BDC60F943820BAC683E50E94494592
:10545000882309F4B4C60F946349609312077093CC
:10546000130780931407909315070E94124520E0BC
:1054700030E04AE754E40F9416620F94276A609371
:105480002C0370932D0380932E0390932F0397C6C4
:105490000F94F41A87FD93C69091730F94FD04C086
:1054A0009091750F97FF0AC0E2EDCE2EE2E0DE2E5E
:1054B000FEE6EF2EFEE0FF2E10E009C09091760F81
:1054C000937091F7682F81E00F94982078C6D601E9
:1054D0008D916D010E949245882309F46DC01330AF
:1054E00009F063C00E9412454B015C0120E030E0EE
:1054F00040EA51E40F94B06187FF4EC0A5019401CA
:1055000060918E0E70918F0E8091900E9091910E01
:105510000F94AE692B013C019B01AC0160917B08AB
:1055200070917C0880917D0890917E080F9416629E
:1055300060937B0870937C0880937D0890937E082D
:10554000A301920160919E0E70919F0E8091A00E1A
:105550009091A10E0F94166260939E0E70939F0E11
:105560008093A00E9093A10E60918B0870918C088F
:1055700080918D0890918E080F94B561A3019201DE
:105580000F9416620F94276A60938B0870938C08AF
:1055900080938D0890938E0880928E0E90928F0E3D
:1055A000A092900EB092910E07C00E941245F70192
:1055B000648B758B868B978B1F5FF4E0EF0EF11C6D
:1055C000143009F084CF0E949CA6F9C50F94210ED7
:1055D000F6C580913F0490914004009741F0DC01B2
:1055E0002C91222321F060E00F948228E8C50E94CC
:1055F0009AEAE5C5F8018081282F2B7F213499F0A4
:105600008035E9F4818180538A30C8F498012E5F97
:105610003F4F89012F5F3F4FF80180818032C9F3EE
:10562000915041F70CC02181213349F4813421F09C
:10563000853461F741E0EACFFF24F394E7CF4111CD
:105640000E942D5CFF2021F08FE899E00E94E25932
:10565000C8010E949539B3C50E948A9DB0C581E0FA
:105660008093D1048093D0040E94E19DA8C510923C
:10567000D1041092D0040E94E19DA1C560E070E0C9
:1056800083E50E949F45823038F00E945D5B83E98C
:1056900099E00E94E25993C58C01112788E40E9489
:1056A00092458823E1F00E940E458A3A910544F024
:1056B0000E940E45813F910534F40E940E4505C0BD
:1056C0008AEA90E002C080EF90E026E0209FF0019F
:1056D000219FF00D1124E452F14F9183808382E4E5
:1056E0000E9492458823D9F00E940E45059744F008
:1056F0000E940E458F36910534F40E940E4505C078
:1057000085E090E002C08EE690E026E0209FF00168
:10571000219FF00D1124E452F14F9383828386E49C
:105720000E949245882309F44AC50E940E4597FDC0
:1057300009C00E940E458F3F910509F034F40E9484
:105740000E4505C080E090E002C08FEF90E026E0BB
:10575000209FF001219FF00D1124E452F14F958319
:1057600084832DC50F94F41A182F87FD28C5009146
:10577000550F84E40E949245882311F40C94B034B0
:105780000E9412456B017C0120E030E0A9010F94DA
:10579000B061882341F124E01202F0011124EF5A94
:1057A000F04FC082D182E282F38220E030E0A90192
:1057B0006091510F7091520F8091530F9091540F3F
:1057C0000F94B06181110CC080E090E0A0EEBFE3C7
:1057D0008093510F9093520FA093530FB093540F97
:1057E00001E00C94B03480E08093550F0E94229326
:1057F000E6C40F94F41A87FDE2C462EDE62E62E07F
:10580000F62E0EE61EE07EE7C72E7EE0D72ED701ED
:105810008D917D010E944945882359F00E941245CF
:105820000F94276AF80160837183828393830E94B7
:1058300055A60C5F1F4FC016D10649F7C0C40F9480
:10584000F41A87FDBCC452EDE52E52E0F52E0EE6AB
:105850001EE0D7018D917D010E944945882339F0D2
:105860000E941245F80164A375A386A397A30C5F59
:105870001F4FFEE00E371F0761F7A1C40F94572199
:105880009EC40F94D3209BC483E50E949245882335
:1058900031F00E940E4590931C0280931B02809170
:1058A000730F9091740FA091750FB091760F892BA3
:1058B0008A2B8B2B09F083C460911B0270911C0210
:1058C00085EB99E00E943D5B85E20E948A388AE080
:1058D0000E948A3874C40F94F41AF82E87FD6FC49E
:1058E00083E50E9492450F2D0F2C000C110B88238D
:1058F00069F10E940E45F801EE0FFF1FE35EFD4FB8
:1059000091838083000F111F000F111F98012B5AE4
:105910003D4F7901BC01990F880B990B0F94B7612A
:105920002AE037ED43E25CE30F941662F801EF548E
:10593000FB4F20813181428153810F941662D70140
:105940006D937D938D939C93139739C40E942D5C26
:1059500085E40E948A3880E38F0D0E948A38000F08
:10596000111FF801E35EFD4F6081718189EB99E0C1
:105970000E943D5B85E20E948A388AE00E948A3854
:105980001EC480E50E944945882309F418C460E0DC
:1059900070E080E50E949F45F82E6FEF7FEF83E572
:1059A0000E949F458C010196039708F008C4F7FCFC
:1059B00006C48F2D0E941C36882339F00E945D5B3F
:1059C00081EC99E00E94E259FAC30E9481A760E04D
:1059D0008F2D0F9424480F3FBFEF1B0731F001308C
:1059E000110571F000E010E00DC08F2D0F94585C90
:1059F00031E020E0892B09F030E0032F122F02C0A4
:105A000001E010E08F2D0F94585C8017910709F486
:105A1000D6C380E00E94B639F5CF80E50E944945A3
:105A2000882309F4CCC30E940E458C01892B09F010
:105A30007FC083E50E944945882389F00E940E4576
:105A40008F3FEFEF9E0729F487E993E10E948036AC
:105A5000B6C3BC0187E993E10E944037B0C30E94FE
:105A60002D5C60E070E080ED99E00E943D5B8091EC
:105A7000991328E532E06901C81AD10887FDD3944B
:105A8000CC0CDD1CCC0CDD1C0D2C000CEE08FF0832
:105A90008091981328E830E04901881A910887FD21
:105AA0009394880C991C880C991C092C000CAA084A
:105AB000BB08809197138F3FC1F090E0FC01EE0F7F
:105AC000FF1F8E0F9F1FFC01E25BFC4E2181328184
:105AD00013E0220F331F1A95E1F704E0369527955E
