:100000000C94B31F0C94E41F0C94E41F0C94E41F95
:100010000C94E41F0C94E41F0C94E41F0C94E41F54
:100020000C94E41F0C94E41F0C94E41F0C94E41F44
:100030000C94E41F0C94E41F0C94E41F0C94E41F34
:100040000C94E41F0D94153E0C94E41F0C94E41FD3
:100050000C94E41F0C94E41F0C9468D70D94B649DB
:100060000C94E41F0C94B9400C94AF400C94E41F22
:100070000C94E41F0C94E41F0C94E41F0C94E41FF4
:100080000C9487380C94E41F0C94E41F0C94E41F28
:100090000C94E41F0C94E41F0C94E41F0C94E41FD4
:1000A0000C94E41F0C94E41F0C9459380C94E41F36
:1000B0000C94E41F0C94E41F0C94E41F0C94E41FB4
:1000C0000C94E41F0C94E41F0C94E41F0C94E41FA4
:1000D0000C94E41F0C94E41F0C94E41F0C94E41F94
:1000E0000C94E41FEF400141134124412C415F4136
:1000F00030415F41344138415F413C4140414441DE
:100100004D415F4158418D84FC823583C9843583DC
:10011000358335833583358335833583358335831F
:10012000358335833583358335833583358335830F
:1001300035833583358335833583358335833583FF
:100140003583C38435833583358335833583358360
:10015000358335839C843583358335833583358377
:1001600035833583358335833583E0843283A50138
:100170008B0163014D010F011B026D01570241010B
:10018000C702DD02C30253018901510251018302FA
:10019000B1022101EB0133028902CD023501950242
:1001A0001501B10235025F02FF014302450125013D
:1001B000C101D9013F01B5028D022502CD01E9013E
:1001C000BD027901AB013F01DF016F02A502084AC0
:1001D000D73B3BCE016E84BCBFFDC12F3D6C74315B
:1001E0009ABD56833DDA3D00C77F11BED9E4BB4CB2
:1001F0003E916BAAAABE000000803F05A84CCDB27C
:10020000D44EB93836A9020C50B9918688083CA65C
:10021000AAAA2ABE000000803F000D94A2430D94BC
:10022000A4090C94EC650C9431AA0D9480480C94AC
:10023000326C0D94D00A0C9444410D9479050D94C0
:100240007E090D9460480C9486A00D94DA480D94B4
:10025000D60A0D94DE0F0C94D7890C9460720C941E
:10026000B05F0D94E0110D9485050D9478480C94C1
:100270001D6A0D94C3110D94600A0C94E6A00D94B0
:1002800067490D94AD090C94E8650D94D5480C941C
:100290007A890D94CB090C94D6690D94BE090C94FF
:1002A00017820D944F480D9459480C94AB690D94E6
:1002B000F9110C9405D00C948D840C94AE5F0C94C1
:1002C00034410C9474AE0D94A1090D9418170C943C
:1002D0003C700C9438E80C942C410D94AA090D94B0
:1002E000C9110D94DB110D94D9120D945F030C9478
:1002F00075690D9435490C9401410C944D410C9451
:100300001B910D9417440D94F40A0C945DA30D9465
:10031000C1050D945C480D949E090C94506C0C948E
:10032000C3840C94976A0C943AA10C9457850C944E
:10033000236C0D94445A0C94B9850D947D050D944D
:10034000EE010C94FC6C0C94FC820D94BB090C9493
:10035000EF690C94496A0D943F490C948C820C947B
:10036000366A0D94E0120C9440410C941E6C0D946E
:10037000160A0C945C6C0D94B3430C94CC6E0C94E4
:1003800058410D94E4480D94B7430C949C840C940C
:10039000C5A40C9451B10D94B80A0D9412490C9453
:1003A000A96A0D94E80A0D94FD090D940D0F0D94A2
:1003B00083110D94EE480D94420A0D9481050D941D
:1003C00049490D949E430D9472090D9489050D942D
:1003D000EE0A0D941C490D9464480C94B65F0D947C
:1003E00040070D942C0F0C944DA10D94E4090D942D
:1003F00051440D94E20A0C9438410C94F3650D9429
:100400008E480C9442A10D9475050D94290A0D9403
:10041000EF110C94BD690C94DBCF0D94E8290C947A
:1004200052930D94CA0A0D9495050C945A690D9433
:10043000A90A0D94AE050D94A7090C9464E80D94D7
:10044000F70D0D9491050C9403AA0D9408490D9491
:10045000CD050C94B25F0D948D110C94B45F0D9486
:10046000C7050D94D5010D946A480D9486480C94E7
:1004700024410D94510A0C9435830C9401930C94EF
:1004800089820D94E0130D94D0480C94E0AE0C9446
:1004900052A70D94784F0C949D890D94E5110D94FD
:1004A0001D120D944B480D94D5110D94C40A0D9452
:1004B000B6090D948D050C94EBA10D9472110D9459
:1004C0008A480C940A6A0C9430850D94FE110D94A0
:1004D000300F0C9482610D94320F0D94DC0A0D9450
:1004E00053490C94A36A0C94ECA90D94EA110D9451
:1004F000860C0D94C2010C9416690D94A00A0C94FC
:10050000975F0C9413410D9453480D9485110D94ED
:10051000BE0A0D946E480D9445570D9400490C94F5
:1005200084A20D942E0F0D949F050D947C480C947D
:100530008D6A0C94805F0C946F720C94416C0C94D7
:100540005F410D94F4110C9432830D945D490C9429
:10055000136C0D9471050C94E0840C941AAA0C94FD
:1005600025D00D9493480C9424690D94F8480D946B
:10057000A2050D948C150C9430410D9426490C94D1
:10058000C7A00C94C9840D94B3090D949C050D94D7
:10059000C9090C94EF400D9499050D9472480C9480
:1005A0003F690C941A820D947D110D94CF110C9417
:1005B00088820D94FA0A0C9490690D94B0090C94F9
:1005C0003C414E414E494E495459494E46CDCCCC02
:1005D0003D0AD7233C17B7D13877CC2B329595E617
:1005E000241FB14F0A000020410000C84200401CF7
:1005F0004620BCBE4CCA1B0E5AAEC59D7400407A44
:1006000010F35A00A0724E18090010A5D4E800009B
:10061000E87648170000E40B54020000CA9A3B0039
:100620000000E1F505000080969800000040420FB0
:10063000000000A08601000000102700000000E874
:1006400003000000006400000000000A0000000039
:10065000000100000000002C76D888DC674F0823DA
:10066000DFC1DFAE59E1B1B796E5E3E453C63AE640
:1006700051997696E8E6C28426EB898C9B62ED4020
:100680007C6FFCEFBC9C9F40F2BAA56FA5F490056F
:100690005A2AF75C936B6CF9676DC11BFCE0E40DA3
:1006A00047FEF520E6B500D0ED902E030094357797
:1006B000050080841E080000204E0A000000C80CBF
:1006C000333333330F986E12831141EF8D21148928
:1006D0003BE65516CFFEE6DB18D1844B381BF77C82
:1006E0001D901DA4BBE424203284725E228100C9C7
:1006F000F124ECA1E53D27434F4D4D554E49434173
:1007000054494F4E0044525952554E004552524F93
:100710005253004543484F0047322F473320626110
:100720006420706172616D65746572730A00536C48
:100730006565702E2E2E005A2050726F6265205013
:10074000617374204265640A005A2050726F6265BA
:10075000205061737420426564004D313137205060
:10076000726F6265206661696C65642E20526577E0
:100770006970696E672E0A4732380A473132205055
:1007800030205331322054300070726F62655F72D6
:1007900065776970650047323920526574727969EE
:1007A0006E67004D31313720426564206C65766597
:1007B0006C696E67206661696C65642E0A4730203B
:1007C0005A31300A4D3330302050323520533838CA
:1007D000300A4D333030205035302053300A4D33FD
:1007E00030302050323520533838300A4D333030D5
:1007F000205035302053300A4D33303020503235C0
:1008000020533838300A4D333030205035302053A3
:10081000300A47342053310070726F62655F666141
:10082000696C6564004D31313720426564206C6528
:1008300076656C696E6720646F6E652E004D65731A
:100840006820706F696E74206F7574206F662072F7
:10085000616E67650A004D302053746F70004D3132
:100860002053746F7000436C69636B20746F205267
:100870006573756D652E2E2E004E6F204D6F76655B
:100880002E00456E642066696C65206C6973740A7D
:1008900000426567696E2066696C65206C697374D7
:1008A0000A004E6F206D656469610A0052657375B8
:1008B0006D696E6720534400286E6F2066696C6511
:1008C000290043757272656E742066696C653A2002
:1008D0000044656C6574696F6E206661696C65645F
:1008E0002C2046696C653A200046696C6520646579
:1008F0006C657465643A005072696E742074696D39
:10090000653A20000A53746174733A2046696C6139
:100910006D656E7420757365643A20002C204C6FF1
:100920006E67657374206A6F623A2000546F746159
:100930006C2074696D653A20002C204661696C65F5
:10094000643A20002C2046696E69736865643A2019
:10095000005072696E74733A200053746174733A74
:100960002000452025530044454255473A004D316B
:10097000313320530042656420436F6F6C696E67AA
:100980002E2E2E004265642048656174696E672EC4
:100990002E2E0043522D3130205633204F46462E06
:1009A000002F2F20004D31343520533C696E646593
:1009B000783E206F7574206F662072616E676520C7
:1009C00028302D31290A0046523A0020466C6F77B4
:1009D0003A200020536572766F200020643A002090
:1009E000693A0020703A006469730043290A006183
:1009F000626C656420286D696E2074656D702000DE
:100A0000436F6C64206578747275646573206172DD
:100A100065200046696C616D656E742072756E6F3D
:100A200075742064697374616E636520286D6D2927
:100A30003A200046696C616D656E742072756E6F48
:100A4000757420004D34323120696E636F727265A7
:100A5000637420706172616D657465722075736175
:100A600067650A00454550524F4D204F4B0A0044E0
:100A70006F6E65207072696E74696E672066696C4E
:100A8000650A004D3737004D3331001307A90A0CB2
:100A9000070507F706554E4B4E4F574E205354410E
:100AA00054450047434F44455F494E464F004C4331
:100AB000445F50415553455F524553554D4500469F
:100AC000494C414D454E545F52554E4F55545F432E
:100AD0004F4E54494E55450046494C414D454E54A4
:100AE0005F52554E4F5554004D383736205265737E
:100AF000706F6E64696E672050524F4D50545F00A6
:100B00004572726F722077726974696E6720746FB4
:100B100020454550524F4D210A004E6F20436865D5
:100B2000636B73756D2077697468206C696E6520DE
:100B30006E756D6265722C204C617374204C696E09
:100B4000653A2000636865636B73756D206D69732A
:100B50006D617463682C204C617374204C696E6500
:100B60003A20004C696E65204E756D626572206991
:100B700073206E6F74204C617374204C696E652015
:100B80004E756D6265722B312C204C617374204C54
:100B9000696E653A20004D31313000534420726552
:100BA0006164206572726F720A002121204B494CEA
:100BB0004C20636175736564206279204B494C4C0D
:100BC00020627574746F6E2F70696E0A0021212087
:100BD0004B494C4C206361757365642062792074C5
:100BE0006F6F206D75636820696E616374697665E7
:100BF0002074696D65202D2063757272656E742096
:100C0000636F6D6D616E643A2000627573793A208E
:100C100070617573656420666F7220696E7075749B
:100C20000A00627573793A20706175736564206695
:100C30006F7220757365720A00627573793A20705D
:100C4000726F63657373696E670A004D65646961ED
:100C50002052656D6F766564004D65646961204959
:100C60006E736572746564007061757365004D36EE
:100C70003030002066696C616D656E745F72756EF0
:100C80006F7574200066696C616D656E745F727556
:100C90006E6F757420540046696C616D656E745298
:100CA000756E6F7574205400726573756D656400A0
:100CB000526573756D696E6700473236204865610D
:100CC00074696E67204E6F7A7A6C65004732362001
:100CD00048656174696E6720426564005761697494
:100CE000696E6720666F72206865617475702E0A80
:100CF000004669786564204C656E677468205072A0
:100D0000696D6500446F6E65205072696D696E672C
:100D1000004D616E75616C207072696D696E672E31
:100D20002E2E004732362043616E63656C65640089
:100D30004C656176696E6720473236003F537065B7
:100D400063696669656420582C5920636F6F72640B
:100D5000696E617465206F7574206F6620626F75AF
:100D60006E64732E0A003F285229657065617420F5
:100D700076616C7565206E6F7420706C6175736937
:100D8000626C653B206D7573742062652061742010
:100D90006C6561737420312E0A003F53706563697E
:100DA00066696564206E6F7A7A6C652074656D7013
:100DB00065726174757265206E6F7420706C6175F8
:100DC0007369626C652E0A003F53706563696669DA
:100DD00065642066696C616D656E742073697A65FF
:100DE000206E6F7420706C61757369626C652E0A79
:100DF000003F537065636966696564207072696D50
:100E000065206C656E677468206E6F7420706C610D
:100E1000757369626C652E0A003F5370656369667D
:100E2000696564206E6F7A7A6C652073697A6520D3
:100E30006E6F7420706C61757369626C652E0A0048
:100E40003F52657472616374696F6E204D756C7486
:100E500069706C696572206D7573742062652073AA
:100E600070656369666965642E0A003F5370656347
:100E700069666965642052657472616374696F6E36
:100E8000204D756C7469706C696572206E6F74208A
:100E9000706C61757369626C652E0A003F537065F2
:100EA000636966696564206C61796572206865694B
:100EB000676874206E6F7420706C61757369626C02
:100EC000652E0A0043292E0A003F53706563696648
:100ED000696564206265642074656D706572617413
:100EE000757265206E6F7420706C61757369626CC9
:100EF00065202834302D00473236207374617274B7
:100F0000696E672E2E2E0A00506C65617365205243
:100F100065736574005052494E5445522048414C07
:100F20005445440025533A20255300706F7765726D
:100F30006F6666004B494C4C45442E200050726948
:100F40006E7465722068616C7465642E206B696CC8
:100F50006C28292063616C6C6564210A00656368F4
:100F60006F3A004572726F723A0042696C696E6541
:100F70006172204C6576656C696E672047726964A2
:100F80003A0A0053544F505045442E200050726985
:100F90006E7465722073746F70706564206475651B
:100FA00020746F206572726F72732E2046697820EC
:100FB000746865206572726F7220616E642075734B
:100FC00065204D39393920746F20726573746172F0
:100FD000742E202854656D70657261747572652079
:100FE00069732072657365742E205365742069746B
:100FF0002061667465722072657374617274696EC3
:1010000067290A0021212053544F502063616C6CE2
:1010100065642062656361757365206F6620424C6C
:10102000546F756368206572726F72202D2072652F
:1010300073746172742077697468204D3939390A84
:10104000005072696E74696E67204F626A656374DE
:10105000002553202569002F2F616374696F6E3A54
:1010600000656E640070726F6D70745F0073686FFE
:10107000770044697361626C6552756E6F757400B8
:1010800050757267654D6F726500486F74656E6468
:1010900020746F6F20636F6C640A0053656E642068
:1010A0004D31303820746F20726573756D650A009C
:1010B00052656865617420446F6E650052656865AD
:1010C0006174696E672E2E2E00526568656174002A
:1010D0004865617465722054696D656F757400535D
:1010E000656E64204D31303820746F2068656174FE
:1010F000206E6F7A7A6C650A004E6F7A7A6C652082
:101100005061726B6564007061757365640050496D
:1011100044204175746F74756E65202A00504944EF
:101120002D44202A005049442D49202A005049448A
:101130002D50202A002008204661637400200820DA
:101140004D6178002008204D696E004175746F7400
:10115000656D70005654726176204D696E00566D53
:10116000696E00566D6178204500566D6178205A91
:1011700000566D6178205900566D61782058004105
:101180006D6178204500416D6178205A00416D61A4
:1011900078205900416D6178205800412D547261CA
:1011A00076656C00412D5265747261637400416311
:1011B00063656C005A2056616C756500496E646504
:1011C00078205900496E646578205800466164654E
:1011D000204865696768740045646974204D6573CB
:1011E00068004C6576656C20426564004732380AB9
:1011F000473239004E4F005945530043616E6365D5
:101200006C204F626A656374203D0053746F7700F1
:101210004465706C6F790053572D4D6F64650053B2
:10122000656C662D546573740046616E205370655D
:1012300065640050726F6265204F66667365742046
:101240005A003F5A206F7574206F662072616E6776
:10125000652028003F59206F7574206F66207261E9
:101260006E676520282D0020746F20003F58206F86
:101270007574206F662072616E676520282D00509E
:10128000726F6265204F6666736574205800656EE4
:101290007175657565696E672022006F6B00526518
:1012A00073656E643A2000256979202569642025DC
:1012B00069682025696D2025697300236465666966
:1012C0006E652044454641554C545F004B642000F8
:1012D0004B6920004B702000504944204175746FC9
:1012E00074756E652066696E697368656421205047
:1012F000757420746865206C617374204B702C20A9
:101300004B6920616E64204B6420636F6E7374615F
:101310006E74732066726F6D2062656C6F772069E2
:101320006E746F20436F6E66696775726174696F62
:101330006E2E680A00504944204175746F74756EB2
:1013400065206661696C6564212074696D656F75DF
:10135000740A000A20436C61737369632050494426
:10136000200A00204B643A2000204B693A200020DC
:101370004B703A20000A204E6F206F7665727368BA
:101380006F6F740A002054753A2000204B753A2084
:1013900000206D61783A2000206D696E3A200020AF
:1013A000643A200020626961733A20005049442069
:1013B0004175746F74756E652073746172740A0080
:1013C000504944204175746F74756E65206661697B
:1013D0006C6564212054656D706572617475726509
:1013E00020746F6F20686967680A00504944204183
:1013F00075746F74756E6500504944204175746F43
:1014000074756E65206661696C6564212042616453
:10141000206578747275646572206E756D62657290
:101420000A004572723A207574663820666F6E74D1
:10143000206E6F7420696E697469616C697A656485
:101440002E00000C0F00FE07022503BB017FFE08E3
:10145000FE08FE05080806000040F0C88888987855
:1014600010050808060000C0F88888888888F805F4
:1014700005050600012030F83020050808060000A8
:101480002070F820202020E00509090600FF2070C8
:10149000A8A8B888887020070505070001D86C3611
:1014A0006CD80509090600FFF8A88888888888A8EC
:1014B000F8050A0A0600FE205050505088A8A88857
:1014C0007003030306000340A040FFFFFFFFFFFF80
:1014D000FFFFFFFFFFFFFFFFFFFFFFFFFFFFFFFF1C
:1014E0000000000605FF01070706020080808080DB
:1014F000800080030303060105A0A0A005060606E0
:10150000000050F85050F8500509090600FF2070FF
:10151000A8A07028A87020050707060000C8C810FA
:101520002040989805070706000040A0A040A8901A
:10153000680103030602058080800309090601FF94
:101540002040408080804040200309090601FF8040
:10155000404020202040408005070706000020A8CA
:10156000702070A8200505050600012020F8202025
:101570000203030601FFC04080050101060003F8D5
:10158000020202060100C0C005070706000008109D
:101590001020404080050707060000708898A8C802
:1015A000887003070706010040C040404040E00546
:1015B0000707060000708808102040F80507070696
:1015C0000000F808103008887005070706000010B2
:1015D000305090F81010050707060000F880F0085A
:1015E000088870050707060000304080F088887082
:1015F000050707060000F80810102020200507073F
:10160000060000708888708888700507070600004B
:1016100070888878081060020505060100C0C000C7
:10162000C0C00206060601FFC0C000C0408003051E
:10163000050601012040804020050303060002F852
:1016400000F80305050601018040204080050707DA
:101650000600007088102020002005070706000003
:101660007088B8A8B88070050707060000708888E1
:10167000F8888888050707060000F0484870484841
:10168000F0050707060000708880808088700507D5
:1016900007060000F04848484848F00507070600DC
:1016A00000F88080F08080F8050707060000F880C9
:1016B00080F0808080050707060000708880809891
:1016C0008870050707060000888888F888888803DE
:1016D0000707060100E04040404040E005070706DC
:1016E00000003810101010906005070706000088F1
:1016F00090A0C0A090880507070600008080808029
:101700008080F805070706000088D8A888888888A0
:101710000507070600008888C8A898888805070775
:101720000600007088888888887005070706000012
:10173000F08888F0808080050707060000708888A0
:1017400088A89068050707060000F08888F0A09038
:1017500088050707060000708880700888700507F4
:1017600007060000F820202020202005070706009B
:1017700000888888888888700507070600008888A0
:10178000888850502005070706000088888888A8A8
:10179000A850050707060000888850205088880553
:1017A000070706000088885020202020050707062C
:1017B0000000F80810204080F80309090601FFE046
:1017C00080808080808080E00507070600008040E0
:1017D00040201010080309090601FFE02020202006
:1017E000202020E0050303060005205088050101A4
:1017F0000600FEF8030303060105804020050505E9
:1018000006000070087888780507070600008080C9
:10181000F0888888F00505050600007080808870D3
:1018200005070706000008087888888878050505F8
:101830000600007088F08070050707060000304839
:1018400040E04040400507070600FE708888887821
:1018500008700507070600008080F08888888803E4
:1018600007070601004000C0404040E004090906A7
:1018700001FE1000301010101090600507070600E0
:101880000080808890E09088030707060100C04030
:1018900040404040E0050505060000D0A8A8A8A8E3
:1018A000050505060000B0C88888880505050600FE
:1018B0000070888888700507070600FEF088888811
:1018C000F080800507070600FE7888888878080879
:1018D000050505060000B0C88080800505050600E6
:1018E0000078807008F00507070600002020F82027
:1018F00020201805050506000088888898680505D9
:101900000506000088888850200505050600008827
:1019100088A8A850050505060000885020508805B5
:1019200007070600FE8888885020408005050506C8
:101930000000F8102040F80309090601FF2040408C
:101940004080404040200109090602FF80808080DD
:1019500080808080800309090601FF80404040208C
:101960004040408005030306000248A890FF5072E3
:101970006F6265205A204F66667365740046616E1B
:10198000205370656564207E004D61696E00466C71
:101990006F77002568753A2530326875002530323A
:1019A00068753A25303268750020202020202020DC
:1019B000001FE020102010201010201020201020E8
:1019C0001030300840048003001FE03FF03FF03F3C
:1019D000F01FE01FE03FF03FF03FF00FC007800333
:1019E000003FFFF038007030FC3020FC10207810F1
:1019F0002030102C00D02E31D02F7BD02F7BD02E3A
:101A000031D02C00D020301020781020FC1030FC79
:101A1000303800703FFFF03FFFF038007031863003
:101A20002387102787902F87D02F03D020301020B6
:101A300078102078102030102F03D02F87D02787E0
:101A4000902387103186303800703FFFF01FFFF879
:101A50001FFFF8041040020820020820041040086C
:101A60002080104100104100082080041040000038
:101A7000001FFFF81FFFF8000000001E000000001C
:101A80002100000000271DC08C0027212192004169
:101A9000212092008E21CE920090212092011021CF
:101AA000209201201D21CC0220000000041001130F
:101AB0000008100114801008011080200400A30009
:101AC00047F200A08043E200448020040043001855
:101AD000D8000000198400000021FC0000003F0035
:101AE0003F00496E697469616C697A6520454550AB
:101AF000524F4D00454550524F4D20566572736907
:101B00006F6E204572726F7200454550524F4D20E6
:101B1000496E646578204572726F72004545505277
:101B20004F4D20435243204572726F720049676ED9
:101B30006F726500486F6D696E67204661696C65FC
:101B400064006F70656E00545249474745524544E2
:101B50000066696C616D656E74007A5F6D696E0018
:101B6000795F6D696E00785F6D696E005265706FA8
:101B70007274696E6720656E6473746F702073741D
:101B8000617475730A00486F6D6520257325732590
:101B90007320466972737400436F6E66696775726D
:101BA0006174696F6E0043616E63656C204F626A99
:101BB0006563740043616E63656C003132300042CE
:101BC00045443A204550434F53203130304B00526A
:101BD000756E617761792057617463683A204F4E62
:101BE000004D61782054656D7000323735004D69C5
:101BF0006E2054656D700045313A204550434F5377
:101C0000203130304B005053550047656E65726986
:101C1000630050726F746F636F6C00312E3000423E
:101C20006175640032353030303000437265616C6C
:101C300069747933442052414D50530042696C69B4
:101C40006E656172204C6576656C696E67004578DB
:101C5000747275646572730043522D3130205633AF
:101C600000323032302D31302D31302031333A32A4
:101C700038005072696E7465722053746174730019
:101C8000546865726D6973746F727300426F61722C
:101C90006420496E666F005072696E7465722049E7
:101CA0006E666F004368616E6765204D65646961AB
:101CB000004D32310041626F7574205072696E744C
:101CC000657200526573756D65205072696E74009F
:101CD0004E6F204D656469610054756E65005374E4
:101CE0006F70205072696E7400506175736520507A
:101CF00072696E7400496E666F2053637265656E1B
:101D0000005374617274205072696E740043616E86
:101D10006E6F7420656E746572207375626469728B
:101D20003A2000022E2E00456E636C6F737572654B
:101D30000052756E6F75742044697374206D6D0068
:101D40004C6F6164206D6D00556E6C6F6164206D29
:101D50006D0046696C2E204469612E004520696E35
:101D6000206D6DC2B3004D333033205531204525F1
:101D700069205325690000FE0003FF8007C7C007E4
:101D800001E00000E00000F00000700400700E00B0
:101D9000701F00703F80F00E00E00F01E007C7C029
:101DA00003FF8000FE0000FE0003FF8007C7C00F96
:101DB00001E00E00E03F80F01F00700E0070040094
:101DC000700000700000F00000E00701E007C7C0ED
:101DD00003FF8000FE000E000E000E000E000E003D
:101DE0000E000E000E007FC03F801F000E0004009A
:101DF00004000E001F003F807FC00E000E000E008A
:101E00000E000E000E000E000E00FFFFFF7F80FF91
:101E1000C0FFC0FFC07F807F80FFC0FFC0FFC03F0A
:101E2000001E000C0000009B4300009B430000C804
:101E30004300000000000000000000000053657433
:101E400074696E67732053746F72656400206279E1
:101E50007465733B20637263200053657474696E0C
:101E600067732053746F7265642028004545505293
:101E70004F4D206461746173697A65206572726F79
:101E8000722E0A002073746F726564207365747417
:101E9000696E67732072657472696576656420285F
:101EA00000202863616C63756C6174656429210A84
:101EB0000020213D2000454550524F4D20435243C4
:101EC000206D69736D61746368202D202873746FB1
:101ED000726564292000496E6465783A2000204DBF
:101EE00061726C696E3D563831290A004545505281
:101EF0004F4D2076657273696F6E206D69736D61E9
:101F00007463682028454550524F4D3D004F46466A
:101F10000A0046616465204865696768742000426C
:101F20006564204C6576656C696E67200046616962
:101F30006C656420746F20656E61626C652042651B
:101F400064204C6576656C696E670A00496E76613F
:101F50006C6964206D6573682E0A0050726F626947
:101F60006E6720506F696E740025532025692F25F8
:101F7000690050726F62696E67206D6573682070CA
:101F80006F696E742000202844525952554E290022
:101F9000473239204175746F20426564204C657664
:101FA000656C696E67003F20284C2C522C462C42F1
:101FB00029206F7574206F6620626F756E64732EB2
:101FC0000A003F2856296572626F7365206C65763A
:101FD000656C20696D706C61757369626C65202831
:101FE000302D34292E0A00426164205A2076616C1B
:101FF00075650A004E6F2062696C696E65617220BA
:10200000677269640A00446576696174696F6E007D
:1020100025533A2025730046696E6973686564210B
:102020000A003A207A3A2000206F662000476F6944
:102030006E6720746F3A20580043570A0020646985
:10204000723A0020616E676C653A00537461727475
:10205000207261646975733A004D343820506F699D
:102060006E740025533A2025642F256400506F7349
:102070006974696F6E696E67207468652070726F2D
:1020800062652E2E2E0A003F4C656773206F662016
:102090006D6F76656D656E7420696D706C617573BA
:1020A00069626C652028302D3135292E0A003F20C9
:1020B00028582C5929206F7574206F6620626F751F
:1020C0006E64732E0A0050726F6265206F75742003
:1020D0006F6620626F756E6473003F53616D706C44
:1020E000652073697A65206E6F7420706C617573FA
:1020F00069626C652028342D3530292E0A004D3454
:1021000038205A2D50726F62652052657065617477
:102110006162696C69747920546573740A00000007
:102120000000000000600000000000FC00000FF054
:102130000000000007E00000000001861FC01870CA
:102140000000000000603C0C000001830C601030B7
:102150000000000000603C0C000001830C303030B7
:10216000000000000060000C000000030C183000AC
:10217000000000000060003F0F3C00030C0C6001F9
:10218000DF0FE0FE00601C1C061800060C0C60004F
:10219000F318318300600C0C0318001E0C0C600057
:1021A000E030398300600C0C033000030C0C60003D
:1021B000C030380F00600C0C033000018C0C600044
:1021C000C03FF8FB00600C0C033000018C0C603049
:1021D000C030018300600C0C01F001818C0C603078
:1021E000C030018300600C0C00E001818C1830309D
:1021F000C018318300600C0C40E001838C30186003
:10220000C00C6187C0E01C0CC06000C30C600FC331
:10221000F007C0FFC7FC7F0781C0007E1FC0000021
:1022200000000000000000000700000000000000A7
:1022300000000000000000000700000000001FFF79
:10224000FFFFFFFFFF600000000001FF40000000F3
:102250000000FF8000000000007F83CF00000C30F2
:102260003F87FF80000C301F867980000C000F8CA8
:1022700030C7838C30E78C30CFC7CC31F38C30DC67
:10228000ECEC33B98C30D86C6C33198C30D06C0CCE
:1022900033198C30D86C0C33198C30DC6C0E3B1934
:1022A0008C30CF7C079F198C30C77C038F1940007E
:1022B0000000000002600000000000061FFFFFFF9A
:1022C000FFFFF870012C0190012701B0012201C02D
:1022D000011D01F00118011002130130020E01600E
:1022E00002090190020401C002FF000003FA00404D
:1022F00003F5008003F000D003EB002004E600703B
:1023000004E100E004DC004005D700C005D2004035
:1023100006CD00D006C8008007C3003008BE00F01C
:1023200008B900C009B400B00AAF00B00BAA00D0D1
:102330000CA500000EA000500F9B00C0109600508E
:1023400012910000148C00C0158700B0178200B0F5
:10235000197D00D01B7800001E730040206E009095
:10236000226900F024640040275F0090295A00E0B1
:102370002B5500102E500020304B0010324600E04C
:1023800033410090353C001037370070383200A0E0
:10239000392D00B03A2800A03B2300603C1E0010FD
:1023A0003D1900903D1400103E0F00703E0A00C021
:1023B0003E0500003F0000403FFBFF803FF6FFC0AE
:1023C0003FF1FF68747470733A2F2F6D61726C69FE
:1023D0006E66772E6F726700322E302E372E312DBB
:1023E000424C2D46695A69002020506C616E6E6522
:1023F0007242756666657242797465733A20002090
:1024000046726565204D656D6F72793A2000436FA5
:102410006D70696C65643A204F63742031302032EE
:102420003032300A00204C6173742055706461743E
:1024300065643A20323032302D31302D3130203148
:10244000333A3238207C20417574686F723A2046E6
:10245000695A692C20435231302D56332C20626149
:10246000736564206F6E206672616E367020435211
:1024700031302D56320A00322E302E372E312D4279
:102480004C2D46695A690A004D61726C696E0020D4
:10249000536F6674776172652052657365740A00C4
:1024A000205761746368646F672052657365740AAE
:1024B000002042726F776E206F75742052657365CD
:1024C000740A002045787465726E616C20526573E1
:1024D00065740A00506F77657255700A00617574F3
:1024E0006F25632E67004732385859004D31303020
:1024F00031006572726F722077726974696E67203D
:10250000746F2066696C650A00446F6E65207361A4
:1025100076696E672066696C652E0A004D32390057
:10252000255320256320256320256320256300652E
:102530006E6473746F7073206869743A2000496E1A
:1025400076616C69642065787472756465720A00DE
:1025500048656174696E67204661696C656400480E
:10256000656174696E67206661696C6564004D31F0
:1025700031322053687574646F776E00202D2049C6
:102580006E76616C6964206578747275646572201A
:102590006E756D62657220210A00544845524D41A6
:1025A0004C2052554E4157415900546865726D6137
:1025B0006C2052756E61776179004572723A204DD8
:1025C000415854454D50004D415854454D5020748C
:1025D0007269676765726564004572723A204D4999
:1025E0004E54454D50004D494E54454D5020747247
:1025F0006967676572656400202F002042403A00D9
:1026000020403A0020573A007C3C3E5E2B3D3F2F55
:102610005B5D3B2C2A225C002053697A653A2000DE
:1026200043616E6E6F74206F70656E2073756264A7
:1026300069722000534420496E6974204661696CB8
:102640000053442063617264206F6B0A006F7065F1
:102650006E526F6F74206661696C65640A00766FF4
:102660006C756D652E696E6974206661696C656450
:102670000A004E6F20534420636172640A004D3299
:1026800033202573006F70656E206661696C656428
:102690002C2046696C653A200046696C652073659C
:1026A0006C65637465640A0046696C65206F7065CB
:1026B0006E65643A2000454E4420535542524F55B2
:1026C00054494E450A002220706F73002220706129
:1026D00072656E743A2200535542524F5554494E1A
:1026E000452043414C4C207461726765743A220066
:1026F00053756263616C6C204F766572666C6F77A0
:10270000004578636565646564206D617820535584
:1027100042524F5554494E452064657074683A31B1
:102720000A0057726974696E6720746F2066696C5D
:10273000653A20005344207072696E74696E672098
:102740006279746520004E6F742053442070726962
:102750006E74696E670A00667265736800646F69FB
:102760006E67004E6F7720005072696E7420506162
:10277000757365640020746F6F206C6F6E672065E1
:102780007874727573696F6E2070726576656E7499
:1027900065640A0020636F6C6420657874727573D9
:1027A000696F6E2070726576656E7465640A00628A
:1027B0006567696E00627574746F6E00436F6E7446
:1027C000696E7565004C6F61642046696C616D656A
:1027D0006E74205400496E736572742066696C6172
:1027E0006D656E7420616E642073656E64204D317A
:1027F00030380A00220A00556E6B6E6F776E2063C8
:102800006F6D6D616E643A20220043522D3130208D
:1028100056332052656164792E005072696E746976
:102820006E672E2E2E00205A3A0020593A004C6F27
:1028300061642053657474696E67730053746F72BA
:10284000652053657474696E677300416476616EC8
:102850006365642053657474696E677300554E4CEC
:102860004F41442046494C414D454E540046494C49
:10287000414D454E54204348414E474500526573F3
:10288000746F72652044656661756C747300507274
:102890006568656174202420436F6E660052756E12
:1028A0006F75742053656E736F7200424C546F7570
:1028B0006368004D37303220542564004D36303087
:1028C00020423020542564004D373032203B2564AF
:1028D000004D37303120542564004D373032004DE3
:1028E000373031004D36303020423000507572673D
:1028F00065206D6F726500524553554D45204F5010
:1029000054494F4E533A005052494E54205041556D
:102910005345440020204E6F7A7A6C653A2000259A
:102920006C642E25696D0045787472756465642049
:10293000546F74616C004C6F6E67657374204A6FDE
:10294000622054696D65003E2000546F74616C20F4
:102950005072696E742054696D6500436F6D706CC0
:1029600065746564005072696E7420436F756E748F
:10297000005061726B696E672E2E2E000000576149
:10298000697420666F720066696C616D656E742093
:102990006368616E676500746F20737461727400A0
:1029A0005761697420666F720066696C616D656E4F
:1029B0007420756E6C6F616400004E6F7A7A6C657E
:1029C0002068656174696E6700506C65617365208D
:1029D000776169742E2E2E00005072657373206229
:1029E0007574746F6E00746F2068656174206E6F0B
:1029F0007A7A6C650000496E736572742066696C42
:102A0000616D656E7400616E642070726573732011
:102A1000627574746F6E00746F20636F6E74696E8C
:102A20007565005761697420666F720066696C6134
:102A30006D656E74206C6F61640000507265737315
:102A400020427574746F6E00746F20726573756DBB
:102A500065207072696E7400005761697420666F3A
:102A600072207072696E7400746F20726573756D78
:102A7000652E2E2E00005761697420666F72006605
:102A8000696C616D656E74207075726765000056C3
:102A9000652D4A65726B00565A2D4A65726B005659
:102AA000592D4A65726B0056582D4A65726B00505D
:102AB000726F62652059204F6666736574005072AC
:102AC0006F62652058204F666673657400452073F9
:102AD000746570732F6D6D005A2053746570732F79
:102AE0006D6D00592053746570732F6D6D00582003
:102AF00053746570732F6D6D00496E697400507268
:102B00006F6265204F666673657473004163636529
:102B10006C65726174696F6E0056656C6F63697481
:102B200079004F6666004F6E004D6F74696F6E00DE
:102B30004D3834004175746F20486F6D65005465E1
:102B40006D7065726174757265002100486F7465FF
:102B50006E6420746F6F20636F6C640050726F63DB
:102B600065656400536F667420456E6473746F709E
:102B7000730044697361626C65205374657070659D
:102B80007273004D34382050726F62652054657343
:102B90007400473238204F0A4D343820503130000D
:102BA000486F6D65205A004732385A00486F6D658E
:102BB0002059004732385900486F6D65205800474A
:102BC00032385800473238005072656865617420A9
:102BD0002420456E6400507265686561742024206D
:102BE00042656400436F6F6C646F776E0024F4D4A9
:102BF0003050C38E20C2A24017828B7011127A917E
:102C00000D816CD90AA861E108C758660761514374
:102C1000061E4B5D05C145A7041A411104093D98E4
:102C200003713931034036DB0265339102D43054ED
:102C300002802E1D02632CEE01752AC501B028A06A
:102C400001102781018F2564012B244B01E02234E0
:102C500001AC211F018D200D01801FFC00841EEDA1
:102C600000971DDF00B81CD200E61BC600201BBC6D
:102C700000641AB200B219A8000A19A0006A1899D3
:102C800000D117910040178B00B516840031167ED5
:102C900000B31579003A157300C7146F0058146A11
:102CA00000EE1366008813630025135E00C7125BF5
:102CB000006C12570015125400C111510070114FD1
:102CC0000021114B00D61049008D104700461044DA
:102CD0000002104200C00F4000800F3E00420F3C37
:102CE00000060F3B00CB0E3800930E37005C0E350C
:102CF00000270E3400F30D3200C10D3100900D306D
:102D000000600D2E00320D2D00050D2C00D90C2B6E
:102D100000AE0C2900850C29005C0C2700350C271F
:102D2000000E0C2600E80B2400C40B2400A00B238B
:102D3000007D0B23005A0B2100390B2100180B20BA
:102D400000F80A1F00D90A1E00BB0A1E009D0A1DBA
:102D500000800A1D00630A1C00470A1B002C0A1B86
:102D600000110A1A00F7091A00DD091900C409192F
:102D700000AB091900920917007B091800630917B5
:102D8000004C09160036091600200916000A09151C
:102D900000F5081500E0081400CC081400B8081469
:102DA00000A4081400900813007D0812006B08139B
:102DB00000580812004608120034081100230811B8
:102DC000001208110001081100F0071000E00710C0
:102DD00000D0071000C0071000B0070F00A10710B7
:102DE0000091070E0083070F0074070F0065070EA0
:102DF0000057070E0049070E003B070D002E070E77
:102E00000020070D0013070D0006070D00F9060C42
:102E100000ED060D00E0060C00D4060C00C8060C00
:102E200000BC060C00B0060C00A4060B0099060CB2
:102E3000008D060B0082060B0077060B006C060B5C
:102E40000061060A0057060B004C060A0042060AFB
:102E50000038060A002E060A0024060A001A060A8E
:102E6000001006090007060A00FD050900F405091F
:102E700000EB050900E2050900D9050900D00509A4
:102E800000C7050900BE050900B5050800AD050825
:102E900000A50509009C050800940508008C05089C
:102EA00000840508007C050800740508006C05070F
:102EB00000650508005D050700560508004E05077A
:102EC00000470507004005080038050700310507E1
:102ED000002A050700230507001C05060016050744
:102EE000000F0507000805060002050700FB0406A1
:102EF00000F5040700EE040600E8040600E20407FB
:102F000000DB040600D5040600CF040600C9040651
:102F100000C3040600BD040600B7040600B10405A2
:102F200000AC040600A6040600A00405009B0406ED
:102F30000095040500900406008A04050085040538
:102F400000800406007A040500750405007004057D
:102F5000006B04050066040500610405005C0405BF
:102F60000057040500520405004D040500480405FF
:102F700000430405003E0404003A0405003504053E
:102F800000300404002C0405002704040023040579
:102F9000001E0404001A04040016040500110404B1
:102FA000000D0404000904050004040400000404E6
:102FB00000FC030400F8030400F4030400F003041D
:102FC00000EC030400E8030400E4030400E003044D
:102FD00000DC030400D8030400D4030400D003047D
:102FE00000CC030400C8030300C503030024F40459
:102FF000D9201BC40C5C0E9804C4095F02650771DC
:1030000001F405F900FB04B30048048700C103691B
:10301000005803550003034500BE023A0084023104
:103020000053022A002902250004022000E4011CAA
:1030300000C8011900AF01170098011400840113A2
:1030400000710110006101100051010E0043010DDB
:103050000036010B002B010B0020010B00150109AC
:10306000000C01090003010800FB000800F3000840
:1030700000EB000700E4000600DE000600D80006B2
:1030800000D2000600CC000500C7000500C2000504
:1030900000BD000400B9000400B5000400B1000444
:1030A00000AD000400A9000400A5000300A2000375
:1030B000009F0004009B000300980003009500029D
:1030C0000093000300900003008D0002008B0003BA
:1030D00000880002008600020084000300810002D4
:1030E000007F0002007D0002007B000200790002E8
:1030F00000770001007600020074000200720001F7
:1031000000710002006F0002006D0001006C0002FF
:10311000006A00010069000200670001006600010A
:10312000006500010064000200620001006100010E
:1031300000600001005F0002005D0001005C000112
:10314000005B0001005A0001005900010058000115
:103150000057000100560001005500010054000115
:103160000053000000530001005200010051000113
:1031700000500001004F0001004E0000004E000111
:10318000004D0001004C0001004B0000004B00010D
:10319000004A000100490001004800000048000109
:1031A0000047000100460000004600010045000005
:1031B00000450001004400010043000000430001FD
:1031C00000420000004200010041000000410001F7
:1031D00000400001003F0000003F0001003E0000F1
:1031E000003E0001003D0000003D0001003C0000E9
:1031F000003C0000003C0001003B0000003B0001DF
:10320000003A0000003A00010039000000390001D6
:1032100000380000003800000038000100370000CE
:1032200000370001003600000036000000360001C3
:1032300000350000003500000035000100340000BA
:1032400000340000003400010033000000330000AF
:1032500000330001003200000032000000320001A3
:10326000003100000031000000310001003000009A
:103270000030000000300001002F0000002F00008F
:10328000002F0000002F0001002E0000002E000083
:10329000002E0001002D0000002D0000002D000078
:1032A000002D0001002C0000002C0000002C00006C
:1032B000002C0001002B0000002B0000002B000060
:1032C000002B0001002A0000002A0000002A000054
:1032D000002A000100290000002900000029000048
:1032E000002900000029000100280000002800003B
:1032F000002800000028000000280001002700002E
:103300000027000000270000002700000027000120
:103310000026000000260000002600000026000015
:103320000026000100250000002500000025000007
:1033300000250000002500000025000100240000F9
:1033400000240000002400000024000000240001EC
:1033500000230000002300000023000000230000E1
:1033600000230000002300000023000100220000D1
:1033700000220000002200000022000000220000C5
:1033800000220001002100000021000000210000B7
:1033900000210000002100000021000000210001A8
:1033A000002000000020000000200000002000009D
:1033B000002000000020000000200000002000018C
:1033C000001F0000001F0000001F0000001F000081
:1033D000001F0000001F0000001F0001001E000071
:1033E000001E0000001E0000001E0000003930001A
:1033F000003325000087190000B00F0000DB080033
:1034000000BD040000740200003F0100005374611D
:103410006E6461726420446576696174696F6E3AA6
:1034200020002052616E67653A2000205369676D65
:10343000613A20004D65616E3A2000416363656C1E
:1034400065726174696F6E3A2050005741524E495F
:103450004E4721204C6F77205A204A65726B206DB1
:103460006179206C65616420746F20756E77616E80
:10347000746564207061757365732E0A00204D3980
:103480003220580020204D61783A200020204D69DC
:103490006E3A2000536F667420656E6473746F70AB
:1034A000733A200020496E76616C696420657874F7
:1034B00072756465722000000048420000484200B6
:1034C00000C0400202040000A0400000A040000034
:1034D0000040FFFFFF00000001000000010000802D
:1034E00000555555000000400033333300AAAA2A86
:1034F000004992240000002000C7711C009999190E
:1035000000D1451700555515003BB1130024491251
:103510000011111100000010000F0F0F00E3380E12
:103520000043790D00CCCC0C00C3300C00E8A20B9A
:103530000064210B00AAAA0A00703D0A009DD80968
:1035400000427B090092240900DCD3080088880827
:10355000001042080000000800F0C107008787073C
:103560000075500700711C07003EEB0600A1BC0669
:10357000006990060066660600703E060061180647
:103580000017F4050074D105005BB00500B290058A
:1035900000627205005555050078390500B81E0512
:1035A00000050505004EEC040087D40400A1BD040D
:1035B0000090A7040049920400C17D0400EE690454
:1035C00000C7560400444404005C3204000821048F
:1035D0000041100400000004003FF00300F8E00385
:1035E0000026D20300C3C30300CCB503003AA803EE
:1035F000000A9B0300388E0300C08103009F7503FF
:1036000000D0690300505E03001D530300344803DB
:1036100000913D03003333030016290300381F03D4
:103620000097150300300C0300030303000BFA029C
:103630000049F10200BAE802005CE002002DD80265
:10364000002DD0020059C80200B0C0020031B902FA
:1036500000DAB10200AAAA0200A0A30200BC9C02E8
:1036600000FA9502005C8F0200DF8802008282026D
:1036700000457C02002776020027700200436A02A0
:10368000007C640200D05E02003F590200C8530271
:1036900000FFFDFCFAF8F6F4F2F0EEECEAE9E7E5FB
:1036A000E3E1E0DEDCDAD9D7D5D4D2D0CFCDCBCAB6
:1036B000C8C7C5C3C2C0BFBDBCBAB9B7B6B4B3B240
:1036C000B0AFADACAAA9A8A6A5A4A2A1A09E9D9C9E
:1036D0009A99989795949392908F8E8D8B8A8988DA
:1036E000878684838281807F7E7D7B7A79787776F6
:1036F0007574737271706F6E6D6C6B6A69686766F2
:103700006564636261605F5E5D5C5B5A59585857DF
:1037100056555453525150504F4E4D4C4B4A4A49B6
:1037200048474646454443424241403F3E3E3D3C79
:103730003B3B3A393838373635353433323231302D
:10374000302F2E2E2D2C2B2B2A29292827272625D2
:103750002524232322212120201F1E1E1D1C1C1B6B
:103760001B1A1919181817161615151413131212F7
:103770001111100F0F0E0E0D0D0C0C0B0A0A09097A
:1037800008080707060605050404030302020100F2
:10379000005761726E696E673A20486F6D696E6797
:1037A0002042756D702044697669736F72203C20E9
:1037B000310A005045544700504C41005072696E28
:1037C000742066726F6D204D656469610050726F80
:1037D00062696E67204661696C656400205A3A2010
:1037E0000020593A200042656420583A200043687E
:1037F000616E67652046696C616D656E7400556E1B
:103800006C6F61642046696C616D656E74004C6F0D
:1038100061642046696C616D656E74005072656804
:1038200065617420437573746F6D005072656865CF
:1038300061742024004261636B00B837B337000025
:103840002200250028002B002E0031003400020148
:103850000000050108010B010000210024002700E1
:103860002A002D003000330001010000040107018F
:103870000A010505050507050808080802020202F5
:103880000A0A0808040404040101010101010101FC
:103890000303030303030303040707070C0C0C0CC7
:1038A0000C0C0C0C020202020606060606060606B0
:1038B0000B0B0B0B0B0B0B0B01021020200808103D
:1038C0002040102040800201020108040201010290
:1038D0000408102040808040201008040201800469
:1038E00002018040201008040201080402010102C4
:1038F000040810204080010204081020408020525B
:103900000048617264636F64656420446566617534
:103910006C742053657474696E6773204C6F6164B6
:1039200065640A003B200020204D36303320002003
:10393000204D34313220530046696C616D656E74E0
:103940002072756E6F75742073656E736F723A00B6
:1039500020550046696C616D656E74206C6F616402
:103960002F756E6C6F6164206C656E677468733A56
:103970000020204D3835312058005A2D50726F628A
:1039800065204F66667365740020204D3330342007
:10399000500020204D3330312050005049442073D6
:1039A000657474696E67733A0020460020480020F1
:1039B000204D3134352053004D6174657269616C5E
:1039C0002068656174757020706172616D657465E1
:1039D00072733A00204A002020473239205720498C
:1039E0000020204D3432302053004175746F204246
:1039F0006564204C6576656C696E673A0020204DE1
:103A0000323035204200416476616E6365643A204D
:103A1000423C6D696E5F7365676D656E745F746956
:103A20006D655F75733E20533C6D696E5F666565BD
:103A300064726174653E20543C6D696E5F7472619E
:103A400076656C5F66656564726174653E20583C9E
:103A50006D61785F785F6A65726B3E20593C6D617D
:103A6000785F795F6A65726B3E205A3C6D61785F62
:103A70007A5F6A65726B3E20453C6D61785F655F79
:103A80006A65726B3E0020204D3230342050004178
:103A90006363656C65726174696F6E2028756E6909
:103AA00074732F7332293A20503C7072696E745FC0
:103AB000616363656C3E20523C726574726163742D
:103AC0005F616363656C3E20543C74726176656C23
:103AD0005F616363656C3E0020204D3230312058B9
:103AE000004D6178696D756D20416363656C657229
:103AF0006174696F6E2028756E6974732F73322933
:103B00003A0020204D3230332058004D6178696DE5
:103B1000756D206665656472617465732028756EC5
:103B20006974732F73293A0053746570732070653C
:103B30007220756E69743A0020440020204D3230A6
:103B4000302053002044697361626C65640A00464A
:103B5000696C616D656E742073657474696E6773EA
:103B60003A0020204D3134392043203B20556E69E6
:103B7000747320696E2043656C736975730A002045
:103B8000286D6D29002020473231202020203B2045
:103B9000556E69747320696E206D6D0000803B4422
:103BA00000803B4400007041000096420000A042AB
:103BB0000000A0420000C8430080CF43D0070000AF
:103BC000D007000064000000881300006E6F746965
:103BD0006669636174696F6E200063616E63656C12
:103BE000005072696E742041626F727465640044A3
:103BF00069736D6973730055492041626F72746512
:103C000064004D323520500A4D32340052657375D0
:103C10006D6500554920506175736500506175737D
:103C2000696E672E2E2E00726573756D650000003B
:103C30000A0B02090C0D0E08070304010000000026
:103C40000000000000000000000000000000000074
:103C50000000000000000000000012111000000031
:103C60000000000000000000000000000000000054
:103C7000000000004D6F76652025736D6D004D6F5F
:103C8000766520302E316D6D004D6F766520316D7B
:103C90006D004D6F76652031306D6D004D6F76652E
:103CA0002041786973004578747275646572004DBF
:103CB0006F7665205A004D6F76652059004D6F76FE
:103CC00065205800446966663A2020200046726FDD
:103CD0006D5374703A00537465707065723A005594
:103CE0006E4C6576656C3A004C6576656C65643A39
:103CF000005261773A20202020000A4C6F676963E8
:103D0000616C3A00436F756E7420453A00436170F0
:103D10003A004348414D4245525F54454D5045524B
:103D2000415455524500424142595354455050491F
:103D30004E470041524353004D4F54494F4E5F4D43
:103D40004F44455300544845524D414C5F50524FEB
:103D500054454354494F4E004C4F4E475F46494CE3
:103D6000454E414D45004155544F5245504F5254D8
:103D70005F53445F5354415455530053444341529D
:103D8000440050524F4D50545F535550504F525471
:103D900000454D455247454E43595F5041525345AA
:103DA0005200434153455F4C494748545F42524992
:103DB0004748544E45535300544F47474C455F4C7A
:103DC000494748545300534F4654574152455F505A
:103DD0004F574552004255494C445F504552434568
:103DE0004E54004C4556454C494E475F4441544162
:103DF000005A5F50524F4245004155544F4C455672
:103E0000454C005052494E545F4A4F420050524F69
:103E10004752455353004155544F5245504F525409
:103E20005F54454D5000564F4C554D4554524943F3
:103E30000042494E4152595F46494C455F545241F8
:103E40004E534645520053455249414C5F584F4EE0
:103E50005F584F4646004649524D574152455F4EC6
:103E6000414D453A4D61726C696E20322E302E37CD
:103E70002E312D424C2D46695A6920284F637420FB
:103E8000313020323032302031333A33343A323923
:103E90002920534F555243455F434F44455F555288
:103EA0004C3A68747470733A2F2F6769746875623E
:103EB0002E636F6D2F4D61726C696E4669726D77FE
:103EC0006172652F4D61726C696E2050524F544F74
:103ED000434F4C5F56455253494F4E3A312E302096
:103EE0004D414348494E455F545950453A43522D40
:103EF00031302056332045585452554445525F4383
:103F00004F554E543A3120555549443A63656465DE
:103F1000326132662D343161322D343734382D39E7
:103F20006231322D63353563363266333637666635
:103F30000A0020436F756E7420583A0045310062C4
:103F40006564002C2073797374656D2073746F70D1
:103F500070656421204865617465725F49443A2048
:103F6000000099018B0211241FBECFEFD1E2DEBF0A
:103F7000CDBF00E00CBF13E0A0E0B2E0E0EEF6ED54
:103F800002E00BBF02C007900D92A232B107D9F731
:103F900027E1A2E2B3E001C01D92A830B207E1F729
:103FA0001FE1C2EBDFE100E006C021970109802F8D
:103FB000FE010F94C167C13BD10780E00807A9F754
:103FC0000F9443500D945E6B0C9400002F923F921F
:103FD0004F925F926F927F928F929F92AF92BF9219
:103FE000CF92DF92EF92FF920F931F93CF93DF93C5
:103FF000CDB7DEB7E6970FB6F894DEBF0FBECDBFE4
:104000008DAB209192082CAB11E010939208809117
:1040100064048D3409F44CC3843511F40C941C31C0
:10402000873411F00C942E318091620490916304D6
:104030008B31910509F41BC1B4F48430910534F43B
:1040400082309105E4F597FF2EC02EC3853191058E
:1040500011F40C9430318A31910509F404C10497AC
:1040600009F022C3C1C08A32910509F43DC24CF463
:104070008D319105B1F00CF415C14E9709F45EC174
:1040800013C38B35910509F4D8C18C35910509F41A
:10409000D9C18A35910509F007C3109231030C94F8
:1040A000303114E02DC180919907813011F00C94CA
:1040B00030310F94EC210E9460940C9430312091A7
:1040C0009907213011F00C94303111E0029709F07A
:1040D00010E00F94EC2119821A821B821C821D822F
:1040E0001E821F82188682E50E94BE45882309F43D
:1040F0004BC00E9439456B017C0120E030E0A901F2
:104100000F94C660882309F455C08091E608909109
:10411000E708A091E808B091E90888A799A7AAA79D
:10412000BBA78091EA089091EB08A091EC08B091B0
:10413000ED0888AB99ABAAABBBAB8090C10F909058
:10414000C20FA090C30FB090C40F4090C50F509005
:10415000C60F6090C70F7090C80FA501940168A5A5
:1041600079A58AA59BA50F94C66081110C9439315D
:10417000A301920168A979A98AA99BA90F94C66095
:104180008823C1F00C94393189E40E94BE4588230C
:1041900031F00E94394569837A838B839C838AE45A
:1041A0000E94BE45882331F00E9439456D837E838D
:1041B0008F83988720E030E0A90169817A818B8123
:1041C0009C810F94C66081110C94ED3120E030E0A9
:1041D000A9016D817E818F8198850F94C6608111C0
:1041E0000C94ED310C94153280E50E94BE45882375
:1041F00029F00F94D2276B017C0103C0C12CD12C74
:10420000760183E50E94BE45882361F00E9439450E
:1042100020E030E04AE754E40F942C610F943D69AC
:104220006B017C010F94092B80916516811105C0EB
:1042300060E08EE297E00F94D3430F94AA49C60E34
:10424000D71EE81EF91E0F94AA49DC01CB018C1978
:104250009D09AE09BF09B7FD02C00C94303180E062
:104260000E94E139F0CF0E94EF450C94303187E095
:104270000E94699381110C9430318CE0EBE8F2E0FC
:10428000DE01119601900D928A95E1F760E070E0F1
:1042900080E50F94F525BE016F5F7F4F0E94429F1E
:1042A0000C9430318091970F8770873011F00C9407
:1042B0001C3260E08FE40E94DA4581110C943031A9
:1042C0000C941C328091521681112AC00E94FFC8A2
:1042D000882361F1115011F40C94F73320E030E0A1
:1042E0004FEE5BE366E977E085E00E94625A61E0A9
:1042F00089E897E00E940F5A8AE597E00F94244ED0
:104300000F94AA496093AB077093AC078093AD07F5
:104310009093AE0787E00E946993882399F206C0C4
:1043200060E08FE40E94DA45882381F20E94335ACC
:1043300085E298E00F94244E0C9430312091D30FF5
:104340003091D40F4091D50F5091D60F6091E6086F
:104350007091E7088091E8089091E9080F94CA6786
:10436000AB01BC0188E50E94787269837A838B83F4
:104370009C832091D70F3091D80F4091D90F509145
:10438000DA0F6091EA087091EB088091EC08909147
:10439000ED080F94CA67AB01BC0189E50E947872F1
:1043A0006D837E838F839887BE016B5F7F4FCE01C5
:1043B00001960E9458C3882311F40C94303180E098
:1043C0000E94B5550E94389761E085E40E94DA4565
:1043D000182F21E0482FBE016B5F7F4FCE01019661
:1043E0000F94E0316B017C019B01AC010F94BC6A1E
:1043F000811119C049815A816B817C8186EE97E3D6
:104400000E944A5B4D815E816F81788581EE97E3E2
:104410000E944A5BB701A6018CED97E30E944A5BBC
:104420008AE00E94B5380E941F97113011F40E9453
:104430003EC30E9488990C9430318FE08093310301
:104440000C943031BEEDCB2EB2E0DB2E16EEE12E19
:1044500018E0F12E00E0312C10E0D6018D916D01B5
:104460000E94BE45882359F10E9439454B015C01E9
:10447000F70120813181428153810F94C9672B015B
:104480003C012DEB37E346E855EB0F942A6A87FD94
:104490000AC02DEB37E346E855E3C301B2010F94A0
:1044A000C660181664F4133011F401E002C033241E
:1044B0003394D7018D929D92AD92BC9213971F5F5A
:1044C000B4E0EB0EF11C143041F6332019F00E94D9
:1044D000869906C0002321F082EF98E00F94EC2E1D
:1044E0000E9488990C94303180919907813011F0A5
:1044F0000C94303189E40E94BE45E82E882321F0D7
:104500000E943545082F01C000E08AE40E94BE45A4
:10451000F82E882321F00E943545182F01C010E0A5
:10452000EE2011F0053020F4FF2041F0153030F07E
:104530008DE398E00E94005A0C94303180E1E6EE61
:10454000F8E0A1ECBFE001900D928A95E1F7EE2032
:1045500019F1602F000F770B880B990B0F94CD602A
:104560002091CE153091CF154091D0155091D11595
:104570000F942C61209196053091970540919805F4
:10458000509199050F94CA676093C10F7093C20F41
:104590008093C30F9093C40FFF2019F1612F110F67
:1045A000770B880B990B0F94CD602091D215309129
:1045B000D3154091D4155091D5150F942C612091AD
:1045C0009A0530919B0540919C0550919D050F9453
:1045D000CA676093C50F7093C60F8093C70F9093FF
:1045E000C80F60E080E50E94DA458823C1F1EE2023
:1045F000D1F02091D30F3091D40F4091D50F50912D
:10460000D60F6091C10F7091C20F8091C30F90912E
:10461000C40F0F94C9676093C10F7093C20F80934A
:10462000C30F9093C40FFF20D1F02091D70F30918A
:10463000D80F4091D90F5091DA0F6091C50F70914A
:10464000C60F8091C70F9091C80F0F94C9676093F0
:10465000C50F7093C60F8093C70F9093C80F40E0AB
:1046600050E0BA0186E40E9478726B017C0120E080
:1046700030E0A9010F942A6A18164CF420E030E0CB
:1046800040E752E4C701B6010F94C46803C060E07C
:1046900070E0CB0169837A838B839C83CE01019682
:1046A0000E9459980C9430310F9436000C9430319C
:1046B00080916204909163048737910509F4A5C73E
:1046C0000CF0F1C08C34910509F444C40CF06EC0B8
:1046D0008A31910509F4DDC2BCF58431910509F4F4
:1046E00051C27CF48131910509F438C22CF402974F
:1046F00008F4EAC10C941931429709F47CC60C9471
:1047000019318731910509F472C294F4853191050C
:1047100009F469C2469711F00C9419310E9494EC87
:1047200080917F14877F806280937F140C94303156
:104730008831910509F472C2499711F00C9419312E
:104740000F9430250C9430318F31910509F4CBC38F
:104750007CF48C31910509F411C30CF4A8C28D319D
:10476000910509F413C34E9709F417C30C9419313A
:104770008033910509F4D7C364F48032910509F4BC
:104780006FC3819711F00C9419310E94DC780C945E
:1047900030318934910509F4CAC38B34910511F085
:1047A0000C9419310E9491360C9430318A3691055F
:1047B00009F4CFC4ACF58335910509F415C6BCF4F2
:1047C0008E34910509F4CEC30CF4C8C3813591052C
:1047D00009F4F4C58235910511F00C9419318091DA
:1047E00031038F7D8061809331030C9430318C359F
:1047F000910509F426C654F48435910509F4FBC5E6
:104800008535910509F4FAC50C941931883691055E
:1048100009F43AC48936910509F487C40C94193116
:104820008037910511F40C943031D4F48D36910514
:1048300009F451C45CF48B36910509F4CEC48C366E
:10484000910511F40C9430310C9419318E36910588
:1048500009F4D2C48F36910509F4E1C40C941931DE
:104860008337910509F48BC66CF48137910509F4FF
:104870001BC58237910511F00C9419310F94B34C7C
:104880000C9430318537910509F47CC68637910543
:1048900011F00C9419310091F1041091F20494E09C
:1048A000F12C40E096C68039E1E09E0711F40C94AB
:1048B000832E0CF077C08C3C910509F4B8C774F5D1
:1048C0008139910509F4B3C684F48937910509F457
:1048D000A7C60CF49DC68D37910509F46CC58C38BC
:1048E000910509F403C50C941931883C910509F42C
:1048F00012C754F48B39910509F437C58E3B9105E5
:1049000009F413C50C941931893C910509F44AC77F
:104910008B3C910509F46CC70C941931823221E06B
:10492000920711F40C94312DE4F48C3D910509F4B7
:1049300084C76CF48D3C910509F47CC7833D9105D7
:1049400011F00C9419310F9408260C9430318D3DE0
:10495000910509F499C78831914009F4EBC70C948B
:1049600019318E32B1E09B0711F40C943C2E6CF49B
:104970008C32F1E09F0711F40C94342D8D3291406C
:1049800011F40C94492D0C9419318F3231E09307B6
:1049900011F40C94802E8033914011F40C94C92DA5
:1049A0000C941931873FB1E09B0711F40C948C2FC4
:1049B0000CF040C0843AF1E09F0711F40C94A22E51
:1049C000B4F4823931E0930711F40C94902E14F46E
:1049D0000C94862E8A39B1E09B0711F40C94303187
:1049E0008C39914011F40C94972E0C941931843F1A
:1049F000F1E09F0711F40C94862F6CF4853A31E0B6
:104A0000930711F40C94A52E863E914011F40C945A
:104A10001A2F0C941931853FB1E09B0711F40C94C7
:104A2000892F863F914011F00C9419310F94E33E89
:104A30000C9430318E3BF2E09F0711F40C942C3033
:104A40001CF5883532E0930711F40C94B22F6CF406
:104A5000883FB1E09B0711F40C94942F8C30924066
:104A600011F40C94A52F0C9419318B35F2E09F07AB
:104A700011F40C94B52F8D3B924011F00C94193128
:104A80000F94EB220C943031803A33E0930709F411
:104A90001CC26CF48335B3E09B0711F40C94EB302B
:104AA0008C36934011F40C9430310C941931873EBC
:104AB000F3E09F0711F40C94EE30893E934011F41B
:104AC0000C94FC300C94193180E50E94BE4588237B
:104AD00029F00F94D2276B017C0103C0C12CD12C8B
:104AE000760183E50E94BE45882361F00E94394526
:104AF00020E030E04AE754E40F942C610F943D69C4
:104B00006B017C010F94092B8091F1049091F204C8
:104B1000009721F061E00F948A4405C060E086E6CA
:104B200098E00F94D3438091620490916304892BA1
:104B300019F06EE578E002C066E578E020E030E04C
:104B40004CEB57E282E00E94625A40E0C701B60196
:104B50000E9471400F9413000C94303180916504D1
:104B600084FF02C00C940D348091670487FF02C05B
:104B70000C940D3480916804837011F00C940D3402
:104B80000C94293480917F1483FF25C081E998E03B
:104B90000E94005A80917F1483FF17C08BE692E138
:104BA0000E94F4E18BE1EBE6F2E1DE011196019067
:104BB0000D928A95E1F760E070E0CE0101960E94C7
:104BC00075EECE0101960E9456E382E898E00E94BD
:104BD000005A0C9430310E944B5C82EA98E00E94AB
:104BE000005A0C9430310E9453ED0C943031E09116
:104BF000F104F091F2048081882329F0803209F4D5
:104C000010823196F8CF60E08091F1049091F20427
:104C10000E941CF01092F5040C9430318091F90739
:104C20008823F9F080E090E0A0EAB1E488A399A39A
:104C3000AAA3BBA31C8E1D8E1E8E1F8E19821A82E4
:104C40001B821C8200E010E020E0AE01405E5F4F5E
:104C5000BE01645E7F4FCE0101960E946C510C94A0
:104C600030310E946D36882321F00E94A5EC0E940D
:104C7000913661E087E29CE30E940F5A4FEE5BE3BE
:104C80006CEA78E085E00F943A010F9413000C94DD
:104C9000303180917F1483FD02C00C94303183E564
:104CA0000E94BE4581110C9437340C94303183E45A
:104CB0000E9470458823C1F182EC98E00E94005A5E
:104CC00080911512882339F1BE016F5F7F4F82E119
:104CD00092E10E945CE38E010F5F1F4FD8018D911E
:104CE0008D01882319F00E94B538F8CFCE010196C6
:104CF0000E94A4EF8091A308882389F080E20E949B
:104D0000B53803EA18E0F80181918F01882339F062
:104D10000E94B538F8CF88EB98E00E94005A8AE0EC
:104D20000E94B5380C94303183E50E94BE4588233B
:104D300009F10E941145182F90E0CD970CF01CE36B
:104D4000109326030F94AA496B017C01212F30E0B8
:104D5000A8EEB3E00F947067C60ED71EE81EF91ECA
:104D6000C0922203D0922303E0922403F092250301
:104D70000C9430310E9464EC0C9430318091F10439
:104D80009091F2040E94D2EF0C94303180917F1404
:104D90008E7F80937F140C94303180917F1483FD3B
:104DA00002C00C9430310F94430180917F1483FD35
:104DB00002C00C9430314091F1045091F204BE01D4
:104DC000645E7F4F80E00F94EF3C8C01009711F4FC
:104DD0000C9430316C8D7D8D19821C8222E0AC01E7
:104DE000CE0101960E941AE7811102C0F12C14C075
:104DF000CE0101960F945D3C8823C1F361E0CE01A2
:104E000001960E94FEE2009789F325EEDC012C93C7
:104E10001C820E94ADDEF82ECE0101960E9456E360
:104E2000B801FF2099F089EE98E00E94685B8AE063
:104E30000E94B53810927B1410927C1410927D144D
:104E400010927E140E9417EB0C94303181ED98E0A3
:104E50000E94685B8BEF90E20E94005A0C94303104
:104E600080917F1482FD0F94092B80917F1483FD24
:104E700002C00C94303160E080E50E94DA45182FC2
:104E8000682F8091F1049091F2040E941CF083E558
:104E90000E94BE45882381F00E940145AB01BC0100
:104EA00040937B1450937C1460937D1470937E1414
:104EB00082E192E10E945DE10E94A5EC11110C9447
:104EC00030310E9491360C9430312091F1043091B0
:104ED000F20490917F14926090937F14C9010E9414
:104EE000D2EF0C9430310E94839A6C8F7D8F8E8F1D
:104EF0009F8FBE016F5F7F4FCE014C960E94FD7762
:104F000060E0CE0101960F948A440E944B5CBE0182
:104F10006F5F7F4F87EF98E00E94685B8AE00E9496
:104F2000B5380C9430310E9413C50C94303180E5B3
:104F30000E947045882311F40C9430310E94114571
:104F400090E08536910510F084E690E08093F504BA
:104F50000C9430310E94D29A0C9430310E9484C259
:104F60000C94303160E070E083E50E94CB458E34D4
:104F7000910531F40F946F2A0F9413000C94303183
:104F80008AE599E00E94005A6091BF057091C005C2
:104F900081E599E00E943D5B6091C1057091C20579
:104FA00084E499E00E943D5B6091BF057091C0056B
:104FB0008091C1059091C205681B790B8091E5082D
:104FC000815021E030E0823010F020E030E0621BC0
:104FD000730B89E399E00E943D5B8AE00E94B5383B
:104FE0008AE599E00E94005A8091C3059091C4051A
:104FF000A091C505B091C6058C8F9D8FAE8FBF8FD8
:10500000BE016F5F7F4FCE014C960E94FD77BE01BF
:105010006F5F7F4F8CE299E00E94685B8091C705CB
:105020009091C805A091C905B091CA058C8F9D8F3C
:10503000AE8FBF8FBE016F5F7F4FCE014C960E9437
:10504000FD77BE016F5F7F4F8CE199E00E94685B46
:1050500020E030E04AE754E46091CB057091CC0544
:105060008091CD059091CE050F94C468AB01BC0131
:1050700084E099E00E944A5B8DE60E94B5388AE0A0
:105080000E94B5380C9430318091F40E83FF02C039
:105090000C9430310F94C22287FF02C00C9430313F
:1050A00089E40E94BE45882311F40C9448340E9480
:1050B000114590E01816190614F481E090E026E0FE
:1050C000289FF001299FF00D1124E252FA4E8081B1
:1050D00091810C9452348091F40E83FF02C00C94A1
:1050E00030310F94C222F82E87FF02C00C94303169
:1050F00089E40E94BE45082F882311F40C945B3488
:105100000E94114590E01816190614F481E090E011
:1051100026E0289FF001299FF00D1124E252FA4E5B
:105120008081918110E00C946B340F94C222182F6F
:1051300087FD0AC08BE992E10E94005A812F0E94EC
:1051400041D28AE00E94B538BCA9B09392080C9471
:10515000603560E080E50E9407C5F82EE1E0E817C1
:1051600010F40C94303181E40E947045882329F0BA
:1051700060911E09062F10E002C00FEF10E089E4D5
:105180000E94BE45882399F00E94114590E01816B0
:10519000190614F481E090E026E0289FF001299F91
:1051A000F00D1124E252FA4E0481158108C083E506
:1051B0000E94BE45882319F00E9401458B01EF2D06
:1051C000F0E0E25EF64FB8010F3F110519F010F064
:1051D0006FEF70E060830C94303160E080E50E94F6
:1051E00007C5823010F00C943031E82FF0E0E25E19
:1051F000F64F10820C9430318EE40E94BE45882315
:1052000011F40C9430310E9401456093ED047093C9
:10521000EE048093EF049093F0040C94303183E516
:105220000E947045882331F060E083E50E9407C545
:105230008093F40E0E944B5C87E699E00E94005A2E
:105240008091F40E882369F1ABE8EA2EAAE0FA2EE9
:1052500000E010E020E08091F40E90E0A0E0B0E0EB
:10526000002E04C0B695A795979587950A94D2F716
:1052700080FF0EC0DD24D394D20E222319F08CE2DD
:105280000E94B538F701859194910E94005A2D2D06
:105290000F5F1F4FF2E0EF0EF11C05301105D9F63C
:1052A0003ECD80E39FE039CD83E50E94BE45882353
:1052B00071F00E941145282F30E02D3331051CF488
:1052C00080930002CDC78CE380930002C9C70E947F
:1052D0004B5C4091000250E060E070E08EE699E0A7
:1052E0000E942C5B8AE00E94B538BAC78091F40E08
:1052F00083FDB6C789E40E94BE45882311F40C944F
:10530000B5340E94114590E01816190614F481E096
:1053100090E026E0289FF001299FF00D1124E25231
:10532000FA4E828193810C94C0348091F40E83FDF7
:1053300097C789E40E94BE45882311F40C94C734B2
:105340000E94114590E01816190614F481E090E0CF
:1053500026E0289FF001299FF00D1124E252FA4E19
:105360008281938110E00C94D83483E50E94BE457D
:10537000882309F475C70E941145182F90E0CD9736
:105380000CF01CE310932B030F94AA496B017C01D2
:10539000212F30E0A8EEB3E00F947067C60ED71E41
:1053A000E81EF91EC0922703D0922803E092290339
:1053B000F0922A0355C70F94302552C70E94A0D7F8
:1053C0000E9484C20F941A2B0E94A43668EE73E0E8
:1053D00080E090E00E9440590E94A93660E083E995
:1053E00099E00F94D3433CC7809131038F7E806254
:1053F0008093310335C70F94C12632C783E50E94DD
:105400007045882309F42CC70F94AA496093AB0711
:105410007093AC078093AD079093AE070E94394517
:1054200020E030E04AE754E40F942C610F943D698A
:1054300060932C0370932D0380932E0390932F037E
:105440000FC70F94C22287FD0BC79091650494FD8E
:1054500004C09091670497FF0AC0EEEDCE2EE2E003
:10546000DE2EF5EFEF2EFEE0FF2E10E009C090914A
:105470006804937091F7682F81E00F942127F0C69C
:10548000D6018D916D010E94BE45882309F46DC03F
:10549000133009F063C00E9439454B015C0120E0E4
:1054A00030E040EA51E40F94C66087FF4EC0A5018A
:1054B00094016091150F7091160F8091170F9091C4
:1054C000180F0F94C4682B013C019B01AC01609143
:1054D00002097091030980910409909105090F94C4
:1054E0002C616093020970930309809304099093DF
:1054F0000509A30192016091250F7091260F8091FB
:10550000270F9091280F0F942C616093250F7093B3
:10551000260F8093270F9093280F609112097091A6
:10552000130980911409909115090F94CB60A30180
:1055300092010F942C610F943D696093120970934E
:10554000130980931409909315098092150F909276
:10555000160FA092170FB092180F07C00E9439457E
:10556000F701648B758B868B978B1F5FF4E0EF0ED2
:10557000F11C143009F084CF0F94E52A71C60F9402
:10558000324C6EC68091F1049091F204009741F084
:10559000DC012C91222321F060E00F948A4460C644
:1055A0000F9413005DC6F8018081282F2B7F2134D2
:1055B00099F08035E9F4818180538A30C8F49801EC
:1055C0002E5F3F4F89012F5F3F4FF801808180326E
:1055D000C9F3915041F70CC02181213349F4813442
:1055E00021F0853461F741E0EACFFF24F394E7CF5F
:1055F00041110E944B5CFF2021F081EA99E00E945A
:10560000005AC8010E94C0392BC60E941D9A28C6A4
:1056100081E08093D0058093CF050E94749A20C6C4
:105620001092D0051092CF050E94749A19C660E0BE
:1056300070E083E50E94CB45823038F00E947B5BAE
:1056400085EA99E00E94005A0BC68C01112788E474
:105650000E94BE458823E1F00E9435458A3A9105B3
:1056600044F00E9435458530914034F40E94354520
:1056700005C08AEA90E002C084E091E026E0209F25
:10568000F001219FF00D1124E252FA4E91838083A4
:1056900082E40E94BE458823D9F00E9435450597D3
:1056A00044F00E9435458F36910534F40E9435450B
:1056B00005C085E090E002C08EE690E026E0209FE5
:1056C000F001219FF00D1124E252FA4E9383828360
:1056D00086E40E94BE45882309F4C2C50E94354570
:1056E00097FD09C00E9435458F3F910509F034F4BC
:1056F0000E94354505C080E090E002C08FEF90E049
:1057000026E0209FF001219FF00D1124E252FA4E75
:1057100095838483A5C50F94C222182F87FDA0C549
:105720000091571684E40E94BE45882311F40C941E
:1057300001350E9439456B017C0120E030E0A90170
:105740000F94C660882341F124E01202F001112475
:10575000ED5AF94EC082D182E282F38220E030E03D
:10576000A90160915316709154168091551690912D
:1057700056160F94C66081110CC080E090E0A0EE38
:10578000BFE38093531690935416A0935516B0938D
:10579000561601E00C94013580E0809357160F9463
:1057A000E8295EC50F94C22287FD5AC56EEDE62E2C
:1057B00062E0F62E05EF1EE075E0C72E7FE0D72EE3
:1057C000D7018D917D010E947045882359F00E9478
:1057D00039450F943D69F801608371838283938317
:1057E0000F949E2A0C5F1F4FC016D10649F738C58B
:1057F0000F94C22287FD34C55EEDE52E52E0F52EF2
:1058000005EF1EE0D7018D917D010E947045882330
:1058100039F00E943945F80164A375A386A397A3C4
:105820000C5F1F4FFFE005301F0761F719C50F948C
:105830005C2716C50F94E22713C583E50E94BE4579
:10584000882331F00E943545909319028093180205
:105850008091650490916604A0916704B0916804FA
:10586000892B8A2B8B2B09F0FBC460911802709155
:10587000190287EC99E00E945B5B85E20E94B538D3
:105880008AE00E94B538ECC40F94C222F82E87FD3E
:10589000E7C483E50E94BE450F2D0F2C000C110BB1
:1058A000882369F10E943545F801EE0FFF1FE85A81
:1058B000FD4F91838083000F111F000F111F98016E
:1058C000285B3D4F7901BC01990F880B990B0F9410
:1058D000CD602AE037ED43E25CE30F942C61F801E0
:1058E000E856F04F20813181428153810F942C6121
:1058F000D7016D937D938D939C931397B1C40E94B0
:105900004B5C85E40E94B53880E38F0D0E94B5386A
:10591000000F111FF801E85AFD4F608171818BEC77
:1059200099E00E945B5B85E20E94B5388AE00E94A4
:10593000B53896C480E50E947045882309F490C468
:105940000E9435458C01892B09F07FC083E50E94B8
:105950007045882389F00E9435458F3FBFEF9B0734
:1059600029F481EE92E10E94AC367AC4BC0181EE4A
:1059700092E10E946C3774C40E944B5C60E070E05E
:1059800083ED99E00E945B5B8091E31228E532E0B1
:105990006901C81AD10887FDD394CC0CDD1CCC0C4E
:1059A000DD1C0D2C000CEE08FF088091E21228E8A7
:1059B00030E04901881A910887FD9394880C991C5E
:1059C000880C991C092C000CAA08BB088091E112D4
:1059D0008F3FC1F090E0FC01EE0FFF1F8E0F9F1F65
:1059E000FC01E856FD4E2181328113E0220F331F66
:1059F0001A95E1F704E0369527950A95E1F72E5FB1
:105A00003F4F02C020E030E02F5F3F4FC901330F0E
:105A1000AA0BBB0B9C01AD01281939094A095B0986
:105A2000A4EBB0E00F945D67A7019601281939092E
:105A30004A095B090F943E67B90180E39AE00E942E
:105A40005B5B8AE00E94B5380BC40E947B5BB801A7
:105A500084ED99E00E945B5B87E498E00E94005A25
:105A6000FFC30E94847DFCC364E071E083E50F9472
:105A7000F5258C0168EE73E080E50F94F5258938F3
:105A8000E3E19E0710F088E893E1B8010E944FA07F
:105A9000E7C360E085E40E9407C5811173C080E51B
:105AA0000E947045882351F00E9439456093FB0F96
:105AB0007093FC0F8093FD0F9093FE0F89E40E947A
:105AC0007045882381F00E9439452CEA35EC47E285
:105AD0005EE30F942C616093FF0F7093001080932E
