:100000000C943A1B0C946B1B0C946B1B0C946B1B89
:100010000C946B1B0C946B1B0C946B1B0C946B1B48
:100020000C946B1B0C946B1B0C946B1B0C946B1B38
:100030000C946B1B0C946B1B0C946B1B0C946B1B28
:100040000C946B1B0D94C9030C946B1B0C946B1BD1
:100050000C946B1B0C946B1B0C94DC9C0D94780E15
:100060000C946B1B0C94CE390C94C4390C946B1B00
:100070000C946B1B0C946B1B0C946B1B0C946B1BE8
:100080000C946B1B0C946B1B0C946B1B0C946B1BD8
:100090000C946B1B0C946B1B0C946B1B0C946B1BC8
:1000A0000C946B1B0C946B1B0C946B1B0C946B1BB8
:1000B0000C946B1B0C946B1B0C946B1B0C946B1BA8
:1000C0000C946B1B0C946B1B0C946B1B0C946B1B98
:1000D0000C946B1B0C946B1B0C946B1B0C946B1B88
:1000E0000C946B1B043A163A283A393A413A743A5E
:1000F000453A743A493A4D3A743A513A553A593A6E
:10010000623A743A6D3A933D023C3B3CCF3D3B3CF6
:100110003B3C3B3C3B3C3B3C3B3C3B3C3B3C3B3C27
:100120003B3C3B3C3B3C3B3C3B3C3B3C3B3C3B3C17
:100130003B3C3B3C3B3C3B3C3B3C3B3C3B3C3B3C07
:100140003B3CC93D3B3C3B3C3B3C3B3C3B3C3B3C68
:100150003B3C3B3CA23D3B3C3B3C3B3C3B3C3B3C7F
:100160003B3C3B3C3B3C3B3C3B3CE63D383CDF7056
:10017000B870BB70E270BE70C170C470D070C770D0
:10018000DD70CA70CD70F5FAF8FAE7FAEBFAEFFA1B
:100190002FFBFCFA00FB06FB0AFB0EFB14FB18FB13
:1001A0001CFB2FFB22FB26FB2AFB6CFB71FB76FB67
:1001B00080FB8AFB03FC94FB9CFBA4FBAEFBB8FB1F
:1001C000C2FBD1FBDBFB03FCE5FBEFFBF9FB084AC1
:1001D000D73B3BCE016E84BCBFFDC12F3D6C74315B
:1001E0009ABD56833DDA3D00C77F11BED9E4BB4CB2
:1001F0003E916BAAAABE000000803F05A84CCDB27C
:10020000D44EB93836A9020C50B9918688083CA65C
:10021000AAAA2ABE000000803F000C94DD700C9456
:100220000EFB0C944B5A0C94DB590C94D2590C9441
:100230000AFB0C94BE700C9405600C940DD30C94C6
:1002400015D20C942AFB0C94B4600C940FDF0C9420
:100250002A6D0C9422E20C94AFDE0C94453A0C9477
:100260004ACB0C948AFB0C948F3B0C945C5D0C94F1
:100270001ECB0C947F580C941B5A0C94E63D0C94A6
:10028000363E0C9420D30C94AEFB0C94553A0C944F
:10029000326D0C94575A0C9406FB0C9426D30C9494
:1002A000E65A0C94B8700C949CFB0C94F0CA0C9415
:1002B0006D3A0C940ADF0C94C93D0C941C600C94AC
:1002C00043B70C94CD700C94F8FA0C94BF3E0C9488
:1002D000A49C0C940FB90C94CEE10C94A23D0C9408
:1002E00092580C9400FB0C94605D0D94C20E0C941B
:1002F000923B0C9419DF0C941CFB0C94335A0C9415
:10030000FFDE0C9414DF0C940C580C94ED5F0C94ED
:100310004A6D0C94D76F0C94D1FB0C94226D0C9405
:10032000E9D10C949FD40C94466D0C94493A0C94EA
:100330002AD80C944A600C94A9BA0C94E2DA0C9472
:10034000933D0C94EBFA0C94FBD20C943E6D0C9400
:100350003F5A0C94F5FA0C94A4FB0C94743A0C9448
:1003600065FE0C94FED20C94383C0C9433600C94D3
:10037000BB700C94ABBA0C94AB580C941F630C94E8
:100380006BFE0C9421590C9476FB0C94E5570C945D
:10039000F9FB0C9486960C94F3DE0C9417FF0C94E6
:1003A000B16B0C949A980C94A9960C9459590C948E
:1003B000DBFB0C94F9DE0C945A5D0C94215A0C94DE
:1003C0003A6D0C9453580C9485670C942CD30C9470
:1003D0008E3B0C9447D80C9405DF0C945E5D0C9416
:1003E000CA700C94163A0D9490160C9418FB0C9449
:1003F000A8DA0C94FCFA0C94A5BA0C94CF3D0C949A
:1004000040590C942D5A0C9480FB0C9492590C94E6
:1004100043D80C94593A0D9458150C94B8600C9428
:1004200068590C94023C0C94C4580C943B3C0C94BA
:1004300068FE0C9493980C9440580C94EDDE0C9448
:10044000E7FA0C94FCD10C94A3BA0C949ED60C94AD
:1004500025580C94FFAF0C9461600C945D3E0C9495
:100460002AE20C9438DF0C94C2FB0C94C6CA0C949C
:10047000E5700C94C7700C94AD690C94DD580C9425
:10048000D9D70C9483E10C9483690C94C4700C94B8
:1004900083590C94DF700C9494FB0C94623A0C9486
:1004A000E5FB0C9471FB0C9426FB0C9414FB0C9450
:1004B00022FB0C948DE10C94F8D20C942DE30C9457
:1004C00074590C94EFFA0C943F6A0C94D0700C940D
:1004D0002E6D0C94D86A0C94515A0C946A9B0C940F
:1004E000B8FB0C943D980C942FFB0C94C1700C94A9
:1004F000266D0C94413A0C9441980C94B4960C944B
:100500002ED80C94455A0C943FD80C94EFFB0C94C5
:10051000F3570C94B7DE0C94275A0C94043A0C94BD
:100520003F980C948E690C947EE10C94283A0C94BC
:100530006CFB0C94513A0C9492D60C9403FC0C94E2
:100540004A590C94445C0C94BE990C94426D0C94E2
:100550004D3A0C94395A0C94E2700C94393A0C943C
:10056000735D0C94366D0C9466580C94FC5F0C947F
:1005700001D30C9488E10C94A7BA4E414E494E49E0
:100580005459494E46CDCCCC3D0AD7233C17B7D160
:100590003877CC2B329595E6241FB14F0A00002006
:1005A000410000C84200401C4620BCBE4CCA1B0E85
:1005B0005AAEC59D7400407A10F35A00A0724E18CE
:1005C000090010A5D4E80000E87648170000E40B05
:1005D00054020000CA9A3B000000E1F505000080CB
:1005E000969800000040420F000000A08601000025
:1005F00000102700000000E8030000000064000075
:100600000000000A00000000000100000000002CB3
:1006100076D888DC674F0823DFC1DFAE59E1B1B778
:1006200096E5E3E453C63AE651997696E8E6C28445
:1006300026EB898C9B62ED407C6FFCEFBC9C9F405D
:10064000F2BAA56FA5F490055A2AF75C936B6CF982
:10065000676DC11BFCE0E40D47FEF520E6B500D058
:10066000ED902E0300943577050080841E0800006D
:10067000204E0A000000C80C333333330F986E123B
:10068000831141EF8D2114893BE65516CFFEE6DB41
:1006900018D1844B381BF77C1D901DA4BBE424208B
:1006A0003284725E228100C9F124ECA1E53D27432A
:1006B0004F4D4D554E49434154494F4E00445259B8
:1006C00052554E004552524F5253004543484F0039
:1006D00047322F47332062616420706172616D651B
:1006E000746572730A00536C6565702E2E2E004877
:1006F0006F6D6520257325732573204669727374A9
:10070000004D302053746F70004D312053746F7062
:1007100000436C69636B20746F20526573756D655F
:100720002E2E2E004E6F204D6F76652E00456E6486
:100730002066696C65206C6973740A00426567699C
:100740006E2066696C65206C6973740A004E6F20B8
:100750006D656469610A00526573756D696E672025
:10076000534400286E6F2066696C652900437572DA
:1007700072656E742066696C653A200044656C652C
:1007800074696F6E206661696C65642C2046696CC3
:10079000653A200046696C652064656C6574656423
:1007A0003A005072696E742074696D653A20000ACF
:1007B00053746174733A2046696C616D656E742080
:1007C000757365643A20002C204C6F6E67657374F6
:1007D000206A6F623A2000546F74616C2074696DF6
:1007E000653A20002C204661696C65643A20002C33
:1007F0002046696E69736865643A20005072696EBC
:1008000074733A200053746174733A2000452025B4
:10081000530044454255473A004D3131332053008F
:1008200043522D3130205633204F46462E00434848
:10083000414D4245525F54454D50455241545552E9
:100840004500424142595354455050494E4700419A
:10085000524353004D4F54494F4E5F4D4F44455303
:1008600000544845524D414C5F50524F54454354FB
:10087000494F4E004C4F4E475F46494C454E414D07
:1008800045004155544F5245504F52545F53445FB9
:100890005354415455530053444341524400505221
:1008A0004F4D50545F535550504F525400454D4595
:1008B0005247454E43595F504152534552004341C0
:1008C00053455F4C494748545F4252494748544E4C
:1008D00045535300544F47474C455F4C4947485494
:1008E0005300534F4654574152455F504F5745525E
:1008F000004255494C445F50455243454E54004CCC
:100900004556454C494E475F44415441005A5F505B
:10091000524F4245004155544F4C4556454C0050AE
:1009200052494E545F4A4F420050524F475245532E
:1009300053004155544F5245504F52545F54454D0A
:100940005000564F4C554D45545249430042494E74
:100950004152595F46494C455F5452414E534645BA
:10096000520053455249414C5F584F4E5F584F46D5
:1009700046004649524D574152455F4E414D453A1A
:100980004D61726C696E20322E302E372E312D461D
:10099000695A6920284F6374203130203230323058
:1009A0002031333A33373A34332920534F555243A9
:1009B000455F434F44455F55524C3A6874747073B9
:1009C0003A2F2F6769746875622E636F6D2F4D61C2
:1009D000726C696E4669726D776172652F4D6172D6
:1009E0006C696E2050524F544F434F4C5F564552E6
:1009F00053494F4E3A312E30204D414348494E45E0
:100A00005F545950453A43522D31302056332045DA
:100A1000585452554445525F434F554E543A312035
:100A2000555549443A63656465326132662D343107
:100A300061322D343734382D396231322D633535FA
:100A40006336326633363766660A002F2F20004D34
:100A500031343520533C696E6465783E206F75747F
:100A6000206F662072616E67652028302D31290A5B
:100A700000416363656C65726174696F6E3A205002
:100A80000020204D61783A200020204D696E3A20E8
:100A900000536F667420656E6473746F70733A20D0
:100AA0000046523A0020466C6F773A200020643AA4
:100AB0000020693A0020703A00496E76616C6964E2
:100AC0002065787472756465720A00646973004306
:100AD000290A0061626C656420286D696E20746566
:100AE0006D702000436F6C64206578747275646566
:100AF0007320617265200046696C616D656E7420BB
:100B000072756E6F75742064697374616E636520AD
:100B1000286D6D293A200046696C616D656E742000
:100B200072756E6F75742000454550524F4D204FC1
:100B30004B0A00446F6E65207072696E74696E674F
:100B40002066696C650A004D3737004D333100CBA4
:100B5000066D0BC406BD06AF06554E4B4E4F574EA5
:100B60002053544154450047434F44455F494E4646
:100B70004F004C43445F50415553455F52455355D8
:100B80004D450046494C414D454E545F52554E4FE0
:100B900055545F434F4E54494E55450046494C41CC
:100BA0004D454E545F52554E4F5554004D383736D3
:100BB00020526573706F6E64696E672050524F4D9E
:100BC00050545F004572726F722077726974696E5B
:100BD0006720746F20454550524F4D210A005354F1
:100BE0004F505045442E20005072696E746572203B
:100BF00073746F707065642064756520746F206510
:100C000072726F72732E2046697820746865206551
:100C100072726F7220616E6420757365204D393970
:100C20003920746F20726573746172742E20285499
:100C3000656D706572617475726520697320726587
:100C40007365742E20536574206974206166746521
:100C5000722072657374617274696E67290A004E3E
:100C60006F20436865636B73756D207769746820C6
:100C70006C696E65206E756D6265722C204C6173B7
:100C800074204C696E653A2000636865636B737508
:100C90006D206D69736D617463682C204C61737491
:100CA000204C696E653A20004C696E65204E756D6A
:100CB000626572206973206E6F74204C61737420BA
:100CC0004C696E65204E756D6265722B312C204C1F
:100CD000617374204C696E653A20004D31313000EB
:100CE00053442072656164206572726F720A00213C
:100CF00021204B494C4C20636175736564206279F7
:100D0000204B494C4C20627574746F6E2F70696E65
:100D10000A002121204B494C4C20636175736564A6
:100D200020627920746F6F206D75636820696E6131
:100D300063746976652074696D65202D2063757212
:100D400072656E7420636F6D6D616E643A2000622F
:100D50007573793A2070617573656420666F7220CF
:100D6000696E7075740A00627573793A20706175E6
:100D700073656420666F7220757365720A00627510
:100D800073793A2070726F63657373696E670A00D6
:100D90004D656469612052656D6F766564004D65CF
:100DA00064696120496E7365727465640070617571
:100DB0007365004D363030002066696C616D656E7C
:100DC000745F72756E6F7574200066696C616D6515
:100DD0006E745F72756E6F757420540046696C6135
:100DE0006D656E7452756E6F757420540045727225
:100DF0003A207574663820666F6E74206E6F7420AA
:100E0000696E697469616C697A65642E00000C0F03
:100E100000FE07022503BB017FFE08FE08FE050851
:100E20000806000040F0C888889878100508080671
:100E30000000C0F88888888888F805050506000144
:100E40002030F830200508080600002070F8202027
:100E50002020E00509090600FF2070A8A8B88888AE
:100E60007020070505070001D86C366CD805090904
:100E70000600FFF8A88888888888A8F8050A0A0666
:100E800000FE205050505088A8A888700303030625
:100E9000000340A040FFFFFFFFFFFFFFFFFFFFFF3A
:100EA000FFFFFFFFFFFFFFFFFFFFFF000000060542
:100EB000FF01070706020080808080800080030316
:100EC00003060105A0A0A005060606000050F85084
:100ED00050F8500509090600FF2070A8A07028A846
:100EE0007020050707060000C8C810204098980524
:100EF000070706000040A0A040A890680103030671
:100F000002058080800309090601FF20404080809F
:100F1000804040200309090601FF80404020202036
:100F200040408005070706000020A8702070A82018
:100F30000505050600012020F82020020303060114
:100F4000FFC04080050101060003F802020206010D
:100F500000C0C005070706000008101020404080B0
:100F6000050707060000708898A8C888700307075F
:100F700006010040C040404040E005070706000071
:100F8000708808102040F8050707060000F80810D0
:100F90003008887005070706000010305090F810E0
:100FA00010050707060000F880F00808887005079C
:100FB00007060000304080F08888700507070600AB
:100FC00000F8081010202020050707060000708890
:100FD0008870888870050707060000708888780880
:100FE0001060020505060100C0C000C0C002060670
:100FF0000601FFC0C000C0408003050506010120B6
:1010000040804020050303060002F800F8030505B0
:101010000601018040204080050707060000708817
:1010200010202000200507070600007088B8A8B827
:101030008070050707060000708888F88888880592
:101040000707060000F04848704848F00507070603
:10105000000070888080808870050707060000F017
:101060004848484848F0050707060000F88080F027
:101070008080F8050707060000F88080F0808080F7
:1010800005070706000070888080988870050707AC
:10109000060000888888F88888880307070601000A
:1010A000E04040404040E0050707060000381010CF
:1010B000101090600507070600008890A0C0A0905F
:1010C00088050707060000808080808080F805077B
:1010D0000706000088D8A8888888880507070600C2
:1010E000008888C8A89888880507070600007088C7
:1010F0008888888870050707060000F08888F080D7
:10110000808005070706000070888888A890680519
:101110000707060000F08888F0A0908805070706FA
:10112000000070888070088870050707060000F8C6
:1011300020202020202005070706000088888888B6
:101140008888700507070600008888888850502026
:1011500005070706000088888888A8A850050707A3
:101160000600008888502050888805070706000080
:1011700088885020202020050707060000F8081066
:10118000204080F80309090601FFE080808080800C
:101190008080E0050707060000804040201010080E
:1011A0000309090601FFE020202020202020E0057F
:1011B00003030600052050880501010600FEF80320
:1011C00003030601058040200505050600007008A0
:1011D0007888780507070600008080F0888888F006
:1011E0000505050600007080808870050707060069
:1011F000000808788888887805050506000070884A
:10120000F08070050707060000304840E04040408D
:101210000507070600FE70888888780870050707AC
:101220000600008080F08888888803070706010090
:101230004000C0404040E00409090601FE100030B3
:10124000101010109060050707060000808088903D
:10125000E09088030707060100C04040404040E09E
:10126000050505060000D0A8A8A8A80505050600E4
:1012700000B0C88888880505050600007088888841
:10128000700507070600FEF0888888F08080050753
:10129000070600FE78888888780808050505060096
:1012A00000B0C880808005050506000078807008C1
:1012B000F00507070600002020F82020201805056B
:1012C00005060000888888986805050506000088DE
:1012D000888850200505050600008888A8A85005C4
:1012E000050506000088502050880507070600FE07
:1012F00088888850204080050505060000F81020E9
:1013000040F80309090601FF20404040804040406A
:10131000200109090602FF80808080808080808013
:101320000309090601FF80404040204040408005FD
:10133000030306000248A890FF656E717565756528
:10134000696E672022006F6B00526573656E643AA8
:101350002000256979202569642025696820256990
:101360006D202569730042656420436F6F6C696E60
:10137000672E2E2E004265642048656174696E6791
:101380002E2E2E0023646566696E65204445464115
:10139000554C545F004B6420004B6920004B70207B
:1013A00000504944204175746F74756E65206669FC
:1013B0006E697368656421205075742074686520B7
:1013C0006C617374204B702C204B6920616E64201B
:1013D0004B6420636F6E7374616E74732066726FFA
:1013E0006D2062656C6F7720696E746F20436F6E3D
:1013F00066696775726174696F6E2E680A0050497C
:1014000044204175746F74756E65206661696C6502
:1014100064212074696D656F75740A000A20436C3D
:10142000617373696320504944200A00204B643A79
:101430002000204B693A2000204B703A20000A20FF
:101440004E6F206F76657273686F6F740A00205458
:10145000753A2000204B753A2000206D61783A20C3
:1014600000206D696E3A200020643A2000206269F5
:1014700061733A2000504944204175746F74756E51
:10148000652073746172740A005049442041757478
:101490006F74756E65206661696C656421205465A2
:1014A0006D706572617475726520746F6F20686904
:1014B00067680A00504944204175746F74756E6501
:1014C00000504944204175746F74756E65206661E3
:1014D000696C65642120426164206578747275646A
:1014E0006572206E756D6265720A0024F4D4305006
:1014F000C38E20C2A24017828B7011127A910D8187
:101500006CD90AA861E108C7586607615143061EF5
:101510004B5D05C145A7041A411104093D980371AB
:101520003931034036DB0265339102D430540280F6
:101530002E1D02632CEE01752AC501B028A00110F2
:101540002781018F2564012B244B01E0223401AC5B
:10155000211F018D200D01801FFC00841EED0097CE
:101560001DDF00B81CD200E61BC600201BBC0064B7
:101570001AB200B219A8000A19A0006A189900D17D
:1015800017910040178B00B516840031167E00B30A
:101590001579003A157300C7146F0058146A00EEED
:1015A0001366008813630025135E00C7125B006C8E
:1015B00012570015125400C111510070114F002133
:1015C000114B00D61049008D104700461044000210
:1015D000104200C00F4000800F3E00420F3C00064A
:1015E0000F3B00CB0E3800930E37005C0E35002702
:1015F0000E3400F30D3200C10D3100900D3000604B
:101600000D2E00320D2D00050D2C00D90C2B00AE37
:101610000C2900850C29005C0C2700350C27000ED6
:101620000C2600E80B2400C40B2400A00B23007D33
:101630000B23005A0B2100390B2100180B2000F856
:101640000A1F00D90A1E00BB0A1E009D0A1D008049
:101650000A1D00630A1C00470A1B002C0A1B00110C
:101660000A1A00F7091A00DD091900C4091900ABAC
:10167000091900920917007B091800630917004C2B
:1016800009160036091600200916000A091500F58A
:10169000081500E0081400CC081400B8081400A4D1
:1016A000081400900813007D0812006B08130058FE
:1016B0000812004608120034081100230811001215
:1016C00008110001081100F0071000E0071000D019
:1016D000071000C0071000B0070F00A1071000910D
:1016E000070E0083070F0074070F0065070E0057F1
:1016F000070E0049070E003B070D002E070E0020C5
:10170000070D0013070D0006070D00F9060C00ED8C
:10171000060D00E0060C00D4060C00C8060C00BC48
:10172000060C00B0060C00A4060B0099060C008DF8
:10173000060B0082060B0077060B006C060B00619F
:10174000060A0057060B004C060A0042060A00383B
:10175000060A002E060A0024060A001A060A0010CD
:1017600006090007060A00FD050900F4050900EB5B
:10177000050900E2050900D9050900D0050900C7DF
:10178000050900BE050900B5050800AD050800A55E
:101790000509009C050800940508008C05080084D4
:1017A0000508007C050800740508006C0507006545
:1017B0000508005D050700560508004E05070047AF
:1017C0000507004005080038050700310507002A15
:1017D000050700230507001C050600160507000F76
:1017E0000507000805060002050700FB040600F5D2
:1017F000040700EE040600E8040600E2040700DB2C
:10180000040600D5040600CF040600C9040600C380
:10181000040600BD040600B7040600B1040500ACD0
:10182000040600A6040600A00405009B040600951B
:10183000040500900406008A040500850405008064
:101840000406007A04050075040500700405006BA9
:1018500004050066040500610405005C04050057EA
:10186000040500520405004D04050048040500432A
:101870000405003E0404003A040500350405003068
:101880000404002C04050027040400230405001EA2
:101890000404001A04040016040500110404000DD9
:1018A000040400090405000404040000040400FC0E
:1018B000030400F8030400F4030400F0030400EC44
:1018C000030400E8030400E4030400E0030400DC74
:1018D000030400D8030400D4030400D0030400CCA4
:1018E000030400C8030300C503030024F404D92043
:1018F0001BC40C5C0E9804C4095F0265077101F4F7
:1019000005F900FB04B30048048700C103690058CF
:1019100003550003034500BE023A00840231005320
:10192000022A002902250004022000E4011C00C84C
:10193000011900AF01170098011400840113007110
:101940000110006101100051010E0043010D00362D
:10195000010B002B010B0020010B00150109000CED
:1019600001090003010800FB000800F3000800EB78
:10197000000700E4000600DE000600D8000600D2E2
:10198000000600CC000500C7000500C2000500BD30
:10199000000400B9000400B5000400B1000400AD6B
:1019A000000400A9000400A5000300A20003009F9A
:1019B0000004009B000300980003009500020093C0
:1019C000000300900003008D0002008B00030088DC
:1019D0000002008600020084000300810002007FF4
:1019E0000002007D0002007B000200790002007707
:1019F0000001007600020074000200720001007114
:101A00000002006F0002006D0001006C0002006A1D
:101A10000001006900020067000100660001006526
:101A2000000100640002006200010061000100602A
:101A30000001005F0002005D0001005C0001005B2E
:101A40000001005A00010059000100580001005730
:101A50000001005600010055000100540001005330
:101A6000000000530001005200010051000100502D
:101A70000001004F0001004E0000004E0001004D2B
:101A80000001004C0001004B0000004B0001004A27
:101A90000001004900010048000000480001004723
:101AA000000100460000004600010045000000451E
:101AB0000001004400010043000000430001004217
:101AC0000000004200010041000000410001004010
:101AD0000001003F0000003F0001003E0000003E0A
:101AE0000001003D0000003D0001003C0000003C02
:101AF0000000003C0001003B0000003B0001003AF8
:101B00000000003A000100390000003900010038EF
:101B100000000038000000380001003700000037E6
:101B200000010036000000360000003600010035DC
:101B300000000035000000350001003400000034D2
:101B400000000034000100330000003300000033C7
:101B500000010032000000320000003200010031BC
:101B600000000031000000310001003000000030B2
:101B7000000000300001002F0000002F0000002FA7
:101B80000000002F0001002E0000002E0000002E9B
:101B90000001002D0000002D0000002D0000002D90
:101BA0000001002C0000002C0000002C0000002C84
:101BB0000001002B0000002B0000002B0000002B78
:101BC0000001002A0000002A0000002A0000002A6C
:101BD0000001002900000029000000290000002960
:101BE0000000002900010028000000280000002853
:101BF0000000002800000028000100270000002746
:101C00000000002700000027000000270001002638
:101C1000000000260000002600000026000000262C
:101C2000000100250000002500000025000000251F
:101C30000000002500000025000100240000002411
:101C40000000002400000024000000240001002304
:101C500000000023000000230000002300000023F8
:101C600000000023000000230001002200000022E9
:101C700000000022000000220000002200000022DC
:101C800000010021000000210000002100000021CF
:101C900000000021000000210000002100010020C0
:101CA00000000020000000200000002000000020B4
:101CB0000000002000000020000000200001001FA4
:101CC0000000001F0000001F0000001F0000001F98
:101CD0000000001F0000001F0001001E0000001E89
:101CE0000000001E0000001E00000039300000331C
:101CF00025000087190000B00F0000DB080000BDC0
:101D0000040000740200003F010000452073746568
:101D100070732F6D6D005A2053746570732F6D6D45
:101D200000592053746570732F6D6D0058205374E3
:101D30006570732F6D6D00496E6974004163636552
:101D40006C65726174696F6E0056656C6F6369745F
:101D500079004E4F005945530043616E63656C2016
:101D60004F626A656374203D0046616E2053706562
:101D700065640052756E6F75742044697374206DCC
:101D80006D004C6F6164206D6D00556E6C6F616409
:101D9000206D6D0046696C2E204469612E0045203F
:101DA000696E206D6DC2B3004D3330332055312044
:101DB0004525692053256900504944204175746FB9
:101DC00074756E65202A005049442D44202A005025
:101DD00049442D49202A005049442D50202A0020F2
:101DE000082046616374002008204D6178002008B7
:101DF000204D696E004175746F74656D7000000050
:101E00000000000000600000000000FC00000FF077
:101E10000000000007E00000000001861FC01870ED
:101E20000000000000603C0C000001830C601030DA
:101E30000000000000603C0C000001830C303030DA
:101E4000000000000060000C000000030C183000CF
:101E5000000000000060003F0F3C00030C0C60011C
:101E6000DF0FE0FE00601C1C061800060C0C600072
:101E7000F318318300600C0C0318001E0C0C60007A
:101E8000E030398300600C0C033000030C0C600060
:101E9000C030380F00600C0C033000018C0C600067
:101EA000C03FF8FB00600C0C033000018C0C60306C
:101EB000C030018300600C0C01F001818C0C60309B
:101EC000C030018300600C0C00E001818C183030C0
:101ED000C018318300600C0C40E001838C30186026
:101EE000C00C6187C0E01C0CC06000C30C600FC355
:101EF000F007C0FFC7FC7F0781C0007E1FC0000045
:101F000000000000000000000700000000000000CA
:101F100000000000000000000700000000001FFF9C
:101F2000FFFFFFFFFF600000000001FF4000000016
:101F30000000FF8000000000007F83CF00000C3015
:101F40003F87FF80000C301F867980000C000F8CCB
:101F500030C7838C30E78C30CFC7CC31F38C30DC8A
:101F6000ECEC33B98C30D86C6C33198C30D06C0CF1
:101F700033198C30D86C0C33198C30DC6C0E3B1957
:101F80008C30CF7C079F198C30C77C038F194000A1
:101F90000000000002600000000000061FFFFFFFBD
:101FA000FFFFF870012C0190012701B0012201C050
:101FB000011D01F00118011002130130020E016031
:101FC00002090190020401C002FF000003FA004070
:101FD00003F5008003F000D003EB002004E600705E
:101FE00004E100E004DC004005D700C005D2004059
:101FF00006CD00D006C8008007C3003008BE00F040
:1020000008B900C009B400B00AAF00B00BAA00D0F4
:102010000CA500000EA000500F9B00C010960050B1
:1020200012910000148C00C0158700B0178200B018
:10203000197D00D01B7800001E730040206E0090B8
:10204000226900F024640040275F0090295A00E0D4
:102050002B5500102E500020304B0010324600E06F
:1020600033410090353C001037370070383200A003
:10207000392D00B03A2800A03B2300603C1E001020
:102080003D1900903D1400103E0F00703E0A00C044
:102090003E0500003F0000403FFBFF803FF6FFC0D1
:1020A0003FF1FF68747470733A2F2F6D61726C6921
:1020B0006E66772E6F726700322E302E372E312DDE
:1020C00046695A69002020506C616E6E65724275D7
:1020D0006666657242797465733A200020467265BF
:1020E00065204D656D6F72793A2000436F6D7069A0
:1020F0006C65643A204F63742031302032303230C6
:102100000A00204C61737420557064617465643AF0
:1021100020323032302D31302D31302031333A32CF
:1021200038207C20417574686F723A2046695A697C
:102130002C20435231302D56332C2062617365645C
:10214000206F6E206672616E367020435231302DE2
:1021500056320A00322E302E372E312D46695A69FA
:102160000A004D61726C696E0020536F667477616E
:1021700072652052657365740A0020576174636844
:10218000646F672052657365740A002042726F772E
:102190006E206F75742052657365740A002045784F
:1021A0007465726E616C2052657365740A00506FBD
:1021B00077657255700A006175746F25632E67002C
:1021C0004732385859004D31303031006572726FE6
:1021D000722077726974696E6720746F2066696C0B
:1021E000650A00446F6E6520736176696E672066CC
:1021F000696C652E0A004D32390025532025632075
:10220000256320256320256300656E6473746F70F9
:1022100073206869743A2000436F6E66696775724F
:102220006174696F6E0043616E63656C204F626A12
:1022300065637400256C642E25696D0045787472A1
:102240007564656420546F74616C004C6F6E6765D3
:102250007374204A6F622054696D65003E200054FB
:102260006F74616C205072696E742054696D6500E2
:10227000436F6D706C65746564005072696E742094
:10228000436F756E7400313230004245443A204548
:1022900050434F53203130304B0052756E6177619F
:1022A000792057617463683A204F4E004D61782061
:1022B00054656D7000323735004D696E2054656D80
:1022C000700045313A204550434F53203130304B58
:1022D000005053550047656E657269630050726F18
:1022E000746F636F6C00312E300042617564003290
:1022F000353030303000437265616C697479334435
:102300002052414D50530045787472756465727364
:102310000043522D313020563300323032302D31CF
:10232000302D31302031333A3238005072696E74BA
:10233000657220537461747300546865726D6973BB
:10234000746F727300426F61726420496E666F0031
:102350005072696E74657220496E666F00436861E1
:102360006E6765204D65646961004D3231004162E0
:102370006F7574205072696E746572005265737562
:102380006D65205072696E74004E6F204D656469F2
:10239000610054756E650053746F70205072696EE1
:1023A00074005061757365205072696E7400496ED7
:1023B000666F2053637265656E005061726B696E63
:1023C000672E2E2E0000005761697420666F720020
:1023D00066696C616D656E74206368616E67650027
:1023E000746F207374617274005761697420666F32
:1023F000720066696C616D656E7420756E6C6F61DC
:102400006400004E6F7A7A6C652068656174696E4D
:102410006700506C6561736520776169742E2E2E9C
:102420000000507265737320627574746F6E00746F
:102430006F2068656174206E6F7A7A6C6500004960
:102440006E736572742066696C616D656E7400618F
:102450006E6420707265737320627574746F6E00A1
:10246000746F20636F6E74696E756500576169746F
:1024700020666F720066696C616D656E74206C6FAA
:1024800061640000507265737320427574746F6EDE
:1024900000746F20726573756D65207072696E745B
:1024A00000005761697420666F72207072696E74E3
:1024B00000746F20726573756D652E2E2E000057A7
:1024C00061697420666F720066696C616D656E7417
:1024D0002070757267650000486F6D696E672046F1
:1024E00061696C6564006F70656E005452494747BE
:1024F000455245440066696C616D656E74007A5F93
:102500006D696E00795F6D696E00785F6D696E0050
:102510005265706F7274696E6720656E6473746F54
:1025200070207374617475730A005761726E696EFE
:10253000673A20486F6D696E672042756D70204460
:10254000697669736F72203C20310A0000004842AE
:10255000000048420000C0400202040000A0400009
:1025600000A04000000040FFFFFF0000000100004D
:102570000001000080005555550000004000333335
:102580003300AAAA2A004992240000002000C77143
:102590001C0099991900D1451700555515003BB1FC
:1025A00013002449120011111100000010000F0F38
:1025B0000F00E3380E0043790D00CCCC0C00C33083
:1025C0000C00E8A20B0064210B00AAAA0A00703DCF
:1025D0000A009DD80900427B090092240900DCD33F
:1025E0000800888808001042080000000800F0C1B8
:1025F00007008787070075500700711C07003EEB36
:102600000600A1BC06006990060066660600703EE2
:1026100006006118060017F4050074D105005BB0D0
:102620000500B29005006272050055550500783925
:102630000500B81E0500050505004EEC040087D412
:102640000400A1BD040090A7040049920400C17DCC
:102650000400EE690400C7560400444404005C32E0
:1026600004000821040041100400000004003FF0B1
:102670000300F8E0030026D20300C3C30300CCB577
:1026800003003AA803000A9B0300388E0300C081B0
:1026900003009F750300D0690300505E03001D53C3
:1026A000030034480300913D03003333030016292F
:1026B0000300381F030097150300300C03000303C9
:1026C00003000BFA020049F10200BAE802005CE0E4
:1026D00002002DD802002DD0020059C80200B0C05F
:1026E000020031B90200DAB10200AAAA0200A0A3D6
:1026F0000200BC9C0200FA9502005C8F0200DF8899
:10270000020082820200457C0200277602002770C8
:102710000200436A02007C640200D05E02003F595E
:102720000200C853020053657474696E67732053C6
:10273000746F726564002062797465733B20637204
:1027400063200053657474696E67732053746F72ED
:102750006564202800454550524F4D2064617461E6
:1027600073697A65206572726F722E0A0020737425
:102770006F7265642073657474696E677320726527
:1027800074726965766564202800202863616C6333
:10279000756C6174656429210A0020213D20004583
:1027A0004550524F4D20435243206D69736D617403
:1027B0006368202D202873746F7265642920004996
:1027C0006E6465783A2000204D61726C696E3D56EA
:1027D0003831290A00454550524F4D2076657273B5
:1027E000696F6E206D69736D61746368202845455B
:1027F00050524F4D3D005072696E74205061757398
:1028000065640020746F6F206C6F6E67206578744C
:10281000727573696F6E2070726576656E7465642B
:102820000A0020636F6C6420657874727573696F39
:102830006E2070726576656E7465640A00220A0007
:10284000556E6B6E6F776E20636F6D6D616E643A5F
:1028500020220043522D31302056332052656164CE
:10286000792E005072696E74696E672E2E2E0020CC
:102870005A3A0020593A004D38340054656D70655D
:10288000726174757265004E6F7A7A6C65004D6185
:10289000696E0044697361626C6520537465707081
:1028A00065727300486F6D65205A004732385A00D0
:1028B000486F6D652059004732385900486F6D6583
:1028C00020580047323858004175746F20486F6DAA
:1028D00065004732380050726568656174202420B5
:1028E0004265640050726568656174202420456EFD
:1028F0006400436F6F6C646F776E0046616E2053A7
:1029000070656564207E00466C6F770020436F75AC
:102910006E7420583A00453100626564002C2073C3
:10292000797374656D2073746F70706564212048CD
:1029300065617465725F49443A2000486561746955
:102940006E67204661696C65640048656174696EF4
:1029500067206661696C6564004D313132205368CF
:102960007574646F776E00202D20496E76616C69F6
:1029700064206578747275646572206E756D626529
:102980007220210A00544845524D414C2052554E68
:102990004157415900546865726D616C2052756EE3
:1029A00061776179004572723A204D415854454D26
:1029B00050004D415854454D502074726967676509
:1029C000726564004572723A204D494E54454D502F
:1029D000004D494E54454D502074726967676572C9
:1029E000656400202F002042403A0020403A002039
:1029F000573A007C3C3E5E2B3D3F2F5B5D3B2C2AD3
:102A0000225C001FE0201020102010102010202039
:102A100010201030300840048003001FE03FF03FDA
:102A2000F03FF01FE01FE03FF03FF03FF00FC00726
:102A30008003003FFFF038007030FC3020FC102095
:102A400078102030102C00D02E31D02F7BD02F7B4F
:102A5000D02E31D02C00D020301020781020FC1047
:102A600030FC303800703FFFF03FFFF0380070312D
:102A700086302387102787902F87D02F03D02030D0
:102A8000102078102078102030102F03D02F87D0FE
:102A90002787902387103186303800703FFFF01F62
:102AA000FFF81FFFF804104002082002082004105D
:102AB0004008208010410010410008208004104090
:102AC0000000001FFFF81FFFF8000000001E0000BC
:102AD00000002100000000271DC08C00272121924A
:102AE0000041212092008E21CE920090212092015F
:102AF0001021209201201D21CC0220000000041092
:102B00000113000810011480100801108020040037
:102B1000A30047F200A08043E20044802004004369
:102B20000018D8000000198400000021FC000000FB
:102B30003F002568753A25303268750025303268C7
:102B4000753A253032687500202020202020200092
:102B50005654726176204D696E00566D696E00564E
:102B60006D6178204500566D6178205A00566D6180
:102B700078205900566D6178205800416D617820A9
:102B80004500416D6178205A00416D6178205900FF
:102B9000416D6178205800412D54726176656C005A
:102BA000412D5265747261637400416363656C000A
:102BB00056652D4A65726B00565A2D4A65726B0038
:102BC00056592D4A65726B0056582D4A65726B0036
:102BD00070617573656400726573756D656400522C
:102BE0006573756D696E6700204D3932205800207D
:102BF000496E76616C69642065787472756465727B
:102C0000200000002200250028002B002E003100AB
:102C1000340002010000050108010B010000210041
:102C2000240027002A002D0030003300010100009D
:102C3000040107010A01050505050705080808083C
:102C4000020202020A0A0808040404040101010144
:102C5000010101010303030303030303040707073F
:102C60000C0C0C0C0C0C0C0C0202020206060606E4
:102C7000060606060B0B0B0B0B0B0B0B01021020B1
:102C800020080810204010204080020102010804A2
:102C90000201010204081020408080402010080436
:102CA000020180040201804020100804020108048F
:102CB00002010102040810204080010204081020D3
:102CC00040802053697A653A20004D3233202573C5
:102CD000006F70656E206661696C65642C204669C2
:102CE0006C653A200046696C652073656C65637499
:102CF00065640A0046696C65206F70656E65643AAC
:102D00002000454E4420535542524F5554494E459C
:102D10000A002220706F73002220706172656E7449
:102D20003A2200535542524F5554494E4520434193
:102D30004C4C207461726765743A2200537562636B
:102D4000616C6C204F766572666C6F7700457863B6
:102D50006565646564206D617820535542524F5516
:102D600054494E452064657074683A310A005772C0
:102D70006974696E6720746F2066696C653A20001B
:102D80005344207072696E74696E6720627974654D
:102D900020004E6F74205344207072696E74696E07
:102DA000670A00667265736800646F696E67004E3B
:102DB0006F772000416476616E63656420536574AB
:102DC00074696E677300554E4C4F41442046494C20
:102DD000414D454E540046494C414D454E542043CB
:102DE00048414E474500526573746F7265204465D3
:102DF0006661756C7473004C6F6164205365747404
:102E0000696E67730053746F7265205365747469DB
:102E10006E67730050726568656174202420436F8B
:102E20006E660052756E6F75742053656E736F72A7
:102E3000004D37303220542564004D36303020426A
:102E40003020542564004D373032203B2564004D3E
:102E500037303120542564004D373032004D373043
:102E600031004D3630302042300050757267652099
:102E70006D6F726500524553554D45204F50544972
:102E80004F4E533A005052494E54205041555345ED
:102E9000440020204E6F7A7A6C653A20003F00494A
:102EA0006E697469616C697A6520454550524F4D71
:102EB000006E6F74696669636174696F6E20006388
:102EC000616E63656C005072696E742041626F724E
:102ED000746564004469736D6973730055492041DA
:102EE000626F72746564004D323520500A4D323481
:102EF00000526573756D65005549205061757365A5
:102F00000050617573696E672E2E2E0072657375A1
:102F10006D6500454550524F4D2056657273696F7F
:102F20006E204572726F7200454550524F4D2049D8
:102F30006E646578204572726F7200454550524F3D
:102F40004D20435243204572726F720049676E6F85
:102F500072650043616E63656C004F6666004F6E7C
:102F6000004D6F74696F6E005374617274205072FB
:102F7000696E740043616E6E6F7420656E74657265
:102F8000207375626469723A2000022E2E002100BF
:102F9000486F74656E6420746F6F20636F6C64009B
:102FA00050726F6365656400536F667420456E648C
:102FB00073746F7073005072696E742066726F6DF7
:102FC000204D6564696100627574746F6E00436FB3
:102FD0006E74696E7565004C6F61642046696C6142
:102FE0006D656E74205400496E7365727420666955
:102FF0006C616D656E7420616E642073656E642013
:103000004D3130380A0000009B4300009B43000014
:10301000C843FFFDFCFAF8F6F4F2F0EEECEAE9E75B
:10302000E5E3E1E0DEDCDAD9D7D5D4D2D0CFCDCB21
:10303000CAC8C7C5C3C2C0BFBDBCBAB9B7B6B4B3AE
:10304000B2B0AFADACAAA9A8A6A5A4A2A1A09E9D0E
:103050009C9A99989795949392908F8E8D8B8A894C
:1030600088878684838281807F7E7D7B7A7978776A
:10307000767574737271706F6E6D6C6B6A69686768
:10308000666564636261605F5E5D5C5B5A59585857
:103090005756555453525150504F4E4D4C4B4A4A2F
:1030A0004948474646454443424241403F3E3E3DF3
:1030B0003C3B3B3A393838373635353433323231A8
:1030C00030302F2E2E2D2C2B2B2A2929282727264E
:1030D000252524232322212120201F1E1E1D1C1CE8
:1030E0001B1B1A1919181817161615151413131275
:1030F000121111100F0F0E0E0D0D0C0C0B0A0A09F8
:10310000090808070706060505040403030202016F
:103110000000000000000000000000000000506CF3
:1031200065617365205265736574005052494E5451
:1031300045522048414C5445440025533A202553DC
:1031400000706F7765726F6666004B494C4C454462
:103150002E20005072696E7465722068616C74650F
:10316000642E206B696C6C28292063616C6C65642B
:10317000210A006563686F3A004572726F723A0007
:103180005072696E74696E67204F626A656374007D
:103190002553202569002F2F616374696F6E3A00F3
:1031A000626567696E00656E640070726F6D707441
:1031B0005F0073686F770044697361626C65527574
:1031C0006E6F75740050757267654D6F726500485B
:1031D0006F74656E6420746F6F20636F6C640A0097
:1031E00053656E64204D31303820746F20726573E2
:1031F000756D650A0052656865617420446F6E657F
:1032000000526568656174696E672E2E2E005265E6
:1032100068656174004865617465722054696D6504
:103220006F75740053656E64204D31303820746FB3
:103230002068656174206E6F7A7A6C650A004E6F43
:103240007A7A6C65205061726B65640043616E6EC2
:103250006F74206F70656E207375626469722000F0
:10326000534420496E6974204661696C00534420C0
:1032700063617264206F6B0A006F70656E526F6FCE
:1032800074206661696C65640A00766F6C756D65A3
:103290002E696E6974206661696C65640A004E6F00
:1032A00020534420636172640A0050455447005023
:1032B0004C41004D6F76652025736D6D004D6F7626
:1032C0006520302E316D6D004D6F766520316D6D4E
:1032D000004D6F76652031306D6D004D6F76652045
:1032E00041786973004578747275646572004D6F3A
:1032F0007665205A004D6F76652059004D6F7665D2
:103300002058004368616E67652046696C616D6591
:103310006E7400556E6C6F61642046696C616D65FA
:103320006E74004C6F61642046696C616D656E74EB
:10333000005072656865617420437573746F6D0029
:10334000507265686561742024004261636B0000FF
:10335000000A0B02090C0D0E08070304010000000F
:10336000000000000000000000000000000000005D
:10337000000000000000000000000012111000001A
:10338000000000000000000000000000000000003D
:103390000000000000AF32AA32456E636C6F737597
:1033A00072650020520048617264636F6465642036
:1033B00044656661756C742053657474696E6773D7
:1033C000204C6F616465640A003B200020204D366C
:1033D0003033200020204D34313220530046696CB8
:1033E000616D656E742072756E6F75742073656E95
:1033F000736F723A0020550046696C616D656E749A
:10340000206C6F61642F756E6C6F6164206C656EEB
:10341000677468733A0020204D3330342050002008
:10342000490020204D333031205000504944207352
:10343000657474696E67733A002046002048002066
:10344000204D3134352053004D6174657269616CD3
:103450002068656174757020706172616D65746556
:1034600072733A0020204D3230352042004164769C
:10347000616E6365643A20423C6D696E5F73656797
:103480006D656E745F74696D655F75733E20533C46
:103490006D696E5F66656564726174653E20543C5B
:1034A0006D696E5F74726176656C5F666565647286
:1034B0006174653E20583C6D61785F785F6A657223
:1034C0006B3E20593C6D61785F795F6A65726B3E37
:1034D000205A3C6D61785F7A5F6A65726B3E204569
:1034E0003C6D61785F655F6A65726B3E0020204DC0
:1034F000323034205000416363656C6572617469D9
:103500006F6E2028756E6974732F7332293A2050BC
:103510003C7072696E745F616363656C3E20523CFF
:10352000726574726163745F616363656C3E20549D
:103530003C74726176656C5F616363656C3E00200C
:10354000204D3230312058004D6178696D756D2005
:10355000416363656C65726174696F6E2028756E76
:103560006974732F7332293A0020204D3230332092
:1035700058004D6178696D756D206665656472618E
:103580007465732028756E6974732F73293A00531C
:10359000746570732070657220756E69743A0020CE
:1035A000440020204D3230302053002044697361A4
:1035B000626C65640A0046696C616D656E742073A7
:1035C000657474696E67733A0020204D3134392078
:1035D00043203B20556E69747320696E2043656CEF
:1035E000736975730A0020286D6D29002020473209
:1035F00031202020203B20556E69747320696E2095
:103600006D6D0000803B4400803B44000070410031
:103610000096420000A0420000A0420000C8430003
:1036200080CF43D0070000D007000064000000886E
:10363000130000446966663A2020200046726F6DD0
:103640005374703A00537465707065723A00526139
:10365000773A20202020000A4C6F676963616C3A3A
:1036600000436F756E7420453A004361703A000064
:103670000B02F30111241FBECFEFD1E2DEBFCDBF9D
:1036800000E00CBF12E0A0E0B2E0ECEFFEE402E0EC
:103690000BBF02C007900D92A83EB107D9F725E1F4
:1036A000A8EEB2E001C01D92A038B207E1F71BE11D
:1036B000C9E3DBE100E006C021970109802FFE018C
:1036C0000F94C723C833D10780E00807A9F70F94E8
:1036D000C40E0D946C270C9400002F923F924F92D1
:1036E0005F926F927F928F929F92AF92BF92CF9292
:1036F000DF92EF92FF920F931F93CF93DF93CDB79B
:10370000DEB7E3970FB6F894DEBF0FBECDBF8AAB2E
:103710002091E71428AB11E01093E7148091B203D5
:103720008D3409F48EC2843511F40C94FC2B87344B
:1037300011F00C94212C8091B0039091B10385314C
:10374000910511F40C94232C74F4843091053CF40D
:10375000823091050CF0F9C097FF26C06EC2049725
:1037600009F48EC16AC28A35910509F414C244F481
:103770008B31910509F4C3C14C9709F4FCC15DC2BA
:103780008B35910509F40BC28C35910509F055C2B2
:1037900080EDC82E82E0D82E99EFE92E96E0F92E22
:1037A00000E0312C10E025C280918006813011F0BC
:1037B0000C94232C0E949DBF84E896E00E943A75E9
:1037C0008091130D83FD85C0209105073091060778
:1037D00040910707509108076091900670919106FB
:1037E00080919206909193060F94D41C882309F43B
:1037F00070C080914F0781111BC06091310E709194
:10380000320E8091330E9091340E0F944425209106
:10381000230230912402215031096217730744F4C6
:103820000E9451F182E298E20E944DF011E001C045
:1038300010E020910507309106074091070750914D
:103840000807609190067091910680919206909180
:1038500093060F94D7236B017C0120E030E0A9018F
:103860000F94382687FF04C0F7FAF094F7F8F09425
:1038700020911F023091200240912102509122029A
:10388000C701B6010F943A1D20E030E849ED53E43A
:103890000F94382618163CF40E9451F183E098E208
:1038A0000E944DF002C01123A1F0809190069091EA
:1038B0009106A0919206B09193068093050790938C
:1038C0000607A0930707B093080780E996E00E94D7
:1038D00070EC2AE037ED43E25CE360916D02709199
:1038E0006E0280916F02909170020F943A1D6B01ED
:1038F0007C0160912E0270912F02072E000C880B24
:10390000990B0F94DB1C9B01AC01C701B6010F940E
:103910003A1D69837A838B839C838E010F5F1F4FCF
:1039200020E936E04CE856E068E876E084E896E086
:103930000E94639580E1E4E8F6E0A9EFB6E001902B
:103940000D928A95E1F70C94232C2091800621306A
:1039500011F00C94232C11E0029709F010E00E9462
:103960009DBF19821A821B821C821D821E821F82A9
:10397000188682E50E9490BF882309F44BC00E94FC
:103980000FBF6B017C0120E030E0A9010F94D41C33
:10399000882309F455C08091F9069091FA06A09108
:1039A000FB06B091FC068CA39DA3AEA3BFA38091A0
:1039B000FD069091FE06A091FF06B09100078CA72E
:1039C0009DA7AEA7BFA78090840690908506A09083
:1039D0008606B090870640908806509089066090D1
:1039E0008A0670908B06A50194016CA17DA18EA121
:1039F0009FA10F94D41C81110C942C2CA301920133
:103A00006CA57DA58EA59FA50F94D41C8823C1F01D
:103A10000C942C2C89E40E9490BF882331F00E94E2
:103A20000FBF69837A838B839C838AE40E9490BF53
:103A3000882331F00E940FBF6D837E838F83988728
:103A400020E030E0A90169817A818B819C810F940B
:103A5000D41C81110C94E02C20E030E0A9016D8190
:103A60007E818F8198850F94D41C81110C94E02C59
:103A70000E944DF180ED96E00E944DF00C94232CB5
:103A800080E50E9490BF882329F00E94C7BE6B0189
:103A90007C0103C0C12CD12C760183E50E9490BF2C
:103AA000882361F00E940FBF20E030E04AE754E431
:103AB0000F943A1D0F944B256B017C010E945FEC23
:103AC00080915B14811105C060E086EE96E00E9453
:103AD00064DA0E9446FCC60ED71EE81EF91E0E943C
:103AE00046FCDC01CB018C199D09AE09BF09B7FD6D
:103AF00002C00C94232C80E00E94FB32F0CF0E9485
:103B000074E68E010F5F1F4F882311F40C94072D6C
:103B100082FF03C044ED52E002C047EE52E081FF55
:103B200003C026ED32E002C027EE32E080FF03C082
:103B300088ED92E002C087EE92E05F934F933F934F
:103B40002F939F938F938FEE96E09F938F931F9366
:103B50000F930F946C1C0E9451F1C8010E94DA323D
:103B600060E0C8010E941BDB0FB6F894DEBF0FBEF9
:103B7000CDBF0C94232C8091E3148770873011F013
:103B80000C94182D60E08FE40E94ECC181110C941C
:103B9000232C0C94182D1092F7020C94232C8FE0F8
:103BA0008093F7020C94232C0E940FBF4B015C0101
:103BB000F70120813181428153810F94D7232B015A
:103BC0003C012DEB37E346E855EB0F94382687FD93
:103BD00018C02DEB37E346E855E3C301B2010F945B
:103BE000D41C181674F01F5FB4E0EB0EF11C1430F7
:103BF000A9F0D6018D916D010E9490BF882399F3A1
:103C0000D3CF133011F401E002C033243394D70131
:103C10008D929D92AD92BC921397E5CF332019F00F
:103C20000E94727606C0002321F085E097E00E9492
:103C300070EC0E94B4760C94232C0E9478960C941D
:103C4000232C8091B0039091B1038337910509F43F
:103C50004CC70CF0CBC08B34910509F426C40CF092
:103C600052C08931910509F4C2C21CF58431910515
:103C700009F42CC27CF48131910509F406C22CF4BC
:103C8000029708F4B8C10C94F92B429709F435C691
:103C90000C94F92B8631910509F44DC20CF447C2FE
:103CA0008731910509F451C2489709F465C20C9413
:103CB000F92B8E31910509F41BC3ACF48B319105BE
:103CC00009F4A7C20CF497C28C31910509F408C31A
:103CD0004D9711F00C94F92B809170128E7F809388
:103CE00070120C94232C8032910509F464C30CF4F7
:103CF000A9C38132910509F493C38934910509F46C
:103D0000C1C30C94F92B8836910509F46CC4DCF519
:103D10008235910509F4E3C534F58D34910509F434
:103D2000CCC30CF4C6C38E34910509F4CAC38135E3
:103D3000910511F00C94F92B0E942D9D0E9467EAC9
:103D40000E94D9EE0E94363168EE73E080E090E088
:103D50000E9429F00E943B3160E080E298E00E94DE
:103D600064DA0C94232C8435910509F4C6C50CF44F
:103D7000BDC58535910509F4F7C58C35910509F464
:103D800016C60C94F92B8D36910509F453C48CF4A6
:103D90008A36910509F48CC40CF476C48B369105EF
:103DA00009F4C9C48C36910511F40C94232C0C949D
:103DB000F92B8037910511F40C94232C54F48E3692
:103DC000910509F4C6C48F36910509F4D5C40C9445
:103DD000F92B8137910509F413C58237910511F04C
:103DE0000C94F92B0F94750C0C94232C8E32E1E07B
:103DF0009E0711F40C94A3290CF07AC08E3B910518
:103E000009F444C5D4F58937910509F43EC7ECF4AB
:103E10008637910509F4FCC634F48537910509F419
:103E2000E6C60C94F92B8737910509F42BC7883720
:103E3000910511F00C94F92B81E08093B6048093E6
:103E4000B5040E945E770C94232C8C38910509F4FC
:103E5000FCC44CF48D37910511F00C94F92B0E94A1
:103E600055C40C94232C8139910509F415C78B395D
:103E7000910509F40EC50C94F92B8D3C910511F4B4
:103E80000C947D27B4F4893C910509F4C0C734F43F
:103E9000883C910509F474C70C94F92B8B3C91056F
:103EA00009F4D8C78C3C910511F40C9449270C9463
:103EB000F92B8D3D910511F40C94472864F4833D52
:103EC000910511F40C9490278C3D910511F40C94FC
:103ED00020280C94F92B8C3221E0920711F40C94D9
:103EE0009C288D32914011F40C94B1280C94F92B3C
:103EF000873FA1E09A0711F40C946A2AD4F58C3913
:103F0000E1E09E0711F40C94ED29B4F4803321E034
:103F1000920711F40C94302914F40C94E729803999
:103F2000A1E09A0711F40C94EA298A39914011F41E
:103F30000C94232C0C94F92B843FE1E09E0711F4A0
:103F40000C94642A3CF4863E914011F40C94F829B8
:103F50000C94F92B853F31E0930711F40C94672AF8
:103F6000863F914011F00C94F92B0F9497040C9418
:103F7000232C8D3BB2E09B0711F40C940C2BDCF44A
:103F80008C30F2E09F0711F40C94832A3CF4883FB4
:103F9000914011F40C94722A0C94F92B8835A2E00C
:103FA0009A0711F40C94902A8B35924011F40C94DA
:103FB000932A0C94F92B803AE3E09E0709F434C26B
:103FC0006CF48E3B22E0920711F40C940F2B8C368C
:103FD000934011F40C94232C0C94F92B873EA3E00E
:103FE0009A0711F40C94CE2B893E934011F40C9453
:103FF000DC2B0C94F92B80E50E9490BF882329F0DC
:104000000E94C7BE6B017C0103C0C12CD12C76017C
:1040100083E50E9490BF882361F00E940FBF20E0DB
:1040200030E04AE754E40F943A1D0F944B256B019E
:104030007C010E945FEC80913B0490913C040097CE
:1040400021F061E00E941BDB05C060E081E197E0A8
:104050000E9464DA8091B0039091B103892B19F02A
:1040600069E077E002C061E077E020E030E04EEC0C
:104070005FE282E00E94CEF040E0C701B6010E94FC
:1040800086390E943B960C94232C8091AC0384FFCC
:1040900002C00C94C92E8091AE0387FF02C00C941D
:1040A000C92E8091AF03837011F00C94C92E60E08B
:1040B00084E297E00E9464DA5F988A988091080110
:1040C00081708093060112980C94232C80917012B9
:1040D00083FF25C08CE397E00E944DF08091701221
:1040E00083FF17C088EA90E10E9490A88BE1E8EA7C
:1040F000F0E1DE01119601900D928A95E1F760E002
:1041000070E0CE0101960E9466F8CE0101960E94F1
:1041100095A88DE297E00E944DF00C94232C0E940C
:1041200051F18DE497E00E944DF00C94232C0E94F5
:10413000D7F30C94232C0E94C7CF80917012877FF5
:104140008062809370120C94232CE0913B04F091D8
:104150003C048081882329F0803209F41082319652
:10416000F8CF60E080913B0490913C040E9422D003
:104170001092DD0D0C94232C8091BA138823F9F052
:1041800080E090E0A0EAB1E488A399A3AAA3BBA32E
:104190001C8E1D8E1E8E1F8E19821A821B821C82FF
:1041A00000E010E020E0AE01405E5F4FBE01645EC3
:1041B0007F4FCE0101960E9401C20C94232C0E94D5
:1041C000FF30882321F00E943BD10E94233161E01F
:1041D0008CE09FE20E945CF044ED5EE267E577E0F0
:1041E00085E00E946BE60E943B960C94232C0E9473
:1041F00055C40C94232C8091701283FD02C00C9442
:10420000232C83E50E9490BF81110C94E52E0C9421
:10421000232C83E40E9442BF8823C1F18DE697E0FE
:104220000E944DF080915210882339F1BE016F5FDA
:104230007F4F8FE490E10E9457A78E010F5F1F4FC1
:10424000F80181918F01882319F00E94CF31F8CFB6
:10425000CE0101960E94D5CD8091B606882389F0C3
:1042600080E20E94CF3106EB16E0D8018D918D01DE
:10427000882339F00E94CF31F8CF83E697E00E947F
:104280004DF08AE00E94CF310C94232C83E50E94EC
:1042900090BF882309F10E94EBBE182F90E0CD97C4
:1042A0000CF01CE31093EC020E9446FC6B017C01B5
:1042B000212F30E0A8EEB3E00F945723C60ED71E8F
:1042C000E81EF91EC092E802D092E902E092EA02EA
:1042D000F092EB020C94232C0E9497CF0C94232C89
:1042E00080913B0490913C040E94D8CF0C94232CE5
:1042F0008091701283FD02C00C94232C0E945E9664
:104300008091701283FD02C00C94232C40913B04D9
:1043100050913C04BE01645E7F4F80E00E94BCC9A6
:104320008C01009711F40C94232C6C8D7D8D1982D7
:104330001C8222E0AC01CE0101960E94C5AC811125
:1043400002C0F12C14C0CE0101960E942AC9882314
:10435000C1F361E0CE0101960E943BA7009789F36B
:1043600025EEFC0120831C820E942AF5F82ECE0146
:1043700001960E9495A8B801FF2099F084E997E082
:104380000E943AF18AE00E94CF3110926C12109292
:104390006D1210926E1210926F120E944ACE0C94FF
:1043A000232C8CE797E00E943AF183EF91E20E9480
:1043B0004DF00C94232C8091701282FD0E945FECD2
:1043C0008091701283FD02C00C94232C60E080E584
:1043D0000E94ECC1182F682F80913B0490913C04FF
:1043E0000E9422D083E50E9490BF882381F00E9422
:1043F000D7BEAB01BC0140936C1250936D12609319
:104400006E1270936F128FE490E10E9450F70E9439
:104410003BD111110C94232C0E9423310C94232C9A
:104420000E94C64A0C94232C20913B0430913C04FA
:1044300090917012926090937012C9010E94D8CF2F
:104440000C94232C0E94F8786C8F7D8F8E8F9F8F19
:10445000BE016F5F7F4FCE014C960E94E74960E03E
:10446000CE0101960E941BDB0E9451F1BE016F5FDD
:104470007F4F82EA97E00E943AF18AE00E94CF31B2
:104480000C94232C80E50E9442BF882311F40C94E5
:10449000232C0E94EBBE90E08536910510F084E657
:1044A00090E08093DD0D0C94232C0E9423310C941A
:1044B000232C0E9447790C94232C0E9467EA0C94C9
:1044C000232C60E070E083E50E94DDC18E3491050D
:1044D00031F40E94D8EA0E943B960C94232C85E08C
:1044E00098E00E944DF06091A5047091A6048CEFB5
:1044F00097E00E940FF16091A7047091A8048FEEDD
:1045000097E00E940FF16091A5047091A60480913C
:10451000A7049091A804681B790B8091F80681503C
:1045200021E030E0823010F020E030E0621B730BBD
:1045300084EE97E00E940FF18AE00E94CF3185E07F
:1045400098E00E944DF08091A9049091AA04A09156
:10455000AB04B091AC048C8F9D8FAE8FBF8FBE012A
:104560006F5F7F4FCE014C960E94E749BE016F5F9F
:104570007F4F87ED97E00E943AF18091AD049091D2
:10458000AE04A091AF04B091B0048C8F9D8FAE8F1C
:10459000BF8FBE016F5F7F4FCE014C960E94E749EF
:1045A000BE016F5F7F4F87EC97E00E943AF120E0F9
:1045B00030E04AE754E46091B1047091B204809114
:1045C000B3049091B4040F94D224AB01BC018FEAE0
:1045D00097E00E941CF18DE60E94CF318AE00E9494
:1045E000CF310C94232C8091130D83FF02C00C94C7
:1045F000232C0E9473C087FF02C00C94232C89E4F3
:104600000E9490BF882311F40C94F62E0E94EBBEFA
:1046100090E01816190614F481E090E026E0289F37
:10462000F001299FF00D1124EC59FA4E80819181FF
:104630000C94002F8091130D83FF02C00C94232C47
:104640000E9473C0F82E87FF02C00C94232C89E4CB
:104650000E9490BF082F882311F40C94092F0E9408
:10466000EBBE90E01816190614F481E090E026E005
:10467000289FF001299FF00D1124EC59FA4E8081FA
:10468000918110E00C94192F0E9473C0182F87FDA0
:104690000AC086E493E10E944DF0812F0E94C6ADCE
:1046A0008AE00E94CF31F8A9F093E7140C94B93056
:1046B00080E50E9480E6F82E21E0281710F40C9483
:1046C000232C81E40E9442BF882329F060913D079A
:1046D000062F10E002C00FEF10E089E40E9490BFA7
:1046E000882399F00E94EBBE90E01816190614F486
:1046F00081E090E026E0289FF001299FF00D112431
:10470000EC59FA4E0481158108C083E50E9490BFE0
:10471000882319F00E94D7BE8B01EF2DF0E0E35CF7
:10472000F84FB8010F3F110519F010F06FEF70E06E
:1047300060830C94232C80E50E9480E6823010F088
:104740000C94232CE82FF0E0E35CF84F10820C94DB
:10475000232C8EE40E9490BF882311F40C94232C08
:104760000E94D7BE60933704709338048093390455
:1047700090933A040C94232C83E50E9442BF882333
:1047800029F083E50E9480E68093130D0E9451F189
:1047900082E198E00E944DF08091130D882369F129
:1047A0000FE4E02E0BE0F02E00E010E020E080911E
:1047B000130D90E0A0E0B0E0002E04C0B695A795E0
:1047C000979587950A94D2F780FF0EC0DD24D39485
:1047D000D20E222319F08CE20E94CF31F70185918D
:1047E00094910E944DF02D2D0F5F1F4F32E0E30E8C
:1047F000F11C05301105D9F644CD86E491E33FCD97
:1048000083E50E9490BF882381F00E94EBBE282F91
:1048100030E02D33310524F4809300020C94232CD6
:104820008CE3809300020C94232C0E9451F1409160
:10483000000250E060E070E089E198E00E94FEF044
:104840008AE00E94CF310C94232C8091130D83FFBA
:1048500002C00C94232C89E40E9490BF882311F499
:104860000C94622F0E94EBBE90E01816190614F407
:1048700081E090E026E0289FF001299FF00D1124AF
:10488000EC59FA4E628173810C946C2F0E94EF47B1
:10489000DAC783E50E9490BF882309F4D4C70E9439
:1048A000EBBE182F90E0CD970CF01CE31093F102B3
:1048B0000E9446FC6B017C01212F30E0A8EEB3E0A2
:1048C0000F945723C60ED71EE81EF91EC092ED02A4
:1048D000D092EE02E092EF02F092F002B4C7809123
:1048E000F7028F7D80618093F702ADC78091F70258
:1048F0008F7E80628093F702A6C783E50E9490BFF7
:104900008823E9F00E9446FC6093D70D7093D80D80
:104910008093D90D9093DA0D0E940FBF20E030E014
:104920004AE754E40F943A1D0F944B25609301021B
:1049300070930202809303029093040284C78091D3
:10494000AC0384FF02C00C947F2F8091AE0387FFDD
:1049500002C00C947F2F8091AF03837011F00C94F0
:104960007F2F0E94D9EE6FC783E50E9442BF882344
:1049700009F469C70E9446FC6093D70D7093D80D67
:104980008093D90D9093DA0D0E940FBF20E030E0A4
:104990004AE754E40F943A1D0F944B256093F202BA
:1049A0007093F3028093F4029093F5024CC70E9437
:1049B00073C087FD48C79091AC0394FD04C09091EB
:1049C000AE0397FF0AC0B0EDCB2EB2E0DB2E14E1B0
:1049D000E12E1DE0F12E10E009C09091AF0393701D
:1049E00091F7682F81E00E948CBE2DC7D6018D9172
:1049F0006D010E9490BF882309F46DC0133009F047
:104A000063C00E940FBF4B015C0120E030E040EA30
:104A100051E40F94D41C87FF4EC0A501940160910E
:104A2000340D7091350D8091360D9091370D0F94A6
:104A3000D2242B013C019B01AC01609121077091B4
:104A4000220780912307909124070F943A1D6093C9
:104A50002107709322078093230790932407A301D3
:104A600092016091440D7091450D8091460D909199
:104A7000470D0F943A1D6093440D7093450D80933C
:104A8000460D9093470D60913107709132078091E8
:104A90003307909134070F94D91CA30192010F940E
:104AA0003A1D0F944B256093310770933207809322
:104AB0003307909334078092340D9092350DA09275
:104AC000360DB092370D07C00E940FBFF701648BFF
:104AD000758B868B978B1F5FF4E0EF0EF11C143003
:104AE00009F084CF0E94A5EDAEC682E799E00E944E
:104AF0004DF060E082E699E00F945B0C60E08DE49D
:104B000099E00F945B0C61E08AEA9EE20F945B0CE3
:104B100061E082E499E00F945B0C61E082E399E04C
:104B20000F945B0C60E089E299E00F945B0C61E00C
:104B30008FE199E00F945B0C60E085E199E00F94C0
:104B40005B0C61E085EA9BE00F945B0C60E08DE01C
:104B500099E00F945B0C60E08FEF98E00F945B0C92
:104B600061E081EF98E00F945B0C60E082EE98E0EA
:104B70000F945B0C60E084ED98E00F945B0C60E0B8
:104B80008EEB98E00F945B0C61E08DEA98E00F9457
:104B90005B0C61E08EE998E00F945B0C61E087E9C3
:104BA00098E00F945B0C61E082E898E00F945B0C56
:104BB00061E084E798E00F945B0C61E081E698E0A7
:104BC0000F945B0C60E084E598E00F945B0C61E06F
:104BD0008FE498E00F945B0C60E082E498E00F941F
:104BE0005B0C60E08EE298E00F945B0C2CC6809129
:104BF0003B0490913C04009741F0DC012C9122236E
:104C000021F060E00E941BDB1EC60E943B961BC683
:104C100000913B0410913C0494E0F12C40E0915051
:104C200021F1F8018081282F2B7F213421F421816B
:104C30002133D9F407C08035C1F4818180538A3093
:104C400048F013C0813421F0853421F441E002C0E2
:104C5000FF24F39498012E5F3F4F89012F5F3F4F50
:104C6000F80180818032C9F3DACF41110E9451F1FD
:104C7000FF2021F08BE49AE00E944DF0C8010E94D1
:104C8000DA32E1C50E943B77DEC51092B60410927D
:104C9000B5040E945E77D7C560E070E083E50E94AE
:104CA000DDC1823038F00E944DF18FE49AE00E941D
:104CB0004DF0C9C58C01112788E40E9490BF88235C
:104CC000E1F00E94E7BE8A3A910544F00E94E7BEF7
:104CD0008530914034F40E94E7BE05C08AEA90E036
:104CE00002C084E091E026E0209FF001219FF00DBA
:104CF0001124EC59FA4E9183808382E40E9490BF84
:104D00008823D9F00E94E7BE059744F00E94E7BED1
:104D10008F36910534F40E94E7BE05C085E090E02F
:104D200002C08EE690E026E0209FF001219FF00D6A
:104D30001124EC59FA4E9383828386E40E9490BF3B
:104D4000882309F480C50E94E7BE97FD09C00E9430
:104D5000E7BE8F3F910509F034F40E94E7BE05C01D
:104D600080E090E002C08FEF90E026E0209FF0010D
:104D7000219FF00D1124EC59FA4E9583848363C56D
:104D80000E9473C0182F87FD5EC50091741584E4DE
:104D90000E9490BF882311F40C94B02F0E940FBF83
:104DA0006B017C0120E030E0A9010F94D41C882322
:104DB00041F124E01202F0011124E059FA4EC082C0
:104DC000D182E282F38220E030E0A9016091701587
:104DD0007091711580917215909173150F94D41C78
:104DE00081110CC080E090E0A0EEBFE380937015CD
:104DF00090937115A0937215B093731501E00C9404
:104E0000B02F80E0809374150E94E5701CC50E944D
:104E100073C087FD18C5A0EDEA2EA2E0FA2E04E1CA
:104E20001DE0D7018D917D010E9442BF882359F07A
:104E30000E940FBF0F944B25F8016083718382831A
:104E400093830E9418EC0C5F1F4FFDE004321F0794
:104E500041F7F9C40E9473C087FDF5C4F0EDEF2E51
:104E6000F2E0FF2E04E11DE0D7018D917D010E944B
:104E700042BF882339F00E940FBFF80164A375A3D5
:104E800086A397A30C5F1F4FFDE004321F0761F755
:104E9000DAC48091AD0387FF02C00C94B62F8091D5
:104EA000AE038E7011F00C94B62F4091480D5091C6
:104EB000490D60914A0D70914B0D81E79AE00E9477
:104EC0001CF140914C0D50914D0D60914E0D709123
:104ED0004F0D83EA93E30E941CF14091500D5091D5
:104EE000510D6091520D7091530D84EE9FE20E941E
:104EF0001CF18AE00E94CF31A6C48091AC0382717C
:104F000011F00C94FC2F8091AE038C7811F00C946E
:104F1000FC2F8091AF03837011F00C94FC2F93C48D
:104F20008091500290915102A0915202B09153028F
:104F30008CA39DA3AEA3BFA34090540250905502F2
:104F400060905602709057028090580290905902DB
:104F5000A0905A02B0905B02C0905C02D0905D02BB
:104F6000E0905E02F0905F02809160029091610299
:104F7000A0916202B091630288A799A7AAA7BBA7D4
:104F80008091640290916502A0916602B0916702DF
:104F90008CA79DA7AEA7BFA70E9451F181E99AE017
:104FA0000E944DF083E50E9442BF882321F00E94B9
:104FB000FFBE80931C0280911C02882319F089EAAD
:104FC00092E202C08EE699E00E944DF089E89AE0F4
:104FD0000E944DF04CA15DA16EA17FA185E495E3F7
:104FE0000E941CF1B301A20184EB98E20E941CF123
:104FF000B501A40188EA98E20E941CF18EE49BE2CC
:105000000E944DF081E89AE00E944DF0B701A601A0
:1050100085E495E30E941CF148A559A56AA57BA5E6
:1050200084EB98E20E941CF14CA55DA56EA57FA5BE
:1050300088EA98E20E941CF18AE00E94CF3103C402
:1050400083E50E9490BF882331F00E94E7BE9093D1
:105050002F0280932E028091AC039091AD03A0911A
:10506000AE03B091AF03892B8A2B8B2B09F0EBC3D6
:1050700060912E0270912F0281EA9AE00E942DF138
:1050800085E20E94CF318AE00E94CF31DCC30E94CA
:1050900073C0F82E87FDD7C383E50E9490BF0F2D04
:1050A0000F2C000C110B882361F10E94E7BEF80160
:1050B000EE0FFF1FE35EFD4F91838083000F111FF2
:1050C000000F111FD801A15EBD4F7D01BC01990FDA
:1050D000880B990B0F94DB1C2AE037ED43E25CE36D
:1050E0000F943A1DF801EC56F94F2081318142812D
:1050F00053810F943A1DF7016083718382839383F8
:10510000A2C30E9451F185E40E94CF3180E38F0D4C
:105110000E94CF31000F111FF801E35EFD4F608147
:10512000718185EA9AE00E942DF185E20E94CF31DB
:105130008AE00E94CF3187C364E071E083E50E947A
:10514000CAC18C0168EE73E080E50E94CAC189384B
:10515000F3E19F0710F088E893E1B8010E942DDA8F
:1051600072C385E40E9480E6811173C080E50E94CD
:1051700042BF882351F00E940FBF6093380E709396
:10518000390E80933A0E90933B0E89E40E9442BF01
:10519000882381F00E940FBF2CEA35EC47E25EE3E2
:1051A0000F943A1D60933C0E70933D0E80933E0E1B
:1051B00090933F0E84E40E9442BF882381F00E94B6
:1051C0000FBF2CEA35EC47E25EE30F94D2246093E4
:1051D000400E7093410E8093420E9093430E0E94B6
:1051E00051F14091380E5091390E60913A0E709104
:1051F0003B0E85EB9AE00E941CF12CEA35EC47E26D
:105200005EE360913C0E70913D0E80913E0E909158
:105210003F0E0F94D224AB01BC0181EB9AE00E94B7
:105220001CF12CEA35EC47E25EE36091400E709190
:10523000410E8091420E9091430E0F943A1DAB01A6
:10524000BC018DEA9AE00E941CF18AE00E94CF31F5
:10525000FAC20E944DF189EB9AE00E944DF0F3C230
:1052600080E50E9442BF882351F00E940FBF6093E7
:10527000CB0D7093CC0D8093CD0D9093CE0D89E422
:105280000E9442BF882381F00E940FBF2CEA35ECB8
:1052900047E25EE30F943A1D6093CF0D7093D00DFB
:1052A0008093D10D9093D20D84E40E9442BF882355
:1052B00081F00E940FBF2CEA35EC47E25EE30F94C9
:1052C000D2246093D30D7093D40D8093D50D909319
:1052D000D60D0E9451F14091CB0D5091CC0D6091B3
:1052E000CD0D7091CE0D85EB9AE00E941CF12CEA59
:1052F00035EC47E25EE36091CF0D7091D00D809167
:10530000D10D9091D20D0F94D224AB01BC0181EB51
:105310009AE00E941CF12CEA35EC47E25EE36091D2
:10532000D30D7091D40D8091D50D9091D60D0F9421
:105330003A1DAB01BC018DEA9AE00E941CF18AE0A3
:105340000E94CF3180C283E50E9442BF182F88237C
:1053500071F00E940FBF0F94442570932402609354
:10536000230221E0672B09F020E020934F0780E51E
:105370000E9442BF882359F02091230230912402D9
:10538000232B11F00E94FFBE80934F075CC21111C6
:105390005AC20E9451F184EE9AE00E944DF0809131
:1053A0004F07882319F087EB93E202C08BEC9AE059
:1053B0000E944DF0609123027091240283ED9AE0E7
:1053C0000E942DF18FEC9AE00E944DF03CC20E94A9
:1053D000814239C20E945FEC36C28091AC0388786A
:1053E00009F075C68091AE03867009F070C69DC63F
:1053F00084E50E9442BF8823A1F010928C04109291
:105400008D0410928E0410928F04109290048FEFEE
:105410000E94E9EF61E070E084E50E94DDC18093C5
:10542000900483E50E9442BF882321F00E94E7BEDA
:105430000E94E9EF83E40E9442BF882331F080910B
:105440000B02803210F40E94BDEF80E50E9442BF43
:10545000882331F00E94E7BE803210F40E94BDEF35
:1054600085E50E9442BF882309F4EDC10E94E7BE92
:10547000803208F0E8C141E050E0082E02C0440F3D
:10548000551F0A94E2F740955095052E000C660BC7
:10549000770B00918C0410918D0420918E04309133
:1054A0008F04402351236223732340938C04509331
:1054B0008D0460938E0470938F0490910B02891376
:1054C000C2C11092120DBFC10E94E382BCC10F94F1
:1054D000EB05B9C161E083E50E94ECC181270F941F
:1054E000F905B1C181E080935B150E94D77C1092D1
:1054F0005B15882309F4A7C10E9451F188E29BE063
:105500000E944DF0A0C18091701282FF04C080649F
:105510008093701298C183FF96C10E945E9693C1DA
:105520000E943EC390C10E9473C0082F87FD8BC1AB
:1055300085E50E9442BF8823B1F1E02E002E000CC9
:10554000FF080E940FBF4B015C0120E030E0A90181
:105550000F94382687FF04C0B7FAB094B7F8B09418
:10556000C70153E0880F991F5A95E1F79C01245A0F
:105570003A4E7901D9018D929D92AD92BC921397CA
:1055800020E030E849ED53E4C501B4010F9438261A
:1055900018164CF480E090E8A9EDB3E4F70180839D
:1055A0009183A283B3838CE40E9442BF882309F4D1
:1055B0004AC1002E000C110B0E940FBF6B017C0131
:1055C00020E030E0A9010F94382687FF04C0F7FAE5
:1055D000F094F7F8F09420E030E849ED53E4C70187
:1055E000B6010F943826980143E0220F331F4A95E5
:1055F000E1F7F901E45AFA4E18162CF0C482D5826C
:10560000E682F78220C180E090E8A9EDB3E48483CC
:105610009583A683B78317C10E949CC014C10E94C2
:1056200073C0182F87FD0FC18AE50E9490BF8823A1
:1056300049F040E050E0BA018AE50E946A424B011D
:105640005C0106C0812C912C90E2A92E91E4B92E28
:10565000412F64E083E00E94A47020E030E0A901C3
:10566000C501B4010F94382618167CF580E090E04F
:10567000A0EAB0E489839A83AB83BC8320910107BD
:10568000309102074091030750910407C501B4010E
:105690000F94D8236B017C0120E030E048EC53E408
:1056A0000F94D41C87FD06C0C12CD12C88ECE82EA9
:1056B00083E4F82ECC8EDD8EEE8EFF8EBE016F5F02
:1056C0007F4FCE014C960E94FD7585E50E9442BF3A
:1056D000882329F00E940FBF6B017C010AC028E0DB
:1056E0001202F0011124E45AFA4EC080D180E28007
:1056F000F38020E030E0A901C701B6010F943826FD
:1057000087FF04C0F7FAF094F7F8F094F7FAF094F2
:10571000F7F8F094C982DA82EB82FC8244E061E01F
:10572000CE0101960E9495F220E030E0A901C5016A
:10573000B4010F94382618165CF580E090E0A0EADA
:10574000B0E489839A83AB83BC83A5019401609103
:1057500001077091020780910307909104070F944D
:10576000D7236B017C0120E030E0A9010F9438269B
:1057700018161CF0C12CD12C7601CC8EDD8EEE8E4D
:10578000FF8EBE016F5F7F4FCE014C960E94FD756C
:1057900040E060E089E00E94A47055C081E0809301
:1057A00080061092B01460E083E50E94ECC1811184
:1057B0004AC00E94174C47C00E94F8786D337105AB
:1057C0008105910520F08BE49BE00F94EA0D87E4BE
:1057D0009BE00F94EA0D84EE8093DD0D83E39BE064
:1057E0000E944DF087E798E29093BC048093BB043D
:1057F0002AC00E94789627C00091B0031091B1038F
:105800000E9446FC6093D70D7093D80D8093D90DFC
:105810009093DA0D0023B9F00E9451F184E50E94C3
:10582000CF31B8017727072E000C880B990B0E9407
:10583000433280E20E94CF3189EB9AE00E944DF022
:1058400002C00E9478963AA9311102C00E94D14B41
:1058500088A98093E7148DC420E030E0A901C70136
:10586000B6010F94D41C881F8827881F181709F4C5
:10587000A2C080E090E0A0E8BFEB88A799A7AAA704
:10588000BBA72CA13DA14EA15FA1C501B4010F94FE
:10589000D72320E030E040E05FE30F943A1D6CA393
:1058A0007DA38EA39FA32CA53DA54EA55FA5C301F7
:1058B000B2010F94D72320E030E040E05FE30F9483
:1058C0003A1D2B013C012CA13DA14EA15FA1CA01B3
:1058D000B9010F943A1D4B015C01A3019201C30170
:1058E000B2010F943A1D9B01AC01C501B4010F94A4
:1058F000D8230F9486264B015C019B01AC01C701A4
:10590000B6010F94D7236CA77DA78EA79FA7A501EB
:105910009401C701B6010F94D8239B01AC016CA57B
:105920007DA58EA59FA50F943A1D6B017C0120E0FB
:1059300030E0A9010F94382687FD07C0C701B601E2
:105940000F9486266B017C0103C0C12CD12C7601FB
:10595000C301B2019058A50194010F94D22428A547
:1059600039A54AA55BA50F943A1DA70196010F948E
:105970003A1D2CA13DA14EA15FA10F94D8236983AC
:105980007A838B839C83A50194016CA17DA18EA158
:105990009FA10F94D22428A539A54AA55BA50F94F1
:1059A0003A1DA70196010F943A1DA30192010F948D
:1059B000D8230C941C1D80E090E0A0E8BFE35DCFED
:1059C00080E50E9480E6082F853630F00E944DF178
:1059D00080ED96E00E944DF0412FBE016F5F7F4F3A
:1059E000002331F089EF96E00F946E080150F4CF58
:1059F00084E896E00F946E080E9446FC6093D70DF1
:105A00007093D80D8093D90D9093DA0D1CCF8CE054
:105A1000E1E7F2E0D80101900D928A95E1F760E0AC
:105A200070E080E50E94CAC1B8010E9420D90BCF66
:105A30000E945FEC0E9446FC6093D70D7093D80DD6
:105A40008093D90D9093DA0D80916D0290916E0242
:105A5000A0916F02B09170028093FA029093FB02C2
:105A6000A093FC02B093FD0280912E0290912F0230
:105A70009093F9028093F80284E690E090932F02CD
:105A800080932E0281E08093B6040E945E778AE5BF
:105A90000E9442BF082F88E50E9442BF182F89E567
:105AA0000E9442BF181372C1011711F0312E6FC14D
:105AB0003324339411E091E09CA782E50E9490BFCB
:105AC000882369F00E940FBF6B017C0120E030E069
:105AD000A9010F94D41C882309F453C006C0C12C1B
