:100000000C94BE1F0C94EF1F0C94EF1F0C94EF1F69
:100010000C94EF1F0C94EF1F0C94EF1F0C94EF1F28
:100020000C94EF1F0C94EF1F0C94EF1F0C94EF1F18
:100030000C94EF1F0C94EF1F0C94EF1F0C94EF1F08
:100040000C94EF1F0C9408960C94EF1F0C94EF1F68
:100050000C94EF1F0C94EF1F0C940AB50C9439AD5F
:100060000C94EF1F0C94BC400C94B2400C94EF1F06
:100070000C94EF1F0C94EF1F0C94EF1F0C94EF1FC8
:100080000C9486380C94EF1F0C94EF1F0C94EF1F08
:100090000C94EF1F0C94EF1F0C94EF1F0C94EF1FA8
:1000A0000C94EF1F0C94EF1F0C9458380C94EF1F16
:1000B0000C94EF1F0C94EF1F0C94EF1F0C942A3834
:1000C0000C94EF1F0C94EF1F0C94EF1F0C94EF1F78
:1000D0000C94EF1F0C94EF1F0C94EF1F0C94EF1F68
:1000E0000C94EF1FF2400441164127412F41624119
:1000F0003341624137413B4162413F4143414741C6
:10010000504162415B41F190608F998F2D91998FA1
:10011000998F998F998F998F998F998F998F998F9F
:10012000998F998F998F998F998F998F998F998F8F
:10013000998F998F998F998F998F998F998F998F7F
:10014000998F2791998F998F998F998F998F998FDF
:10015000998F998F0091998F998F998F998F998FF6
:10016000998F998F998F998F998F4491968FAEC35C
:1001700091C394C3B1C397C39AC39DC3A9C3A0C37A
:10018000BCC3A3C3A6C371025B02EF01EB013F0135
:10019000F10165018B01590219022302A3018501B6
:1001A0004F01F10113023D0255021502E7019901C9
:1001B0004F025D0217019B01090263021F02CF0279
:1001C0005101730149021701330115016701084A02
:1001D000D73B3BCE016E84BCBFFDC12F3D6C74315B
:1001E0009ABD56833DDA3D00C77F11BED9E4BB4CB2
:1001F0003E916BAAAABE000000803F05A84CCDB27C
:10020000D44EB93836A9020C50B9918688083CA65C
:10021000AAAA2ABE000000803F000C9427410C943B
:1002200021D70D9426350D9417320D941B4B0D9448
:100230002F4B0D9488120C9491C30C94488C0C9401
:1002400014880C94F1900D941A350D94B1310C94DE
:1002500015C10C9401C10D946F390D9440240C9478
:10026000448C0C9448D10D94114B0C9416410C9471
:100270002AC10C94998F0C9400910C9404410D9414
:1002800097480C9410D70D94B5180C940DC10D948B
:10029000472A0D94862E0D9493360C94ED8E0D9472
:1002A000C2480D94EE4A0C948FD40C9443410C94A4
:1002B00062410C94F2400D9484120C943FCE0C9445
:1002C000FDC00C948ECE0C94F9C00D94A2480D94F0
:1002D000254B0C94AA860D942C350C9404D70C94C1
:1002E000F4D20C94A3C30D94FD4A0C94FED60C9446
:1002F0001F7F0D942E380D94BA390C946E800D9496
:10030000F0340C94468C0D9469240D94BE480D94E1
:10031000F11C0C9425CE0D94A6480C9444910C9499
:1003200005C10C9421C10D9438330C949A860C9419
:1003300080D40D94A24A0D94C04A0C94F08E0D9472
:10034000E4340C9411C10D94BA480C9424C10D945A
:10035000E5310D9420350C9402CE0C9436AD0D94FD
:10036000D9320C94517D0D945A370C94BCC30C9423
:10037000237D0C94D9ED0D94EF180C94EBBE0C94E6
:100380000AD70D94FC340D94F6340D949F240C94EC
:1003900036C10D94CC310D9475320C94D4840C94E8
:1003A0003F410D9488320C94BB910C94E4D60C948C
:1003B0009AC30C94968F0C940F8B0D94EA340C9482
:1003C00097C30D9462320C9416D70D94A1320D94FC
:1003D0009D4A0D94FE310D9491480D9449320D942F
:1003E0008D480D94D5480D94F8320D9450330C94EB
:1003F0000CBC0C947ABD0C94D47D0D9484240D9483
:1004000002350D947E390C94DDD70C9437410C9451
:1004100094D40D94C84A0D940A5A0C945B410D94DF
:1004200044330D945C330D94C8480D94984A0D9450
:10043000B4320D94B0480C949ABC0D94C6320D940D
:10044000DA4A0C945D8C0D94B4480D94882E0C946B
:100450003BCE0C94A0AD0C94E57D0D94023A0D9426
:1004600014350C9448DA0C94687D0C9485D40D9462
:1004700030320C94608F0C944A8C0D94CC480C94C0
:1004800081D70C94B1C30D940E350C94A0C30C9479
:10049000DFD60D94074B0C9405EE0C949E890D94B9
:1004A000AC4A0C948AD40D9417280D94D0480C941F
:1004B0008ECF0D94AC480D949E480D94B64A0C9482
:1004C0001DC10C943A7D0D94D04A0C94A5860D94D0
:1004D000A1120D9465280D94F22C0C94907D0C942F
:1004E000CFF70D949B480C9427910C94A6C30C94C1
:1004F00009C10D94BA240C940FC20D94262B0C94B0
:100500007F7D0C9442C10D948E2E0C94DAD60D94FE
:1005100099120D942D390C9427C10C943DCE0C9456
:10052000AEC30C94258C0C940CAD0C941D920C94C1
:100530003B410C9494910D9432350C9450410C94A1
:1005400047410C9419C10D9433120C94A9C30D9416
:100550009C370C9462D70C949DC30C9469BB0C948B
:100560002D910D9445260C94D87D0C94E0D80D94D3
:100570005B280D948A2E0D949D120C9487CE0D94B9
:10058000F5320D944E240C9494C30D948C2E0C943F
:10059000EC8E0D941A340C94D5D70C9433410D94F1
:1005A000E44A0D94D5240D94A0570C942F410D943A
:1005B00008350D94F2320C9430CE4E414E494E49DE
:1005C0005459494E46CDCCCC3D0AD7233C17B7D120
:1005D0003877CC2B329595E6241FB14F0A000020C6
:1005E000410000C84200401C4620BCBE4CCA1B0E45
:1005F0005AAEC59D7400407A10F35A00A0724E188E
:10060000090010A5D4E80000E87648170000E40BC4
:1006100054020000CA9A3B000000E1F5050000808A
:10062000969800000040420F000000A086010000E4
:1006300000102700000000E8030000000064000034
:100640000000000A00000000000100000000002C73
:1006500076D888DC674F0823DFC1DFAE59E1B1B738
:1006600096E5E3E453C63AE651997696E8E6C28405
:1006700026EB898C9B62ED407C6FFCEFBC9C9F401D
:10068000F2BAA56FA5F490055A2AF75C936B6CF942
:10069000676DC11BFCE0E40D47FEF520E6B500D018
:1006A000ED902E0300943577050080841E0800002D
:1006B000204E0A000000C80C333333330F986E12FB
:1006C000831141EF8D2114893BE65516CFFEE6DB01
:1006D00018D1844B381BF77C1D901DA4BBE424204B
:1006E0003284725E228100C9F124ECA1E53D2743EA
:1006F0004F4D4D554E49434154494F4E0044525978
:1007000052554E004552524F5253004543484F00F8
:1007100047322F47332062616420706172616D65DA
:10072000746572730A00536C6565702E2E2E005A24
:100730002050726F62652050617374204265640AB4
:10074000005A2050726F62652050617374204265B8
:1007500064004D3131372050726F626520666169E7
:100760006C65642E205265776970696E672E0A4742
:1007700032380A4731322050302053313220543041
:100780000070726F62655F726577697065004732ED
:1007900039205265747279696E67004D31313720A6
:1007A000426564206C6576656C696E672066616978
:1007B0006C65642E0A4730205A31300A4D33303090
:1007C0002050323520533838300A4D3330302050E5
:1007D00035302053300A4D333030205032352053DD
:1007E0003838300A4D333030205035302053300AFD
:1007F0004D3330302050323520533838300A4D33A5
:100800003030205035302053300A473420533100E7
:1008100070726F62655F6661696C6564004D31314D
:100820003720426564206C6576656C696E6720646C
:100830006F6E652E004D65736820706F696E742051
:100840006F7574206F662072616E67650A004D30A7
:100850002053746F70004D312053746F7000436CDF
:1008600069636B20746F20526573756D652E2E2E33
:10087000004E6F204D6F76652E00456E64206669D0
:100880006C65206C6973740A00426567696E206646
:10089000696C65206C6973740A00526573756D69C3
:1008A0006E6720534400286E6F2066696C652900CE
:1008B00043757272656E742066696C653A200044F7
:1008C000656C6574696F6E206661696C65642C2067
:1008D00046696C653A200046696C652064656C6504
:1008E0007465643A005072696E742074696D653A7B
:1008F00020000A53746174733A2046696C616D6517
:100900006E7420757365643A20002C204C6F6E67FE
:10091000657374206A6F623A2000546F74616C20B2
:1009200074696D653A20002C204661696C65643AF3
:1009300020002C2046696E69736865643A20005077
:1009400072696E74733A200053746174733A2000B4
:10095000452025530044454255473A004D31313337
:1009600020530042656420436F6F6C696E672E2EC2
:100970002E004265642048656174696E672E2E2ED4
:100980000043522D3130205633204F46462E002F43
:100990002F20004D31343520533C696E6465783E1C
:1009A000206F7574206F662072616E676520283035
:1009B0002D31290A0046523A0020466C6F773A20C2
:1009C0000050726F7465637465642050696E0A002C
:1009D00020536572766F200020643A0020693A0047
:1009E00020703A006469730043290A0061626C65F3
:1009F0006420286D696E2074656D702000436F6CF3
:100A00006420657874727564657320617265200076
:100A100046696C616D656E742072756E6F757420B9
:100A200064697374616E636520286D6D293A2000D6
:100A300046696C616D656E742072756E6F75742099
:100A4000004D34323120696E636F727265637420B9
:100A5000706172616D657465722075736167650A96
:100A600000454550524F4D204F4B0A00446F6E6574
:100A7000207072696E74696E672066696C650A0021
:100A80004D3737004D3331000B07A60A0407FD062A
:100A9000EF06554E4B4E4F574E2053544154450090
:100AA00047434F44455F494E464F004C43445F50D7
:100AB000415553455F524553554D450046494C41BC
:100AC0004D454E545F52554E4F55545F434F4E5413
:100AD000494E55450046494C414D454E545F52558F
:100AE0004E4F5554004D38373620526573706F6E37
:100AF00064696E672050524F4D50545F00457272CA
:100B00006F722077726974696E6720746F20454533
:100B100050524F4D210A004E6F20436865636B733E
:100B2000756D2077697468206C696E65206E756DCF
:100B30006265722C204C617374204C696E653A209A
:100B400000636865636B73756D206D69736D6174A7
:100B500063682C204C617374204C696E653A2000E8
:100B60004C696E65204E756D626572206973206EEA
:100B70006F74204C617374204C696E65204E756DE6
:100B80006265722B312C204C617374204C696E6548
:100B90003A20004D313130005344207265616420A9
:100BA0006572726F720A002121204B494C4C206300
:100BB0006175736564206279204B494C4C206275E5
:100BC00074746F6E2F70696E0A002121204B494C9E
:100BD0004C2063617573656420627920746F6F20A7
:100BE0006D75636820696E616374697665207469E8
:100BF0006D65202D2063757272656E7420636F6D54
:100C00006D616E643A2000627573793A2070617587
:100C100073656420666F7220696E7075740A006275
:100C20007573793A2070617573656420666F722000
:100C3000757365720A00627573793A2070726F631A
:100C4000657373696E670A004D656469612052655A
:100C50006D6F766564004D6564696120496E7365EA
:100C600072746564007061757365004D36303000D4
:100C70002066696C616D656E745F72756E6F7574F8
:100C8000200066696C616D656E745F72756E6F755C
:100C90007420540046696C616D656E7452756E6F98
:100CA0007574205400363726033C3D380E2E303EF6
:100CB000131A1C180AFF430809070844000172654B
:100CC00073756D656400526573756D696E67004775
:100CD00032362048656174696E67204E6F7A7A6C8F
:100CE00065004732362048656174696E6720426549
:100CF000640057616974696E6720666F7220686569
:100D0000617475702E0A004669786564204C656EC2
:100D1000677468205072696D6500446F6E6520507D
:100D200072696D696E67004D616E75616C207072DD
:100D3000696D696E672E2E2E004732362043616E34
:100D400063656C6564004C656176696E6720473247
:100D500036003F53706563696669656420582C5995
:100D600020636F6F7264696E617465206F757420A3
:100D70006F6620626F756E64732E0A003F285229D9
:100D800065706561742076616C7565206E6F742086
:100D9000706C61757369626C653B206D757374204E
:100DA0006265206174206C6561737420312E0A00C5
:100DB0003F537065636966696564206E6F7A7A6C0B
:100DC000652074656D7065726174757265206E6FF3
:100DD0007420706C61757369626C652E0A003F53F4
:100DE00070656369666965642066696C616D656ECE
:100DF000742073697A65206E6F7420706C617573EE
:100E000069626C652E0A003F5370656369666965A7
:100E100064207072696D65206C656E677468206E01
:100E20006F7420706C61757369626C652E0A003F87
:100E3000537065636966696564206E6F7A7A6C6564
:100E40002073697A65206E6F7420706C61757369A8
:100E5000626C652E0A003F52657472616374696F3B
:100E60006E204D756C7469706C696572206D757358
:100E700074206265207370656369666965642E0A13
:100E8000003F5370656369666965642052657472DA
:100E9000616374696F6E204D756C7469706C6965FF
:100EA00072206E6F7420706C61757369626C652E50
:100EB0000A003F537065636966696564206C6179F7
:100EC000657220686569676874206E6F7420706C45
:100ED00061757369626C652E0A0043292E0A003F12
:100EE0005370656369666965642062656420746532
:100EF0006D7065726174757265206E6F7420706CB0
:100F000061757369626C65202834302D0047323674
:100F1000207374617274696E672E2E2E0A00206D24
:100F200061783A2000206D696E3A20004348414DB7
:100F30004245525F54454D5045524154555245002B
:100F4000424142595354455050494E470041524343
:100F500053004D4F54494F4E5F4D4F44455300543D
:100F60004845524D414C5F50524F54454354494FB0
:100F70004E004C4F4E475F46494C454E414D450053
:100F80004155544F5245504F52545F53445F535450
:100F900041545553005344434152440050524F4D25
:100FA00050545F535550504F525400454D45524791
:100FB000454E43595F5041525345520043415345BA
:100FC0005F4C494748545F4252494748544E455345
:100FD0005300544F47474C455F4C494748545300D2
:100FE000534F4654574152455F504F574552004268
:100FF00055494C445F50455243454E54004C45566C
:10100000454C494E475F44415441005A5F50524F4E
:101010004245004155544F4C4556454C00505249AD
:101020004E545F4A4F420050524F4752455353006F
:101030004155544F5245504F52545F54454D500006
:10104000564F4C554D45545249430042494E41522A
:10105000595F46494C455F5452414E5346455200F4
:1010600053455249414C5F584F4E5F584F464600DA
:101070004649524D574152455F4E414D453A4D61AB
:10108000726C696E20322E302E362D46695A6920D8
:101090002841756720313320323032302031343AE4
:1010A00030353A33322920534F555243455F434F31
:1010B00044455F55524C3A68747470733A2F2F67E9
:1010C00069746875622E636F6D2F4D61726C696E05
:1010D0004669726D776172652F4D61726C696E2021
:1010E00050524F544F434F4C5F56455253494F4E09
:1010F0003A312E30204D414348494E455F545950B6
:10110000453A43522D3130205633204558545255DC
:101110004445525F434F554E543A3120555549444A
:101120003A63656465326132662D343161322D3443
:101130003734382D396231322D63353563363266B6
:1011400033363766660A0050726F6265204F6666F6
:10115000736574205A003F5A206F7574206F6620A3
:1011600072616E67652028003F59206F7574206F8B
:10117000662072616E676520282D0020746F200044
:101180003F58206F7574206F662072616E6765200E
:10119000282D0050726F6265204F6666736574205B
:1011A0005800656E7175657565696E672022006F00
:1011B0006B00526573656E643A20002569792025BD
:1011C0006964202569682025696D202569730023DD
:1011D000646566696E652044454641554C545F0020
:1011E0004B6420004B6920004B7020005049442084
:1011F0004175746F74756E652066696E6973686594
:1012000064212050757420746865206C61737420AB
:101210004B702C204B6920616E64204B6420636FFF
:101220006E7374616E74732066726F6D2062656C8C
:101230006F7720696E746F20436F6E666967757291
:101240006174696F6E2E680A0050494420417574BC
:101250006F74756E65206661696C656421207469C0
:101260006D656F75740A000A20436C61737369635E
:1012700020504944200A00204B643A2000204B694A
:101280003A2000204B703A20000A204E6F206F76E3
:10129000657273686F6F740A002054753A200020DD
:1012A0004B753A200020643A200020626961733A4D
:1012B0002000504944204175746F74756E65207329
:1012C000746172740A00504944204175746F7475DA
:1012D0006E65206661696C6564212054656D70657A
:1012E00072617475726520746F6F20686967680A2F
:1012F00000504944204175746F74756E6500504903
:1013000044204175746F74756E65206661696C6503
:10131000642120426164206578747275646572206E
:101320006E756D6265720A00506C6561736520525E
:1013300065736574005052494E5445522048414CE3
:101340005445440025533A20255300706F77657249
:101350006F6666004B494C4C45442E200050726924
:101360006E7465722068616C7465642E206B696CA4
:101370006C28292063616C6C6564210A00656368D0
:101380006F3A004572726F723A0042696C696E651D
:101390006172204C6576656C696E6720477269647E
:1013A0003A0A0053544F505045442E200050726961
:1013B0006E7465722073746F7070656420647565F7
:1013C00020746F206572726F72732E2046697820C8
:1013D000746865206572726F7220616E6420757327
:1013E00065204D39393920746F20726573746172CC
:1013F000742E202854656D70657261747572652055
:1014000069732072657365742E2053657420697446
:101410002061667465722072657374617274696E9E
:1014200067290A0021212053544F502063616C6CBE
:1014300065642062656361757365206F6620424C48
:10144000546F756368206572726F72202D2072650B
:1014500073746172742077697468204D3939390A60
:10146000005072696E74696E67204F626A656374BA
:10147000002553202569002F2F616374696F6E3A30
:1014800000656E640070726F6D70745F0073686FDA
:10149000770044697361626C6552756E6F75740094
:1014A00050757267654D6F726500486F74656E6444
:1014B00020746F6F20636F6C640A0053656E642044
:1014C0004D31303820746F20726573756D650A0078
:1014D00052656865617420446F6E65005265686589
:1014E0006174696E672E2E2E005265686561740006
:1014F0004865617465722054696D656F7574005339
:10150000656E64204D31303820746F2068656174D9
:10151000206E6F7A7A6C650A004E6F7A7A6C65205D
:101520005061726B656400706175736564004D365F
:1015300030303A20546F6F20436F6C64004F464642
:101540000A00466164652048656967687420004246
:101550006564204C6576656C696E6720004661693C
:101560006C656420746F20656E61626C65204265F5
:1015700064204C6576656C696E670A00496E766119
:101580006C6964206D6573682E0A0050726F626921
:101590006E6720506F696E740025532025692F25D2
:1015A000690050726F62696E67206D6573682070A4
:1015B0006F696E742000202844525952554E2900FC
:1015C000473239204175746F20426564204C65763E
:1015D000656C696E67003F20284C2C522C462C42CB
:1015E00029206F7574206F6620626F756E64732E8C
:1015F0000A003F2856296572626F7365206C657614
:10160000656C20696D706C61757369626C6520280A
:10161000302D34292E0A00426164205A2076616CF4
:1016200075650A004E6F2062696C696E6561722093
:10163000677269640A00446576696174696F6E0057
:1016400025533A202573005374616E6461726420DF
:10165000446576696174696F6E3A20002052616E4C
:1016600067653A20004D65616E3A200046696E69F3
:1016700073686564210A002072616E67653A200014
:10168000207369676D613A2000206D65616E3A20B4
:10169000003A207A3A2000206F662000476F696E7A
:1016A0006720746F3A20580043570A00206469721B
:1016B0003A0020616E676C653A0053746172742061
:1016C0007261646975733A004D343820506F696EE9
:1016D000740025533A2025642F256400506F7369E8
:1016E00074696F6E696E67207468652070726F62CE
:1016F000652E2E2E0A003F4E756D626572206F6654
:10170000206C65677320696E206D6F76656D656E00
:1017100074206E6F7420706C61757369626C6520E3
:1017200028302D3135292E0A003F2028582C5929E0
:10173000206F7574206F6620626F756E64732E0A59
:10174000003F53616D706C652073697A65206E6F20
:101750007420706C61757369626C652028342D3556
:1017600030292E0A004D3438205A2D50726F626590
:10177000205265706561746162696C697479205486
:101780006573740A0000FE0003FF8007C7C00701ED
:10179000E00000E00000F00000700400700E007037
:1017A0001F00703F80F00E00E00F01E007C7C0038C
:1017B000FF8000FE0000FE0003FF8007C7C00F018E
:1017C000E00E00E03F80F01F00700E00700400701B
:1017D0000000700000F00000E00701E007C7C00350
:1017E000FF8000FE000E000E000E000E000E000E28
:1017F000000E000E007FC03F801F000E000400049A
:10180000000E001F003F807FC00E000E000E000E75
:10181000000E000E000E000E00FFFFFF7F80FFC0D5
:10182000FFC0FFC07F807F80FFC0FFC0FFC03F00C0
:101830001E000C0052756E6F75742044697374201D
:101840006D6D004C6F6164206D6D00556E6C6F6145
:1018500064206D6D0046696C2E204469612E004540
:1018600020696E206D6DC2B3004D33303320553189
:10187000204525692053256900504944204175744D
:101880006F74756E65202A005049442D44202A004B
:101890005049442D49202A005049442D50202A0007
:1018A00020082046616374002008204D61780020E4
:1018B00008204D696E004175746F74656D7000503D
:1018C000726F62652059204F6666736574005072AE
:1018D0006F62652058204F666673657400452073FB
:1018E000746570732F6D6D005A2053746570732F7B
:1018F0006D6D00592053746570732F6D6D00582005
:1019000053746570732F6D6D00496E697400507269
:101910006F6265204F66667365747300416363652B
:101920006C65726174696F6E0056656C6F63697483
:1019300079005A2056616C756500496E646578209F
:101940005900496E646578205800466164652048F6
:1019500065696768740045646974204D6573680043
:101960004732380A473239004C6576656C2042654B
:1019700064004572723A207574663820666F6E7422
:10198000206E6F7420696E697469616C697A656430
:101990002E00000C0F00FE07022603BC017FFE088C
:1019A000FE08FE05080806000040F0C88888987800
:1019B00010050808060000C0F88888888888F8059F
:1019C00005050600012030F8302005080806000053
:1019D0002070F820202020E00509090600FF207073
:1019E000A8A8B888887020050606060001E08CEAE1
:1019F0008C8A0A0509090600FFF8A8888888888863
:101A0000A8F8050A0A0600FE205050505088A8A8E1
:101A1000887003030306000340A040FFFFFFFFFFA1
:101A2000FFFFFFFFFFFFFFFFFFFFFFFFFFFFFFFFC6
:101A3000FF0000000605FF01070706020080808006
:101A400080800080030303060105A0A0A005060610
:101A500006000050F85050F8500509090600FF2014
:101A600070A8A07028A87020050707060000C8C845
:101A7000102040989805070706000040A0A040A845
:101A800090680103030602058080800309090601AE
:101A9000FF2040408080804040200309090601FF6C
:101AA000804040202020404080050707060000209D
:101AB000A8702070A8200505050600012020F82048
:101AC000200203030601FFC0408005010106000358
:101AD000F8020202060100C0C00507070600000860
:101AE000101020404080050707060000708898A865
:101AF000C8887003070706010040C040404040E02E
:101B0000050707060000708808102040F805070741
:101B1000060000F808103008887005070706000066
:101B200010305090F81010050707060000F880F0FC
:101B300008088870050707060000304080F0888894
:101B400070050707060000F8081010202020050780
:101B500007060000708888708888700507070600EF
:101B60000070888878081060020505060100C0C072
:101B700000C0C00206060601FFC0C000C0408003CE
:101B800005050601012040804020050303060002F0
:101B9000F800F80305050601018040204080050794
:101BA00007060000708810202000200507070600A7
:101BB000007088B8A8B88070050707060000708814
:101BC00088F8888888050707060000F048487048AC
:101BD00048F005070706000070888080808870053F
:101BE0000707060000F04848484848F00507070680
:101BF0000000F88080F08080F8050707060000F8F4
:101C00008080F08080800507070600007088808053
:101C1000988870050707060000888888F8888888F3
:101C2000030707060100E04040404040E005070789
:101C3000060000381010101090600507070600001D
:101C40008890A0C0A09088050707060000808080CB
:101C5000808080F805070706000088D8A888888853
:101C6000880507070600008888C8A898888805079F
:101C700007060000708888888888700507070600B6
:101C800000F08888F08080800507070600007088D3
:101C90008888A89068050707060000F08888F0A0EB
:101CA0009088050707060000708880700888700516
:101CB0000707060000F8202020202020050707063F
:101CC00000008888888888887005070706000088D3
:101CD0008888885050200507070600008888888873
:101CE000A8A850050707060000888850205088885B
:101CF00005070706000088885020202020050707D8
:101D0000060000F80810204080F80309090601FFCA
:101D1000E080808080808080E005070706000080EA
:101D20004040201010080309090601FFE020202090
:101D300020202020E005030306000520508805012F
:101D4000010600FEF8030303060105804020050597
:101D500005060000700878887805070706000080EF
:101D600080F0888888F0050505060000708080886E
:101D70007005070706000008087888888878050538
:101D8000050600007088F080700507070600003027
:101D90004840E04040400507070600FE70888888FC
:101DA0007808700507070600008080F0888888881A
:101DB0000307070601004000C0404040E004090955
:101DC0000601FE1000301010101090600507070685
:101DD000000080808890E09088030707060100C01B
:101DE0004040404040E0050505060000D0A8A8A8F6
:101DF000A8050505060000B0C88888880505050601
:101E0000000070888888700507070600FEF0888843
:101E100088F080800507070600FE788888887808A3
:101E200008050505060000B0C88080800505050688
:101E3000000078807008F00507070600002020F8F1
:101E40002020201805050506000088888898680568
:101E50000505060000888888502005050506000055
:101E60008888A8A8500505050600008850205088DD
:101E70000507070600FE8888885020408005050574
:101E8000060000F8102040F80309090601FF204071
:101E9000404080404040200109090602FF808080C8
:101EA0008080808080800309090601FF80404040D7
:101EB000204040408005030306000248A890FF240C
:101EC000F4D43050C38E20C2A24017828B701112FE
:101ED0007A910D816CD90AA861E108C7586607613B
:101EE0005143061E4B5D05C145A7041A4111040963
:101EF0003D9803713931034036DB0265339102D4DA
:101F0000305402802E1D02632CEE01752AC501B0EB
:101F100028A001102781018F2564012B244B01E0AB
:101F2000223401AC211F018D200D01801FFC008493
:101F30001EED00971DDF00B81CD200E61BC6002076
:101F40001BBC00641AB200B219A8000A19A0006AEA
:101F5000189900D117910040178B00B516840031F5
:101F6000167E00B31579003A157300C7146F005838
:101F7000146A00EE1366008813630025135E00C721
:101F8000125B006C12570015125400C11151007001
:101F9000114F0021114B00D61049008D104700460B
:101FA00010440002104200C00F4000800F3E00426B
:101FB0000F3C00060F3B00CB0E3800930E37005C41
:101FC0000E3500270E3400F30D3200C10D310090A4
:101FD0000D3000600D2E00320D2D00050D2C00D9A6
:101FE0000C2B00AE0C2900850C29005C0C27003559
:101FF0000C27000E0C2600E80B2400C40B2400A0C4
:102000000B23007D0B23005A0B2100390B210018F4
:102010000B2000F80A1F00D90A1E00BB0A1E009DF3
:102020000A1D00800A1D00630A1C00470A1B002CC1
:102030000A1B00110A1A00F7091A00DD091900C469
:10204000091900AB091900920917007B09180063F0
:102050000917004C09160036091600200916000A57
:10206000091500F5081500E0081400CC081400B8A4
:10207000081400A4081400900813007D0812006BD7
:1020800008130058081200460812003408110023F3
:102090000811001208110001081100F0071000E0FB
:1020A000071000D0071000C0071000B0070F00A1F4
:1020B00007100091070E0083070F0074070F0065DB
:1020C000070E0057070E0049070E003B070D002EB4
:1020D000070E0020070D0013070D0006070D00F97D
:1020E000060C00ED060D00E0060C00D4060C00C83E
:1020F000060C00BC060C00B0060C00A4060B0099F0
:10210000060C008D060B0082060B0077060B006C98
:10211000060B0061060A0057060B004C060A004237
:10212000060A0038060A002E060A0024060A001ACB
:10213000060A001006090007060A00FD050900F45A
:10214000050900EB050900E2050900D9050900D0E1
:10215000050900C7050900BE050900B5050800AD61
:10216000050800A50509009C050800940508008CD9
:10217000050800840508007C050800740508006C4B
:10218000050700650508005D050700560508004EB7
:10219000050700470507004005080038050700311E
:1021A0000507002A050700230507001C0506001681
:1021B0000507000F0507000805060002050700FBDC
:1021C000040600F5040700EE040600E8040600E239
:1021D000040700DB040600D5040600CF040600C98E
:1021E000040600C3040600BD040600B7040600B1DF
:1021F000040500AC040600A6040600A00405009B2C
:1022000004060095040500900406008A0405008574
:10221000040500800406007A0405007504050070BA
:102220000405006B04050066040500610405005CFC
:1022300004050057040500520405004D040500483C
:10224000040500430405003E0404003A040500357B
:10225000040500300404002C0405002704040023B6
:102260000405001E0404001A0404001604050011ED
:102270000404000D04040009040500040404000023
:10228000040400FC030400F8030400F4030400F059
:10229000030400EC030400E8030400E4030400E08A
:1022A000030400DC030400D8030400D4030400D0BA
:1022B000030400CC030400C8030300C50303002487
:1022C000F404D9201BC40C5C0E9804C4095F026599
:1022D000077101F405F900FB04B30048048700C14D
:1022E0000369005803550003034500BE023A008409
:1022F00002310053022A002902250004022000E4D2
:10230000011C00C8011900AF0117009801140084D6
:10231000011300710110006101100051010E004312
:10232000010D0036010B002B010B0020010B0015E5
:102330000109000C01090003010800FB000800F37B
:10234000000800EB000700E4000600DE000600D8ED
:10235000000600D2000600CC000500C7000500C240
:10236000000500BD000400B9000400B5000400B180
:10237000000400AD000400A9000400A5000300A2B1
:102380000003009F0004009B0003009800030095D9
:1023900000020093000300900003008D0002008BF8
:1023A0000003008800020086000200840003008110
:1023B0000002007F0002007D0002007B0002007925
:1023C0000002007700010076000200740002007233
:1023D000000100710002006F0002006D0001006C3E
:1023E0000002006A00010069000200670001006647
:1023F000000100650001006400020062000100614C
:10240000000100600001005F0002005D0001005C4F
:102410000001005B0001005A000100590001005852
:102420000001005700010056000100550001005452
:102430000001005300000053000100520001005150
:10244000000100500001004F0001004E0000004E4E
:102450000001004D0001004C0001004B0000004B4A
:102460000001004A00010049000100480000004846
:102470000001004700010046000000460001004541
:10248000000000450001004400010043000000433B
:102490000001004200000042000100410000004134
:1024A000000100400001003F0000003F0001003E2D
:1024B0000000003E0001003D0000003D0001003C26
:1024C0000000003C0000003C0001003B0000003B1D
:1024D0000001003A0000003A000100390000003914
:1024E000000100380000003800000038000100370B
:1024F0000000003700010036000000360000003602
:1025000000010035000000350000003500010034F6
:1025100000000034000000340001003300000033EC
:1025200000000033000100320000003200000032E1
:1025300000010031000000310000003100010030D6
:1025400000000030000000300001002F0000002FCC
:102550000000002F0000002F0001002E0000002EC0
:102560000000002E0001002D0000002D0000002DB5
:102570000000002D0001002C0000002C0000002CA9
:102580000000002C0001002B0000002B0000002B9D
:102590000000002B0001002A0000002A0000002A91
:1025A0000000002A00010029000000290000002985
:1025B0000000002900000029000100280000002878
:1025C000000000280000002800000028000100276B
:1025D000000000270000002700000027000000275F
:1025E0000001002600000026000000260000002652
:1025F0000000002600010025000000250000002545
:102600000000002500000025000000250001002436
:10261000000000240000002400000024000000242A
:10262000000100230000002300000023000000231D
:10263000000000230000002300000023000100220E
:102640000000002200000022000000220000002202
:1026500000000022000100210000002100000021F4
:1026600000000021000000210000002100000021E6
:1026700000010020000000200000002000000020D9
:1026800000000020000000200000002000000020CA
:102690000001001F0000001F0000001F0000001FBD
:1026A0000000001F0000001F0000001F0001001EAE
:1026B0000000001E0000001E0000001E0000003987
:1026C0003000003325000087190000B00F0000DB48
:1026D000080000BD040000740200003F0100005328
:1026E000657474696E67732053746F72656400203B
:1026F00062797465733B2063726320005365747460
:10270000696E67732053746F7265642028004545B5
:1027100050524F4D206461746173697A652065720F
:10272000726F722E0A002073746F72656420736575
:102730007474696E67732072657472696576656416
:10274000202800202863616C63756C6174656429BE
:10275000210A0020213D2000454550524F4D204385
:102760005243206D69736D61746368202D20287356
:10277000746F726564292000496E6465783A2000A0
:10278000204D61726C696E3D563831290A0045450D
:1027900050524F4D2076657273696F6E206D69736C
:1027A0006D617463682028454550524F4D3D004887
:1027B000617264636F6465642044656661756C74FE
:1027C0002053657474696E6773204C6F616465642F
:1027D0000A003B200000803B4400803B4400007026
:1027E00041000096420000A0420000A0420000C844
:1027F000430000C242D0070000D007000064000080
:1028000000881300000000000000000060000000CD
:102810000000FC00000FF00000000007E0000000D6
:102820000001861FC018700000000000603C0C0012
:102830000001830C6010300000000000603C0C00C0
:102840000001830C303030000000000060000C00FC
:102850000000030C183000000000000060003F0F73
:102860003C00030C0C6001DF0FE0FE00601C1C0646
:102870001800060C0C6000F318318300600C0C0388
:1028800018001E0C0C6000E030398300600C0C0353
:102890003000030C0C6000C030380F00600C0C03DB
:1028A0003000018C0C6000C03FF8FB00600C0C0392
:1028B0003000018C0C6030C030018300600C0C01D2
:1028C000F001818C0C6030C030018300600C0C0082
:1028D000E001818C183030C018318300600C0C404E
:1028E000E001838C301860C00C6187C0E01C0CC014
:1028F0006000C30C600FC3F007C0FFC7FC7F0781F7
:10290000C0007E1FC00000000000000000000007A3
:1029100000000000000000000000000000000007B0
:1029200000000000001FFFFFFFFFFFFF600000002E
:102930000001FF400000000000FF800000000000D8
:102940007F83CF00000C303F87FF80000C301F8654
:102950007980000C000F8C30C7838C30E78C30CF2F
:10296000C7CC31F38C30DCECEC33B98C30D86C6CE8
:1029700033198C30D06C0C33198C30D86C0C331963
:102980008C30DC6C0E3B198C30CF7C079F198C305F
:10299000C77C038F194000000000000260000000A7
:1029A0000000061FFFFFFFFFFFF870012C019001E0
:1029B0002701B0012201C0011D01F0011801100220
:1029C000130130020E016002090190020401C002ED
:1029D000FF000003FA004003F5008003F000D0037D
:1029E000EB002004E6007004E100E004DC00400598
:1029F000D700C005D2004006CD00D006C800800731
:102A0000C3003008BE00F008B900C009B400B00A25
:102A1000AF00B00BAA00D00CA500000EA000500F14
:102A20009B00C01096005012910000148C00C0153D
:102A30008700B0178200B0197D00D01B7800001EFF
:102A4000730040206E0090226900F024640040274B
:102A50005F0090295A00E02B5500102E50002030C6
:102A60004B0010324600E033410090353C001037F7
:102A7000370070383200A0392D00B03A2800A03B52
:102A80002300603C1E00103D1900903D1400103ED4
:102A90000F00703E0A00C03E0500003F0000403FAE
:102AA000FBFF803FF6FFC03FF1FF68747470733A1C
:102AB0002F2F6D61726C696E66772E6F72670032B0
:102AC0002E302E362D46695A69002020506C616EDA
:102AD0006E657242756666657242797465733A20F6
:102AE000002046726565204D656D6F72793A200051
:102AF000436F6D70696C65643A20417567203133AE
:102B000020323032300A00204C61737420557064DA
:102B1000617465643A20323032302D30382D3133D3
:102B20002031343A3034207C20417574686F723A19
:102B3000206672616E36702C20435231302D563231
:102B4000290A00322E302E362D46695A690A004D68
:102B500061726C696E0020536F66747761726520D4
:102B600052657365740A00205761746368646F6707
:102B70002052657365740A002042726F776E206F71
:102B800075742052657365740A0020457874657207
:102B90006E616C2052657365740A00506F776572C0
:102BA00055700A006175746F25632E67004D3130D2
:102BB0003031006572726F722077726974696E6766
:102BC00020746F2066696C650A00446F6E6520731F
:102BD0006176696E672066696C652E0A004D323930
:102BE00000255320256320256320256320256300CD
:102BF000656E6473746F7073206869743A2000495D
:102C00006E76616C69642065787472756465720AA9
:102C10000048656174696E67204661696C6564008F
:102C200048656174696E67206661696C6564004D12
:102C30003131322053687574646F776E00202D2017
:102C4000496E76616C69642065787472756465722A
:102C5000206E756D62657220210A00544845524D00
:102C6000414C2052554E4157415900546865726D90
:102C7000616C2052756E61776179004572723A20FD
:102C80004D415854454D50004D415854454D5020EC
:102C9000747269676765726564004572723A204DA7
:102CA000494E54454D50004D494E54454D502074A9
:102CB000726967676572656400202F002042403AA0
:102CC0000020403A0020573A0052756E6F7574200C
:102CD00053656E736F7200554E4C4F414420464908
:102CE0004C414D454E540046494C414D454E5420B3
:102CF0004348414E4745004D373032004D37303163
:102D0000004D363030204230005075726765206DBE
:102D10006F726500524553554D45204F5054494FF1
:102D20004E533A005052494E542050415553454459
:102D30000020204E6F7A7A6C653A2000256C642E54
:102D400025696D00457874727564656420546F74EC
:102D5000616C004C6F6E67657374204A6F6220541B
:102D6000696D65003E2000546F74616C205072697B
:102D70006E742074696D6500436F6D706C65746569
:102D800064005072696E7420436F756E7400313246
:102D900030004245443A4550434F53203130304B88
:102DA0000052756E617761792057617463683A20CB
:102DB0004F4E004D61782054656D700032353500FE
:102DC0004D696E2054656D700045313A2045504381
:102DD0004F53203130304B005053550047656E65DE
:102DE0007269630050726F746F636F6C00312E30C4
:102DF0000042617564003235303030300043726516
:102E0000616C69747933442052414D5053004269DA
:102E10006C696E656172204C6576656C696E6700E1
:102E20004578747275646572730043522D31302099
:102E3000563300323032302D30382D31332031349A
:102E40003A3034005072696E746572205374617444
:102E50007300546865726D6973746F727300426FAA
:102E600061726420496E666F005072696E7465729B
:102E700020496E666F005061726B696E672E2E2E50
:102E80000000005761697420666F720066696C61AA
:102E90006D656E74206368616E676500746F207382
:102EA00074617274005761697420666F720066699C
:102EB0006C616D656E7420756E6C6F616400004EA0
:102EC0006F7A7A6C652068656174696E6700506C12
:102ED0006561736520776169742E2E2E0000507233
:102EE00065737320627574746F6E00746F2068650B
:102EF0006174206E6F7A7A6C650000496E7365723A
:102F0000742066696C616D656E7400616E6420701A
:102F10007265737320627574746F6E00746F2063D2
:102F20006F6E74696E7565005761697420666F72A3
:102F30000066696C616D656E74206C6F6164000081
:102F4000507265737320427574746F6E00746F20D5
:102F5000726573756D65207072696E7400005761DB
:102F6000697420666F72207072696E7400746F20CD
:102F7000726573756D652E2E2E0000576169742081
:102F8000666F720066696C616D656E742070757233
:102F9000676500007C3C3E5E2B3D3F2F5B5D3B2C1C
:102FA0002A225C004D3834004175746F20486F6DE3
:102FB000650054656D70657261747572650050725C
:102FC0006F6265205A204F6666736574004D6169B3
:102FD0006E0044697361626C65205374657070653E
:102FE0007273004732380A4D343820503130004D6A
:102FF00034382050726F6265205465737400473214
:10300000385A00486F6D65205A00473238590048D9
:103010006F6D652059004732385800486F6D652044
:10302000580047323800507265686561742024206A
:10303000456E6400507265686561742024204265A5
:103040006400436F6F6C646F776E0046616E20534F
:1030500070656564207E00466C6F7700436F6E6616
:10306000696775726174696F6E0043616E63656C48
:10307000204F626A6563740043616E63656C004F44
:103080006666004F6E004D6F74696F6E004D323191
:10309000004368616E6765204D6564696100416247
:1030A0006F7574205072696E746572005265737525
:1030B0006D65205072696E74004E6F204D656469B5
:1030C000610054756E650053746F70205072696EA4
:1030D00074005061757365205072696E7400496E9A
:1030E000666F2053637265656E005374617274205D
:1030F0005072696E740043616E6E6F7420656E74F9
:103100006572207375626469723A2000022E2E0087
:10311000536F667420456E6473746F7073005072E1
:10312000696E74205061757365640020746F6F2040
:103130006C6F6E6720657874727573696F6E20703E
:10314000726576656E7465640A0020636F6C642036
:10315000657874727573696F6E2070726576656ECE
:103160007465640A00626567696E00627574746FE5
:103170006E00436F6E74696E7565004C6F616420FC
:1031800046696C616D656E74205400496E7365729A
:10319000742066696C616D656E7420616E64207365
:1031A000656E64204D3130380A00220A00556E6B7E
:1031B0006E6F776E20636F6D6D616E643A202200D2
:1031C00043522D31302056332052656164792E00F0
:1031D0005072696E74696E672E2E2E00205A3A0066
:1031E00020593A002053697A653A200043616E6E97
:1031F0006F74206F70656E20737562646972200051
:1032000053442063617264206F6B0A006F70656EB7
:10321000526F6F74206661696C65640A00766F6C2A
:10322000756D652E696E6974206661696C65640AE6
:10323000004E6F20534420636172640A004D3233A4
:103240002025730046696C652073656C6563746541
:10325000640A0046696C65206F70656E65643A208B
:1032600000454E4420535542524F5554494E450A4D
:10327000002220706F73002220706172656E743AB4
:103280002200535542524F5554494E452043414C1C
:103290004C207461726765743A22005375626361F1
:1032A0006C6C204F766572666C6F7700457863654D
:1032B00065646564206D617820535542524F5554C2
:1032C000494E452064657074683A310A0057726946
:1032D00074696E6720746F2066696C653A200053CC
:1032E00044207072696E74696E672062797465201B
:1032F000004E6F74205344207072696E74696E675B
:103300000A00667265736800646F696E67004E6FCD
:103310007720000000000000000000000000000016
:10332000004842000048420000C040020204000081
:10333000A0400000A0400000004000009B430000AF
:103340009B430000C843FFFFFF0000000100000096
:103350000100008000555555000000400033333314
:1033600000AAAA2A004992240000002000C7711C6C
:103370000099991900D1451700555515003BB11317
:10338000002449120011111100000010000F0F0F4E
:1033900000E3380E0043790D00CCCC0C00C3300C98
:1033A00000E8A20B0064210B00AAAA0A00703D0AE3
:1033B000009DD80900427B090092240900DCD30853
:1033C00000888808001042080000000800F0C107CB
:1033D000008787070075500700711C07003EEB0649
:1033E00000A1BC06006990060066660600703E06F5
:1033F000006118060017F4050074D105005BB005E4
:1034000000B2900500627205005555050078390537
:1034100000B81E0500050505004EEC040087D40425
:1034200000A1BD040090A7040049920400C17D04DE
:1034300000EE690400C7560400444404005C3204F2
:10344000000821040041100400000004003FF003C4
:1034500000F8E0030026D20300C3C30300CCB50389
:10346000003AA803000A9B0300388E0300C08103C2
:10347000009F750300D0690300505E03001D5303D5
:103480000034480300913D03003333030016290341
:1034900000381F030097150300300C0300030303DB
:1034A000000BFA020049F10200BAE802005CE002F7
:1034B000002DD802002DD0020059C80200B0C00271
:1034C0000031B90200DAB10200AAAA0200A0A302E8
:1034D00000BC9C0200FA9502005C8F0200DF8802AB
:1034E0000082820200457C020027760200277002DB
:1034F00000436A02007C640200D05E02003F590271
:1035000000C8530200FFFDFCFAF8F6F4F2F0EEEC0E
:10351000EAE9E7E5E3E1E0DEDCDAD9D7D5D4D2D0D9
:10352000CFCDCBCAC8C7C5C3C2C0BFBDBCBAB9B76F
:10353000B6B4B3B2B0AFADACAAA9A8A6A5A4A2A1D7
:10354000A09E9D9C9A99989795949392908F8E8D1A
:103550008B8A8988878684838281807F7E7D7B7A3F
:10356000797877767574737271706F6E6D6C6B6A43
:10357000696867666564636261605F5E5D5C5B5A33
:103580005958585756555453525150504F4E4D4C10
:103590004B4A4A4948474646454443424241403FD8
:1035A0003E3E3D3C3B3B3A3938383736353534338F
:1035B00032323130302F2E2E2D2C2B2B2A29292838
:1035C000272726252524232322212120201F1E1ED4
:1035D0001D1C1C1B1B1A1919181817161615151463
:1035E000131312121111100F0F0E0E0D0D0C0C0BE8
:1035F0000A0A090908080707060605050404030363
:1036000002020100005761726E696E673A20486FCE
:103610006D696E672042756D702044697669736FBD
:1036200072203C20310A0020520020204D363033D9
:10363000200020204D34313220530046696C616DEA
:10364000656E742072756E6F75742073656E736F1E
:10365000723A0020550046696C616D656E74206C8D
:103660006F61642F756E6C6F6164206C656E67743A
:1036700068733A0020204D3835312058005A2D50BB
:10368000726F6265204F66667365740020204D334B
:10369000303420500020204D33303120500050492C
:1036A000442073657474696E67733A002046002085
:1036B000480020204D3134352053004D617465722F
:1036C00069616C2068656174757020706172616DEC
:1036D00065746572733A00204A0020204732392011
:1036E0005720490020204D3432302053004175745A
:1036F0006F20426564204C6576656C696E673A00A0
:1037000020204D323035204200416476616E636581
:10371000643A20423C6D696E5F7365676D656E74D7
:103720005F74696D655F75733E20533C6D696E5FB4
:1037300066656564726174653E20543C6D696E5FB8
:1037400074726176656C5F66656564726174653E0E
:1037500020583C6D61785F785F6A65726B3E2059D6
:103760003C6D61785F795F6A65726B3E205A3C6D93
:1037700061785F7A5F6A65726B3E20453C6D617867
:103780005F655F6A65726B3E0020204D32303420E9
:103790005000416363656C65726174696F6E2028C7
:1037A000756E6974732F7332293A20503C707269B8
:1037B0006E745F616363656C3E20523C7265747227
:1037C0006163745F616363656C3E20543C74726135
:1037D00076656C5F616363656C3E0020204D32301E
:1037E000312058004D6178696D756D2041636365C6
:1037F0006C65726174696F6E2028756E6974732FC1
:103800007332293A0020204D3230332058004D6168
:1038100078696D756D206665656472617465732085
:1038200028756E6974732F73293A00537465707329
:103830002070657220756E69743A00204400202063
:103840004D3230302053002044697361626C6564EE
:103850000A0046696C616D656E74207365747469E5
:103860006E67733A0020204D3134392043203B20CD
:10387000556E69747320696E2043656C7369757346
:103880000A0020286D6D2900202047323120202099
:10389000203B20556E69747320696E206D6D004861
:1038A0006F6D696E67204661696C6564006F706555
:1038B0006E005452494747455245440066696C6161
:1038C0006D656E74007A5F6D696E00795F6D696E0B
:1038D00000785F6D696E005265706F7274696E6713
:1038E00020656E6473746F70207374617475730AED
:1038F00000486F6D65202573257325732046697216
:10390000737400416363656C65726174696F6E3ACC
:103910002050005741524E494E4721204C6F77208E
:103920005A204A65726B206D6179206C6561642054
:10393000746F20756E77616E746564207061757345
:1039400065732E0A00204D393220580020204D6129
:10395000783A200020204D696E3A2000536F66743B
:1039600020656E6473746F70733A2000496E7661DF
:103970006C69642050696E204D6F64650A002049AF
:103980006E76616C69642065787472756465722006
:10399000003F00496E697469616C697A652045452C
:1039A00050524F4D006E6F74696669636174696F40
:1039B0006E200063616E63656C005072696E7420E6
:1039C00041626F72746564004469736D697373005A
:1039D00055492041626F72746564004D3235205044
:1039E0000A4D323400526573756D6500554920509B
:1039F000617573650050617573696E672E2E2E00B8
:103A0000726573756D6500454550524F4D20566582
:103A10007273696F6E204572726F72004545505225
:103A20004F4D20496E646578204572726F72004573
:103A30004550524F4D20435243204572726F7200E1
:103A400049676E6F7265001FE02010201020101073
:103A50002010202010201030300840048003001F68
:103A6000E03FF03FF03FF01FE01FE03FF03FF03F4E
:103A7000F00FC0078003003FFFF038007030FC30CB
:103A800020FC102078102030102C00D02E31D02FA8
:103A90007BD02F7BD02E31D02C00D020301020783E
:103AA0001020FC1030FC303800703FFFF03FFFF07A
:103AB0003800703186302387102787902F87D02FCA
:103AC00003D02030102078102078102030102F03E1
:103AD000D02F87D027879023871031863038007009
:103AE0003FFFF01FFFF81FFFF804104002082002FC
:103AF00008200410400820801041001041000820D8
:103B0000800410400000001FFFF81FFFF8000000B5
:103B1000001E000000002100000000271DC08C00D6
:103B2000272121920041212092008E21CE920090E7
:103B3000212092011021209201201D21CC02200081
:103B40000000041001130008100114801008011077
:103B500080200400A30047F200A08043E2004480DC
:103B6000200400430018D800000019840000002140
:103B7000FC0000003F002568753A2530326875006A
:103B800025303268753A25303268750020202020B3
:103B9000202020004C6F61642053657474696E6747
:103BA000730053746F72652053657474696E677324
:103BB00000416476616E6365642053657474696E58
:103BC0006773004E4F005945530043616E63656C47
:103BD000204F626A656374203D0053746F77005311
:103BE000572D4D6F6465004465706C6F79005365A7
:103BF0006C662D546573740046616E205370656564
:103C00006400526573746F72652044656661756CFB
:103C100074730050726568656174202420436F6E70
:103C20006600424C546F756368004D373032205443
:103C30002564004D36303020423020542564004D3C
:103C4000373032203B2564004D3730312054256415
:103C5000005654726176204D696E00566D696E0093
:103C6000566D6178204500566D6178205A00566D7A
:103C70006178205900566D6178205800416D617857
:103C8000204500416D6178205A00416D61782059CE
:103C900000416D6178205800412D54726176656C49
:103CA00000412D5265747261637400416363656CF9
:103CB0000056652D4A65726B00565A2D4A65726B27
:103CC0000056592D4A65726B0056582D4A65726B25
:103CD00000456E636C6F73757265006F70656E2062
:103CE0006661696C65642C2046696C653A200050F9
:103CF00072696E742066726F6D204D656469610033
:103D000050726F62696E67204661696C656400205D
:103D10005A3A200020593A200042656420583A203F
:103D2000005045544700504C41004D6F76652025AA
:103D3000736D6D004D6F766520302E316D6D004DC9
:103D40006F766520316D6D004D6F76652031306D79
:103D50006D004D6F7665204178697300486F74651A
:103D60006E6420746F6F20636F6C640045787472AA
:103D700075646572004D6F7665205A004D6F7665EB
:103D80002059004D6F76652058004368616E676565
:103D90002046696C616D656E7400556E6C6F616470
:103DA0002046696C616D656E74004C6F61642046DD
:103DB000696C616D656E7400507265686561742030
:103DC000437573746F6D005072656865617420246B
:103DD000004261636B0000002100240027002A00DC
:103DE0002D003000330001010000040107010A0129
:103DF00000002200250028002B002E003100340096
:103E000002010000050108010B0100002000230051
:103E1000260029002C002F003200000100000301C1
:103E2000060109010505050507050808080802023D
:103E300002020A0A08080404040401010101010144
:103E400001010303030303030303040707070C0C27
:103E50000C0C0C0C0C0C02020202060606060606EE
:103E600006060B0B0B0B0B0B0B0B01021020200893
:103E700008102040102040800201020108040201C5
:103E80000102040810204080804020100804020134
:103E9000800402018040201008040201080402018D
:103EA0000102040810204080010204081020408014
:103EB00000000A0B02090C0D0E08070304010000A4
:103EC00000000000000000000000000000000000F2
:103ED00000000000000000000000000012111000AF
:103EE00000000000000000000000000000000000D2
:103EF000000000000000263D213D446966663A202E
:103F000020200046726F6D5374703A0053746570D0
:103F10007065723A00556E4C6576656C3A004C657A
:103F200076656C65643A005261773A202020200063
:103F30000A4C6F676963616C3A00436F756E742059
:103F4000453A004361703A0020436F756E74205803
:103F50003A00453100626564002C20737973746502
:103F60006D2073746F70706564212048656174659D
:103F7000725F49443A2000000B02D30211241FBE95
:103F8000CFEFD1E2DEBFCDBF00E00CBF13E0A0E079
:103F9000B2E0E8ECF8ED02E00BBF02C007900D9232
:103FA000A032B107D9F727E1A0E2B3E001C01D922A
:103FB000AB32B207E1F71FE1CDEBDFE100E006C075
:103FC00021970109802FFE010F94B568CC3BD107E2
:103FD00080E00807A9F70F94AC500D94526C0C9434
:103FE00000002F923F924F925F926F927F928F923A
:103FF0009F92AF92BF92CF92DF92EF92FF920F9378
:104000001F93CF93DF93CDB7DEB7E7970FB6F89442
:10401000DEBF0FBECDBF8EAB2091C6072CAB11E02B
:104020001093C607809121048D3409F44CC3843564
:1040300011F40C94B130873411F00C94C33080919A
:104040001F04909120048B31910509F41BC1B4F435
:104050008430910534F482309105E4F597FF2EC049
:104060002EC38531910511F40C94C5308A31910528
:1040700009F404C1049709F022C3C1C08A32910532
:1040800009F43DC24CF48D319105B1F00CF415C129
:104090004E9709F45EC113C38B35910509F4D8C15D
:1040A0008C35910509F4D9C18A35910509F007C30A
:1040B00010922F030C94C53014E02DC180914A0753
:1040C000813011F00C94C5300F94840A0F942701AD
:1040D0000C94C53020914A07213011F00C94C53062
:1040E00011E0029709F010E00F94840A19821A82F5
:1040F0001B821C821D821E821F82188682E50E94FE
:10410000BC45882309F44BC00E943C456B017C01EF
:1041100020E030E0A9010F94BA61882309F455C06A
:1041200080911A0890911B08A0911C08B0911D085D
:1041300088A799A7AAA7BBA780911E0890911F08DE
:10414000A0912008B091210888AB99ABAAABBBAB7A
:104150008090C9169090CA16A090CB16B090CC163D
:104160004090CD165090CE166090CF167090D0161D
:10417000A501940168A579A58AA59BA50F94BA61AC
:1041800081110C94CE30A301920168A979A98AA962
:104190009BA90F94BA618823C1F00C94CE3089E4B6
:1041A0000E94BC45882331F00E943C4569837A8394
:1041B0008B839C838AE40E94BC45882331F00E9453
:1041C0003C456D837E838F83988720E030E0A90192
:1041D00069817A818B819C810F94BA6181110C94E1
:1041E000823120E030E0A9016D817E818F81988548
:1041F0000F94BA6181110C9482310C94AA3180E53C
:104200000E94BC45882329F00E94C66F6B017C0187
:1042100003C0C12CD12C760183E50E94BC458823C4
:1042200061F00E943C4520E030E04AE754E40F94FE
:1042300020620F94316A6B017C010E945FFA8091C9
:10424000C70F811105C060E086E297E00F947118F6
:104250000F94724BC60ED71EE81EF91E0F94724BB8
:10426000DC01CB018C199D09AE09BF09B7FD02C065
:104270000C94C53080E00E94E039F0CF0E94ED45FB
:104280000C94C53087E00F94300081110C94C53038
:104290008CE0EBE8F2E0DE01119601900D928A9538
:1042A000E1F760E070E080E50F94700FBE016F5F92
:1042B0007F4F0F942D170C94C53080910C0F877091
:1042C000873011F00C94B13160E08FE40E94D84542
:1042D00081110C94C5300C94B1318091160F81116D
:1042E0002AC00E944776882361F1115011F40C9482
:1042F000923320E030E048EC59E36EE877E085E067
:104300000E94986A61E081E897E00E94456A82E530
:1043100097E00F94584F0F94724B60935D07709322
:104320005E0780935F079093600787E00F943000EB
:10433000882399F206C060E08FE40E94D845882364
:1043400081F20E94696A8DE198E00F94584F0C94B5
:10435000C5302091DB163091DC164091DD1650916E
:10436000DE1660911A0870911B0880911C089091CC
:104370001D080F94BE68AB01BC0188E50E94B752CE
:1043800069837A838B839C832091DF163091E016BA
:104390004091E1165091E21660911E0870911F083D
:1043A00080912008909121080F94BE68AB01BC0158
:1043B00089E50E94B7526D837E838F839887BE0103
:1043C0006B5F7F4FCE0101960E94FF6F882311F42F
:1043D0000C94C53080E00E94EB650F94FD0361E012
:1043E00085E40E94D845182F21E0482FBE016B5F5D
:1043F0007F4FCE0101960F94EB426B017C019B0134
:10440000AC010F94B06B811119C049815A816B8145
:104410007C8189E19DE30E94806B4D815E816F818B
:10442000788584E19DE30E94806BB701A6018FE04F
:104430009DE30E94806B8AE00E94B4380F94E403ED
:10444000113011F40E94E56F0F944D060C94C530A5
:104450008FE080932F030C94C530BEEDCB2EB2E0DD
:10446000DB2E1AE1E12E18E0F12E00E0312C10E0F5
:10447000D6018D916D010E94BC45882359F10E949F
:104480003C454B015C01F701208131814281538120
:104490000F94BD682B013C012DEB37E346E855EB4B
:1044A0000F941E6B87FD0AC02DEB37E346E855E3FA
:1044B000C301B2010F94BA61181664F4133011F4F9
:1044C00001E002C033243394D7018D929D92AD92C6
:1044D000BC9213971F5FB4E0EB0EF11C143041F651
:1044E000332019F00F944B0606C0002321F086E21A
:1044F00098E00E9442FE0F944D060C94C5308091C6
:104500004A07813011F00C94C53089E40E94BC4503
:10451000E82E882321F00E943845082F01C000E0D2
:104520008AE40E94BC45F82E882321F00E94384579
:10453000182F01C010E0EE2011F0053020F4FF200C
:1045400041F0153030F085E398E00E94366A0C9413
:10455000C53080E1EAE1F8E0A9ECB6E101900D9206
:104560008A95E1F7EE2019F1602F000F770B880B89
:10457000990B0F94C1612091270F3091280F409122
:10458000290F50912A0F0F942062209152053091EB
:10459000530540915405509155050F94BE686093A2
:1045A000C9167093CA168093CB169093CC16FF2031
:1045B00019F1612F110F770B880B990B0F94C161C3
:1045C00020912B0F30912C0F40912D0F50912E0FD9
:1045D0000F9420622091560530915705409158055F
:1045E000509159050F94BE686093CD167093CE1606
:1045F0008093CF169093D01660E080E50E94D84556
:104600008823C1F1EE20D1F02091DB163091DC1629
:104610004091DD165091DE166091C9167091CA1650
:104620008091CB169091CC160F94BD686093C916FB
:104630007093CA168093CB169093CC16FF20D1F0BE
:104640002091DF163091E0164091E1165091E2166C
:104650006091CD167091CE168091CF169091D016A4
:104660000F94BD686093CD167093CE168093CF16CD
:104670009093D01640E050E0BA0186E40E94B75211
:104680006B017C0120E030E0A9010F941E6B18162D
:104690004CF420E030E040E752E4C701B6010F944B
:1046A000B86903C060E070E0CB0169837A838B83D3
:1046B0009C83CE0101960F941E050C94C5300E9478
:1046C000D4EB0C94C53080911F049091200487375F
:1046D000910509F4A7C70CF01FC18C34910509F4AA
:1046E0004BC40CF09CC08A31910509F408C3BCF599
:1046F0008431910509F48CC27CF48131910509F46F
:1047000073C22CF4029708F425C20C94AE30429781
:1047100009F47EC60C94AE308731910509F49DC230
:1047200094F48531910509F494C2469711F00C94E4
:10473000AE300E942CF280916815877F8062809352
:1047400068150C94C5308831910509F49DC24997CC
:1047500011F00C94AE300F94AB0E0C94C530803237
:10476000910509F4ABC3ECF58D31910509F43CC317
:1047700084F48B31910509F4D0C24C9711F00C945C
:10478000AE308091AE049091AF040E945DF50C9420
:10479000C5308E31910509F42EC34F9711F00C945A
:1047A000AE300E94BDAC6C8F7D8F8E8F9F8FBE010F
:1047B0006F5F7F4FCE014C960E943A5860E0CE0169
:1047C00001960F9428190E94816CBE016F5F7F4F84
:1047D00085EE98E00E949E6B8AE00E94B4380C94AB
:1047E000C5308033910509F4B0C364F4813291057A
:1047F00009F499C38A9711F00C94AE300F94830F8B
:104800000C94C5308934910509F4A3C38B34910508
:1048100011F00C94AE300E9456360C94C5308A3696
:10482000910509F4A8C4ACF58335910509F4E9C5EF
:10483000BCF48E34910509F4A7C30CF4A1C38135EF
:10484000910509F4C8C58235910511F00C94AE307C
:1048500080912F038F7D806180932F030C94C5304E
:104860008C35910509F4FAC554F48435910509F4A1
:10487000CFC58535910509F4CEC50C94AE30883688
:10488000910509F413C48936910509F460C40C94A8
:10489000AE308037910511F40C94C530D4F48D36C8
:1048A000910509F42AC45CF48B36910509F4A6C479
:1048B0008C36910511F40C94C5300C94AE308E36C4
:1048C000910509F4A8C48F36910509F4B5C40C9478
:1048D000AE308337910509F45FC66CF481379105DA
:1048E00009F4EFC48237910511F00C94AE300F94A7
:1048F000E74D0C94C5308537910509F450C68637CD
:10490000910511F00C94AE300091AE041091AF04FB
:1049100094E0F12C40E06AC68033E1E09E0711F498
:104920000C94222E0CF079C08C3C910509F48CC7B4
:1049300074F58139910509F487C684F489379105A6
:1049400009F47BC60CF471C68D37910509F440C596
:104950008C38910509F4D7C40C94AE30883C91058D
:1049600009F4E6C654F48B39910509F40BC58E3B66
:10497000910509F4E7C40C94AE30893C910509F423
:104980001EC78B3C910509F440C70C94AE308831AA
:1049900021E0920711F40C94F32CE4F48C3D910582
:1049A00009F458C76CF48D3C910509F450C7833D58
:1049B000910511F00C94AE300F94E50F0C94C530B6
:1049C0008D3D910509F46DC7823E910509F4BFC77D
:1049D0000C94AE308D32A1E09A0711F40C94A22D04
:1049E0006CF48232E1E09E0711F40C948A2D8C3233
:1049F000914011F40C948D2D0C94AE308E3221E048
:104A0000920711F40C94952E8F32914011F00C9472
:104A1000AE300E94CE520C94C530873FA1E09A0779
:104A200011F40C94E22F0CF04BC0843AE1E09E07A5
:104A300011F40C94F82E0CF5823921E0920711F450
:104A40000C94E62E6CF48039A1E09A0711F40C94D2
:104A5000D92E8139914011F40C94DC2E0C94AE3097
:104A60008A39E1E09E0711F40C94C5308C399140ED
:104A700011F40C94ED2E0C94AE30843F21E092079B
:104A800011F40C94DC2F6CF4853AA1E09A0711F430
:104A90000C94FB2E863E914011F40C94702F0C94D4
:104AA000AE30853FE1E09E0711F40C94DF2F863F86
:104AB000914011F00C94AE300E9419A10C94C530B5
:104AC0008E3B22E0920711F40C947D301CF5883562
:104AD000A2E09A0711F40C9403306CF4883FE1E0F3
:104AE0009E0711F40C94EA2F8C30924011F40C9430
:104AF000FB2F0C94AE308B3522E0920711F40C940E
:104B000006308D3B924011F00C94AE300F94660C41
:104B10000C94C530803AA3E09A0709F408C26CF4FB
:104B20008335E3E09E0711F40C9480308C3693407B
:104B300011F40C94C5300C94AE30873E23E09207FC
:104B400011F40C948330893E934011F40C9491300D
:104B50000C94AE3080E50E94BC45882329F00E9469
:104B6000C66F6B017C0103C0C12CD12C760183E59B
:104B70000E94BC45882361F00E943C4520E030E063
:104B80004AE754E40F9420620F94316A6B017C0170
:104B90000E945FFA8091AE049091AF04009721F0DB
:104BA00061E00F94281905C060E08EE598E00F944D
:104BB000711880911F0490912004892B19F066E5EB
:104BC00078E002C06EE478E020E030E042E751E3B4
:104BD00082E00E94986A40E0C701B6010E947440DA
:104BE0000E94B1EB0C94C5308091220484FF02C076
:104BF0000C94A8338091240487FF02C00C94A8333E
:104C000080912504837011F00C94A8330C94C43364
:104C100089E898E00E94366A8AE393E10E94EBC734
:104C20008BE1EAE3F3E1DE01119601900D928A95A2
:104C3000E1F760E070E0CE0101960E9400F4CE0141
:104C400001960E944DC98AE798E00E94366A0C944A
:104C5000C5300E94EBF20C94C530E091AE04F091A7
:104C6000AF048081882329F0803209F410823196C4
:104C7000F8CF60E08091AE049091AF040E94ADF552
:104C8000109236100C94C5308091760E8823F9F07E
:104C900080E090E0A0EAB1E488A399A3AAA3BBA313
:104CA0001C8E1D8E1E8E1F8E19821A821B821C82E4
:104CB00000E010E020E0AE01405E5F4FBE01645EA8
:104CC0007F4FCE0101960E946A510C94C5300E941C
:104CD0003236882321F00E943DF20E94563661E070
:104CE00080E09AE30E94456A48EC59E36AE978E07B
:104CF00085E00E94D8EC0E94B1EB0C94C530809105
:104D0000681583FD02C00C94C53083E50E94BC4544
:104D100081110C94D2330C94C53083E40E94734506
:104D20008823C1F180EB98E00E94366A8091E412FA
:104D3000882339F1BE016F5F7F4F81EE92E10E94BF
:104D400053C98E010F5F1F4FD8018D918D018823AC
:104D500019F00E94B438F8CFCE0101960E942FF5C9
:104D60008091D707882389F080E20E94B43807ED4C
:104D700017E0F80181918F01882339F00E94B4383F
:104D8000F8CF86EA98E00E94366A8AE00E94B4383A
:104D90000C94C53083E50E94BC45882309F10E942C
:104DA0001445182F90E0CD970CF01CE310932403CA
:104DB0000F94724B6B017C01212F30E0A8EEB3E021
:104DC0000F946468C60ED71EE81EF91EC092200319
:104DD000D0922103E0922203F09223030C94C53079
:104DE0000E9405F20C94C530809168158E7F8093E7
:104DF00068150C94C5308091681583FD02C00C9431
:104E0000C5300F94E1448091681583FD02C00C9475
:104E1000C5304091AE045091AF04BE01645E7F4F37
:104E200080E00F9407418C01009711F40C94C53079
:104E30006C8D7D8D19821C8222E0AC01CE01019621
:104E40000E9411CD811102C0F12C14C0CE01019637
:104E50000F9475408823C1F361E0CE0101960E9452
:104E6000F5C8009789F325EEDC012C931C820E9483
:104E7000A4C4F82ECE0101960E944DC9B801FF20AE
:104E800099F087ED98E00E949E6B8AE00E94B4380A
:104E900010926415109265151092661510926715A0
:104EA0000E94B8F00C94C5308FEB98E00E949E6B86
:104EB00082E697E10E94366A0C94C53080916815AD
:104EC00082FD0E945FFA8091681583FD02C00C94F8
:104ED000C53060E080E50E94D845182F682F80918A
:104EE000AE049091AF040E94ADF583E50E94BC45ED
:104EF000882381F00E940445AB01BC0140936415F6
:104F000050936515609366157093671581EE92E175
:104F10000E9454C70E943DF211110C94C5300E94AA
:104F200056360C94C5300E9419590C94C530209106
:104F3000AE043091AF04909168159260909368151B
:104F4000C9010E945DF50C94C5300E94BA710C94A1
:104F5000C53080E50E947345882311F40C94C53058
:104F60000E94144590E08536910510F084E690E0AB
:104F7000809336100C94C5300F94BD120C94C5303C
:104F80000E9454F90C94C53060E070E083E50E9403
:104F9000C9458E34910531F40E94C5F90E94B1EBE8
:104FA0000C94C53088E499E00E94366A60917005DF
:104FB000709171058FE399E00E94736B60917205A7
:104FC0007091730582E399E00E94736B60917005A4
:104FD000709171058091720590917305681B790B32
:104FE00080911908815021E030E0823010F020E0FB
:104FF00030E0621B730B87E299E00E94736B8AE0DA
:105000000E94B43888E499E00E94366A8091740561
:1050100090917505A0917605B09177058C8F9D8F45
:10502000AE8FBF8FBE016F5F7F4FCE014C960E9447
:105030003A58BE016F5F7F4F8AE199E00E949E6BF4
:105040008091780590917905A0917A05B0917B05C2
:105050008C8F9D8FAE8FBF8FBE016F5F7F4FCE0154
:105060004C960E943A58BE016F5F7F4F8AE099E0EC
:105070000E949E6B20E030E04AE754E460917C059A
:1050800070917D0580917E0590917F050F94B869A0
:10509000AB01BC0182EF98E00E94806B8DE60E941C
:1050A000B4388AE00E94B4380C94C5308091280E40
:1050B00083FF02C00C94C5300F945A0B87FF02C0C7
:1050C0000C94C53089E40E94BC45882311F40C94EB
:1050D000E3330E94144590E01816190614F481E099
:1050E00090E026E0289FF001299FF00D1124E95C53
:1050F000F04F808191810C94ED338091280E83FFD5
:1051000002C00C94C5300F945A0BF82E87FF02C0D2
:105110000C94C53089E40E94BC45082F882311F403
:105120000C94F6330E94144590E01816190614F4F6
:1051300081E090E026E0289FF001299FF00D1124E6
:10514000E95CF04F8081918110E00C9406340F945B
:105150005A0B182F87FD0AC08FEA91E10E94366A28
:10516000812F0E94E7AF8AE00E94B438BCA9B093B7
:10517000C6070C94FB3460E080E50E94AE71F82E07
:10518000E1E0E81710F40C94C53081E40E94734507
:10519000882329F060915208062F10E002C00FEF1B
:1051A00010E089E40E94BC45882399F00E941445D0
:1051B00090E01816190614F481E090E026E0289F8C
:1051C000F001299FF00D1124E95CF04F0481158155
:1051D00008C083E50E94BC45882319F00E9404455D
:1051E0008B01EF2DF0E0EE5AF74FB8010F3F11059C
:1051F00019F010F06FEF70E06083C7C760E080E5E2
:105200000E94AE71823008F0C0C7E82FF0E0EE5A7D
:10521000F74F1082BAC78EE40E94BC45882309F478
:10522000B4C70E9404456093AA047093AB048093B2
:10523000AC049093AD04A9C783E50E94734588230D
:1052400031F060E083E50E94AE718093280E0E94E9
:10525000816C85E599E00E94366A8091280E88234A
:1052600069F1A8E8EA2EAAE0FA2E00E010E020E0BA
:105270008091280E90E0A0E0B0E0002E04C0B6952A
:10528000A795979587950A94D2F780FF0EC0DD24E5
:10529000D394D20E222319F08CE20E94B438F70185
:1052A000859194910E94366A2D2D0F5F1F4FF2E079
:1052B000EF0EF11C05301105D9F667CD80E593E1BD
:1052C00062CD83E50E94BC45882371F00E9414459D
:1052D000282F30E02D3331051CF48093000255C790
:1052E0008CE38093000251C70E94816C40910002C0
:1052F00050E060E070E08CE599E00E94626B8AE02B
:105300000E94B43842C78091280E83FD3EC789E4CD
:105310000E94BC45882311F40C9450340E9414451B
:1053200090E01816190614F481E090E026E0289F1A
:10533000F001299FF00D1124E95CF04F82819381E7
:105340000C945B348091280E83FD1FC789E40E9472
:10535000BC45882311F40C9462340E94144590E0FB
:105360001816190614F481E090E026E0289FF00159
:10537000299FF00D1124E95CF04F8281938110E0A8
:105380000C94733483E50E94BC45882309F4FDC660
:105390000E941445182F90E0CD970CF01CE3109359
:1053A00029030F94724B6B017C01212F30E0A8EE92
:1053B000B3E00F946468C60ED71EE81EF91EC092B3
:1053C0002503D0922603E0922703F0922803DDC63E
:1053D0000F94AB0EDAC60E9442B50E9454F90E94A7
:1053E00070FA0E942D3668EE73E080E090E00E9433
:1053F00076690E94693660E081E899E00F9471183F
:10540000C4C680912F038F7E806280932F03BDC618
:105410000F949E10BAC683E50E947345882309F451
:10542000B4C60F94724B60935D0770935E078093D0
:105430005F07909360070E943C4520E030E04AE718
:1054400054E40F9420620F94316A60932A0370939E
:105450002B0380932C0390932D0397C60F945A0B24
:1054600087FD93C69091220494FD04C0909124047A
:1054700097FF0AC0EEEDCE2EE2E0DE2EF9E2EF2E2F
:10548000FEE0FF2E10E009C090912504937091F783
:10549000682F81E00F94FE1078C6D6018D916D01C2
:1054A0000E94BC45882309F46DC0133009F063C025
:1054B0000E943C454B015C0120E030E040EA51E4B1
:1054C0000F94BA6187FF4EC0A50194016091490E07
:1054D00070914A0E80914B0E90914C0E0F94B869CA
:1054E0002B013C019B01AC0160913608709137089B
:1054F00080913808909139080F94206260933608A3
:10550000709337088093380890933908A30192016B
:105510006091590E70915A0E80915B0E90915C0EC5
:105520000F9420626093590E70935A0E80935B0E15
:1055300090935C0E609146087091470880914808EE
:10554000909149080F94BF61A30192010F942062CA
:105550000F94316A60934608709347088093480817
:10556000909349088092490E90924A0EA0924B0E59
:10557000B0924C0E07C00E943C45F701648B758BBE
:10558000868B978B1F5FF4E0EF0EF11C143009F04F
:1055900084CF0E943BFAF9C50E946062F6C58091F3
:1055A000AE049091AF04009741F0DC012C912223CE
:1055B00021F060E00F942819E8C50E94B1EBE5C521
:1055C000F8018081282F2B7F213499F08035E9F470
:1055D000818180538A30C8F498012E5F3F4F890142
:1055E0002F5F3F4FF80180818032C9F3915041F71E
:1055F0000CC02181213349F4813421F0853461F7D5
:1056000041E0EACFFF24F394E7CF41110E94816C7F
:10561000FF2021F08FE899E00E94366AC8010E94BD
:10562000BF39B3C50F94E206B0C581E08093810510
:10563000809380050F943907A8C5109281051092B8
:1056400080050F943907A1C560E070E083E50E94F2
:10565000C945823038F00E94B16B83E999E00E941D
:10566000366A93C58C01112788E40E94BC458823C3
:10567000E1F00E9438458A3A910544F00E9438458D
:10568000813F910534F40E94384505C08AEA90E0D4
:1056900002C080EF90E026E0209FF001219FF00DF6
:1056A0001124E95CF04F9183808382E40E94BC4521
:1056B0008823D9F00E943845059744F00E94384568
:1056C0008F36910534F40E94384505C085E090E09E
:1056D00002C08EE690E026E0209FF001219FF00DB1
:1056E0001124E95CF04F9383828386E40E94BC45D9
:1056F000882309F44AC50E94384597FD09C00E94D5
:1057000038458F3F910509F034F40E94384505C0B3
:1057100080E090E002C08FEF90E026E0209FF00153
:10572000219FF00D1124E95CF04F958384832DC5F2
:105730000F945A0B182F87FD28C500910D0F84E494
:105740000E94BC45882311F40C949C340E943C4573
:105750006B017C0120E030E0A9010F94BA6188233D
:1057600041F124E01202F0011124EE5EF04FC082FC
:10577000D182E282F38220E030E0A9016091120F31
:105780007091130F8091140F9091150F0F94BA61BF
:1057900081110CC080E090E0A0EEBFE38093120F77
:1057A0009093130FA093140FB093150F01E00C9476
:1057B0009C3480E080930D0F0E94CFF7E6C40F94D5
:1057C0005A0B87FDE2C46EEDE62E62E0F62E09E28A
:1057D0001EE079E3C72E7EE0D72ED7018D917D01A3
:1057E0000E947345882359F00E943C450F94316A0A
:1057F000F80160837183828393830E94F4F90C5FC4
:105800001F4FC016D10649F7C0C40F945A0B87FD2D
:10581000BCC45EEDE52E52E0F52E09E21EE0D70194
:105820008D917D010E947345882339F00E943C458B
:10583000F80164A375A386A397A30C5F1F4FFEE036
:1058400009331F0761F7A1C40F94BD119EC40F94C3
:1058500039119BC483E50E94BC45882331F00E9426
:105860003845909362028093610280912204909166
:105870002304A0912404B0912504892B8A2B8B2B1F
:1058800009F083C4609161027091620285EB99E036
:105890000E94916B85E20E94B4388AE00E94B4387D
:1058A00074C40F945A0BF82E87FD6FC483E50E94D1
:1058B000BC450F2D0F2C000C110B882369F10E94A1
:1058C0003845F801EE0FFF1FEA5CFD4F918380839E
:1058D000000F111F000F111F9801205D3D4F79012E
:1058E000BC01990F880B990B0F94C1612AE037ED29
:1058F00043E25CE30F942062F801E25FF04F208105
:105900003181428153810F942062D7016D937D9341
:105910008D939C93139739C40E94816C85E40E94F7
:10592000B43880E38F0D0E94B438000F111FF801C6
:10593000EA5CFD4F6081718189EB99E00E94916B77
:1059400085E20E94B4388AE00E94B4381EC480E523
:105950000E947345882309F418C460E070E080E574
:105960000E94C945F82E6FEF7FEF83E50E94C9457D
:105970008C010196039708F008C4F7FC06C48F2D2C
:105980000E940836882339F00E94B16B81EC99E0BF
:105990000E94366AFAC30E945FFA60E08F2D0F946E
:1059A000334A0F3FBFEF1B0731F00130110571F093
:1059B00000E010E00DC08F2D0F94625C31E020E01C
:1059C000892B09F030E0032F122F02C001E010E014
:1059D0008F2D0F94625C8017910709F4D6C380E085
:1059E0000E94E039F5CF80E50E947345882309F4D1
:1059F000CCC30E9438458C01892B09F07FC083E518
:105A00000E947345882389F00E9438458F3FEFEF4D
:105A10009E0729F482EC93E10E946C36B6C3BC0168
:105A200082EC93E10E943C37B0C30E94816C60E03D
:105A300070E080ED99E00E94916B8091C41328E59D
:105A400032E06901C81AD10887FDD394CC0CDD1C63
:105A5000CC0CDD1C0D2C000CEE08FF088091C3134C
:105A600028E830E04901881A910887FD9394880C52
:105A7000991C880C991C092C000CAA08BB08809161
:105A8000C2138F3FC1F090E0FC01EE0FFF1F8E0F9D
:105A90009F1FFC01EB5AFC4E2181328113E0220F43
:105AA000331F1A95E1F704E0369527950A95E1F73B
:105AB0002E5F3F4F02C020E030E02F5F3F4FC90113
:105AC000330FAA0BBB0B9C01AD01281939094A09F8
:105AD0005B09A4EBB0E00F945168A7019601281967
