:100000000C94D21F0C9403200C9403200C94032016
:100010000C9403200C9403200C9403200C940320D4
:100020000C9403200C9403200C9403200C940320C4
:100030000C9403200C9403200C9403200C940320B4
:100040000C9403200C94F5880C9403200C9403204A
:100050000C9403200C9403200C949AB90D944149FC
:100060000C9403200C949D400C9493400C9403201A
:100070000C9403200C9403200C9403200C94032074
:100080000C946B380C9403200C9403200C940320E4
:100090000C9403200C9403200C9403200C94032054
:1000A0000C9403200C9403200C943D380C940320F2
:1000B0000C9403200C9403200C9403200C94032034
:1000C0000C9403200C9403200C9403200C94032024
:1000D0000C9403200C9403200C9403200C94032014
:1000E0000C940320D340E540F740084110414341C0
:1000F0001441434118411C414341204124412841BE
:10010000314143413C41B37D967D997DB67D9C7DD7
:100110009F7DA27DAE7DA57DC17DA87DAB7DA5AB7C
:1001200014AA4DAAE1AB4DAA4DAA4DAA4DAA4DAABB
:100130004DAA4DAA4DAA4DAA4DAA4DAA4DAA4DAA07
:100140004DAA4DAA4DAA4DAA4DAA4DAA4DAA4DAAF7
:100150004DAA4DAA4DAA4DAA4DAADBAB4DAA4DAA58
:100160004DAA4DAA4DAA4DAA4DAA4DAAB4AB4DAA6F
:100170004DAA4DAA4DAA4DAA4DAA4DAA4DAA4DAAC7
:100180004DAAF8AB4AAA3D025F02DF01BB026B0138
:1001900061024F01710191025D0279020D0173014B
:1001A00087016102F501EF01A101CB01E1014502E7
:1001B000B702DD0121025901B5022101F701F30166
:1001C00075022B02B902210293015B025101084A18
:1001D000D73B3BCE016E84BCBFFDC12F3D6C74315B
:1001E0009ABD56833DDA3D00C77F11BED9E4BB4CB2
:1001F0003E916BAAAABE000000803F05A84CCDB27C
:10020000D44EB93836A9020C50B9918688083CA65C
:10021000AAAA2ABE000000803F000D9486470C94D5
:10022000C26C0C9484AD0C94A76E0C94A77B0D94B7
:1002300099330C9448CD0C94056F0C94816C0C94FC
:1002400018CF0D9493480C948FE60C943C410C9479
:100250003FCA0C94E5400C94A67A0C94B6E50C9435
:100260006A7D0C94997D0C94C2EB0C94CEEE0D94A7
:1002700005340C94C2E50C949A7A0C94106C0C948E
:10028000827A0D942C2C0C94F7400C94AAEB0C94CD
:100290001CCF0C94CE7A0D94D2590C947AF00D9414
:1002A0006E470D94E8480C948CE50C9441E30C9453
:1002B000D2740D9483480C94FAE80C94B06B0D94AE
:1002C000D0590D942A280C94F8AB0C949C7D0C9476
:1002D000236C0C94E1AB0D9463470C946C780C94F4
:1002E0009B6E0D9472470D948A470C948E7A0D94F0
:1002F00083210C9487E60C943DCA0C94A7740C944B
:10030000D3E50C944F6C0D94F1210D94ED210D94D7
:100310008E470C9414410C94927A0D94D8210C942D
:1003200008410C948A7A0D94D4480C94967A0C94D3
:10033000686E0C94626E0C94E35F0C9492A90C941A
:1003400029930D949C470C94AC7A0C94FB760C94F6
:100350004A6E0C9499810D94EA330C94C4EB0C947E
:10036000DA7A0C943C6C0C948FA90D94CF330C94D6
:10037000EB740C94F17D0C94C6710C9457B20D94EF
:10038000065B0C94D3400C94565F0D9487350C9407
:10039000AE7D0D94F0270D945B480C943E6E0C944A
:1003A00016CF0C94BF740D9417340C94815F0C9489
:1003B00083720C949E7A0C94FD6B0D9479480D9485
:1003C00059470D9460480C94BCE50C9433E60C94AA
:1003D000566E0C94C0EB0C94967D0C948C6E0D9420
:1003E00098470C94686C0D94A7480D9494470D940D
:1003F0009D480C94087E0C9406F20C94D47A0C94CC
:1004000096E50C94A87D0C94A27D0C9441CA0C94A2
:10041000B67D0C940DEC0C94C17D0C94B26C0C94D4
:10042000FF850C944AAA0C9410410C9432E30C946E
:10043000976B0C94B6740D94D4210C94DA7D0C94C3
:100440005A5F0D94F2480C94E26B0C94A57D0C94C9
:100450001C410C9432F20D94C0480C94B4CB0C9413
:1004600043CA0C94B0E50C9446E30C94B5EB0C94A1
:10047000326E0D9499390C94879E0D9467470C94B5
:100480006E6E0C941ACF0C9489750D9465480D947A
:10049000A5370C94575F0C94867A0C9414EC0C944A
:1004A000386E0C9492E70C94506E0C94A4A90C94A2
:1004B0007E7A0C9491700D94DE480D947C470D94D7
:1004C0006A470D94A1470C9428410D94B7370C94BA
:1004D000B37D0C9487EB0C944DAA0C94767D0D940F
:1004E000B4330C94C56E0C9414E60D94B1480C947E
:1004F000A5AB0D9480470D94E9210C94DBAB0C94D3
:10050000AF7A0C9443410C945D9E0C9437E30C94A9
:1005100014ED0C949A6C0C94C96B0C9491E50C94AA
:1005200031410D9478470C947D6E0C949F7D0C9412
:10053000446E0C943CE30C94A36C0C94727E0C946B
:100540005C6E0D9470330C941F7E0C9420410C94BF
:1005500095A90D949B370C945AAD0C94767E0C940F
:100560002C6E0C94C37D0C94BD6C0D948B480D9433
:100570006F480D94CA480D945D470C94A97A0D9468
:100580007E330D9457370C9422760C9414CF0C9430
:10059000BB7A0C94B4AB0C94AB7D0C9424410C94BA
:1005A000C8E50C94A27A0D94B1370C94B66E0C94F5
:1005B00014AA0C94A7710C9418414E414E494E490F
:1005C0005459494E46CDCCCC3D0AD7233C17B7D120
:1005D0003877CC2B329595E6241FB14F0A000020C6
:1005E000410000C84200401C4620BCBE4CCA1B0E45
:1005F0005AAEC59D7400407A10F35A00A0724E188E
:10060000090010A5D4E80000E87648170000E40BC4
:1006100054020000CA9A3B000000E1F5050000808A
:10062000969800000040420F000000A086010000E4
:1006300000102700000000E8030000000064000034
:100640000000000A00000000000100000000002C73
:1006500076D888DC674F0823DFC1DFAE59E1B1B738
:1006600096E5E3E453C63AE651997696E8E6C28405
:1006700026EB898C9B62ED407C6FFCEFBC9C9F401D
:10068000F2BAA56FA5F490055A2AF75C936B6CF942
:10069000676DC11BFCE0E40D47FEF520E6B500D018
:1006A000ED902E0300943577050080841E0800002D
:1006B000204E0A000000C80C333333330F986E12FB
:1006C000831141EF8D2114893BE65516CFFEE6DB01
:1006D00018D1844B381BF77C1D901DA4BBE424204B
:1006E0003284725E228100C9F124ECA1E53D2743EA
:1006F0004F4D4D554E49434154494F4E0044525978
:1007000052554E004552524F5253004543484F00F8
:1007100047322F47332062616420706172616D65DA
:10072000746572730A00536C6565702E2E2E005A24
:100730002050726F62652050617374204265640AB4
:10074000005A2050726F62652050617374204265B8
:1007500064004D3131372050726F626520666169E7
:100760006C65642E205265776970696E672E0A4742
:1007700032380A4731322050302053313220543041
:100780000070726F62655F726577697065004732ED
:1007900039205265747279696E67004D31313720A6
:1007A000426564206C6576656C696E672066616978
:1007B0006C65642E0A4730205A31300A4D33303090
:1007C0002050323520533838300A4D3330302050E5
:1007D00035302053300A4D333030205032352053DD
:1007E0003838300A4D333030205035302053300AFD
:1007F0004D3330302050323520533838300A4D33A5
:100800003030205035302053300A473420533100E7
:1008100070726F62655F6661696C6564004D31314D
:100820003720426564206C6576656C696E6720646C
:100830006F6E652E004D65736820706F696E742051
:100840006F7574206F662072616E67650A004D30A7
:100850002053746F70004D312053746F7000436CDF
:1008600069636B20746F20526573756D652E2E2E33
:10087000004E6F204D6F76652E00456E64206669D0
:100880006C65206C6973740A00426567696E206646
:10089000696C65206C6973740A004E6F206D656425
:1008A00069610A00526573756D696E672053440073
:1008B000286E6F2066696C65290043757272656EDB
:1008C000742066696C653A200044656C6574696FD4
:1008D0006E206661696C65642C2046696C653A20FF
:1008E0000046696C652064656C657465643A005007
:1008F00072696E742074696D653A20000A537461E0
:1009000074733A2046696C616D656E742075736509
:10091000643A20002C204C6F6E67657374206A6FF8
:10092000623A2000546F74616C2074696D653A20DE
:10093000002C204661696C65643A20002C204669D1
:100940006E69736865643A20005072696E74733A18
:10095000200053746174733A2000452025530044ED
:10096000454255473A004D313133205300426564CA
:1009700020436F6F6C696E672E2E2E0042656420D7
:1009800048656174696E672E2E2E0043522D3130FA
:10099000205633204F46462E002F2F20004D313455
:1009A0003520533C696E6465783E206F7574206F06
:1009B000662072616E67652028302D31290A004655
:1009C000523A0020466C6F773A200050726F74657F
:1009D000637465642050696E0A0020536572766FF7
:1009E000200020643A0020693A0020703A006469CF
:1009F000730043290A0061626C656420286D696E8A
:100A00002074656D702000436F6C6420657874728B
:100A10007564657320617265200046696C616D655F
:100A20006E742072756E6F75742064697374616E74
:100A3000636520286D6D293A200046696C616D65FB
:100A40006E742072756E6F757420004D34323120D3
:100A5000696E636F727265637420706172616D6537
:100A60007465722075736167650A00454550524F81
:100A70004D204F4B0A00446F6E65207072696E7492
:100A8000696E672066696C650A004D3737004D3323
:100A900031000B07B00A0407FD06EF06554E4B4E1A
:100AA0004F574E2053544154450047434F44455FF0
:100AB000494E464F004C43445F50415553455F52A9
:100AC0004553554D450046494C414D454E545F52A6
:100AD000554E4F55545F434F4E54494E5545004671
:100AE000494C414D454E545F52554E4F5554004D63
:100AF00038373620526573706F6E64696E672050A8
:100B0000524F4D50545F004572726F722077726978
:100B100074696E6720746F20454550524F4D210A0D
:100B2000004E6F20436865636B73756D2077697441
:100B300068206C696E65206E756D6265722C204C44
:100B4000617374204C696E653A2000636865636B5D
:100B500073756D206D69736D617463682C204C61D1
:100B60007374204C696E653A20004C696E65204EA6
:100B7000756D626572206973206E6F74204C6173AD
:100B800074204C696E65204E756D6265722B312C38
:100B9000204C617374204C696E653A20004D3131F0
:100BA000300053442072656164206572726F720A6E
:100BB000002121204B494C4C2063617573656420F2
:100BC0006279204B494C4C20627574746F6E2F70A3
:100BD000696E0A002121204B494C4C2063617573DA
:100BE000656420627920746F6F206D756368206979
:100BF0006E6163746976652074696D65202D20636C
:100C0000757272656E7420636F6D6D616E643A20EB
:100C100000627573793A2070617573656420666F40
:100C20007220696E7075740A00627573793A20706B
:100C3000617573656420666F7220757365720A0052
:100C4000627573793A2070726F63657373696E674A
:100C50000A004D656469612052656D6F76656400B8
:100C60004D6564696120496E7365727465640070D6
:100C700061757365004D363030002066696C616DBA
:100C8000656E745F72756E6F7574200066696C6155
:100C90006D656E745F72756E6F7574205400466971
:100CA0006C616D656E7452756E6F7574205400368C
:100CB0003726033C3D380E2E303E131A1C180AFF0F
:100CC0004308090708440001726573756D65640087
:100CD000526573756D696E670047323620486561ED
:100CE00074696E67204E6F7A7A6C650047323620E1
:100CF00048656174696E6720426564005761697474
:100D0000696E6720666F72206865617475702E0A5F
:100D1000004669786564204C656E6774682050727F
:100D2000696D6500446F6E65205072696D696E670C
:100D3000004D616E75616C207072696D696E672E11
:100D40002E2E004732362043616E63656C65640069
:100D50004C656176696E6720473236003F53706597
:100D600063696669656420582C5920636F6F7264EB
:100D7000696E617465206F7574206F6620626F758F
:100D80006E64732E0A003F285229657065617420D5
:100D900076616C7565206E6F7420706C6175736917
:100DA000626C653B206D75737420626520617420F0
:100DB0006C6561737420312E0A003F53706563695E
:100DC00066696564206E6F7A7A6C652074656D70F3
:100DD00065726174757265206E6F7420706C6175D8
:100DE0007369626C652E0A003F53706563696669BA
:100DF00065642066696C616D656E742073697A65DF
:100E0000206E6F7420706C61757369626C652E0A58
:100E1000003F537065636966696564207072696D2F
:100E200065206C656E677468206E6F7420706C61ED
:100E3000757369626C652E0A003F5370656369665D
:100E4000696564206E6F7A7A6C652073697A6520B3
:100E50006E6F7420706C61757369626C652E0A0028
:100E60003F52657472616374696F6E204D756C7466
:100E700069706C696572206D75737420626520738A
:100E800070656369666965642E0A003F5370656327
:100E900069666965642052657472616374696F6E16
:100EA000204D756C7469706C696572206E6F74206A
:100EB000706C61757369626C652E0A003F537065D2
:100EC000636966696564206C61796572206865692B
:100ED000676874206E6F7420706C61757369626CE2
:100EE000652E0A0043292E0A003F53706563696628
:100EF000696564206265642074656D7065726174F3
:100F0000757265206E6F7420706C61757369626CA8
:100F100065202834302D0047323620737461727496
:100F2000696E672E2E2E0A00506C65617365205223
:100F300065736574005052494E5445522048414CE7
:100F40005445440025533A20255300706F7765724D
:100F50006F6666004B494C4C45442E200050726928
:100F60006E7465722068616C7465642E206B696CA8
:100F70006C28292063616C6C6564210A00656368D4
:100F80006F3A004572726F723A0042696C696E6521
:100F90006172204C6576656C696E67204772696482
:100FA0003A0A0053544F505045442E200050726965
:100FB0006E7465722073746F7070656420647565FB
:100FC00020746F206572726F72732E2046697820CC
:100FD000746865206572726F7220616E642075732B
:100FE00065204D39393920746F20726573746172D0
:100FF000742E202854656D70657261747572652059
:1010000069732072657365742E205365742069744A
:101010002061667465722072657374617274696EA2
:1010200067290A0021212053544F502063616C6CC2
:1010300065642062656361757365206F6620424C4C
:10104000546F756368206572726F72202D2072650F
:1010500073746172742077697468204D3939390A64
:10106000005072696E74696E67204F626A656374BE
:10107000002553202569002F2F616374696F6E3A34
:1010800000656E640070726F6D70745F0073686FDE
:10109000770044697361626C6552756E6F75740098
:1010A00050757267654D6F726500486F74656E6448
:1010B00020746F6F20636F6C640A0053656E642048
:1010C0004D31303820746F20726573756D650A007C
:1010D00052656865617420446F6E6500526568658D
:1010E0006174696E672E2E2E00526568656174000A
:1010F0004865617465722054696D656F757400533D
:10110000656E64204D31303820746F2068656174DD
:10111000206E6F7A7A6C650A004E6F7A7A6C652061
:101120005061726B65640070617573656400256958
:101130007920256964202569682025696D20256945
:10114000730023646566696E652044454641554CCD
:10115000545F004B6420004B6920004B702000500E
:101160004944204175746F74756E652066696E69B7
:1011700073686564212050757420746865206C6103
:101180007374204B702C204B6920616E64204B647B
:1011900020636F6E7374616E74732066726F6D205E
:1011A00062656C6F7720696E746F20436F6E66693D
:1011B0006775726174696F6E2E680A005049442029
:1011C0004175746F74756E65206661696C65642124
:1011D0002074696D656F75740A000A20436C617331
:1011E00073696320504944200A00204B643A200070
:1011F000204B693A2000204B703A20000A204E6FA5
:10120000206F76657273686F6F740A002054753AA8
:101210002000204B753A2000206D61783A20002094
:101220006D696E3A200020643A2000206269617383
:101230003A2000504944204175746F74756E6520E2
:1012400073746172740A00504944204175746F745C
:10125000756E65206661696C6564212054656D70EA
:101260006572617475726520746F6F206869676854
:101270000A00504944204175746F74756E650050C2
:101280004944204175746F74756E65206661696CA0
:1012900065642120426164206578747275646572AA
:1012A000206E756D6265720A004572723A2075741F
:1012B000663820666F6E74206E6F7420696E697474
:1012C00069616C697A65642E00000C0F00FE0702EC
:1012D0002503BB017FFE08FE08FE05080806000086
:1012E00040F0C88888987810050808060000C0F803
:1012F0008888888888F80505050600012030F830C0
:10130000200508080600002070F820202020E005B5
:1013100009090600FF2070A8A8B888887020070572
:1013200005070001D86C366CD80509090600FFF8DE
:10133000A88888888888A8F8050A0A0600FE205030
:1013400050505088A8A8887003030306000340A0EB
:1013500040FFFFFFFFFFFFFFFFFFFFFFFFFFFFFF5C
:10136000FFFFFFFFFFFFFF0000000605FF0107076B
:101370000602008080808080008003030306010550
:10138000A0A0A005060606000050F85050F8500531
:1013900009090600FF2070A8A07028A87020050782
:1013A00007060000C8C810204098980507070600E7
:1013B0000040A0A040A890680103030602058080B9
:1013C000800309090601FF204040808080404020C2
:1013D0000309090601FF804040202020404080058D
:1013E000070706000020A8702070A8200505050644
:1013F00000012020F820200203030601FFC04080E6
:10140000050101060003F8020202060100C0C00542
:101410000707060000081010204040800507070657
:101420000000708898A8C88870030707060100406C
:10143000C040404040E005070706000070880810E3
:101440002040F8050707060000F8081030088870EB
:1014500005070706000010305090F8101005070728
:10146000060000F880F008088870050707060000ED
:10147000304080F0888870050707060000F80810E3
:1014800010202020050707060000708888708888D3
:10149000700507070600007088887808106002054C
:1014A00005060100C0C000C0C00206060601FFC05C
:1014B000C000C04080030505060101204080402097
:1014C000050303060002F800F80305050601018084
:1014D000402040800507070600007088102020008B
:1014E000200507070600007088B8A8B880700507B7
:1014F00007060000708888F88888880507070600B6
:1015000000F04848704848F005070706000070885A
:101510008080808870050707060000F0484848482A
:1015200048F0050707060000F88080F08080F80585
:101530000707060000F88080F08080800507070616
:101540000000708880809888700507070600008872
:101550008888F8888888030707060100E040404033
:101560004040E0050707060000381010101090609A
:101570000507070600008890A0C0A090880507070F
:10158000060000808080808080F805070706000044
:1015900088D8A8888888880507070600008888C832
:1015A000A8988888050707060000708888888888BA
:1015B00070050707060000F08888F0808080050726
:1015C0000706000070888888A8906805070706004D
:1015D00000F08888F0A09088050707060000708852
:1015E0008070088870050707060000F8202020207A
:1015F00020200507070600008888888888887005ED
:1016000007070600008888888850502005070706CD
:10161000000088888888A8A8500507070600008869
:1016200088502050888805070706000088885020C9
:10163000202020050707060000F80810204080F849
:101640000309090601FFE080808080808080E0053A
:101650000707060000804040201010080309090613
:1016600001FFE020202020202020E00503030600C9
:10167000052050880501010600FEF803030306015A
:10168000058040200505050600007008788878056B
:1016900007070600008080F0888888F005050506A9
:1016A0000000708080887005070706000008087831
:1016B000888888780505050600007088F080700528
:1016C0000707060000304840E04040400507070695
:1016D00000FE70888888780870050707060000807B
:1016E00080F0888888880307070601004000C04012
:1016F0004040E00409090601FE10003010101010EF
:10170000906005070706000080808890E0908803BD
:101710000707060100C04040404040E005050506BF
:101720000000D0A8A8A8A8050505060000B0C88834
:1017300088880505050600007088888870050707F9
:101740000600FEF0888888F080800507070600FE06
:1017500078888888780808050505060000B0C880E4
:10176000808005050506000078807008F0050707F1
:101770000600002020F8202020180505050600009E
:1017800088888898680505050600008888885020A4
:101790000505050600008888A8A85005050506006F
:1017A0000088502050880507070600FE888888506A
:1017B000204080050505060000F8102040F80309C8
:1017C000090601FF204040408040404020010909B7
:1017D0000602FF8080808080808080800309090667
:1017E00001FF804040402040404080050303060048
:1017F0000248A890FF452073746570732F6D6D00CB
:101800005A2053746570732F6D6D005920537465A1
:1018100070732F6D6D00582053746570732F6D6D4C
:1018200000496E69740050726F6265204F6666737E
:1018300065747300416363656C65726174696F6E92
:101840000056656C6F63697479005A2056616C7537
:101850006500496E646578205900496E646578209A
:10186000580046616465204865696768740045648E
:101870006974204D657368004C6576656C2042651F
:1018800064004732380A4732390052756E6F7574FA
:101890002053656E736F7200554E4C4F4144204685
:1018A000494C414D454E540046494C414D454E54DE
:1018B000204348414E4745004D373032205425647F
:1018C000004D36303020423020542564004D3730F2
:1018D00032203B2564004D37303120542564004DC3
:1018E000373032004D373031004D36303020423005
:1018F000005075726765206D6F72650052455355D3
:101900004D45204F5054494F4E533A005052494E86
:1019100054205041555345440020204E6F7A7A6C34
:10192000653A2000256C642E25696D004578747237
:101930007564656420546F74616C004C6F6E6765EC
:101940007374204A6F622054696D65003E20005414
:101950006F74616C205072696E742054696D6500FB
:10196000436F6D706C65746564005072696E7420AD
:10197000436F756E7400313230004245443A204561
:1019800050434F53203130304B0052756E617761B8
:10199000792057617463683A204F4E004D6178207A
:1019A00054656D7000323735004D696E2054656D99
:1019B000700045313A204550434F53203130304B71
:1019C000005053550047656E657269630050726F31
:1019D000746F636F6C00312E3000426175640032A9
:1019E000353030303000437265616C69747933444E
:1019F0002052414D50530042696C696E65617220FE
:101A00004C6576656C696E670045787472756465BF
:101A100072730043522D3130205633003230323051
:101A20002D30392D32382032313A3131005072693F
:101A30006E74657220537461747300546865726DBE
:101A40006973746F727300426F61726420496E66CD
:101A50006F005072696E74657220496E666F005037
:101A600061726B696E672E2E2E00000057616974DB
:101A700020666F720066696C616D656E74206368C4
:101A8000616E676500746F207374617274005761D2
:101A9000697420666F720066696C616D656E742092
:101AA000756E6C6F616400004E6F7A7A6C652068A9
:101AB000656174696E6700506C656173652077615C
:101AC00069742E2E2E000050726573732062757437
:101AD000746F6E00746F2068656174206E6F7A7A1F
:101AE0006C650000496E736572742066696C616D87
:101AF000656E7400616E6420707265737320627528
:101B000074746F6E00746F20636F6E74696E7565A8
:101B1000005761697420666F720066696C616D655B
:101B20006E74206C6F6164000050726573732042A4
:101B30007574746F6E00746F20726573756D6520B7
:101B40007072696E7400005761697420666F72204C
:101B50007072696E7400746F20726573756D652E96
:101B60002E2E00005761697420666F720066696CE2
:101B7000616D656E74207075726765000052756ED8
:101B80006F75742044697374206D6D004C6F6164CF
:101B9000206D6D00556E6C6F6164206D6D0046693F
:101BA0006C2E204469612E004520696E206D6DC247
:101BB000B3004D333033205531204525692053255E
:101BC0006900504944204175746F74756E65202A10
:101BD000005049442D44202A005049442D49202AD0
:101BE000005049442D50202A00200820466163748B
:101BF000002008204D6178002008204D696E0041CA
:101C000075746F74656D700024F4D43050C38E20E9
:101C1000C2A24017828B7011127A910D816CD90A81
:101C2000A861E108C7586607615143061E4B5D0570
:101C3000C145A7041A411104093D980371393103C4
:101C40004036DB0265339102D4305402802E1D02EF
:101C5000632CEE01752AC501B028A001102781016F
:101C60008F2564012B244B01E0223401AC211F019C
:101C70008D200D01801FFC00841EED00971DDF00EC
:101C8000B81CD200E61BC600201BBC00641AB200C0
:101C9000B219A8000A19A0006A189900D11791007A
:101CA00040178B00B516840031167E00B3157900FD
:101CB0003A157300C7146F0058146A00EE136600DB
:101CC0008813630025135E00C7125B006C12570077
:101CD00015125400C111510070114F0021114B0019
:101CE000D61049008D1047004610440002104200F3
:101CF000C00F4000800F3E00420F3C00060F3B002B
:101D0000CB0E3800930E37005C0E3500270E3400E2
:101D1000F30D3200C10D3100900D3000600D2E002A
:101D2000320D2D00050D2C00D90C2B00AE0C290016
:101D3000850C29005C0C2700350C27000E0C2600B2
:101D4000E80B2400C40B2400A00B23007D0B230010
:101D50005A0B2100390B2100180B2000F80A1F0034
:101D6000D90A1E00BB0A1E009D0A1D00800A1D0024
:101D7000630A1C00470A1B002C0A1B00110A1A00E8
:101D8000F7091A00DD091900C4091900AB09190087
:101D9000920917007B091800630917004C09160007
:101DA00036091600200916000A091500F508150065
:101DB000E0081400CC081400B8081400A4081400AB
:101DC000900813007D0812006B08130058081200D9
:101DD00046081200340811002308110012081100EF
:101DE00001081100F0071000E0071000D0071000F4
:101DF000C0071000B0070F00A107100091070E00E8
:101E000083070F0074070F0065070E0057070E00C9
:101E100049070E003B070D002E070E0020070D009E
:101E200013070D0006070D00F9060C00ED060D0066
:101E3000E0060C00D4060C00C8060C00BC060C0022
:101E4000B0060C00A4060B0099060C008D060B00D2
:101E500082060B0077060B006C060B0061060A0079
:101E600057060B004C060A0042060A0038060A0014
:101E70002E060A0024060A001A060A0010060900A7
:101E800007060A00FD050900F4050900EB05090035
:101E9000E2050900D9050900D0050900C7050900B8
:101EA000BE050900B5050800AD050800A505090037
:101EB0009C050800940508008C05080084050800AE
:101EC0007C050800740508006C050700650508001E
:101ED0005D050700560508004E0507004705070089
:101EE0004005080038050700310507002A050700EE
:101EF000230507001C050600160507000F0507004F
:101F00000805060002050700FB040600F5040700AB
:101F1000EE040600E8040600E2040700DB04060005
:101F2000D5040600CF040600C9040600C304060059
:101F3000BD040600B7040600B1040500AC040600A9
:101F4000A6040600A00405009B04060095040500F5
:101F5000900406008A04050085040500800406003C
:101F60007A04050075040500700405006B04050083
:101F700066040500610405005C04050057040500C3
:101F8000520405004D040500480405004304050003
:101F90003E0404003A040500350405003004040042
:101FA0002C04050027040400230405001E0404007B
:101FB0001A04040016040500110404000D040400B2
:101FC000090405000404040000040400FC030400E8
:101FD000F8030400F4030400F0030400EC0304001D
:101FE000E8030400E4030400E0030400DC0304004D
:101FF000D8030400D4030400D0030400CC0304007D
:10200000C8030300C503030024F404D9201BC40C37
:102010005C0E9804C4095F0265077101F405F900BC
:10202000FB04B30048048700C1036900580355004E
:1020300003034500BE023A008402310053022A0025
:102040002902250004022000E4011C00C801190037
:10205000AF011700980114008401130071011000F2
:102060006101100051010E0043010D0036010B000B
:102070002B010B0020010B00150109000C010900C8
:1020800003010800FB000800F3000800EB00070054
:10209000E4000600DE000600D8000600D2000600BC
:1020A000CC000500C7000500C2000500BD0004000B
:1020B000B9000400B5000400B1000400AD00040044
:1020C000A9000400A5000300A20003009F00040073
:1020D0009B0003009800030095000200930003009A
:1020E000900003008D0002008B00030088000200B6
:1020F0008600020084000300810002007F000200CD
:102100007D0002007B0002007900020077000100E0
:1021100076000200740002007200010071000200EB
:102120006F0002006D0001006C0002006A000100F7
:1021300069000200670001006600010065000100FF
:102140006400020062000100610001006000010003
:102150005F0002005D0001005C0001005B00010007
:102160005A00010059000100580001005700010009
:10217000560001005500010054000100530000000A
:102180005300010052000100510001005000010005
:102190004F0001004E0000004E0001004D00010004
:1021A0004C0001004B0000004B0001004A00010000
:1021B00049000100480000004800010047000100FC
:1021C00046000000460001004500000045000100F7
:1021D00044000100430000004300010042000000F1
:1021E00042000100410000004100010040000100E8
:1021F0003F0000003F0001003E0000003E000100E3
:102200003D0000003D0001003C0000003C000000DB
:102210003C0001003B0000003B0001003A000000D0
:102220003A000100390000003900010038000000C8
:1022300038000000380001003700000037000100BE
:1022400036000000360000003600010035000000B6
:1022500035000000350001003400000034000000AB
:10226000340001003300000033000000330001009F
:102270003200000032000000320001003100000096
:10228000310000003100010030000000300000008B
:10229000300001002F0000002F0000002F00000080
:1022A0002F0001002E0000002E0000002E00010073
:1022B0002D0000002D0000002D0000002D00010069
:1022C0002C0000002C0000002C0000002C0001005D
:1022D0002B0000002B0000002B0000002B00010051
:1022E0002A0000002A0000002A0000002A00010045
:1022F000290000002900000029000000290000003A
:10230000290001002800000028000000280000002B
:10231000280000002800010027000000270000001E
:102320002700000027000000270001002600000011
:102330002600000026000000260000002600010004
:1023400025000000250000002500000025000000F9
:1023500025000000250001002400000024000000EA
:1023600024000000240000002400010023000000DD
:1023700023000000230000002300000023000000D1
:1023800023000000230001002200000022000000C2
:1023900022000000220000002200000022000100B4
:1023A00021000000210000002100000021000000A9
:1023B0002100000021000000210001002000000099
:1023C000200000002000000020000000200000008D
:1023D0002000000020000000200001001F0000007D
:1023E0001F0000001F0000001F0000001F00000071
:1023F0001F0000001F0001001E0000001E00000062
:102400001E0000001E0000003930000033250000CF
:1024100087190000B00F0000DB080000BD040000B9
:10242000740200003F010000486F6D696E6720462E
:1024300061696C6564006F70656E0054524947476E
:10244000455245440066696C616D656E74007A5F43
:102450006D696E00795F6D696E00785F6D696E0001
:102460005265706F7274696E6720656E6473746F05
:1024700070207374617475730A00486F6D65202550
:102480007325732573204669727374005761726EE9
:10249000696E673A20486F6D696E672042756D708E
:1024A0002044697669736F72203C20310A00000075
:1024B0004842000048420000C0400202040000A060
:1024C000400000A04000000040FFFFFF00000001AE
:1024D000000000010000800055555500000040003C
:1024E00033333300AAAA2A004992240000002000B6
:1024F000C7711C0099991900D14517005555150051
:102500003BB113002449120011111100000010000A
:102510000F0F0F00E3380E0043790D00CCCC0C00F8
:10252000C3300C00E8A20B0064210B00AAAA0A0029
:10253000703D0A009DD80900427B090092240900E1
:10254000DCD308008888080010420800000008005A
:10255000F0C107008787070075500700711C07004E
:102560003EEB0600A1BC0600699006006666060008
:10257000703E06006118060017F4050074D10500CE
:102580005BB00500B290050062720500555505006C
:1025900078390500B81E0500050505004EEC04005D
:1025A00087D40400A1BD040090A704004992040050
:1025B000C17D0400EE690400C756040044440400D1
:1025C0005C320400082104004110040000000400F3
:1025D0003FF00300F8E0030026D20300C3C303006A
:1025E000CCB503003AA803000A9B0300388E030011
:1025F000C08103009F750300D0690300505E030093
:102600001D53030034480300913D0300333303009E
:1026100016290300381F030097150300300C030030
:10262000030303000BFA020049F10200BAE80200BA
:102630005CE002002DD802002DD0020059C8020033
:10264000B0C0020031B90200DAB10200AAAA020049
:10265000A0A30200BC9C0200FA9502005C8F02005D
:10266000DF88020082820200457C02002776020099
:1026700027700200436A02007C640200D05E020000
:102680003F590200C8530200000000000000006033
:102690000000000000FC00000FF00000000007E058
:1026A0000000000001861FC01870000000000060DC
:1026B0003C0C000001830C60103000000000006042
:1026C0003C0C000001830C30303000000000006042
:1026D000000C000000030C18300000000000006037
:1026E000003F0F3C00030C0C6001DF0FE0FE0060B8
:1026F0001C1C061800060C0C6000F31831830060E7
:102700000C0C0318001E0C0C6000E03039830060D4
:102710000C0C033000030C0C6000C030380F00605C
:102720000C0C033000018C0C6000C03FF8FB006013
:102730000C0C033000018C0C6030C0300183006051
:102740000C0C01F001818C0C6030C0300183006002
:102750000C0C00E001818C183030C018318300600F
:102760000C0C40E001838C301860C00C6187C0E025
:102770001C0CC06000C30C600FC3F007C0FFC7FC97
:102780007F0781C0007E1FC0000000000000000025
:102790000000070000000000000000000000000032
:1027A00000000700000000001FFFFFFFFFFFFF60A9
:1027B0000000000001FF400000000000FF8000005A
:1027C0000000007F83CF00000C303F87FF80000CAB
:1027D000301F867980000C000F8C30C7838C30E767
:1027E0008C30CFC7CC31F38C30DCECEC33B98C308F
:1027F000D86C6C33198C30D06C0C33198C30D86C8D
:102800000C33198C30DC6C0E3B198C30CF7C079F5D
:10281000198C30C77C038F19400000000000026053
:102820000000000000061FFFFFFFFFFFF870012CF3
:102830000190012701B0012201C0011D01F0011822
:10284000011002130130020E01600209019002041E
:1028500001C002FF000003FA004003F5008003F00E
:1028600000D003EB002004E6007004E100E004DC8B
:10287000004005D700C005D2004006CD00D006C8F4
:10288000008007C3003008BE00F008B900C009B4DA
:1028900000B00AAF00B00BAA00D00CA500000EA03B
:1028A00000500F9B00C01096005012910000148C35
:1028B00000C0158700B0178200B0197D00D01B78CA
:1028C00000001E730040206E0090226900F0246416
:1028D0000040275F0090295A00E02B5500102E5031
:1028E0000020304B0010324600E033410090353C70
:1028F000001037370070383200A0392D00B03A2868
:1029000000A03B2300603C1E00103D1900903D14C8
:1029100000103E0F00703E0A00C03E0500003F0060
:1029200000403FFBFF803FF6FFC03FF1FF6874743B
:1029300070733A2F2F6D61726C696E66772E6F72AD
:102940006700322E302E372D46695A6900202050FC
:102950006C616E6E65724275666665724279746509
:10296000733A20002046726565204D656D6F72795F
:102970003A2000436F6D70696C65643A205365704E
:1029800020323820323032300A00204C61737420FB
:10299000557064617465643A20323032302D3039BC
:1029A0002D32382032313A3131207C204175746823
:1029B0006F723A2046695A692C20435231302D56A5
:1029C000332C206261736564206F6E206672616EC5
:1029D000367020435231302D56320A00322E302EBE
:1029E000372D46695A690A004D61726C696E002084
:1029F000536F6674776172652052657365740A005F
:102A0000205761746368646F672052657365740A48
:102A1000002042726F776E206F7574205265736567
:102A2000740A002045787465726E616C205265737B
:102A300065740A00506F77657255700A006175748D
:102A40006F25632E67004732385859004D313030BA
:102A500031006572726F722077726974696E6720D7
:102A6000746F2066696C650A00446F6E652073613F
:102A700076696E672066696C652E0A004D323900F2
:102A800025532025632025632025632025630065C9
:102A90006E6473746F7073206869743A200000006C
:102AA0009B4300009B430000C843FFFDFCFAF8F67F
:102AB000F4F2F0EEECEAE9E7E5E3E1E0DEDCDAD9B6
:102AC000D7D5D4D2D0CFCDCBCAC8C7C5C3C2C0BF5B
:102AD000BDBCBAB9B7B6B4B3B2B0AFADACAAA9A8D1
:102AE000A6A5A4A2A1A09E9D9C9A9998979594931F
:102AF00092908F8E8D8B8A8988878684838281804D
:102B00007F7E7D7B7A797877767574737271706F5A
:102B10006E6D6C6B6A696867666564636261605F4D
:102B20005E5D5C5B5A595858575655545352515034
:102B3000504F4E4D4C4B4A4A494847464645444300
:102B4000424241403F3E3E3D3C3B3B3A39383837BC
:102B5000363535343332323130302F2E2E2D2C2B6A
:102B60002B2A29292827272625252423232221210A
:102B700020201F1E1E1D1C1C1B1B1A19191818179C
:102B80001616151514131312121111100F0F0E0E25
:102B90000D0D0C0C0B0A0A090908080707060605A3
:102BA000050404030302020100000000000000000D
:102BB00000000000000053657474696E6773205351
:102BC000746F7265640053657474696E6773205323
:102BD000746F726564202800456E636C6F73757244
:102BE000650000FE0003FF8007C7C00701E000008A
:102BF000E00000F00000700400700E00701F007014
:102C00003F80F00E00E00F01E007C7C003FF800027
:102C1000FE0000FE0003FF8007C7C00F01E00E00AA
:102C2000E03F80F01F00700E007004007000007024
:102C30000000F00000E00701E007C7C003FF8000CC
:102C4000FE000E000E000E000E000E000E000E0024
:102C50000E007FC03F801F000E00040004000E0025
:102C60001F003F807FC00E000E000E000E000E0001
:102C70000E000E000E00FFFFFF7F80FFC0FFC0FFB1
:102C8000C07F807F80FFC0FFC0FFC03F001E000CE0
:102C900000496E76616C696420657874727564654C
:102CA000720A0048656174696E67204661696C65E7
:102CB000640048656174696E67206661696C65646B
:102CC000004D3131322053687574646F776E002087
:102CD0002D20496E76616C69642065787472756424
:102CE0006572206E756D62657220210A0054484538
:102CF000524D414C2052554E415741590054686540
:102D0000726D616C2052756E6177617900457272E7
:102D10003A204D415854454D50004D415854454D71
:102D20005020747269676765726564004572723A13
:102D3000204D494E54454D50004D494E54454D503F
:102D40002074726967676572656400202F002042F5
:102D5000403A0020403A0020573A007C3C3E5E2B2F
:102D60003D3F2F5B5D3B2C2A225C005654726176FE
:102D7000204D696E00566D696E00566D6178204574
:102D800000566D6178205A00566D617820590056C2
:102D90006D6178205800416D6178204500416D617A
:102DA00078205A00416D6178205900416D6178208A
:102DB0005800412D54726176656C00412D52657446
:102DC0007261637400416363656C0056652D4A65EA
:102DD000726B00565A2D4A65726B0056592D4A6522
:102DE000726B0056582D4A65726B0050726F6265A7
:102DF0002059204F66667365740050726F626520BB
:102E000058204F6666736574005072696E74205066
:102E100061757365640020746F6F206C6F6E67203E
:102E2000657874727573696F6E2070726576656E01
:102E30007465640A0020636F6C6420657874727531
:102E400073696F6E2070726576656E7465640A00D2
:102E5000626567696E00627574746F6E00436F6EB1
:102E600074696E7565004C6F61642046696C616DB4
:102E7000656E74205400496E736572742066696CC7
:102E8000616D656E7420616E642073656E64204DA3
:102E90003130380A00220A00556E6B6E6F776E2053
:102EA000636F6D6D616E643A20220043522D3130A4
:102EB0002056332052656164792E005072696E7419
:102EC000696E672E2E2E00205A3A0020593A004390
:102ED0006F6E66696775726174696F6E0043616ECB
:102EE00063656C204F626A6563740043616E63655D
:102EF0006C004F6666004F6E004D6F74696F6E0018
:102F00004368616E6765204D65646961004D3231CB
:102F10000041626F7574205072696E746572005260
:102F20006573756D65205072696E74004E6F204D2B
:102F3000656469610054756E650053746F7020504C
:102F400072696E74005061757365205072696E7499
:102F500000496E666F2053637265656E005374613D
:102F60007274205072696E740043616E6E6F7420CB
:102F7000656E746572207375626469723A2000022E
:102F80002E2E00536F667420456E6473746F7073D9
:102F9000004D3834004175746F20486F6D650054E2
:102FA000656D70657261747572650050726F6265EF
:102FB000205A204F6666736574004D61696E004447
:102FC000697361626C65205374657070657273001B
:102FD0004D34382050726F62652054657374004719
:102FE0003238204F0A4D34382050313000486F6D50
:102FF00065205A004732385A00486F6D65205900E5
:103000004732385900486F6D6520580047323858AC
:10301000004732380050726568656174202420458D
:103020006E64005072656865617420242042656496
:1030300000436F6F6C646F776E0046616E20537053
:10304000656564207E00466C6F77002053697A6561
:103050003A200043616E6E6F74206F70656E20734E
:1030600075626469722000534420496E6974204679
:1030700061696C0053442063617264206F6B0A00C5
:103080006F70656E526F6F74206661696C65640A5B
:1030900000766F6C756D652E696E69742066616966
:1030A0006C65640A004E6F20534420636172640AA9
:1030B000004D3233202573006F70656E20666169A4
:1030C0006C65642C2046696C653A200046696C6525
:1030D0002073656C65637465640A0046696C6520DD
:1030E0006F70656E65643A2000454E44205355422A
:1030F000524F5554494E450A002220706F730022EA
:1031000020706172656E743A2200535542524F55D9
:1031100054494E452043414C4C207461726765749C
:103120003A220053756263616C6C204F766572665B
:103130006C6F77004578636565646564206D6178C0
:1031400020535542524F5554494E45206465707482
:10315000683A310A0057726974696E6720746F208B
:1031600066696C653A20005344207072696E746918
:103170006E67206279746520004E6F74205344207E
:103180007072696E74696E670A00667265736800B2
:10319000646F696E67004E6F7720002062797465F6
:1031A000733B2063726320004E6F20454550524FA1
:1031B0004D2E0A00205200454550524F4D2064616B
:1031C000746173697A65206572726F722E0A0020CD
:1031D00073746F7265642073657474696E677320AD
:1031E00072657472696576656420280020286361C1
:1031F0006C63756C6174656429210A0020213D208F
:1032000000454550524F4D20435243206D69736D28
:1032100061746368202D202873746F72656429209F
:1032200000496E6465783A2000204D61726C696EC9
:103230003D563831290A00454550524F4D2076659C
:103240007273696F6E206D69736D61746368202895
:10325000454550524F4D3D0048617264636F64654F
:10326000642044656661756C742053657474696E7E
:103270006773204C6F616465640A003B2000202066
:103280004D363033200020204D343132205300465B
:10329000696C616D656E742072756E6F75742073E4
:1032A000656E736F723A0020550046696C616D65FA
:1032B0006E74206C6F61642F756E6C6F6164206C2E
:1032C000656E677468733A0020204D383531205898
:1032D000005A2D50726F6265204F666673657400E8
:1032E00020204D33303420500020204D3330312009
:1032F00050005049442073657474696E67733A00D6
:1033000020460020480020204D3134352053004D08
:103310006174657269616C20686561747570207094
:103320006172616D65746572733A00204A002020F5
:10333000473239205720490020204D343230205365
:10334000004175746F20426564204C6576656C6938
:103350006E673A0020204D323035204200416476BD
:10336000616E6365643A20423C6D696E5F736567A8
:103370006D656E745F74696D655F75733E20533C57
:103380006D696E5F66656564726174653E20543C6C
:103390006D696E5F74726176656C5F666565647297
:1033A0006174653E20583C6D61785F785F6A657234
:1033B0006B3E20593C6D61785F795F6A65726B3E48
:1033C000205A3C6D61785F7A5F6A65726B3E20457A
:1033D0003C6D61785F655F6A65726B3E0020204DD1
:1033E000323034205000416363656C6572617469EA
:1033F0006F6E2028756E6974732F7332293A2050CE
:103400003C7072696E745F616363656C3E20523C10
:10341000726574726163745F616363656C3E2054AE
:103420003C74726176656C5F616363656C3E00201D
:10343000204D3230312058004D6178696D756D2016
:10344000416363656C65726174696F6E2028756E87
:103450006974732F7332293A0020204D32303320A3
:1034600058004D6178696D756D206665656472619F
:103470007465732028756E6974732F73293A00532D
:10348000746570732070657220756E69743A0020DF
:10349000440020204D3230302053002044697361B5
:1034A000626C65640A0046696C616D656E742073B8
:1034B000657474696E67733A0020204D3134392089
:1034C00043203B20556E69747320696E2043656C00
:1034D000736975730A0020286D6D2900202047321A
:1034E00031202020203B20556E69747320696E20A6
:1034F0006D6D0000803B4400803B44000070410043
:103500000096420000A0420000A0420000C8430014
:1035100080CF43D0070000D007000064000000887F
:10352000130000446966663A2020200046726F6DE1
:103530005374703A00537465707065723A00556E3A
:103540004C6576656C3A004C6576656C65643A004E
:103550005261773A20202020000A4C6F676963612E
:103560006C3A00436F756E7420453A004361703ABF
:10357000004348414D4245525F54454D50455241EC
:103580005455524500424142595354455050494EBA
:10359000470041524353004D4F54494F4E5F4D4FEA
:1035A00044455300544845524D414C5F50524F548E
:1035B000454354494F4E004C4F4E475F46494C459A
:1035C0004E414D45004155544F5245504F52545F66
:1035D00053445F5354415455530053444341524460
:1035E0000050524F4D50545F535550504F5254005D
:1035F000454D455247454E43595F50415253455200
:1036000000434153455F4C494748545F4252494744
:1036100048544E45535300544F47474C455F4C491F
:103620004748545300534F4654574152455F504FFB
:10363000574552004255494C445F50455243454E10
:1036400054004C4556454C494E475F444154410057
:103650005A5F50524F4245004155544F4C455645D4
:103660004C005052494E545F4A4F420050524F470F
:1036700052455353004155544F5245504F52545F99
:1036800054454D5000564F4C554D455452494300FA
:1036900042494E4152595F46494C455F5452414E52
:1036A000534645520053455249414C5F584F4E5F77
:1036B000584F4646004649524D574152455F4E418C
:1036C0004D453A4D61726C696E20322E302E372D89
:1036D00046695A69202853657020323820323032CA
:1036E000302032313A31363A31342920534F555255
:1036F00043455F434F44455F55524C3A687474707C
:10370000733A2F2F6769746875622E636F6D2F4D42
:1037100061726C696E4669726D776172652F4D6179
:10372000726C696E2050524F544F434F4C5F564558
:103730005253494F4E3A312E30204D414348494E65
:10374000455F545950453A43522D3130205633206D
:1037500045585452554445525F434F554E543A31A3
:1037600020555549443A63656465326132662D34AB
:103770003161322D343734382D396231322D633591
:10378000356336326633363766660A0050726F62CA
:1037900065204F6666736574205A003F5A206F7526
:1037A00074206F662072616E67652028003F592083
:1037B0006F7574206F662072616E676520282D001A
:1037C00020746F20003F58206F7574206F66207240
:1037D000616E676520282D0050726F6265204F660C
:1037E00066736574205800656E7175657565696EE0
:1037F000672022006F6B00526573656E643A20008B
:1038000050726F62696E6720506F696E7400255345
:103810002025692F25690050726F62696E67206DDF
:1038200065736820706F696E7420002028445259B7
:1038300052554E2900473239204175746F20426538
:1038400064204C6576656C696E67003F20284C2CBF
:10385000522C462C4229206F7574206F6620626FAF
:10386000756E64732E0A003F2856296572626F7365
:1038700065206C6576656C20696D706C6175736927
:10388000626C652028302D34292E0A0042616420A4
:103890005A2076616C75650A004E6F2062696C690A
:1038A0006E65617220677269640A004465766961B9
:1038B00074696F6E0025533A2025730046696E695E
:1038C00073686564210A003A207A3A2000206F6606
:1038D0002000476F696E6720746F3A205800435785
:1038E0000A00206469723A0020616E676C653A00D4
:1038F0005374617274207261646975733A004D3457
:103900003820506F696E740025533A2025642F25A6
:103910006400506F736974696F6E696E67207468B4
:10392000652070726F62652E2E2E0A003F4C65670F
:1039300073206F66206D6F76656D656E7420696D9E
:10394000706C61757369626C652028302D31352982
:103950002E0A003F2028582C5929206F7574206F9B
:103960006620626F756E64732E0A0050726F626516
:10397000206F7574206F6620626F756E6473003FF0
:1039800053616D706C652073697A65206E6F742069
:10399000706C61757369626C652028342D3530292F
:1039A0002E0A004D3438205A2D50726F6265205215
:1039B00065706561746162696C69747920546573BE
:1039C000740A005374616E646172642044657669A0
:1039D0006174696F6E3A20002052616E67653A200B
:1039E00000205369676D613A20004D65616E3A2091
:1039F00000416363656C65726174696F6E3A205053
:103A0000005741524E494E4721204C6F77205A2093
:103A10004A65726B206D6179206C65616420746FFA
:103A200020756E77616E746564207061757365735F
:103A30002E0A00204D393220580020204D61783A5E
:103A4000200020204D696E3A2000536F6674206577
:103A50006E6473746F70733A2000496E76616C699E
:103A6000642050696E204D6F64650A0020496E76AF
:103A7000616C696420657874727564657220003FBA
:103A800000496E697469616C697A652045455052D8
:103A90004F4D006E6F74696669636174696F6E2063
:103AA0000063616E63656C005072696E74204162E0
:103AB0006F72746564004469736D6973730055496E
:103AC0002041626F72746564004D323520500A4D9A
:103AD000323400526573756D65005549205061752B
:103AE00073650050617573696E672E2E2E007265C6
:103AF00073756D6500454550524F4D205665727384
:103B0000696F6E204572726F7200454550524F4D7D
:103B100020496E646578204572726F720045455089
:103B2000524F4D20435243204572726F72004967D5
:103B30006E6F7265001FE020102010201010201002
:103B4000202010201030300840048003001FE03F88
:103B5000F03FF03FF01FE01FE03FF03FF03FF00F7D
:103B6000C0078003003FFFF038007030FC3020FCBD
:103B7000102078102030102C00D02E31D02F7BD088
:103B80002F7BD02E31D02C00D02030102078102068
:103B9000FC1030FC303800703FFFF03FFFF0380081
:103BA000703186302387102787902F87D02F03D03E
:103BB0002030102078102078102030102F03D02FC4
:103BC00087D02787902387103186303800703FFFD9
:103BD000F01FFFF81FFFF804104002082002082021
:103BE000041040082080104100104100082080048B
:103BF00010400000001FFFF81FFFF8000000001E2B
:103C0000000000002100000000271DC08C002721BB
:103C100021920041212092008E21CE9200902120FD
:103C200092011021209201201D21CC0220000000D1
:103C300004100113000810011480100801108020E6
:103C40000400A30047F200A08043E2004480200467
:103C500000430018D8000000198400000021FC0077
:103C600000003F002568753A253032687500253020
:103C70003268753A253032687500202020202020D7
:103C800020004C6F61642053657474696E67730023
:103C900053746F72652053657474696E6773004165
:103CA0006476616E6365642053657474696E6773CE
:103CB000004E4F005945530043616E63656C204FC1
:103CC000626A656374203D0053746F7700446570C9
:103CD0006C6F790053572D4D6F64650053656C66AA
:103CE0002D546573740046616E20537065656400E1
:103CF000526573746F72652044656661756C747388
:103D00000050726568656174202420436F6E660000
:103D1000424C546F756368005045544700504C4105
:103D2000005072696E742066726F6D204D65646913
:103D3000610050726F62696E67204661696C6564EC
:103D400000205A3A200020593A2000426564205849
:103D50003A20004368616E67652046696C616D6555
:103D60006E7400556E6C6F61642046696C616D65A0
:103D70006E74004C6F61642046696C616D656E7491
:103D8000005072656865617420437573746F6D00CF
:103D9000507265686561742024004261636B001D88
:103DA0003D183D00002100240027002A002D00308E
:103DB00000330001010000040107010A0100002294
:103DC00000250028002B002E0031003400020100E5
:103DD00000050108010B0100002000230026002936
:103DE000002C002F00320000010000030106010931
:103DF0000105050505070508080808020202020A70
:103E00000A0808040404040101010101010101037D
:103E100003030303030303040707070C0C0C0C0C38
:103E20000C0C0C0202020206060606060606060B2B
:103E30000B0B0B0B0B0B0B010210202008081020A2
:103E40004010204080020102010804020101020426
:103E500008102040808040201008040201800402E5
:103E6000018040201008040201080402010102043C
:103E70000810204080010204081020408000000A41
:103E80000B02090C0D0E08070304010000000000DE
:103E90000000000000000000000000000000000022
:103EA00000000000000000000012111000000000DF
:103EB0000000000000000000000000000000000002
:103EC0000000004D6F76652025736D6D004D6F7697
:103ED0006520302E316D6D004D6F766520316D6D32
:103EE000004D6F76652031306D6D004D6F76652029
:103EF0004178697300486F74656E6420746F6F2039
:103F0000636F6C64004578747275646572004D6F00
:103F10007665205A004D6F76652059004D6F7665A5
:103F20002058004F46460A0046616465204865698E
:103F30006768742000426564204C6576656C696E24
:103F40006720004661696C656420746F20656E614E
:103F5000626C6520426564204C6576656C696E67AD
:103F60000A00496E76616C6964206D6573682E0A7B
:103F70000020436F756E7420583A00453100626529
:103F800064002C2073797374656D2073746F707086
:103F9000656421204865617465725F49443A200078
:103FA000BF014B0111241FBECFEFD1E2DEBFCDBF59
:103FB00000E00CBF13E0A0E0B2E0EAECF8ED02E0B4
:103FC0000BBF02C007900D92A232B107D9F727E1CB
:103FD000A2E2B3E001C01D92A830B207E1F71FE1F1
:103FE000C1EDDFE100E006C021970109802FFE014D
:103FF0000F94B668C03DD10780E00807A9F70F9479
:1040000097520D94536C0C9400002F923F924F9254
:104010005F926F927F928F929F92AF92BF92CF9258
:10402000DF92EF92FF920F931F93CF93DF93CDB761
:10403000DEB7E6970FB6F894DEBF0FBECDBF8DABEF
:10404000209162072CAB11E01093620780915F0F03
:104050008D3409F44CC3843511F40C94DA30873470
:1040600011F00C94EC3080915D0F90915E0F8B31CC
:10407000910509F41BC1B4F48430910534F4823005
:104080009105E4F597FF2EC02EC38531910511F4FB
:104090000C94EE308A31910509F404C1049709F0BB
:1040A00022C3C1C08A32910509F43DC24CF48D315E
:1040B0009105B1F00CF415C14E9709F45EC113C31C
:1040C0008B35910509F4D8C18C35910509F4D9C116
:1040D0008A35910509F007C3109231030C94EE3034
:1040E00014E02DC180919A06813011F00C94EE30CD
:1040F0000F94D4190E94D6970C94EE3020919A0612
:10410000213011F00C94EE3011E0029709F010E02C
:104110000F94D41919821A821B821C821D821E825E
:104120001F82188682E50E949D45882309F44BC0B2
:104130000E941D456B017C0120E030E0A9010F9435
:10414000BB61882309F455C08091B6079091B707E9
:10415000A091B807B091B90788A799A7AAA7BBA74C
:104160008091BA079091BB07A091BC07B091BD07A1
:1041700088AB99ABAAABBBAB8090BB109090BC1046
:10418000A090BD10B090BE104090BF105090C010D5
:104190006090C1107090C210A501940168A579A526
:1041A0008AA59BA50F94BB6181110C94F730A301E4
:1041B000920168A979A98AA99BA90F94BB61882358
:1041C000C1F00C94F73089E40E949D45882331F0BA
:1041D0000E941D4569837A838B839C838AE40E94B5
:1041E0009D45882331F00E941D456D837E838F831A
:1041F000988720E030E0A90169817A818B819C81D8
:104200000F94BB6181110C94AB3120E030E0A90127
:104210006D817E818F8198850F94BB6181110C9493
:10422000AB310C94D33180E50E949D45882329F061
:104230000F94D6106B017C0103C0C12CD12C7601E8
:1042400083E50E949D45882361F00E941D4520E082
:1042500030E04AE754E40F9421620F94326A6B0114
:104260007C010E9456A78091F10F811105C060E08A
:1042700086E297E00F94AC270F943549C60ED71EFF
:10428000E81EF91E0F943549DC01CB018C199D09FC
:10429000AE09BF09B7FD02C00C94EE3080E00E9469
:1042A000C539F0CF0E94CE450C94EE3087E00E94D5
:1042B000DF9681110C94EE308CE0EBE8F2E0DE0149
:1042C000119601900D928A95E1F760E070E080E52B
:1042D0000F94C01EBE016F5F7F4F0F9468260C9431
:1042E000EE308091B0048770873011F00C94DA3191
:1042F00060E08FE40E94B94581110C94EE300C947B
:10430000DA3180913D0F81112AC00F94FB1488236C
:1043100061F1115011F40C94B53320E030E046EB1C
:104320005AE36EE877E085E00E94385A61E081E860
:1043300097E00E94E55982E597E00F94C90F0F942A
:104340003549609311077093120780931307909378
:10435000140787E00E94DF96882399F206C060E088
:104360008FE40E94B945882381F20E94FD598DE1B6
:1043700098E00F94C90F0C94EE302091CD1030913D
:10438000CE104091CF105091D0106091B60770912F
:10439000B7078091B8079091B9070F94BF68AB0138
:1043A000BC0188E50E94F96369837A838B839C83CF
:1043B0002091D1103091D2104091D3105091D4104F
:1043C0006091BA077091BB078091BC079091BD07BF
:1043D0000F94BF68AB01BC0189E50E94F9636D834E
:1043E0007E838F839887BE016B5F7F4FCE010196DE
:1043F0000F94E94B882311F40C94EE3080E00E9476
:104400008B550E94AE9A61E085E40E94B945182F51
:1044100021E0482FBE016B5F7F4FCE0101960F94C4
:104420000E3B6B017C019B01AC010F94B16B8111C0
:1044300019C049815A816B817C818BE49DE30E9484
:10444000205B4D815E816F81788586E49DE30E94CB
:10445000205BB701A60181E49DE30E94205B8AE016
:104460000E9499380E94959A113011F40F94E1142A
:104470000E94FE9C0C94EE308FE0809331030C94EC
:10448000EE30B2EDCB2EB2E0DB2E16EBE12E17E0D4
:10449000F12E00E0312C10E0D6018D916D010E94CB
:1044A0009D45882359F10E941D454B015C01F70190
:1044B00020813181428153810F94BE682B013C01E0
:1044C0002DEB37E346E855EB0F941F6B87FD0AC0D1
:1044D0002DEB37E346E855E3C301B2010F94BB610E
:1044E000181664F4133011F401E002C0332433943D
:1044F000D7018D929D92AD92BC9213971F5FB4E04D
:10450000EB0EF11C143041F6332019F00E94FC9C94
:1045100006C0002321F082EC97E00E9467A70E946A
:10452000FE9C0C94EE3080919A06813011F00C9430
:10453000EE3089E40E949D45E82E882321F00E94F8
:104540001945082F01C000E08AE40E949D45F82E1D
:10455000882321F00E941945182F01C010E0EE2099
:1045600011F0053020F4FF2041F0153030F085E3E4
:1045700098E00E94D6590C94EE3080E1E6EBF7E02B
:10458000ABEBB0E101900D928A95E1F7EE2019F1C5
:10459000602F000F770B880B990B0F94C26120914D
:1045A000B90E3091BA0E4091BB0E5091BC0E0F94D3
:1045B00021622091AB0E3091AC0E4091AD0E509126
:1045C000AE0E0F94BF686093BB107093BC108093C5
:1045D000BD109093BE10FF2019F1612F110F770BC2
:1045E000880B990B0F94C2612091BD0E3091BE0EC5
:1045F0004091BF0E5091C00E0F9421622091AF0EDA
:104600003091B00E4091B10E5091B20E0F94BF6830
:104610006093BF107093C0108093C1109093C2102C
:1046200060E080E50E94B9458823C1F1EE20D1F019
:104630002091CD103091CE104091CF105091D010DC
:104640006091BB107091BC108091BD109091BE1014
:104650000F94BE686093BB107093BC108093BD1024
:104660009093BE10FF20D1F02091D1103091D21044
:104670004091D3105091D4106091BF107091C01030
:104680008091C1109091C2100F94BE686093BF10CA
:104690007093C0108093C1109093C21040E050E01E
:1046A000BA0186E40E94F9636B017C0120E030E0EE
:1046B000A9010F941F6B18164CF420E030E040E77E
:1046C00052E4C701B6010F94B96903C060E070E01D
:1046D000CB0169837A838B839C83CE0101960E94F0
:1046E000CF9B0C94EE300E9440E10C94EE30809110
:1046F0005D0F90915E0F8737910509F4B7C70CF0F5
:104700001FC18C34910509F45BC40CF09CC08A3144
:10471000910509F418C3BCF58431910509F48CC2E4
:104720007CF48131910509F473C22CF4029708F4EA
:1047300025C20C94D730429709F48EC60C94D7301A
:104740008731910509F4ADC294F48531910509F4DE
:10475000A4C2469711F00C94D7300E9479F680914C
:104760008115877F8062809381150C94EE308831AB
:10477000910509F4ADC2499711F00C94D7300F940C
:10478000FB1D0C94EE308032910509F4BBC3ECF5AF
:104790008D31910509F44CC384F48B31910509F4F2
:1047A000E0C24C9711F00C94D73080913F04909167
:1047B00040040E94B8F90C94EE308E31910509F452
:1047C0003EC34F9711F00C94D7300E94F99D6C8F27
:1047D0007D8F8E8F9F8FBE016F5F7F4FCE014C9676
:1047E0000E947E6960E0CE0101960F9463280E94CA
:1047F000215CBE016F5F7F4F8FEE98E00E943E5BB1
:104800008AE00E9499380C94EE308033910509F4C7
:10481000C0C364F48132910509F4A9C38A9711F0E9
:104820000C94D7300F94D31E0C94EE30893491053C
:1048300009F4B3C38B34910511F00C94D7300E9466
:1048400074360C94EE308A36910509F4B8C4ACF590
:104850008335910509F4F9C5BCF48E34910509F44A
:10486000B7C30CF4B1C38135910509F4D8C58235BD
:10487000910511F00C94D730809131038F7D8061C8
:10488000809331030C94EE308C35910509F40AC6FF
:1048900054F48435910509F4DFC58535910509F493
:1048A000DEC50C94D7308836910509F423C48936C7
:1048B000910509F470C40C94D7308037910511F438
:1048C0000C94EE30D4F48D36910509F43AC45CF4BE
:1048D0008B36910509F4B6C48C36910511F40C940D
:1048E000EE300C94D7308E36910509F4B8C48F366B
:1048F000910509F4C5C40C94D7308337910509F4A8
:104900006FC66CF48137910509F4FFC482379105B5
:1049100011F00C94D7300F94580E0C94EE3085376C
:10492000910509F460C68637910511F00C94D730D3
:1049300000913F041091400494E0F12C40E07AC6CD
:104940008033E1E09E0711F40C94462E0CF079C000
:104950008C3C910509F49CC774F58139910509F4E3
:1049600097C684F48937910509F48BC60CF481C687
:104970008D37910509F450C58C38910509F4E7C4C9
:104980000C94D730883C910509F4F6C654F48B3961
:10499000910509F41BC58E3B910509F4F7C40C94ED
:1049A000D730893C910509F42EC78B3C910509F459
:1049B00050C70C94D730883121E0920711F40C9441
:1049C000172DE4F48C3D910509F468C76CF48D3C17
:1049D000910509F460C7833D910511F00C94D7301F
:1049E0000F94351F0C94EE308D3D910509F47DC771
:1049F000823E910509F4CFC70C94D7308D32A1E0E7
:104A00009A0711F40C94C62D6CF48232E1E09E07F3
:104A100011F40C94AE2D8C32914011F40C94B12D04
:104A20000C94D7308E3221E0920711F40C94B92EF9
:104A30008F32914011F00C94D7300E9410640C9486
:104A4000EE30873FA1E09A0711F40C9406300CF089
:104A50004BC0843AE1E09E0711F40C941C2F0CF536
:104A6000823921E0920711F40C940A2F6CF48039FA
:104A7000A1E09A0711F40C94FD2E8139914011F4B4
:104A80000C94002F0C94D7308A39E1E09E0711F482
:104A90000C94EE308C39914011F40C94112F0C943D
:104AA000D730843F21E0920711F40C9400306CF46D
:104AB000853AA1E09A0711F40C941F2F863E91408D
:104AC00011F40C94942F0C94D730853FE1E09E07AD
:104AD00011F40C940330863F914011F00C94D730C0
:104AE0000E9437FB0C94EE308E3B22E0920711F4CB
:104AF0000C94A6301CF58835A2E09A0711F40C94AA
:104B00002C306CF4883FE1E09E0711F40C940E30D9
:104B10008C30924011F40C941F300C94D7308B35AC
:104B200022E0920711F40C942F308D3B924011F04B
:104B30000C94D7300F94B61B0C94EE30803AA3E05F
:104B40009A0709F418C26CF48335E3E09E0711F468
:104B50000C94A9308C36934011F40C94EE300C94E4
:104B6000D730873E23E0920711F40C94AC30893E95
:104B7000934011F40C94BA300C94D73080E50E9425
:104B80009D45882329F00F94D6106B017C0103C04A
:104B9000C12CD12C760183E50E949D45882361F0CC
:104BA0000E941D4520E030E04AE754E40F94216262
:104BB0000F94326A6B017C010E9456A780913F04DA
:104BC00090914004009721F061E00F94632805C0A4
:104BD00060E08EE598E00F94AC2780915D0F909196
:104BE0005E0F892B19F066E578E002C06EE478E08C
:104BF00020E030E04DE55EE282E00E94385A40E07D
:104C0000C701B6010E9455400E941DE10C94EE3090
:104C10008091600F84FF02C00C94CB338091620FAF
:104C200087FF02C00C94CB338091630F837011F027
:104C30000C94CB330C94E7338091811583FF25C00E
:104C400089E898E00E94D6598091811583FF17C0AA
:104C500085E693E10E9426C48BE1E5E6F3E1DE01FF
:104C6000119601900D928A95E1F760E070E0CE0117
:104C700001960E945BF8CE0101960E9488C58AE7E2
:104C800098E00E94D6590C94EE300E94215C8AE98B
:104C900098E00E94D6590C94EE300E9438F70C949C
:104CA000EE30E0913F04F09140048081882329F0A8
:104CB000803209F410823196F8CF60E080913F0491
:104CC000909140040E9402FA109260100C94EE3011
:104CD0008091140E8823F9F080E090E0A0EAB1E41E
:104CE00088A399A3AAA3BBA31C8E1D8E1E8E1F8E04
:104CF00019821A821B821C8200E010E020E0AE01C3
:104D0000405E5F4FBE01645E7F4FCE0101960E9400
:104D10004B510C94EE300E945036882321F00E94B3
:104D20008AF60E94743661E08EEE9AE30E94E5599D
:104D300046EB5AE364EA78E085E00E9444E20E9490
:104D40001DE10C94EE308091811583FD02C00C941E
:104D5000EE3083E50E949D4581110C94F5330C944F
:104D6000EE3083E40E9454458823C1F18AEB98E039
:104D70000E94D65980910F13882339F1BE016F5FCD
:104D80007F4F8CE093E10E948EC58E010F5F1F4F15
:104D9000D8018D918D01882319F00E949938F8CFA0
:104DA000CE0101960E948AF980917307882389F0C9
:104DB00080E20E94993803E717E0F80181918F01A2
:104DC000882339F00E949938F8CF80EB98E00E9450
:104DD000D6598AE00E9499380C94EE3083E50E94FF
:104DE0009D45882309F10E94F544182F90E0CD9746
:104DF0000CF01CE3109326030F9435496B017C01E2
:104E0000212F30E0A8EEB3E00F946568C60ED71EE0
:104E1000E81EF91EC0922203D0922303E0922403DD
:104E2000F09225030C94EE300E9449F60C94EE307B
:104E3000809181158E7F809381150C94EE30809146
:104E4000811583FD02C00C94EE300E944DE28091EA
:104E5000811583FD02C00C94EE3040913F045091C7
:104E60004004BE01645E7F4F80E00F9442468C0197
:104E7000009711F40C94EE306C8D7D8D19821C829C
:104E800022E0AC01CE0101960E944CC9811102C002
:104E9000F12C14C0CE0101960F94B0458823C1F3C4
:104EA00061E0CE0101960E9430C5009789F325EE9E
:104EB000DC012C931C820E94DFC0F82ECE010196EB
:104EC0000E9488C5B801FF2099F081EE98E00E9409
:104ED0003E5B8AE00E94993810927D1510927E15F3
:104EE00010927F15109280150E94FCF40C94EE3005
:104EF00089EC98E00E943E5B80EA99E30E94D659D3
:104F00000C94EE308091811582FD0E9456A780910D
:104F1000811583FD02C00C94EE3060E080E50E94B4
:104F2000B945182F682F80913F04909140040E944A
:104F300002FA83E50E949D45882381F00E94E544A2
:104F4000AB01BC0140937D1550937E1560937F1596
:104F5000709380158CE093E10E948FC30E948AF6C3
:104F600011110C94EE300E9474360C94EE300E94B5
:104F70005D6A0C94EE3020913F0430914004909192
:104F80008115926090938115C9010E94B8F90C9423
:104F9000EE300F94F5100C94EE3080E50E945445ED
:104FA000882311F40C94EE300E94F54490E085368D
:104FB000910510F084E690E0809360100C94EE3040
:104FC0000E94489E0C94EE300E9479A40C94EE301E
:104FD00060E070E083E50E94AA458E34910531F4CB
:104FE0000E94EAA40E941DE10C94EE3082E599E053
:104FF0000E94D6596091C0047091C10489E499E07F
:105000000E94135B6091C2047091C3048CE399E029
:105010000E94135B6091C0047091C1048091C2042E
:105020009091C304681B790B8091B507815021E0F2
:1050300030E0823010F020E030E0621B730B81E33F
:1050400099E00E94135B8AE00E94993882E599E01A
:105050000E94D6598091C4049091C504A091C604C1
:10506000B091C7048C8F9D8FAE8FBF8FBE016F5FD5
:105070007F4FCE014C960E947E69BE016F5F7F4FCD
:1050800084E299E00E943E5B8091C8049091C9043B
:10509000A091CA04B091CB048C8F9D8FAE8FBF8F2F
:1050A000BE016F5F7F4FCE014C960E947E69BE01AC
:1050B0006F5F7F4F84E199E00E943E5B20E030E02B
:1050C0004AE754E46091CC047091CD048091CE0401
:1050D0009091CF040F94B969AB01BC018CEF98E0BB
:1050E0000E94205B8DE60E9499388AE00E949938E0
:1050F0000C94EE308091C40D83FF02C00C94EE300E
:105100000F94AA1A87FF02C00C94EE3089E40E9423
:105110009D45882311F40C9406340E94F54490E0D8
:105120001816190614F481E090E026E0289FF0019B
:10513000299FF00D1124E753F14F808191810C9448
:1051400010348091C40D83FF02C00C94EE300F9494
:10515000AA1AF82E87FF02C00C94EE3089E40E9450
:105160009D45082F882311F40C9419340E94F544AE
:1051700090E01816190614F481E090E026E0289FCC
:10518000F001299FF00D1124E753F14F80819181A7
:1051900010E00C9429340F94AA1A182F87FD0AC026
:1051A00084EF97E30E94D659812F0E9473B48AE05E
:1051B0000E949938BCA9B09362070C941E3560E038
:1051C00080E50F94984DF82EE1E0E81710F40C9468
:1051D000EE3081E40E945445882329F06091EE0767
:1051E000062F10E002C00FEF10E089E40E949D45F9
:1051F000882399F00E94F54490E01816190614F4DB
:1052000081E090E026E0289FF001299FF00D112415
:10521000E753F14F0481158108C083E50E949D4545
:10522000882319F00E94E5448B01EF2DF0E0E25154
:10523000F84FB8010F3F110519F010F06FEF70E053
:105240006083CCC760E080E50F94984D823008F011
:10525000C5C7E82FF0E0E251F84F1082BFC78EE4D7
:105260000E949D45882309F4B9C70E94E5446093D4
:105270003B0470933C0480933D0490933E04AEC77E
:1052800083E50E945445882331F060E083E50F9464
:10529000984D8093C40D0E94215C8FE599E00E9497
:1052A000D6598091C40D882369F1A2E9EA2EAAE0BB
:1052B000FA2E00E010E020E08091C40D90E0A0E024
:1052C000B0E0002E04C0B695A795979587950A94EF
:1052D000D2F780FF0EC0DD24D394D20E222319F022
:1052E0008CE20E949938F701859194910E94D659D9
:1052F0002D2D0F5F1F4FF2E0EF0EF11C0530110551
:10530000D9F667CD80E59FE062CD83E50E949D459B
:10531000882371F00E94F544282F30E02D333105A9
:105320001CF4809300025AC78CE38093000256C796
:105330000E94215C4091000250E060E070E086E64F
:1053400099E00E94025B8AE00E94993847C78091E9
:10535000C40D83FD43C789E40E949D45882311F451
:105360000C9473340E94F54490E01816190614F456
:1053700081E090E026E0289FF001299FF00D1124A4
:10538000E753F14F828193810C947E348091C40D58
:1053900083FD24C789E40E949D45882311F40C9461
:1053A00085340E94F54490E01816190614F481E043
:1053B00090E026E0289FF001299FF00D1124E7538B
:1053C000F14F8281938110E00C94963483E50E9422
:1053D0009D45882309F402C70E94F544182F90E0E8
:1053E000CD970CF01CE310932B030F9435496B0100
:1053F0007C01212F30E0A8EEB3E00F946568C60E63
:10540000D71EE81EF91EC0922703D0922803E0920F
:105410002903F0922A03E2C60F94FB1DDFC60E9407
:10542000D2B90E9479A40E94C6A80E94873668EE6D
:1054300073E080E090E00E9416590E948C3660E094
:105440008BE899E00F94AC27C9C6809131038F7E19
:10545000806280933103C2C60F94EE1FBFC683E5FE
:105460000E945445882309F4B9C60F9435496093C6
:1054700011077093120780931307909314070E94EB
:105480001D4520E030E04AE754E40F9421620F9478
:10549000326A60932C0370932D0380932E039093B4
:1054A0002F039CC60F94AA1A87FD98C69091600F8F
:1054B00094FD04C09091620F97FF0AC0E2EDCE2EDA
:1054C000E2E0DE2EF5ECEF2EFDE0FF2E10E009C04D
:1054D0009091630F937091F7682F81E00F944E20A5
:1054E0007DC6D6018D916D010E949D45882309F4EA
:1054F0006DC0133009F063C00E941D454B015C0173
:1055000020E030E040EA51E40F94BB6187FF4EC0D9
:10551000A50194016091E50D7091E60D8091E70D74
:105520009091E80D0F94B9692B013C019B01AC01EE
:105530006091D2077091D3078091D4079091D507DD
:105540000F9421626093D2077093D3078093D4079E
:105550009093D507A30192016091F50D7091F60D1E
:105560008091F70D9091F80D0F9421626093F50DE5
:105570007093F60D8093F70D9093F80D6091E2070C
:105580007091E3078091E4079091E5070F94C06163
:10559000A30192010F9421620F94326A6093E20793
:1055A0007093E3078093E4079093E5078092E50DFD
:1055B0009092E60DA092E70DB092E80D07C00E9410
:1055C0001D45F701648B758B868B978B1F5FF4E00D
:1055D000EF0EF11C143009F084CF0E9471A6FEC5B5
:1055E0000F94D70DFBC580913F0490914004009724
:1055F00041F0DC012C91222321F060E00F9463281C
:10560000EDC50E941DE1EAC5F8018081282F2B7F9E
:10561000213499F08035E9F4818180538A30C8F4CF
:1056200098012E5F3F4F89012F5F3F4FF801808126
:105630008032C9F3915041F70CC02181213349F4E4
:10564000813421F0853461F741E0EACFFF24F394FF
:10565000E7CF41110E94215CFF2021F089E999E008
:105660000E94D659C8010E94A439B8C50E94939DD2
:10567000B5C581E08093D1048093D0040E94EA9D57
:10568000ADC51092D1041092D0040E94EA9DA6C527
:1056900060E070E083E50E94AA45823038F00E9405
:1056A000515B8DE999E00E94D65998C58C0111276C
:1056B00088E40E949D458823E1F00E9419458A3ABA
:1056C000910544F00E9419458530914034F40E94C0
:1056D000194505C08AEA90E002C084E091E026E026
:1056E000209FF001219FF00D1124E753F14F91838A
:1056F000808382E40E949D458823D9F00E94194549
:10570000059744F00E9419458F36910534F40E94A4
:10571000194505C085E090E002C08EE690E026E0E5
:10572000209FF001219FF00D1124E753F14F938347
:10573000828386E40E949D45882309F44FC50E9418
:10574000194597FD09C00E9419458F3F910509F041
:1057500034F40E94194505C080E090E002C08FEF4C
:1057600090E026E0209FF001219FF00D1124E753E7
:10577000F14F9583848332C50F94AA1A182F87FDA1
:105780002DC50091420F84E40E949D45882311F4A9
:105790000C94BF340E941D456B017C0120E030E079
:1057A000A9010F94BB61882341F124E01202F001AA
:1057B0001124E25CF04FC082D182E282F38220E0C9
:1057C00030E0A90160913E0F70913F0F8091400F32
:1057D0009091410F0F94BB6181110CC080E090E06B
:1057E000A0EEBFE380933E0F90933F0FA093400F36
:1057F000B093410F01E00C94BF3480E08093420FDE
:105800000E942993EBC40F94AA1A87FDE7C462EDA6
:10581000E62E62E0F62E05EC1DE075EDC72E7DE06C
:10582000D72ED7018D917D010E945445882359F0D0
:105830000E941D450F94326AF80160837183828350
:1058400093830E942AA60C5F1F4FC016D10649F70A
:10585000C5C40F94AA1A87FDC1C452EDE52E52E0CB
:10586000F52E05EC1DE0D7018D917D010E94544578
:10587000882339F00E941D45F80164A375A386A30F
:1058800097A30C5F1F4FFDE0053D1F0761F7A6C4FE
:105890000F940D21A3C40F948920A0C483E50E9416
:1058A0009D45882331F00E94194590931C028093F6
:1058B0001B028091600F9091610FA091620FB091D7
:1058C000630F892B8A2B8B2B09F088C460911B02F4
:1058D00070911C028FEB99E00E94315B85E20E947F
:1058E00099388AE00E94993879C40F94AA1AF82E40
:1058F00087FD74C483E50E949D450F2D0F2C000C7D
:10590000110B882369F10E941945F801EE0FFF1F62
:10591000E35EFD4F91838083000F111F000F111F65
:1059200098012B5A3D4F7901BC01990F880B990BB7
:105930000F94C2612AE037ED43E25CE30F942162E9
:10594000F801EF54FB4F20813181428153810F9444
:105950002162D7016D937D938D939C9313973EC4E1
:105960000E94215C85E40E94993880E38F0D0E949B
:105970009938000F111FF801E35EFD4F60817181BE
:1059800083EC99E00E94315B85E20E9499388AE0BD
:105990000E94993823C480E50E945445882309F465
:1059A0001DC460E070E080E50E94AA45F82E6FEF0C
:1059B0007FEF83E50E94AA458C010196039708F0CA
:1059C0000DC4F7FC0BC48F2D0E942B36882339F0B1
:1059D0000E94515B8BEC99E00E94D659FFC30E9454
:1059E00056A760E08F2D0F94F6470F3FBFEF1B07C0
:1059F00031F00130110571F000E010E00DC08F2D85
:105A00000F94635C31E020E0892B09F030E0032F34
:105A1000122F02C001E010E08F2D0F94635C8017FD
:105A2000910709F4DBC380E00E94C539F5CF80E51A
:105A30000E945445882309F4D1C30E9419458C0162
:105A4000892B09F07FC083E50E945445882389F0A3
:105A50000E9419458F3FEFEF9E0729F48BED93E1EC
:105A60000E948F36BBC3BC018BED93E10E944F3780
:105A7000B5C30E94215C60E070E08AED99E00E946D
:105A8000315B8091DD1328E532E06901C81AD10845
:105A900087FDD394CC0CDD1CCC0CDD1C0D2C000C34
:105AA000EE08FF088091DC1328E830E04901881AED
:105AB000910887FD9394880C991C880C991C092CDB
:105AC000000CAA08BB088091DB138F3FC1F090E067
:105AD000FC01EE0FFF1F8E0F9F1FFC01EE56FC4EC8
