:100000000C94CD1F0C94FE1F0C94FE1F0C94FE1F2D
:100010000C94FE1F0C94FE1F0C94FE1F0C94FE1FEC
:100020000C94FE1F0C94FE1F0C94FE1F0C94FE1FDC
:100030000C94FE1F0C94FE1F0C94FE1F0C94FE1FCC
:100040000C94FE1F0C9411960C94FE1F0C94FE1F32
:100050000C94FE1F0C94FE1F0C9413B50C9442AD2F
:100060000C94FE1F0C94C5400C94BB400C94FE1FD6
:100070000C94FE1F0C94FE1F0C94FE1F0C94FE1F8C
:100080000C948F380C94FE1F0C94FE1F0C94FE1FD2
:100090000C94FE1F0C94FE1F0C94FE1F0C94FE1F6C
:1000A0000C94FE1F0C94FE1F0C9461380C94FE1FE0
:1000B0000C94FE1F0C94FE1F0C94FE1F0C943338FE
:1000C0000C94FE1F0C94FE1F0C94FE1F0C94FE1F3C
:1000D0000C94FE1F0C94FE1F0C94FE1F0C94FE1F2C
:1000E0000C94FE1FFB400D411F41304138416B41D4
:1000F0003C416B41404144416B4148414C4150417E
:1001000059416B416441FA90698FA28F3691A28F59
:10011000A28FA28FA28FA28FA28FA28FA28FA28F57
:10012000A28FA28FA28FA28FA28FA28FA28FA28F47
:10013000A28FA28FA28FA28FA28FA28FA28FA28F37
:10014000A28F3091A28FA28FA28FA28FA28FA28F97
:10015000A28FA28F0991A28FA28FA28FA28FA28FAE
:10016000A28FA28FA28FA28FA28F4D919F8FB7C314
:100170009AC39DC3BAC3A0C3A3C3A6C3B2C3A9C332
:10018000C5C3ACC3AFC371025B02EF01EB013F011A
:10019000F10165018B01590219022302A3018501B6
:1001A0004F01F10113023D0255021502E7019901C9
:1001B0004F025D0217019B01090263021F02CF0279
:1001C0005101730149021701330115016701084A02
:1001D000D73B3BCE016E84BCBFFDC12F3D6C74315B
:1001E0009ABD56833DDA3D00C77F11BED9E4BB4CB2
:1001F0003E916BAAAABE000000803F05A84CCDB27C
:10020000D44EB93836A9020C50B9918688083CA65C
:10021000AAAA2ABE000000803F000C9430410C9432
:100220002AD70D942F350D9420320D94244B0D9424
:10023000384B0D9491120C949AC30C94518C0C94DD
:100240001D880C94FA900D9423350D94BA310C94BA
:100250001EC10C940AC10D9478390D9449240C9454
:100260004D8C0C9451D10D941A4B0C941F410C944D
:1002700033C10C94A28F0C9409910C940D410D94F0
:10028000A0480C9419D70D94BE180C9416C10D9467
:10029000502A0D948F2E0D949C360C94F68E0D944E
:1002A000CB480D94F74A0C9498D40C944C410C9480
:1002B0006B410C94FB400D948D120C9448CE0C9421
:1002C00006C10C9497CE0C9402C10D94AB480D94CA
:1002D0002E4B0C94B3860D9435350C940DD70C949D
:1002E000FDD20C94ACC30D94064B0C9407D70C9420
:1002F000287F0D9437380D94C3390C9477800D9472
:10030000F9340C944F8C0D9472240D94C7480D94BD
:10031000FA1C0C942ECE0D94AF480C944D910C9475
:100320000EC10C942AC10D9441330C94A3860C94F5
:1003300089D40D94AB4A0D94C94A0C94F98E0D944E
:10034000ED340C941AC10D94C3480C942DC10D9436
:10035000EE310D9429350C940BCE0C943FAD0D94D9
:10036000E2320C945A7D0D9463370C94C5C30C94FF
:100370002C7D0C94E2ED0D94F8180C94F4BE0C94C2
:1003800013D70D9405350D94FF340D94A8240C94C7
:100390003FC10D94D5310D947E320C94DD840C94C4
:1003A00048410D9491320C94C4910C94EDD60C9468
:1003B000A3C30C949F8F0C94188B0D94F3340C945E
:1003C000A0C30D946B320C941FD70D94AA320D94D8
:1003D000A64A0D9407320D949A480D9452320D940A
:1003E00096480D94DE480D9401330D9459330C94C6
:1003F00015BC0C9483BD0C94DD7D0D948D240D945F
:100400000B350D9487390C94E6D70C9440410C942D
:100410009DD40D94D14A0D94135A0C9464410D94BB
:100420004D330D9465330D94D1480D94A14A0D942C
:10043000BD320D94B9480C94A3BC0D94CF320D94E9
:10044000E34A0C94668C0D94BD480D94912E0C9447
:1004500044CE0C94A9AD0C94EE7D0D940B3A0D9402
:100460001D350C9451DA0C94717D0C948ED40D943E
:1004700039320C94698F0C94538C0D94D5480C949C
:100480008AD70C94BAC30D9417350C94A9C30C9455
:10049000E8D60D94104B0C940EEE0C94A7890D9495
:1004A000B54A0C9493D40D9420280D94D9480C94FB
:1004B00097CF0D94B5480D94A7480D94BF4A0C945E
:1004C00026C10C94437D0D94D94A0C94AE860D94AC
:1004D000AA120D946E280D94FB2C0C94997D0C940B
:1004E000D8F70D94A4480C9430910C94AFC30C949D
:1004F00012C10D94C3240C9418C20D942F2B0C948C
:10050000887D0C944BC10D94972E0C94E3D60D94DA
:10051000A2120D9436390C9430C10C9446CE0C9432
:10052000B7C30C942E8C0C9415AD0C9426920C949D
:1005300044410C949D910D943B350C9459410C947D
:1005400050410C9422C10D943C120C94B2C30D94F2
:10055000A5370C946BD70C94A6C30C9472BB0C9467
:1005600036910D944E260C94E17D0C94E9D80D94AF
:1005700064280D94932E0D94A6120C9490CE0D9495
:10058000FE320D9457240C949DC30D94952E0C941B
:10059000F58E0D9423340C94DED70C943C410D94CD
:1005A000ED4A0D94DE240D94A9570C9438410D9416
:1005B00011350D94FB320C9439CE4E414E494E49C3
:1005C0005459494E46CDCCCC3D0AD7233C17B7D120
:1005D0003877CC2B329595E6241FB14F0A000020C6
:1005E000410000C84200401C4620BCBE4CCA1B0E45
:1005F0005AAEC59D7400407A10F35A00A0724E188E
:10060000090010A5D4E80000E87648170000E40BC4
:1006100054020000CA9A3B000000E1F5050000808A
:10062000969800000040420F000000A086010000E4
:1006300000102700000000E8030000000064000034
:100640000000000A00000000000100000000002C73
:1006500076D888DC674F0823DFC1DFAE59E1B1B738
:1006600096E5E3E453C63AE651997696E8E6C28405
:1006700026EB898C9B62ED407C6FFCEFBC9C9F401D
:10068000F2BAA56FA5F490055A2AF75C936B6CF942
:10069000676DC11BFCE0E40D47FEF520E6B500D018
:1006A000ED902E0300943577050080841E0800002D
:1006B000204E0A000000C80C333333330F986E12FB
:1006C000831141EF8D2114893BE65516CFFEE6DB01
:1006D00018D1844B381BF77C1D901DA4BBE424204B
:1006E0003284725E228100C9F124ECA1E53D2743EA
:1006F0004F4D4D554E49434154494F4E0044525978
:1007000052554E004552524F5253004543484F00F8
:1007100047322F47332062616420706172616D65DA
:10072000746572730A00536C6565702E2E2E005A24
:100730002050726F62652050617374204265640AB4
:10074000005A2050726F62652050617374204265B8
:1007500064004D3131372050726F626520666169E7
:100760006C65642E205265776970696E672E0A4742
:1007700032380A4731322050302053313220543041
:100780000070726F62655F726577697065004732ED
:1007900039205265747279696E67004D31313720A6
:1007A000426564206C6576656C696E672066616978
:1007B0006C65642E0A4730205A31300A4D33303090
:1007C0002050323520533838300A4D3330302050E5
:1007D00035302053300A4D333030205032352053DD
:1007E0003838300A4D333030205035302053300AFD
:1007F0004D3330302050323520533838300A4D33A5
:100800003030205035302053300A473420533100E7
:1008100070726F62655F6661696C6564004D31314D
:100820003720426564206C6576656C696E6720646C
:100830006F6E652E004D65736820706F696E742051
:100840006F7574206F662072616E67650A004D30A7
:100850002053746F70004D312053746F7000436CDF
:1008600069636B20746F20526573756D652E2E2E33
:10087000004E6F204D6F76652E00456E64206669D0
:100880006C65206C6973740A00426567696E206646
:10089000696C65206C6973740A00526573756D69C3
:1008A0006E6720534400286E6F2066696C652900CE
:1008B00043757272656E742066696C653A200044F7
:1008C000656C6574696F6E206661696C65642C2067
:1008D00046696C653A200046696C652064656C6504
:1008E0007465643A005072696E742074696D653A7B
:1008F00020000A53746174733A2046696C616D6517
:100900006E7420757365643A20002C204C6F6E67FE
:10091000657374206A6F623A2000546F74616C20B2
:1009200074696D653A20002C204661696C65643AF3
:1009300020002C2046696E69736865643A20005077
:1009400072696E74733A200053746174733A2000B4
:10095000452025530044454255473A004D31313337
:1009600020530042656420436F6F6C696E672E2EC2
:100970002E004265642048656174696E672E2E2ED4
:100980000043522D3130205633204F46462E002F43
:100990002F20004D31343520533C696E6465783E1C
:1009A000206F7574206F662072616E676520283035
:1009B0002D31290A0046523A0020466C6F773A20C2
:1009C0000050726F7465637465642050696E0A002C
:1009D00020536572766F200020643A0020693A0047
:1009E00020703A006469730043290A0061626C65F3
:1009F0006420286D696E2074656D702000436F6CF3
:100A00006420657874727564657320617265200076
:100A100046696C616D656E742072756E6F757420B9
:100A200064697374616E636520286D6D293A2000D6
:100A300046696C616D656E742072756E6F75742099
:100A4000004D34323120696E636F727265637420B9
:100A5000706172616D657465722075736167650A96
:100A600000454550524F4D204F4B0A00446F6E6574
:100A7000207072696E74696E672066696C650A0021
:100A80004D3737004D3331000B07A60A0407FD062A
:100A9000EF06554E4B4E4F574E2053544154450090
:100AA00047434F44455F494E464F004C43445F50D7
:100AB000415553455F524553554D450046494C41BC
:100AC0004D454E545F52554E4F55545F434F4E5413
:100AD000494E55450046494C414D454E545F52558F
:100AE0004E4F5554004D38373620526573706F6E37
:100AF00064696E672050524F4D50545F00457272CA
:100B00006F722077726974696E6720746F20454533
:100B100050524F4D210A004E6F20436865636B733E
:100B2000756D2077697468206C696E65206E756DCF
:100B30006265722C204C617374204C696E653A209A
:100B400000636865636B73756D206D69736D6174A7
:100B500063682C204C617374204C696E653A2000E8
:100B60004C696E65204E756D626572206973206EEA
:100B70006F74204C617374204C696E65204E756DE6
:100B80006265722B312C204C617374204C696E6548
:100B90003A20004D313130005344207265616420A9
:100BA0006572726F720A002121204B494C4C206300
:100BB0006175736564206279204B494C4C206275E5
:100BC00074746F6E2F70696E0A002121204B494C9E
:100BD0004C2063617573656420627920746F6F20A7
:100BE0006D75636820696E616374697665207469E8
:100BF0006D65202D2063757272656E7420636F6D54
:100C00006D616E643A2000627573793A2070617587
:100C100073656420666F7220696E7075740A006275
:100C20007573793A2070617573656420666F722000
:100C3000757365720A00627573793A2070726F631A
:100C4000657373696E670A004D656469612052655A
:100C50006D6F766564004D6564696120496E7365EA
:100C600072746564007061757365004D36303000D4
:100C70002066696C616D656E745F72756E6F7574F8
:100C8000200066696C616D656E745F72756E6F755C
:100C90007420540046696C616D656E7452756E6F98
:100CA0007574205400363726033C3D380E2E303EF6
:100CB000131A1C180AFF430809070844000172654B
:100CC00073756D656400526573756D696E67004775
:100CD00032362048656174696E67204E6F7A7A6C8F
:100CE00065004732362048656174696E6720426549
:100CF000640057616974696E6720666F7220686569
:100D0000617475702E0A004669786564204C656EC2
:100D1000677468205072696D6500446F6E6520507D
:100D200072696D696E67004D616E75616C207072DD
:100D3000696D696E672E2E2E004732362043616E34
:100D400063656C6564004C656176696E6720473247
:100D500036003F53706563696669656420582C5995
:100D600020636F6F7264696E617465206F757420A3
:100D70006F6620626F756E64732E0A003F285229D9
:100D800065706561742076616C7565206E6F742086
:100D9000706C61757369626C653B206D757374204E
:100DA0006265206174206C6561737420312E0A00C5
:100DB0003F537065636966696564206E6F7A7A6C0B
:100DC000652074656D7065726174757265206E6FF3
:100DD0007420706C61757369626C652E0A003F53F4
:100DE00070656369666965642066696C616D656ECE
:100DF000742073697A65206E6F7420706C617573EE
:100E000069626C652E0A003F5370656369666965A7
:100E100064207072696D65206C656E677468206E01
:100E20006F7420706C61757369626C652E0A003F87
:100E3000537065636966696564206E6F7A7A6C6564
:100E40002073697A65206E6F7420706C61757369A8
:100E5000626C652E0A003F52657472616374696F3B
:100E60006E204D756C7469706C696572206D757358
:100E700074206265207370656369666965642E0A13
:100E8000003F5370656369666965642052657472DA
:100E9000616374696F6E204D756C7469706C6965FF
:100EA00072206E6F7420706C61757369626C652E50
:100EB0000A003F537065636966696564206C6179F7
:100EC000657220686569676874206E6F7420706C45
:100ED00061757369626C652E0A0043292E0A003F12
:100EE0005370656369666965642062656420746532
:100EF0006D7065726174757265206E6F7420706CB0
:100F000061757369626C65202834302D0047323674
:100F1000207374617274696E672E2E2E0A00206D24
:100F200061783A2000206D696E3A20004348414DB7
:100F30004245525F54454D5045524154555245002B
:100F4000424142595354455050494E470041524343
:100F500053004D4F54494F4E5F4D4F44455300543D
:100F60004845524D414C5F50524F54454354494FB0
:100F70004E004C4F4E475F46494C454E414D450053
:100F80004155544F5245504F52545F53445F535450
:100F900041545553005344434152440050524F4D25
:100FA00050545F535550504F525400454D45524791
:100FB000454E43595F5041525345520043415345BA
:100FC0005F4C494748545F4252494748544E455345
:100FD0005300544F47474C455F4C494748545300D2
:100FE000534F4654574152455F504F574552004268
:100FF00055494C445F50455243454E54004C45566C
:10100000454C494E475F44415441005A5F50524F4E
:101010004245004155544F4C4556454C00505249AD
:101020004E545F4A4F420050524F4752455353006F
:101030004155544F5245504F52545F54454D500006
:10104000564F4C554D45545249430042494E41522A
:10105000595F46494C455F5452414E5346455200F4
:1010600053455249414C5F584F4E5F584F464600DA
:101070004649524D574152455F4E414D453A4D61AB
:10108000726C696E20322E302E362D46695A6920D8
:101090002841756720313920323032302031323AE0
:1010A00032333A34362920534F555243455F434F2C
:1010B00044455F55524C3A68747470733A2F2F67E9
:1010C00069746875622E636F6D2F4D61726C696E05
:1010D0004669726D776172652F4D61726C696E2021
:1010E00050524F544F434F4C5F56455253494F4E09
:1010F0003A312E30204D414348494E455F545950B6
:10110000453A43522D3130205633204558545255DC
:101110004445525F434F554E543A3120555549444A
:101120003A63656465326132662D343161322D3443
:101130003734382D396231322D63353563363266B6
:1011400033363766660A0050726F6265204F6666F6
:10115000736574205A003F5A206F7574206F6620A3
:1011600072616E67652028003F59206F7574206F8B
:10117000662072616E676520282D0020746F200044
:101180003F58206F7574206F662072616E6765200E
:10119000282D0050726F6265204F6666736574205B
:1011A0005800656E7175657565696E672022006F00
:1011B0006B00526573656E643A20002569792025BD
:1011C0006964202569682025696D202569730023DD
:1011D000646566696E652044454641554C545F0020
:1011E0004B6420004B6920004B7020005049442084
:1011F0004175746F74756E652066696E6973686594
:1012000064212050757420746865206C61737420AB
:101210004B702C204B6920616E64204B6420636FFF
:101220006E7374616E74732066726F6D2062656C8C
:101230006F7720696E746F20436F6E666967757291
:101240006174696F6E2E680A0050494420417574BC
:101250006F74756E65206661696C656421207469C0
:101260006D656F75740A000A20436C61737369635E
:1012700020504944200A00204B643A2000204B694A
:101280003A2000204B703A20000A204E6F206F76E3
:10129000657273686F6F740A002054753A200020DD
:1012A0004B753A200020643A200020626961733A4D
:1012B0002000504944204175746F74756E65207329
:1012C000746172740A00504944204175746F7475DA
:1012D0006E65206661696C6564212054656D70657A
:1012E00072617475726520746F6F20686967680A2F
:1012F00000504944204175746F74756E6500504903
:1013000044204175746F74756E65206661696C6503
:10131000642120426164206578747275646572206E
:101320006E756D6265720A00506C6561736520525E
:1013300065736574005052494E5445522048414CE3
:101340005445440025533A20255300706F77657249
:101350006F6666004B494C4C45442E200050726924
:101360006E7465722068616C7465642E206B696CA4
:101370006C28292063616C6C6564210A00656368D0
:101380006F3A004572726F723A0042696C696E651D
:101390006172204C6576656C696E6720477269647E
:1013A0003A0A0053544F505045442E200050726961
:1013B0006E7465722073746F7070656420647565F7
:1013C00020746F206572726F72732E2046697820C8
:1013D000746865206572726F7220616E6420757327
:1013E00065204D39393920746F20726573746172CC
:1013F000742E202854656D70657261747572652055
:1014000069732072657365742E2053657420697446
:101410002061667465722072657374617274696E9E
:1014200067290A0021212053544F502063616C6CBE
:1014300065642062656361757365206F6620424C48
:10144000546F756368206572726F72202D2072650B
:1014500073746172742077697468204D3939390A60
:10146000005072696E74696E67204F626A656374BA
:10147000002553202569002F2F616374696F6E3A30
:1014800000656E640070726F6D70745F0073686FDA
:10149000770044697361626C6552756E6F75740094
:1014A00050757267654D6F726500486F74656E6444
:1014B00020746F6F20636F6C640A0053656E642044
:1014C0004D31303820746F20726573756D650A0078
:1014D00052656865617420446F6E65005265686589
:1014E0006174696E672E2E2E005265686561740006
:1014F0004865617465722054696D656F7574005339
:10150000656E64204D31303820746F2068656174D9
:10151000206E6F7A7A6C650A004E6F7A7A6C65205D
:101520005061726B656400706175736564004D365F
:1015300030303A20546F6F20436F6C64004F464642
:101540000A00466164652048656967687420004246
:101550006564204C6576656C696E6720004661693C
:101560006C656420746F20656E61626C65204265F5
:1015700064204C6576656C696E670A00496E766119
:101580006C6964206D6573682E0A0050726F626921
:101590006E6720506F696E740025532025692F25D2
:1015A000690050726F62696E67206D6573682070A4
:1015B0006F696E742000202844525952554E2900FC
:1015C000473239204175746F20426564204C65763E
:1015D000656C696E67003F20284C2C522C462C42CB
:1015E00029206F7574206F6620626F756E64732E8C
:1015F0000A003F2856296572626F7365206C657614
:10160000656C20696D706C61757369626C6520280A
:10161000302D34292E0A00426164205A2076616CF4
:1016200075650A004E6F2062696C696E6561722093
:10163000677269640A00446576696174696F6E0057
:1016400025533A202573005374616E6461726420DF
:10165000446576696174696F6E3A20002052616E4C
:1016600067653A20004D65616E3A200046696E69F3
:1016700073686564210A002072616E67653A200014
:10168000207369676D613A2000206D65616E3A20B4
:10169000003A207A3A2000206F662000476F696E7A
:1016A0006720746F3A20580043570A00206469721B
:1016B0003A0020616E676C653A0053746172742061
:1016C0007261646975733A004D343820506F696EE9
:1016D000740025533A2025642F256400506F7369E8
:1016E00074696F6E696E67207468652070726F62CE
:1016F000652E2E2E0A003F4E756D626572206F6654
:10170000206C65677320696E206D6F76656D656E00
:1017100074206E6F7420706C61757369626C6520E3
:1017200028302D3135292E0A003F2028582C5929E0
:10173000206F7574206F6620626F756E64732E0A59
:10174000003F53616D706C652073697A65206E6F20
:101750007420706C61757369626C652028342D3556
:1017600030292E0A004D3438205A2D50726F626590
:10177000205265706561746162696C697479205486
:101780006573740A0000FE0003FF8007C7C00701ED
:10179000E00000E00000F00000700400700E007037
:1017A0001F00703F80F00E00E00F01E007C7C0038C
:1017B000FF8000FE0000FE0003FF8007C7C00F018E
:1017C000E00E00E03F80F01F00700E00700400701B
:1017D0000000700000F00000E00701E007C7C00350
:1017E000FF8000FE000E000E000E000E000E000E28
:1017F000000E000E007FC03F801F000E000400049A
:10180000000E001F003F807FC00E000E000E000E75
:10181000000E000E000E000E00FFFFFF7F80FFC0D5
:10182000FFC0FFC07F807F80FFC0FFC0FFC03F00C0
:101830001E000C0052756E6F75742044697374201D
:101840006D6D004C6F6164206D6D00556E6C6F6145
:1018500064206D6D0046696C2E204469612E004540
:1018600020696E206D6DC2B3004D33303320553189
:10187000204525692053256900504944204175744D
:101880006F74756E65202A005049442D44202A004B
:101890005049442D49202A005049442D50202A0007
:1018A00020082046616374002008204D61780020E4
:1018B00008204D696E004175746F74656D7000503D
:1018C000726F62652059204F6666736574005072AE
:1018D0006F62652058204F666673657400452073FB
:1018E000746570732F6D6D005A2053746570732F7B
:1018F0006D6D00592053746570732F6D6D00582005
:1019000053746570732F6D6D00496E697400507269
:101910006F6265204F66667365747300416363652B
:101920006C65726174696F6E0056656C6F63697483
:1019300079005A2056616C756500496E646578209F
:101940005900496E646578205800466164652048F6
:1019500065696768740045646974204D6573680043
:101960004732380A473239004C6576656C2042654B
:1019700064004572723A207574663820666F6E7422
:10198000206E6F7420696E697469616C697A656430
:101990002E00000C0F00FE07022603BC017FFE088C
:1019A000FE08FE05080806000040F0C88888987800
:1019B00010050808060000C0F88888888888F8059F
:1019C00005050600012030F8302005080806000053
:1019D0002070F820202020E00509090600FF207073
:1019E000A8A8B888887020050606060001E08CEAE1
:1019F0008C8A0A0509090600FFF8A8888888888863
:101A0000A8F8050A0A0600FE205050505088A8A8E1
:101A1000887003030306000340A040FFFFFFFFFFA1
:101A2000FFFFFFFFFFFFFFFFFFFFFFFFFFFFFFFFC6
:101A3000FF0000000605FF01070706020080808006
:101A400080800080030303060105A0A0A005060610
:101A500006000050F85050F8500509090600FF2014
:101A600070A8A07028A87020050707060000C8C845
:101A7000102040989805070706000040A0A040A845
:101A800090680103030602058080800309090601AE
:101A9000FF2040408080804040200309090601FF6C
:101AA000804040202020404080050707060000209D
:101AB000A8702070A8200505050600012020F82048
:101AC000200203030601FFC0408005010106000358
:101AD000F8020202060100C0C00507070600000860
:101AE000101020404080050707060000708898A865
:101AF000C8887003070706010040C040404040E02E
:101B0000050707060000708808102040F805070741
:101B1000060000F808103008887005070706000066
:101B200010305090F81010050707060000F880F0FC
:101B300008088870050707060000304080F0888894
:101B400070050707060000F8081010202020050780
:101B500007060000708888708888700507070600EF
:101B60000070888878081060020505060100C0C072
:101B700000C0C00206060601FFC0C000C0408003CE
:101B800005050601012040804020050303060002F0
:101B9000F800F80305050601018040204080050794
:101BA00007060000708810202000200507070600A7
:101BB000007088B8A8B88070050707060000708814
:101BC00088F8888888050707060000F048487048AC
:101BD00048F005070706000070888080808870053F
:101BE0000707060000F04848484848F00507070680
:101BF0000000F88080F08080F8050707060000F8F4
:101C00008080F08080800507070600007088808053
:101C1000988870050707060000888888F8888888F3
:101C2000030707060100E04040404040E005070789
:101C3000060000381010101090600507070600001D
:101C40008890A0C0A09088050707060000808080CB
:101C5000808080F805070706000088D8A888888853
:101C6000880507070600008888C8A898888805079F
:101C700007060000708888888888700507070600B6
:101C800000F08888F08080800507070600007088D3
:101C90008888A89068050707060000F08888F0A0EB
:101CA0009088050707060000708880700888700516
:101CB0000707060000F8202020202020050707063F
:101CC00000008888888888887005070706000088D3
:101CD0008888885050200507070600008888888873
:101CE000A8A850050707060000888850205088885B
:101CF00005070706000088885020202020050707D8
:101D0000060000F80810204080F80309090601FFCA
:101D1000E080808080808080E005070706000080EA
:101D20004040201010080309090601FFE020202090
:101D300020202020E005030306000520508805012F
:101D4000010600FEF8030303060105804020050597
:101D500005060000700878887805070706000080EF
:101D600080F0888888F0050505060000708080886E
:101D70007005070706000008087888888878050538
:101D8000050600007088F080700507070600003027
:101D90004840E04040400507070600FE70888888FC
:101DA0007808700507070600008080F0888888881A
:101DB0000307070601004000C0404040E004090955
:101DC0000601FE1000301010101090600507070685
:101DD000000080808890E09088030707060100C01B
:101DE0004040404040E0050505060000D0A8A8A8F6
:101DF000A8050505060000B0C88888880505050601
:101E0000000070888888700507070600FEF0888843
:101E100088F080800507070600FE788888887808A3
:101E200008050505060000B0C88080800505050688
:101E3000000078807008F00507070600002020F8F1
:101E40002020201805050506000088888898680568
:101E50000505060000888888502005050506000055
:101E60008888A8A8500505050600008850205088DD
:101E70000507070600FE8888885020408005050574
:101E8000060000F8102040F80309090601FF204071
:101E9000404080404040200109090602FF808080C8
:101EA0008080808080800309090601FF80404040D7
:101EB000204040408005030306000248A890FF240C
:101EC000F4D43050C38E20C2A24017828B701112FE
:101ED0007A910D816CD90AA861E108C7586607613B
:101EE0005143061E4B5D05C145A7041A4111040963
:101EF0003D9803713931034036DB0265339102D4DA
:101F0000305402802E1D02632CEE01752AC501B0EB
:101F100028A001102781018F2564012B244B01E0AB
:101F2000223401AC211F018D200D01801FFC008493
:101F30001EED00971DDF00B81CD200E61BC6002076
:101F40001BBC00641AB200B219A8000A19A0006AEA
:101F5000189900D117910040178B00B516840031F5
:101F6000167E00B31579003A157300C7146F005838
:101F7000146A00EE1366008813630025135E00C721
:101F8000125B006C12570015125400C11151007001
:101F9000114F0021114B00D61049008D104700460B
:101FA00010440002104200C00F4000800F3E00426B
:101FB0000F3C00060F3B00CB0E3800930E37005C41
:101FC0000E3500270E3400F30D3200C10D310090A4
:101FD0000D3000600D2E00320D2D00050D2C00D9A6
:101FE0000C2B00AE0C2900850C29005C0C27003559
:101FF0000C27000E0C2600E80B2400C40B2400A0C4
:102000000B23007D0B23005A0B2100390B210018F4
:102010000B2000F80A1F00D90A1E00BB0A1E009DF3
:102020000A1D00800A1D00630A1C00470A1B002CC1
:102030000A1B00110A1A00F7091A00DD091900C469
:10204000091900AB091900920917007B09180063F0
:102050000917004C09160036091600200916000A57
:10206000091500F5081500E0081400CC081400B8A4
:10207000081400A4081400900813007D0812006BD7
:1020800008130058081200460812003408110023F3
:102090000811001208110001081100F0071000E0FB
:1020A000071000D0071000C0071000B0070F00A1F4
:1020B00007100091070E0083070F0074070F0065DB
:1020C000070E0057070E0049070E003B070D002EB4
:1020D000070E0020070D0013070D0006070D00F97D
:1020E000060C00ED060D00E0060C00D4060C00C83E
:1020F000060C00BC060C00B0060C00A4060B0099F0
:10210000060C008D060B0082060B0077060B006C98
:10211000060B0061060A0057060B004C060A004237
:10212000060A0038060A002E060A0024060A001ACB
:10213000060A001006090007060A00FD050900F45A
:10214000050900EB050900E2050900D9050900D0E1
:10215000050900C7050900BE050900B5050800AD61
:10216000050800A50509009C050800940508008CD9
:10217000050800840508007C050800740508006C4B
:10218000050700650508005D050700560508004EB7
:10219000050700470507004005080038050700311E
:1021A0000507002A050700230507001C0506001681
:1021B0000507000F0507000805060002050700FBDC
:1021C000040600F5040700EE040600E8040600E239
:1021D000040700DB040600D5040600CF040600C98E
:1021E000040600C3040600BD040600B7040600B1DF
:1021F000040500AC040600A6040600A00405009B2C
:1022000004060095040500900406008A0405008574
:10221000040500800406007A0405007504050070BA
:102220000405006B04050066040500610405005CFC
:1022300004050057040500520405004D040500483C
:10224000040500430405003E0404003A040500357B
:10225000040500300404002C0405002704040023B6
:102260000405001E0404001A0404001604050011ED
:102270000404000D04040009040500040404000023
:10228000040400FC030400F8030400F4030400F059
:10229000030400EC030400E8030400E4030400E08A
:1022A000030400DC030400D8030400D4030400D0BA
:1022B000030400CC030400C8030300C50303002487
:1022C000F404D9201BC40C5C0E9804C4095F026599
:1022D000077101F405F900FB04B30048048700C14D
:1022E0000369005803550003034500BE023A008409
:1022F00002310053022A002902250004022000E4D2
:10230000011C00C8011900AF0117009801140084D6
:10231000011300710110006101100051010E004312
:10232000010D0036010B002B010B0020010B0015E5
:102330000109000C01090003010800FB000800F37B
:10234000000800EB000700E4000600DE000600D8ED
:10235000000600D2000600CC000500C7000500C240
:10236000000500BD000400B9000400B5000400B180
:10237000000400AD000400A9000400A5000300A2B1
:102380000003009F0004009B0003009800030095D9
:1023900000020093000300900003008D0002008BF8
:1023A0000003008800020086000200840003008110
:1023B0000002007F0002007D0002007B0002007925
:1023C0000002007700010076000200740002007233
:1023D000000100710002006F0002006D0001006C3E
:1023E0000002006A00010069000200670001006647
:1023F000000100650001006400020062000100614C
:10240000000100600001005F0002005D0001005C4F
:102410000001005B0001005A000100590001005852
:102420000001005700010056000100550001005452
:102430000001005300000053000100520001005150
:10244000000100500001004F0001004E0000004E4E
:102450000001004D0001004C0001004B0000004B4A
:102460000001004A00010049000100480000004846
:102470000001004700010046000000460001004541
:10248000000000450001004400010043000000433B
:102490000001004200000042000100410000004134
:1024A000000100400001003F0000003F0001003E2D
:1024B0000000003E0001003D0000003D0001003C26
:1024C0000000003C0000003C0001003B0000003B1D
:1024D0000001003A0000003A000100390000003914
:1024E000000100380000003800000038000100370B
:1024F0000000003700010036000000360000003602
:1025000000010035000000350000003500010034F6
:1025100000000034000000340001003300000033EC
:1025200000000033000100320000003200000032E1
:1025300000010031000000310000003100010030D6
:1025400000000030000000300001002F0000002FCC
:102550000000002F0000002F0001002E0000002EC0
:102560000000002E0001002D0000002D0000002DB5
:102570000000002D0001002C0000002C0000002CA9
:102580000000002C0001002B0000002B0000002B9D
:102590000000002B0001002A0000002A0000002A91
:1025A0000000002A00010029000000290000002985
:1025B0000000002900000029000100280000002878
:1025C000000000280000002800000028000100276B
:1025D000000000270000002700000027000000275F
:1025E0000001002600000026000000260000002652
:1025F0000000002600010025000000250000002545
:102600000000002500000025000000250001002436
:10261000000000240000002400000024000000242A
:10262000000100230000002300000023000000231D
:10263000000000230000002300000023000100220E
:102640000000002200000022000000220000002202
:1026500000000022000100210000002100000021F4
:1026600000000021000000210000002100000021E6
:1026700000010020000000200000002000000020D9
:1026800000000020000000200000002000000020CA
:102690000001001F0000001F0000001F0000001FBD
:1026A0000000001F0000001F0000001F0001001EAE
:1026B0000000001E0000001E0000001E0000003987
:1026C0003000003325000087190000B00F0000DB48
:1026D000080000BD040000740200003F0100005328
:1026E000657474696E67732053746F72656400203B
:1026F00062797465733B2063726320005365747460
:10270000696E67732053746F7265642028004545B5
:1027100050524F4D206461746173697A652065720F
:10272000726F722E0A002073746F72656420736575
:102730007474696E67732072657472696576656416
:10274000202800202863616C63756C6174656429BE
:10275000210A0020213D2000454550524F4D204385
:102760005243206D69736D61746368202D20287356
:10277000746F726564292000496E6465783A2000A0
:10278000204D61726C696E3D563831290A0045450D
:1027900050524F4D2076657273696F6E206D69736C
:1027A0006D617463682028454550524F4D3D004887
:1027B000617264636F6465642044656661756C74FE
:1027C0002053657474696E6773204C6F616465642F
:1027D0000A003B200000803B4400803B4400007026
:1027E00041000096420000A0420000A0420000C844
:1027F000430080CF43D0070000D0070000640000F2
:1028000000881300000000000000000060000000CD
:102810000000FC00000FF00000000007E0000000D6
:102820000001861FC018700000000000603C0C0012
:102830000001830C6010300000000000603C0C00C0
:102840000001830C303030000000000060000C00FC
:102850000000030C183000000000000060003F0F73
:102860003C00030C0C6001DF0FE0FE00601C1C0646
:102870001800060C0C6000F318318300600C0C0388
:1028800018001E0C0C6000E030398300600C0C0353
:102890003000030C0C6000C030380F00600C0C03DB
:1028A0003000018C0C6000C03FF8FB00600C0C0392
:1028B0003000018C0C6030C030018300600C0C01D2
:1028C000F001818C0C6030C030018300600C0C0082
:1028D000E001818C183030C018318300600C0C404E
:1028E000E001838C301860C00C6187C0E01C0CC014
:1028F0006000C30C600FC3F007C0FFC7FC7F0781F7
:10290000C0007E1FC00000000000000000000007A3
:1029100000000000000000000000000000000007B0
:1029200000000000001FFFFFFFFFFFFF600000002E
:102930000001FF400000000000FF800000000000D8
:102940007F83CF00000C303F87FF80000C301F8654
:102950007980000C000F8C30C7838C30E78C30CF2F
:10296000C7CC31F38C30DCECEC33B98C30D86C6CE8
:1029700033198C30D06C0C33198C30D86C0C331963
:102980008C30DC6C0E3B198C30CF7C079F198C305F
:10299000C77C038F194000000000000260000000A7
:1029A0000000061FFFFFFFFFFFF870012C019001E0
:1029B0002701B0012201C0011D01F0011801100220
:1029C000130130020E016002090190020401C002ED
:1029D000FF000003FA004003F5008003F000D0037D
:1029E000EB002004E6007004E100E004DC00400598
:1029F000D700C005D2004006CD00D006C800800731
:102A0000C3003008BE00F008B900C009B400B00A25
:102A1000AF00B00BAA00D00CA500000EA000500F14
:102A20009B00C01096005012910000148C00C0153D
:102A30008700B0178200B0197D00D01B7800001EFF
:102A4000730040206E0090226900F024640040274B
:102A50005F0090295A00E02B5500102E50002030C6
:102A60004B0010324600E033410090353C001037F7
:102A7000370070383200A0392D00B03A2800A03B52
:102A80002300603C1E00103D1900903D1400103ED4
:102A90000F00703E0A00C03E0500003F0000403FAE
:102AA000FBFF803FF6FFC03FF1FF68747470733A1C
:102AB0002F2F6D61726C696E66772E6F72670032B0
:102AC0002E302E362D46695A69002020506C616EDA
:102AD0006E657242756666657242797465733A20F6
:102AE000002046726565204D656D6F72793A200051
:102AF000436F6D70696C65643A20417567203139A8
:102B000020323032300A00204C61737420557064DA
:102B1000617465643A20323032302D30382D3139CD
:102B20002031323A3232207C20417574686F723A1B
:102B30002046695A692C20435231302D56332C20BF
:102B40006261736564206F6E206672616E367020FC
:102B5000435231302D5632206578616D706C65734B
:102B60000A00322E302E362D46695A690A004D6110
:102B7000726C696E0020536F6674776172652052C3
:102B8000657365740A00205761746368646F672019
:102B900052657365740A002042726F776E206F75FC
:102BA000742052657365740A002045787465726EEE
:102BB000616C2052657365740A00506F77657255B9
:102BC000700A006175746F25632E67004D313030D7
:102BD00031006572726F722077726974696E672056
:102BE000746F2066696C650A00446F6E65207361BE
:102BF00076696E672066696C652E0A004D32390071
:102C00002553202563202563202563202563006547
:102C10006E6473746F7073206869743A2000496E33
:102C200076616C69642065787472756465720A00F7
:102C300048656174696E67204661696C6564004827
:102C4000656174696E67206661696C6564004D3109
:102C500031322053687574646F776E00202D2049DF
:102C60006E76616C69642065787472756465722033
:102C70006E756D62657220210A00544845524D41BF
:102C80004C2052554E4157415900546865726D6150
:102C90006C2052756E61776179004572723A204DF1
:102CA000415854454D50004D415854454D502074A5
:102CB0007269676765726564004572723A204D49B2
:102CC0004E54454D50004D494E54454D5020747260
:102CD0006967676572656400202F002042403A00F2
:102CE00020403A0020573A0052756E6F7574205399
:102CF000656E736F7200554E4C4F41442046494CEF
:102D0000414D454E540046494C414D454E5420439B
:102D100048414E4745004D373032004D3730310085
:102D20004D363030204230005075726765206D6F2F
:102D3000726500524553554D45204F5054494F4EF2
:102D4000533A005052494E54205041555345440087
:102D500020204E6F7A7A6C653A2000256C642E250F
:102D6000696D00457874727564656420546F746190
:102D70006C004C6F6E67657374204A6F62205469F3
:102D80006D65003E2000546F74616C205072696E56
:102D9000742074696D6500436F6D706C6574656453
:102DA000005072696E7420436F756E74003132305A
:102DB000004245443A4550434F53203130304B0098
:102DC00052756E617761792057617463683A204F5C
:102DD0004E004D61782054656D7000323535004DE0
:102DE000696E2054656D700045313A204550434F5F
:102DF00053203130304B005053550047656E65729B
:102E000069630050726F746F636F6C00312E300015
:102E10004261756400323530303030004372656194
:102E20006C69747933442052414D50530042696CAF
:102E3000696E656172204C6576656C696E670045E8
:102E400078747275646572730043522D3130205668
:102E50003300323032302D30382D31392031323A92
:102E60003232005072696E746572205374617473EB
:102E700000546865726D6973746F727300426F619C
:102E8000726420496E666F005072696E74657220BC
:102E9000496E666F005061726B696E672E2E2E0050
:102EA00000005761697420666F720066696C616D1D
:102EB000656E74206368616E676500746F2073745B
:102EC000617274005761697420666F720066696C84
:102ED000616D656E7420756E6C6F616400004E6F7D
:102EE0007A7A6C652068656174696E6700506C65FC
:102EF00061736520776169742E2E2E000050726513
:102F0000737320627574746F6E00746F20686561EE
:102F100074206E6F7A7A6C650000496E7365727406
:102F20002066696C616D656E7400616E64207072FC
:102F300065737320627574746F6E00746F20636FB5
:102F40006E74696E7565005761697420666F7200F2
:102F500066696C616D656E74206C6F616400005011
:102F60007265737320427574746F6E00746F207293
:102F70006573756D65207072696E740000576169C4
:102F80007420666F72207072696E7400746F2072A4
:102F90006573756D652E2E2E00005761697420666D
:102FA0006F720066696C616D656E74207075726712
:102FB0006500007C3C3E5E2B3D3F2F5B5D3B2C2A39
:102FC000225C004D3834004175746F20486F6D6588
:102FD0000054656D70657261747572650050726F32
:102FE0006265205A204F6666736574004D61696E94
:102FF0000044697361626C6520537465707065721A
:1030000073004732380A4D343820503130004D3487
:10301000382050726F6265205465737400473238EF
:103020005A00486F6D65205A004732385900486F82
:103030006D652059004732385800486F6D6520583B
:10304000004732380050726568656174202420455D
:103050006E64005072656865617420242042656466
:1030600000436F6F6C646F776E0046616E20537023
:10307000656564207E00466C6F7700436F6E6669FD
:103080006775726174696F6E0043616E63656C2071
:103090004F626A6563740043616E63656C004F66DE
:1030A00066004F6E004D6F74696F6E004D323100D7
:1030B0004368616E6765204D656469610041626FB8
:1030C0007574205072696E74657200526573756D07
:1030D00065205072696E74004E6F204D65646961A1
:1030E0000054756E650053746F70205072696E7471
:1030F000005061757365205072696E7400496E6688
:103100006F2053637265656E005374617274205052
:1031100072696E740043616E6E6F7420656E7465C3
:1031200072207375626469723A2000022E2E005379
:103130006F667420456E6473746F707300507269AB
:103140006E74205061757365640020746F6F206C1D
:103150006F6E6720657874727573696F6E20707218
:103160006576656E7465640A0020636F6C64206523
:103170007874727573696F6E2070726576656E749F
:1031800065640A00626567696E00627574746F6ECB
:1031900000436F6E74696E7565004C6F6164204604
:1031A000696C616D656E74205400496E736572744C
:1031B0002066696C616D656E7420616E6420736554
:1031C0006E64204D3130380A00220A00556E6B6E55
:1031D0006F776E20636F6D6D616E643A20220043DD
:1031E000522D31302056332052656164792E0050C3
:1031F00072696E74696E672E2E2E00205A3A002076
:10320000593A002053697A653A200043616E6E6F27
:1032100074206F70656E207375626469722000534C
:10322000442063617264206F6B0A006F70656E5298
:103230006F6F74206661696C65640A00766F6C75E7
:103240006D652E696E6974206661696C65640A003B
:103250004E6F20534420636172640A004D32332064
:1032600025730046696C652073656C6563746564DD
:103270000A0046696C65206F70656E65643A2000CF
:10328000454E4420535542524F5554494E450A002D
:103290002220706F73002220706172656E743A2272
:1032A00000535542524F5554494E452043414C4CD2
:1032B000207461726765743A220053756263616CB1
:1032C0006C204F766572666C6F7700457863656534
:1032D000646564206D617820535542524F555449BE
:1032E0004E452064657074683A310A0057726974FB
:1032F000696E6720746F2066696C653A20005344DC
:10330000207072696E74696E67206279746520003E
:103310004E6F74205344207072696E74696E670A30
:1033200000667265736800646F696E67004E6F7740
:10333000200000000000000000000000000000006D
:103340004842000048420000C0400202040000A0C1
:10335000400000A0400000004000009B4300009B94
:10336000430000C843FFFFFF000000010000000110
:1033700000008000555555000000400033333300F5
:10338000AAAA2A004992240000002000C7711C004C
:1033900099991900D1451700555515003BB11300F7
:1033A0002449120011111100000010000F0F0F002E
:1033B000E3380E0043790D00CCCC0C00C3300C0078
:1033C000E8A20B0064210B00AAAA0A00703D0A00C3
:1033D0009DD80900427B090092240900DCD3080033
:1033E000888808001042080000000800F0C10700AB
:1033F0008787070075500700711C07003EEB060029
:10340000A1BC06006990060066660600703E0600D4
:103410006118060017F4050074D105005BB00500C3
:10342000B290050062720500555505007839050017
:10343000B81E0500050505004EEC040087D4040005
:10344000A1BD040090A7040049920400C17D0400BE
:10345000EE690400C7560400444404005C320400D2
:103460000821040041100400000004003FF00300A4
:10347000F8E0030026D20300C3C30300CCB5030069
:103480003AA803000A9B0300388E0300C0810300A2
:103490009F750300D0690300505E03001D530300B5
:1034A00034480300913D0300333303001629030021
:1034B000381F030097150300300C030003030300BB
:1034C0000BFA020049F10200BAE802005CE00200D7
:1034D0002DD802002DD0020059C80200B0C0020051
:1034E00031B90200DAB10200AAAA0200A0A30200C8
:1034F000BC9C0200FA9502005C8F0200DF8802008B
:1035000082820200457C02002776020027700200BA
:10351000436A02007C640200D05E02003F59020050
:10352000C8530200FFFDFCFAF8F6F4F2F0EEECEA04
:10353000E9E7E5E3E1E0DEDCDAD9D7D5D4D2D0CFD4
:10354000CDCBCAC8C7C5C3C2C0BFBDBCBAB9B7B668
:10355000B4B3B2B0AFADACAAA9A8A6A5A4A2A1A0CD
:103560009E9D9C9A99989795949392908F8E8D8B0F
:103570008A8988878684838281807F7E7D7B7A7931
:103580007877767574737271706F6E6D6C6B6A6933
:103590006867666564636261605F5E5D5C5B5A5923
:1035A00058585756555453525150504F4E4D4C4BFE
:1035B0004A4A4948474646454443424241403F3EC5
:1035C0003E3D3C3B3B3A393838373635353433327B
:1035D000323130302F2E2E2D2C2B2B2A2929282723
:1035E0002726252524232322212120201F1E1E1DBE
:1035F0001C1C1B1B1A19191818171616151514134D
:103600001312121111100F0F0E0E0D0D0C0C0B0AD0
:103610000A0909080807070606050504040303024A
:10362000020100005761726E696E673A20486F6D43
:10363000696E672042756D702044697669736F7298
:10364000203C20310A0020520020204D363033200B
:103650000020204D34313220530046696C616D6585
:103660006E742072756E6F75742073656E736F72F1
:103670003A0020550046696C616D656E74206C6F70
:1036800061642F756E6C6F6164206C656E67746821
:10369000733A0020204D3835312058005A2D507291
:1036A0006F6265204F66667365740020204D33306D
:1036B0003420500020204D333031205000504944F8
:1036C0002073657474696E67733A00204600204861
:1036D0000020204D3134352053004D6174657269EE
:1036E000616C2068656174757020706172616D65D0
:1036F000746572733A00204A0020204732392057FF
:1037000020490020204D3432302053004175746F21
:1037100020426564204C6576656C696E673A0020CE
:10372000204D323035204200416476616E6365641D
:103730003A20423C6D696E5F7365676D656E745FBC
:1037400074696D655F75733E20533C6D696E5F668D
:10375000656564726174653E20543C6D696E5F748A
:10376000726176656C5F66656564726174653E2042
:10377000583C6D61785F785F6A65726B3E20593C9A
:103780006D61785F795F6A65726B3E205A3C6D614E
:10379000785F7A5F6A65726B3E20453C6D61785F49
:1037A000655F6A65726B3E0020204D3230342050D8
:1037B00000416363656C65726174696F6E20287582
:1037C0006E6974732F7332293A20503C7072696E9F
:1037D000745F616363656C3E20523C726574726114
:1037E00063745F616363656C3E20543C7472617600
:1037F000656C5F616363656C3E0020204D32303143
:103800002058004D6178696D756D20416363656C6A
:1038100065726174696F6E2028756E6974732F7399
:1038200032293A0020204D3230332058004D617843
:10383000696D756D206665656472617465732028B5
:10384000756E6974732F73293A0053746570732011
:1038500070657220756E69743A0020440020204D16
:103860003230302053002044697361626C65640A11
:103870000046696C616D656E742073657474696E61
:1038800067733A0020204D3134392043203B2055C6
:103890006E69747320696E2043656C736975730A71
:1038A0000020286D6D290020204732312020202063
:1038B0003B20556E69747320696E206D6D00486FF2
:1038C0006D696E67204661696C6564006F70656E36
:1038D000005452494747455245440066696C616D42
:1038E000656E74007A5F6D696E00795F6D696E0058
:1038F000785F6D696E005265706F7274696E6720D3
:10390000656E6473746F70207374617475730A00EC
:10391000486F6D6520257325732573204669727382
:103920007400416363656C65726174696F6E3A20FF
:1039300050005741524E494E4721204C6F77205A34
:10394000204A65726B206D6179206C65616420741A
:103950006F20756E77616E74656420706175736534
:10396000732E0A00204D393220580020204D6178F6
:103970003A200020204D696E3A2000536F66742073
:10398000656E6473746F70733A2000496E76616C73
:1039900069642050696E204D6F64650A0020496E8D
:1039A00076616C6964206578747275646572200054
:1039B0003F00496E697469616C697A6520454550BC
:1039C000524F4D006E6F74696669636174696F6E02
:1039D000200063616E63656C005072696E742041F3
:1039E000626F72746564004469736D697373005526
:1039F000492041626F72746564004D323520500A6F
:103A00004D323400526573756D6500554920506123
:103A10007573650050617573696E672E2E2E007286
:103A20006573756D6500454550524F4D2056657262
:103A300073696F6E204572726F7200454550524F28
:103A40004D20496E646578204572726F720045455D
:103A500050524F4D20435243204572726F720049BD
:103A6000676E6F7265001FE020102010201010207C
:103A700010202010201030300840048003001FE088
:103A80003FF03FF03FF01FE01FE03FF03FF03FF01E
:103A90000FC0078003003FFFF038007030FC30207B
:103AA000FC102078102030102C00D02E31D02F7B2D
:103AB000D02F7BD02E31D02C00D020301020781089
:103AC00020FC1030FC303800703FFFF03FFFF03832
:103AD00000703186302387102787902F87D02F03DF
:103AE000D02030102078102078102030102F03D0F4
:103AF0002F87D02787902387103186303800703F7A
:103B0000FFF01FFFF81FFFF8041040020820020812
:103B1000200410400820801041001041000820803F
:103B20000410400000001FFFF81FFFF80000000015
:103B30001E000000002100000000271DC08C00278F
:103B40002121920041212092008E21CE92009021CD
:103B50002092011021209201201D21CC0220000082
:103B600000041001130008100114801008011080D7
:103B7000200400A30047F200A08043E2004480201C
:103B80000400430018D8000000198400000021FC44
:103B90000000003F002568753A2530326875002521
:103BA000303268753A253032687500202020202098
:103BB0002020004C6F61642053657474696E6773D4
:103BC0000053746F72652053657474696E67730077
:103BD000416476616E6365642053657474696E67D1
:103BE00073004E4F005945530043616E63656C206E
:103BF0004F626A656374203D0053746F77005357BA
:103C00002D4D6F6465004465706C6F790053656C71
:103C1000662D546573740046616E2053706565644B
:103C200000526573746F72652044656661756C74CB
:103C3000730050726568656174202420436F6E665E
:103C400000424C546F756368004D37303220542564
:103C500064004D36303020423020542564004D370A
:103C60003032203B2564004D37303120542564002C
:103C70005654726176204D696E00566D696E00561D
:103C80006D6178204500566D6178205A00566D614F
:103C900078205900566D6178205800416D61782078
:103CA0004500416D6178205A00416D6178205900CE
:103CB000416D6178205800412D54726176656C0029
:103CC000412D5265747261637400416363656C00D9
:103CD00056652D4A65726B00565A2D4A65726B0007
:103CE00056592D4A65726B0056582D4A65726B0005
:103CF000456E636C6F73757265006F70656E2066DC
:103D000061696C65642C2046696C653A20005072CC
:103D1000696E742066726F6D204D65646961005034
:103D2000726F62696E67204661696C656400205A33
:103D30003A200020593A200042656420583A200079
:103D40005045544700504C41004D6F766520257317
:103D50006D6D004D6F766520302E316D6D004D6FAD
:103D6000766520316D6D004D6F76652031306D6D5B
:103D7000004D6F7665204178697300486F74656EF9
:103D80006420746F6F20636F6C6400457874727583
:103D9000646572004D6F7665205A004D6F76652020
:103DA00059004D6F76652058004368616E67652045
:103DB00046696C616D656E7400556E6C6F61642050
:103DC00046696C616D656E74004C6F616420466974
:103DD0006C616D656E740050726568656174204336
:103DE0007573746F6D00507265686561742024008E
:103DF0004261636B0000002100240027002A002D8F
:103E0000003000330001010000040107010A010035
:103E1000002200250028002B002E00310034000273
:103E2000010000050108010B01000020002300260D
:103E30000029002C002F00320000010000030106C1
:103E40000109010505050507050808080802020221
:103E5000020A0A0808040404040101010101010125
:103E6000010303030303030303040707070C0C0CFC
:103E70000C0C0C0C0C0202020206060606060606D4
:103E8000060B0B0B0B0B0B0B0B0102102020080871
:103E900010204010204080020102010804020101AC
:103EA0000204081020408080402010080402018095
:103EB00004020180402010080402010804020101EC
:103EC00002040810204080010204081020408000F5
:103ED000000A0B02090C0D0E080703040100000084
:103EE00000000000000000000000000000000000D2
:103EF000000000000000000000000012111000008F
:103F000000000000000000000000000000000000B1
:103F10000000000000453D403D446966663A2020AF
:103F2000200046726F6D5374703A00537465707060
:103F300065723A00556E4C6576656C3A004C657654
:103F4000656C65643A005261773A20202020000AAF
:103F50004C6F676963616C3A00436F756E742045FE
:103F60003A004361703A0020436F756E7420583AEE
:103F700000453100626564002C2073797374656DAF
:103F80002073746F70706564212048656174657278
:103F90005F49443A20000B02D30211241FBECFEF29
:103FA000D1E2DEBFCDBF00E00CBF13E0A0E0B2E085
:103FB000EAEDF8ED02E00BBF02C007900D92A032CF
:103FC000B107D9F727E1A0E2B3E001C01D92AB32FF
:103FD000B207E1F71FE1CCECDFE100E006C021977A
:103FE0000109802FFE010F94BE68CB3CD10780E011
:103FF0000807A9F70F94B5500D945B6C0C94000062
:104000002F923F924F925F926F927F928F929F92E8
:10401000AF92BF92CF92DF92EF92FF920F931F93D6
:10402000CF93DF93CDB7DEB7E6970FB6F894DEBF38
:104030000FBECDBF8DAB2091C6072CAB11E0109306
:10404000C607809121048D3409F44CC3843511F4E2
:104050000C94C030873411F00C94D23080911F043E
:10406000909120048B31910509F41BC1B4F4843084
:10407000910534F482309105E4F597FF2EC02EC3EC
:104080008531910511F40C94D4308A31910509F4ED
:1040900004C1049709F022C3C1C08A32910509F412
:1040A0003DC24CF48D319105B1F00CF415C14E9721
:1040B00009F45EC113C38B35910509F4D8C18C3561
:1040C000910509F4D9C18A35910509F007C3109209
:1040D0002F030C94D43014E02DC180914A07813015
:1040E00011F00C94D4300F948D0A0F9430010C947D
:1040F000D43020914A07213011F00C94D43011E0D3
:10410000029709F010E00F948D0A19821A821B821F
:104110001C821D821E821F82188682E50E94C54570
:10412000882309F44BC00E9445456B017C0120E0C7
:1041300030E0A9010F94C361882309F455C0809130
:104140001A0890911B08A0911C08B0911D0888A71F
:1041500099A7AAA7BBA780911E0890911F08A091BC
:104160002008B091210888AB99ABAAABBBAB80907B
:10417000C9169090CA16A090CB16B090CC1640905D
:10418000CD165090CE166090CF167090D016A50127
:10419000940168A579A58AA59BA50F94C361811197
:1041A0000C94DD30A301920168A979A98AA99BA981
:1041B0000F94C3618823C1F00C94DD3089E40E9420
:1041C000C545882331F00E94454569837A838B83F6
:1041D0009C838AE40E94C545882331F00E944545AE
:1041E0006D837E838F83988720E030E0A901698109
:1041F0007A818B819C810F94C36181110C949131E0
:1042000020E030E0A9016D817E818F8198850F9437
:10421000C36181110C9491310C94B93180E50E94F5
:10422000C545882329F00E94CF6F6B017C0103C034
:10423000C12CD12C760183E50E94C545882361F00D
:104240000E94454520E030E04AE754E40F9429629B
:104250000F943A6A6B017C010E9468FA8091C70F43
:10426000811105C060E086E297E00F947A180F9400
:104270007B4BC60ED71EE81EF91E0F947B4BDC014C
:10428000CB018C199D09AE09BF09B7FD02C00C9482
:10429000D43080E00E94E939F0CF0E94F6450C94BA
:1042A000D43087E00F94390081110C94D4308CE025
:1042B000EBE8F2E0DE01119601900D928A95E1F7AC
:1042C00060E070E080E50F94790FBE016F5F7F4F73
:1042D0000F9436170C94D43080910C0F8770873070
:1042E00011F00C94C03160E08FE40E94E14581112F
:1042F0000C94D4300C94C0318091160F81112AC0D7
:104300000E945076882361F1115011F40C949B3374
:1043100020E030E047EE59E36EE877E085E00E9468
:10432000A16A61E081E897E00E944E6A82E597E029
:104330000F94614F0F947B4B60935D0770935E0702
:1043400080935F079093600787E00F94390088237C
:1043500099F206C060E08FE40E94E145882381F273
:104360000E94726A8DE198E00F94614F0C94D430F2
:104370002091DB163091DC164091DD165091DE164F
:1043800060911A0870911B0880911C0890911D087B
:104390000F94C768AB01BC0188E50E94C0526983D5
:1043A0007A838B839C832091DF163091E0164091B5
:1043B000E1165091E21660911E0870911F088091DD
:1043C0002008909121080F94C768AB01BC0189E5D2
:1043D0000E94C0526D837E838F839887BE016B5F7E
:1043E0007F4FCE0101960E940870882311F40C942F
:1043F000D43080E00E94F4650F94060461E085E407
:104400000E94E145182F21E0482FBE016B5F7F4FCE
:10441000CE0101960F94F4426B017C019B01AC012B
:104420000F94B96B811119C049815A816B817C81CC
:1044300088E39DE30E94896B4D815E816F81788561
:1044400083E39DE30E94896BB701A6018EE29DE3A1
:104450000E94896B8AE00E94BD380F94ED031130F1
:1044600011F40E94EE6F0F9456060C94D4308FE036
:1044700080932F030C94D430BEEDCB2EB2E0DB2E14
:104480001AE1E12E18E0F12E00E0312C10E0D60107
:104490008D916D010E94C545882359F10E944545C3
:1044A0004B015C01F70120813181428153810F94DE
:1044B000C6682B013C012DEB37E346E855EB0F9422
:1044C000276B87FD0AC02DEB37E346E855E3C301B0
:1044D000B2010F94C361181664F4133011F401E0B3
:1044E00002C033243394D7018D929D92AD92BC9239
:1044F00013971F5FB4E0EB0EF11C143041F633202C
:1045000019F00F94540606C0002321F086E298E0CB
:104510000E944BFE0F9456060C94D43080914A07AB
:10452000813011F00C94D43089E40E94C545E82E06
:10453000882321F00E944145082F01C000E08AE451
:104540000E94C545F82E882321F00E944145182F6E
:1045500001C010E0EE2011F0053020F4FF2041F002
:10456000153030F085E398E00E943F6A0C94D43017
:1045700080E1EAE1F8E0A9ECB6E101900D928A95BC
:10458000E1F7EE2019F1602F000F770B880B990BE4
:104590000F94CA612091270F3091280F4091290F65
:1045A00050912A0F0F9429622091520530915305A2
:1045B00040915405509155050F94C7686093C916F2
:1045C0007093CA168093CB169093CC16FF2019F1E6
:1045D000612F110F770B880B990B0F94CA612091F3
:1045E0002B0F30912C0F40912D0F50912E0F0F94C7
:1045F00029622091560530915705409158055091F8
:1046000059050F94C7686093CD167093CE168093AA
:10461000CF169093D01660E080E50E94E145882394
:10462000C1F1EE20D1F02091DB163091DC164091E3
:10463000DD165091DE166091C9167091CA168091F0
:10464000CB169091CC160F94C6686093C9167093E0
:10465000CA168093CB169093CC16FF20D1F02091F0
:10466000DF163091E0164091E1165091E21660910C
:10467000CD167091CE168091CF169091D0160F94D2
:10468000C6686093CD167093CE168093CF16909324
:10469000D01640E050E0BA0186E40E94C0526B019F
:1046A0007C0120E030E0A9010F94276B18164CF430
:1046B00020E030E040E752E4C701B6010F94C16941
:1046C00003C060E070E0CB0169837A838B839C83B5
:1046D000CE0101960F9427050C94D4300E94DDEB97
:1046E0000C94D43080911F04909120048737910559
:1046F00009F4A7C70CF01FC18C34910509F44BC411
:104700000CF09CC08A31910509F408C3BCF58431D2
:10471000910509F48CC27CF48131910509F473C2CE
:104720002CF4029708F425C20C94BD30429709F48A
:104730007EC60C94BD308731910509F49DC294F476
:104740008531910509F494C2469711F00C94BD305F
:104750000E9435F280916815877F8062809368158A
:104760000C94D4308831910509F49DC2499711F019
:104770000C94BD300F94B40E0C94D430803291055B
:1047800009F4ABC3ECF58D31910509F43CC384F415
:104790008B31910509F4D0C24C9711F00C94BD30C7
:1047A0008091AE049091AF040E9466F50C94D430D1
:1047B0008E31910509F42EC34F9711F00C94BD3042
:1047C0000E94C6AC6C8F7D8F8E8F9F8FBE016F5FF6
:1047D0007F4FCE014C960E94435860E0CE01019677
:1047E0000F9431190E948A6CBE016F5F7F4F85EE76
:1047F00098E00E94A76B8AE00E94BD380C94D430E8
:104800008033910509F4B0C364F48132910509F451
:1048100099C38A9711F00C94BD300F948C0F0C94AF
:10482000D4308934910509F4A3C38B34910511F078
:104830000C94BD300E945F360C94D4308A369105BA
:1048400009F4A8C4ACF58335910509F4E9C5BCF4B5
:104850008E34910509F4A7C30CF4A1C381359105E9
:1048600009F4C8C58235910511F00C94BD308091D2
:104870002F038F7D806180932F030C94D4308C356F
:10488000910509F4FAC554F48435910509F4CFC5AE
:104890008535910509F4CEC50C94BD308836910557
:1048A00009F413C48936910509F460C40C94BD3031
:1048B0008037910511F40C94D430D4F48D369105E1
:1048C00009F42AC45CF48B36910509F4A6C48C362D
:1048D000910511F40C94D4300C94BD308E369105B2
:1048E00009F4A8C48F36910509F4B5C40C94BD3001
:1048F0008337910509F45FC66CF48137910509F49B
:10490000EFC48237910511F00C94BD300F94F04D37
:104910000C94D4308537910509F450C6863791053B
:1049200011F00C94BD300091AE041091AF0494E0EE
:10493000F12C40E06AC68033E1E09E0711F40C944C
:10494000312E0CF079C08C3C910509F48CC774F5BC
:104950008139910509F487C684F48937910509F4F2
:104960007BC60CF471C68D37910509F440C58C38AF
:10497000910509F4D7C40C94BD30883C910509F425
:10498000E6C654F48B39910509F40BC58E3B9105AD
:1049900009F4E7C40C94BD30893C910509F41EC7A5
:1049A0008B3C910509F440C70C94BD30883121E05F
:1049B000920711F40C94022DE4F48C3D910509F456
:1049C00058C76CF48D3C910509F450C7833D91059F
:1049D00011F00C94BD300F94EE0F0C94D4308D3D3B
:1049E000910509F46DC7823E910509F4BFC70C9487
:1049F000BD308D32A1E09A0711F40C94B12D6CF406
:104A00008232E1E09E0711F40C94992D8C32914092
:104A100011F40C949C2D0C94BD308E3221E0920741
:104A200011F40C94A42E8F32914011F00C94BD30EF
:104A30000E94D7520C94D430873FA1E09A0711F41A
:104A40000C94F12F0CF04BC0843AE1E09E0711F476
:104A50000C94072F0CF5823921E0920711F40C9485
:104A6000F52E6CF48039A1E09A0711F40C94E82E2D
:104A70008139914011F40C94EB2E0C94BD308A399D
:104A8000E1E09E0711F40C94D4308C39914011F47C
:104A90000C94FC2E0C94BD30843F21E0920711F45D
:104AA0000C94EB2F6CF4853AA1E09A0711F40C9466
:104AB0000A2F863E914011F40C947F2F0C94BD3048
:104AC000853FE1E09E0711F40C94EE2F863F914064
:104AD00011F00C94BD300E9422A10C94D4308E3B76
:104AE00022E0920711F40C948C301CF58835A2E07A
:104AF0009A0711F40C9412306CF4883FE1E09E07A1
:104B000011F40C94F92F8C30924011F40C940A306B
:104B10000C94BD308B3522E0920711F40C941530C3
:104B20008D3B924011F00C94BD300F946F0C0C949F
:104B3000D430803AA3E09A0709F408C26CF48335B4
:104B4000E3E09E0711F40C948F308C36934011F4FF
:104B50000C94D4300C94BD30873E23E0920711F4BE
:104B60000C949230893E934011F40C94A0300C9434
:104B7000BD3080E50E94C545882329F00E94CF6F93
:104B80006B017C0103C0C12CD12C760183E50E940E
:104B9000C545882361F00E94454520E030E04AE7A2
:104BA00054E40F9429620F943A6A6B017C010E94CD
:104BB00068FA8091AE049091AF04009721F061E013
:104BC0000F94311905C060E08EE598E00F947A18D3
:104BD00080911F0490912004892B19F066E578E0FC
:104BE00002C06EE478E020E030E041E951E382E089
:104BF0000E94A16A40E0C701B6010E947D400E9468
:104C0000BAEB0C94D4308091220484FF02C00C943F
:104C1000B1338091240487FF02C00C94B13380919A
:104C20002504837011F00C94B1330C94CD3389E8D2
:104C300098E00E943F6A8AE393E10E94F4C78BE107
:104C4000EAE3F3E1DE01119601900D928A95E1F716
:104C500060E070E0CE0101960E9409F4CE01019659
:104C60000E9456C98AE798E00E943F6A0C94D430AB
:104C70000E94F4F20C94D430E091AE04F091AF04B1
:104C80008081882329F0803209F410823196F8CF90
:104C900060E08091AE049091AF040E94B6F510924E
:104CA00036100C94D4308091760E8823F9F080E091
:104CB00090E0A0EAB1E488A399A3AAA3BBA31C8EA9
:104CC0001D8E1E8E1F8E19821A821B821C8200E08E
:104CD00010E020E0AE01405E5F4FBE01645E7F4F9A
:104CE000CE0101960E9473510C94D4300E943B3641
:104CF000882321F00E9446F20E945F3661E08FE136
:104D00009AE30E944E6A47EE59E36AE978E085E04B
:104D10000E94E1EC0E94BAEB0C94D43080916815AB
:104D200083FD02C00C94D43083E50E94C5458111F7
:104D30000C94DB330C94D43083E40E947C458823AC
:104D4000C1F180EB98E00E943F6A8091E4128823D1
:104D500039F1BE016F5F7F4F81EE92E10E945CC925
:104D60008E010F5F1F4FD8018D918D01882319F09F
:104D70000E94BD38F8CFCE0101960E9438F580918F
:104D8000D707882389F080E20E94BD3807ED17E03D
:104D9000F80181918F01882339F00E94BD38F8CF46
:104DA00086EA98E00E943F6A8AE00E94BD380C942F
:104DB000D43083E50E94C545882309F10E941D4532
:104DC000182F90E0CD970CF01CE3109324030F9460
:104DD0007B4B6B017C01212F30E0A8EEB3E00F94F8
:104DE0006D68C60ED71EE81EF91EC0922003D09231
:104DF0002103E0922203F09223030C94D4300E940A
:104E00000EF20C94D430809168158E7F80936815D3
:104E10000C94D4308091681583FD02C00C94D4307A
:104E20000F94EA448091681583FD02C00C94D4303D
:104E30004091AE045091AF04BE01645E7F4F80E0AC
:104E40000F9410418C01009711F40C94D4306C8DA8
:104E50007D8D19821C8222E0AC01CE0101960E9458
:104E60001ACD811102C0F12C14C0CE0101960F940D
:104E70007E408823C1F361E0CE0101960E94FEC806
:104E8000009789F325EEDC012C931C820E94ADC4AF
:104E9000F82ECE0101960E9456C9B801FF2099F064
:104EA00087ED98E00E94A76B8AE00E94BD381092BF
:104EB00064151092651510926615109267150E9480
:104EC000C1F00C94D4308FEB98E00E94A76B82E67F
:104ED00097E10E943F6A0C94D4308091681582FD5E
:104EE0000E9468FA8091681583FD02C00C94D4304A
:104EF00060E080E50E94E145182F682F8091AE04A4
:104F00009091AF040E94B6F583E50E94C5458823C1
:104F100081F00E940D45AB01BC0140936415509394
:104F20006515609366157093671581EE92E10E9496
:104F30005DC70E9446F211110C94D4300E945F3676
:104F40000C94D4300E9422590C94D4302091AE0499
:104F50003091AF0490916815926090936815C901E3
:104F60000E9466F50C94D4300E94C3710C94D43026
:104F700080E50E947C45882311F40C94D4300E9473
:104F80001D4590E08536910510F084E690E0809311
:104F900036100C94D4300F94C6120C94D4300E9466
:104FA0005DF90C94D43060E070E083E50E94D24556
:104FB0008E34910531F40E94CEF90E94BAEB0C9424
:104FC000D43088E499E00E943F6A60917005709146
:104FD00071058FE399E00E947C6B6091720570917E
:104FE000730582E399E00E947C6B6091700570917B
:104FF00071058091720590917305681B790B809102
:105000001908815021E030E0823010F020E030E0DB
:10501000621B730B87E299E00E947C6B8AE00E941E
:10502000BD3888E499E00E943F6A809174059091B0
:105030007505A0917605B09177058C8F9D8FAE8F09
:10504000BF8FBE016F5F7F4FCE014C960E944358C9
:10505000BE016F5F7F4F8AE199E00E94A76B80914C
:10506000780590917905A0917A05B0917B058C8F98
:105070009D8FAE8FBF8FBE016F5F7F4FCE014C966D
:105080000E944358BE016F5F7F4F8AE099E00E9403
:10509000A76B20E030E04AE754E460917C05709112
:1050A0007D0580917E0590917F050F94C169AB01CC
:1050B000BC0182EF98E00E94896B8DE60E94BD38AA
:1050C0008AE00E94BD380C94D4308091280E83FF72
:1050D00002C00C94D4300F94630B87FF02C00C9471
:1050E000D43089E40E94C545882311F40C94EC3334
:1050F0000E941D4590E01816190614F481E090E016
:1051000026E0289FF001299FF00D1124E95CF04F63
:10511000808191810C94F6338091280E83FF02C028
:105120000C94D4300F94630BF82E87FF02C00C94BC
:10513000D43089E40E94C545082F882311F40C94CB
:10514000FF330E941D4590E01816190614F481E003
:1051500090E026E0289FF001299FF00D1124E95CE2
:10516000F04F8081918110E00C940F340F94630B09
:10517000182F87FD0AC08FEA91E10E943F6A812FB4
:105180000E94F0AF8AE00E94BD38BCA9B093C60768
:105190000C94043560E080E50E94B771F82EE1E0E0
:1051A000E81710F40C94D43081E40E947C458823E5
:1051B00029F060915208062F10E002C00FEF10E0B6
:1051C00089E40E94C545882399F00E941D4590E01E
:1051D0001816190614F481E090E026E0289FF001EB
:1051E000299FF00D1124E95CF04F0481158108C05E
:1051F00083E50E94C545882319F00E940D458B0167
:10520000EF2DF0E0EE5AF74FB8010F3F110519F0FE
:1052100010F06FEF70E06083C7C760E080E50E9428
:10522000B771823008F0C0C7E82FF0E0EE5AF74FB0
:105230001082BAC78EE40E94C545882309F4B4C71A
:105240000E940D456093AA047093AB048093AC0454
:105250009093AD04A9C783E50E947C45882331F073
:1052600060E083E50E94B7718093280E0E948A6CEB
:1052700085E599E00E943F6A8091280E882369F1B4
:10528000A8E8EA2EAAE0FA2E00E010E020E08091E3
:10529000280E90E0A0E0B0E0002E04C0B695A795DF
:1052A000979587950A94D2F780FF0EC0DD24D3949A
:1052B000D20E222319F08CE20E94BD38F7018591AD
:1052C00094910E943F6A2D2D0F5F1F4FF2E0EF0E69
:1052D000F11C05301105D9F667CD80E593E162CD6B
:1052E00083E50E94C545882371F00E941D45282F43
:1052F00030E02D3331051CF48093000255C78CE358
:105300008093000251C70E948A6C4091000250E0D5
:1053100060E070E08CE599E00E946B6B8AE00E948F
:10532000BD3842C78091280E83FD3EC789E40E94A4
:10533000C545882311F40C9459340E941D4590E012
:105340001816190614F481E090E026E0289FF00179
:10535000299FF00D1124E95CF04F828193810C9418
:1053600064348091280E83FD1FC789E40E94C545DF
:10537000882311F40C946B340E941D4590E018169C
:10538000190614F481E090E026E0289FF001299F9F
:10539000F00D1124E95CF04F8281938110E00C94B0
:1053A0007C3483E50E94C545882309F4FDC60E942C
:1053B0001D45182F90E0CD970CF01CE310932903A6
:1053C0000F947B4B6B017C01212F30E0A8EEB3E002
:1053D0000F946D68C60ED71EE81EF91EC0922503F5
:1053E000D0922603E0922703F0922803DDC60F94A3
:1053F000B40EDAC60E944BB50E945DF90E9479FA9C
:105400000E94363668EE73E080E090E00E947F698B
:105410000E94723660E081E899E00F947A18C4C661
:1054200080912F038F7E806280932F03BDC60F94DF
:10543000A710BAC683E50E947C45882309F4B4C648
:105440000F947B4B60935D0770935E0780935F07BB
:10545000909360070E94454520E030E04AE754E41D
:105460000F9429620F943A6A60932A0370932B0376
:1054700080932C0390932D0397C60F94630B87FDA5
:1054800093C69091220494FD04C09091240497FF48
:105490000AC0EEEDCE2EE2E0DE2EF9E2EF2EFEE0C7
:1054A000FF2E10E009C090912504937091F7682FAA
:1054B00081E00F94071178C6D6018D916D010E948D
:1054C000C545882309F46DC0133009F063C00E94FC
:1054D00045454B015C0120E030E040EA51E40F9487
:1054E000C36187FF4EC0A50194016091490E709180
:1054F0004A0E80914B0E90914C0E0F94C1692B0176
:105500003C019B01AC016091360870913708809195
:105510003808909139080F94296260933608709387
:1055200037088093380890933908A301920160915D
:10553000590E70915A0E80915B0E90915C0E0F94F3
:1055400029626093590E70935A0E80935B0E90936C
:105550005C0E6091460870914708809148089091D0
:1055600049080F94C861A30192010F9429620F9416
:105570003A6A60934608709347088093480890936E
:1055800049088092490E90924A0EA0924B0EB0921A
:105590004C0E07C00E944545F701648B758B868BC6
:1055A000978B1F5FF4E0EF0EF11C143009F084CFED
:1055B0000E9444FAF9C50E946962F6C58091AE0462
:1055C0009091AF04009741F0DC012C91222321F04F
:1055D00060E00F943119E8C50E94BAEBE5C5F80107
:1055E0008081282F2B7F213499F08035E9F4818147
:1055F00080538A30C8F498012E5F3F4F89012F5F96
:105600003F4FF80180818032C9F3915041F70CC0BF
:105610002181213349F4813421F0853461F741E05F
:10562000EACFFF24F394E7CF41110E948A6CFF2058
:1056300021F08FE899E00E943F6AC8010E94C839B2
:10564000B3C50F94EB06B0C581E0809381058093CC
:1056500080050F944207A8C510928105109280051D
:105660000F944207A1C560E070E083E50E94D24537
:10567000823038F00E94BA6B83E999E00E943F6A59
:1056800093C58C01112788E40E94C5458823E1F069
:105690000E9441458A3A910544F00E944145813F6C
:1056A000910534F40E94414505C08AEA90E002C0A9
:1056B00080EF90E026E0209FF001219FF00D112463
:1056C000E95CF04F9183808382E40E94C545882382
:1056D000D9F00E944145059744F00E9441458F361C
:1056E000910534F40E94414505C085E090E002C078
:1056F0008EE690E026E0209FF001219FF00D11241E
:10570000E95CF04F9383828386E40E94C545882339
:1057100009F44AC50E94414597FD09C00E944145D0
:105720008F3F910509F034F40E94414505C080E0A7
:1057300090E002C08FEF90E026E0209FF001219FD3
:10574000F00D1124E95CF04F958384832DC50F94EF
:10575000630B182F87FD28C500910D0F84E40E946C
:10576000C545882311F40C94A5340E9445456B016E
:105770007C0120E030E0A9010F94C361882341F14E
:1057800024E01202F0011124EE5EF04FC082D182BB
:10579000E282F38220E030E0A9016091120F709163
:1057A000130F8091140F9091150F0F94C361811105
:1057B0000CC080E090E0A0EEBFE38093120F9093C6
:1057C000130FA093140FB093150F01E00C94A534A0
:1057D00080E080930D0F0E94D8F7E6C40F94630B0E
:1057E00087FDE2C46EEDE62E62E0F62E09E21EE0D1
:1057F00079E3C72E7EE0D72ED7018D917D010E94DF
:105800007C45882359F00E9445450F943A6AF80177
:1058100060837183828393830E94FDF90C5F1F4F25
:10582000C016D10649F7C0C40F94630B87FDBCC4F2
:105830005EEDE52E52E0F52E09E21EE0D7018D91D6
:105840007D010E947C45882339F00E944545F8017E
:1058500064A375A386A397A30C5F1F4FFEE00933D3
:105860001F0761F7A1C40F94C6119EC40F94421183
:105870009BC483E50E94C545882331F00E944145C1
:10588000909362028093610280912204909123049C
:10589000A0912404B0912504892B8A2B8B2B09F02D
:1058A00083C4609161027091620285EB99E00E946D
:1058B0009A6B85E20E94BD388AE00E94BD3874C4AC
:1058C0000F94630BF82E87FD6FC483E50E94C545D6
:1058D0000F2D0F2C000C110B882369F10E944145FC
:1058E000F801EE0FFF1FEA5CFD4F91838083000FEC
:1058F000111F000F111F9801205D3D4F7901BC0160
:10590000990F880B990B0F94CA612AE037ED43E297
:105910005CE30F942962F801E25FF04F208131814E
:10592000428153810F942962D7016D937D938D93AA
:105930009C93139739C40E948A6C85E40E94BD38F9
:1059400080E38F0D0E94BD38000F111FF801EA5C43
:10595000FD4F6081718189EB99E00E949A6B85E22D
:105960000E94BD388AE00E94BD381EC480E50E94B6
:105970007C45882309F418C460E070E080E50E944B
:10598000D245F82E6FEF7FEF83E50E94D2458C0160
:105990000196039708F008C4F7FC06C48F2D0E94F7
:1059A0001136882339F00E94BA6B81EC99E00E948D
:1059B0003F6AFAC30E9468FA60E08F2D0F943C4A58
:1059C0000F3FBFEF1B0731F00130110571F000E010
:1059D00010E00DC08F2D0F946B5C31E020E0892B1F
:1059E00009F030E0032F122F02C001E010E08F2DEC
:1059F0000F946B5C8017910709F4D6C380E00E9476
:105A0000E939F5CF80E50E947C45882309F4CCC3B1
:105A10000E9441458C01892B09F07FC083E50E94DB
:105A20007C45882389F00E9441458F3FEFEF9E0718
:105A300029F482EC93E10E947536B6C3BC0182EC76
:105A400093E10E944537B0C30E948A6C60E070E029
:105A500080ED99E00E949A6B8091C41328E532E0B2
:105A60006901C81AD10887FDD394CC0CDD1CCC0C7D
:105A7000DD1C0D2C000CEE08FF088091C31328E8F4
:105A800030E04901881A910887FD9394880C991C8D
:105A9000880C991C092C000CAA08BB088091C21321
:105AA0008F3FC1F090E0FC01EE0FFF1F8E0F9F1F94
:105AB000FC01EB5AFC4E2181328113E0220F331F8F
:105AC0001A95E1F704E0369527950A95E1F72E5FE0
:105AD0003F4F02C020E030E02F5F3F4FC901330F3E
